:020000040800F2
:10000000582400209D010008D71D0008A90E0008F3
:10001000D51D000841020008FF560008000000003E
:10002000000000000000000000000000C3380008CD
:100030006D0B000800000000891E0008A1390008AF
:10004000B7010008B7010008B7010008B7010008B0
:10005000B7010008B7010008B7010008B7010008A0
:10006000B7010008B7010008B7010008B701000890
:10007000B7010008B7010008B7010008B701000880
:10008000B7010008B7010008B7010008B701000870
:10009000B7010008B7010008B7010008B701000860
:1000A000B7010008B7010008B7010008B701000850
:1000B000B7010008B7010008B7010008B701000840
:1000C000B7010008B7010008B7010008B701000830
:1000D000B7010008B7010008B7010008B701000820
:1000E000710B0008B70100085D1E0008B701000889
:1000F000B7010008B7010008B7010008B701000800
:10010000B7010008CD260008B7010008B7010008B4
:10011000B7010008B7010008B7010008B7010008DF
:10012000B7010008B7010008B7010008B7010008CF
:10013000B7010008B7010008B7010008B7010008BF
:10014000B7010008B7010008B7010008511E0008F8
:10015000B7010008B7010008B7010008B70100089F
:10016000B7010008B7010008711E0008651E0008ED
:10017000B70100087D1E0008B7010008B70100089C
:10018000B7010008B7010008DFF80CD000F018F83C
:10019000004800479D570008582400200648804723
:1001A00006480047FEE7FEE7FEE7FEE7FEE7FEE75C
:1001B000FEE7FEE7FEE7FEE7FD39000889010008DB
:1001C000064C074D06E0E06840F0010394E80700A4
:1001D00098471034AC42F6D3FFF7DAFF747C00087E
:1001E000947C000870B501EB020410F8015B15F077
:1001F000070301D110F8013B2A1106D110F8012B99
:1002000003E010F8016B01F8016B5B1EF9D12B07BD
:1002100005D40023521E0FD401F8013BFAE710F871
:10022000013B02F10202A1EB030303E013F8015BBF
:1002300001F8015B521EF9D5A142D6D3002070BD52
:10024000FEE7000070B5374905460024086810F045
:10025000450FFBD0410702D50324042003E0C0076B
:1002600004D00124204602F0CBF959E002F004FA50
:10027000A8422BD140F2FF5002F0C2F9002002F058
:100280001DFA294908424BD0002801DA1C2070BD14
:10029000410001D5092070BD810001D50A2070BD43
:1002A000C10001D50B2070BD010101D50C2070BD2E
:1002B000410101D50D2070BDC10101D50E2070BDD9
:1002C000010201D50F2070BD410201D5102070BD83
:1002D000810201D5112070BDC10201D5122070BD6F
:1002E000010301D5132070BD410301D5142070BD59
:1002F000810301D5152070BDC10301D5162070BD45
:10030000010401D5172070BD410401D5182070BD2E
:10031000810401D5192070BD000701D51A2070BDD8
:10032000204670BD342C014008E0FFFD10B50B489D
:100330000024016811F0450FFBD0480702D50324C3
:10034000042003E0C80705D00124204602F058F934
:10035000204610BD40F2FF50F8E70000342C014069
:1003600070B50C46194906460025086810F0450F7F
:10037000FBD0410702D50324042003E0C00705D0C9
:100380000124204602F03CF9204670BD02F074F9C9
:10039000B04213D140F2FF5002F032F9002002F0D7
:1003A0008DF910F4604F03D0810405D5132070BD82
:1003B0004FEA1040208007E0410401D5102070BDB5
:1003C000000401D50F2070BD284670BD342C0140BB
:1003D00010B50A460C0601F07F0303EB830100EB26
:1003E000C10102D501F58E7101E001F55D71D209FF
:1003F0000B704A7004F06FFF002010BD0A4610B564
:10040000090602F07F0306D503EB830100EBC1016F
:1004100001F58E7105E002EB820100EBC10101F5EF
:100420005D7100248C700B70D2094A7004F03AFFA1
:10043000002010BD10B50A0604D501F07F0105F0BB
:1004400067F801E005F048F8002010BD70B50C46D3
:100450000E0601F07F0505EB850100EBC10102D519
:1004600001F58E7101E001F55D71E4090D704C70CC
:100470008A60CB7000D0CD80022B01D100220A719E
:1004800004F0DCFE002070BD10B501F07F0404EB29
:10049000840100EBC10101F55D714B61CA6000236D
:1004A0008B614B700C70C378012B00D10A6114F082
:1004B000FF0F03D004F04EFF002010BD04F050FEEB
:1004C000FAE70069002261F30A1201681143016032
:1004D00070470A4610B5090602F07F0306D503EB04
:1004E000830100EBC10101F58E7105E002EB820191
:1004F00000EBC10101F55D7101248C700B70D20914
:100500004A7004F00FFF002010BD70B511F07F0499
:1005100004EB840100EBC10101F58E714FF0010580
:100520004D700C70CA600A614FF00002C1E90532DB
:1005300003D004F00FFF002070BD04F011FEFAE7B5
:100540002DE9F0410646002505F029F8074655E05B
:10055000F80751D03069EAB20369416BD14006EB2C
:10056000820201F00101926943EAC11194680C40D2
:10057000E1071AD00124426B04FA05F18A43426371
:1005800006EB8500806984601F48E9B20068426814
:1005900030469047F078012807D135B996F8110117
:1005A000042802D1304604F037FE200704D506EBBC
:1005B0008500082480698460E00604D506EB850088
:1005C000102480698460600604D506EB8500402411
:1005D00080698460A00704D506EB85000224806949
:1005E0008460200608D52946304600F068F906EBFD
:1005F00085018020896988606D1C7F08002FA7D144
:100600000120BDE8F0810000FC0000202DE9F04150
:100610000646002404F0C9FF0746DFF8988043E04F
:10062000F8073FD0E1B2304604F0C5FF0546C007E9
:1006300025D006EB84000125416D8D60F1780129FC
:100640000CD1406D016904EB840006EBC000C1F3DE
:100650001201D0F87C23511AC0F88C13D8F800008E
:10066000E1B2026830469047F078012807D134B9EA
:1006700096F81101052802D1304604F0CDFDA807F7
:1006800004D506EB84000225406D8560280709D556
:10069000D8F8000081683046884706EB84010820BE
:1006A000496D8860641C7F08002FB9D10120BDE826
:1006B000F0810000FC00002070B50646C06881692A
:1006C00021F010018161F068056A05F00F0000EB70
:1006D000800006EBC004C5F3434004F55D740728B1
:1006E00021D2DFE800F0202004202020150047F66A
:1006F000F070054217D0C5F30A152A463046E16866
:1007000004F061FFE0682844E060A069284409E043
:10071000082206F2CC51304604F055FFA069C5F31B
:100720000A110844A061F068816941F010018161FB
:10073000012070BD38B5044600208DF8000094F803
:1007400012018DF80000154800684169204688476D
:1007500020698068E2684FF400615161A17AD1B1EB
:10076000C00718D094F81501012814D19DF8000095
:10077000032810D1D4F80C01016841F00101016097
:10078000D4F80C01016841F00301016004480168DC
:1007900041F006010160012038BD0000FC0000208E
:1007A00010ED00E070B5044600690025012641689F
:1007B00021F0010141602946204604F0A9FE0020F5
:1007C000FF2106E004EB800293699960526D91600D
:1007D000401C62788242F5D821694FF0FF30886171
:1007E0002846216966F30F0066F31F40C86121693E
:1007F00045F00B0048612169C1F88400216945F08A
:100800000B000861216948642069016821F4FE61D8
:100810000160204604F000FDE1684FF4805048611B
:1008200003480068016920468847012070BD000028
:10083000FC00002070B5044604F0D6FE012200231F
:1008400084F8122184F81431194640250EE000BFC7
:1008500001EB810004EBC00000F58E704270017066
:10086000C180C370C0E90253491C4361607888426B
:10087000EED800210EE000BF01EB810004EBC002C6
:1008800002F55D7253701170D180D370C2E90253CA
:10089000491C536160788842EED8204604F03AFC47
:1008A000204604F0FDFA0021204604F0FFFE204619
:1008B00004F036FB2046BDE8704004F005BE2DE98B
:1008C000F0470D46064601EB850006EBC00404F533
:1008D0008E74D4E90501421AA068904200D2024603
:1008E000D21C970806EB850917E0A0EB0108A06869
:1008F000404500D2804608F1030087081FFA88F3BC
:10090000EAB23046E16804F0E6FEE16801EB080077
:10091000E060A16901EB0800A061D9F818008069C6
:1009200080B2B84205D9D4E90501814201D200283C
:10093000DBD10120BDE8F087074A904201D2074889
:1009400001E005481038064A8B0001EA020101D592
:10095000C1607047816070471064024000600240CF
:100960007D0F7D0F0029016802D041F0010101E0F7
:1009700021F00101016070472DE9F043016821F089
:10098000010101600021016041608160C16001617D
:10099000212141613C493C4A3D251039904202D118
:1009A0008D60BDE8F083384A4FF474661832904287
:1009B00001D18E60F5E7344A4FF47417303290421B
:1009C00001D18F60EDE7304A4FF0746C48329042AD
:1009D00002D1C1F808C0E4E72B4B2C4A603398429F
:1009E00001D1CA60DDE7284C294B7834A04201D1FF
:1009F000CB60D6E7DFF89080264C08F190084045A0
:100A000001D1CC60CDE7DFF880804FF03D5908F18F
:100A1000A808404502D1C1F80C90C2E71E49DFF892
:100A200078800839404501D10D60BAE71A4D183574
:100A3000A84201D10E60B4E7174D3035A84201D16C
:100A40000F60AEE7144D4835A84202D1C1F800C08E
:100A5000A7E7114D10496035091FA84201D10A606E
:100A60009FE70D4A7832904201D10B6099E70A4A1C
:100A70009032904201D10C6093E7074AA83290422D
:100A80008FD1C1F800908CE7106002403D0000203B
:100A9000400F002000003D20106402400029016842
:100AA00002D041F0200101E021F0200101607047F7
:100AB0000246094B00209A4201D2084A01E0064A48
:100AC000103A8B0001D5526800E01268044B1A40BE
:100AD0000A4200D0012070471064024000600240CA
:100AE0007D0F7D0F10B50C0601F01E0304D54AB131
:100AF000446944F08004446180290CD042B101680B
:100B0000194307E0426922F080024261802902D045
:100B100001689943016010BD30B50368124ACC6882
:100B200013400A682243D1E905452C432243CC698E
:100B300022430C6A22434C6A22438C6A22434C6B48
:100B400022438C6B22431A430260426922F007035E
:100B5000D1E90B2422431A4342610A6942604A6880
:100B600082608968C16030BD3F801CF07047000022
:100B700010B54FF40044204600F014F8002807D0C8
:100B8000044804F04CF82046BDE8104000F004B8DA
:100B900010BD0000100300200149086070470000EC
:100BA000143C0140064A014600201268044B0A40EA
:100BB00014331B680B4202D0002A00D0012070477A
:100BC000003C01404FF0204202EB80000029016808
:100BD00002D041F0010101E0014A1140016070477B
:100BE000FEFF0F0030B5D0E901121143D0E9032315
:100BF0001A43114342690368114382691143C26970
:100C00001143026A1143426A1143826A1143C26A64
:100C10001143026B11434FF0204242F823108168C8
:100C2000082906D1016802EB81010B6843F04003FB
:100C30000B60416BD1E9003443EA04138C688D8961
:100C4000240244EA054423430C8A43EA04530C7DFE
:100C5000896943EA04630B43016802EB81014B603D
:100C6000C16AB1F5804F07D000686FF0704102EBA8
:100C70008000C0F8041130BD816B0068D1E90034F8
:100C800043EA04138C680D8A240244EA0554234382
:100C90000C7D896943EA046302EB80000B43C0F8D2
:100CA000043130BD2DE9FC5F0025484C00954FF420
:100CB000806801954027C4F81080C4E902750E468B
:100CC0004FF0080B1021C4E900B1A946204601F0FD
:100CD00027FD1020FFF7B6FA002841D13C48BA465C
:100CE0004F460089000420603720C4E9010AC4E9A6
:100CF0000398204601F014FD3720FFF7A3FA0028DF
:100D00002ED1411E04F11400C0E9001B3021816086
:100D10000221C0E903170121416101F089FC332060
:100D2000C4F808A0C4E90070C4E90378204601F0C3
:100D3000F7FC3320FFF786FA040011D1254F4FF45A
:100D4000001AE94640F22A68386810EA080F09D00C
:100D5000082001F097FC80B1082001F051FC04202C
:100D6000BDE8FC9F504601F08DFC0028ECD001F05E
:100D7000D1FC49F825006D1CE6E7022001F082FC59
:100D800020B1022001F03CFC0220E9E7202001F024
:100D900079FC20B1202001F033FC0620E0E74FF47D
:100DA0000075284601F06EFC20B1284601F028FCB1
:100DB0000720D5E740F2FF5001F022FC009800BA6E
:100DC0007060019800BA30602046C9E728200020F2
:100DD00080020020342C0140F0B5002301240327B9
:100DE0000D6804FA03F21540954242D1D0F800C0D4
:100DF0005E0007FA06F52CEA050CC0F800C091F871
:100E000004C0D0F800E00CFA06FC4CEA0E0CC0F866
:100E100000C091F804C0BCF1010F02D0BCF1020F78
:100E20001FD1D0F808C02CEA050CC0F808C091F812
:100E300005C0D0F808E00CFA06FC4CEA0E0CC0F82D
:100E400008C0D0F804C02CEA020CC0F804C0426804
:100E500091F806C00CFA03FC1FFA8CFC42EA0C0263
:100E60004260C268AA43C260CA79C568B2402A43D8
:100E7000C2605B1C102BB3D3F0BD4B07DB0E9A4056
:100E8000C90810B500EB8100016A0F249C40A14302
:100E90000162016A1143016210BD0246002012691D
:100EA0000A4200D001207047FEE702460020938AE4
:100EB000128B43EA024323F07F42914300D1012089
:100EC00070470029818802D041F4006101E021F4DB
:100ED0000061818070470029818802D041F48051EF
:100EE00001E021F48051818070470029018802D0FF
:100EF00041F4807101E021F4807101807047002984
:100F0000018802D041F4007101E021F400710180F8
:100F100070470CB50246002000920A0F21F07F4175
:100F2000019202D0009A143202E0009A090C1832A1
:100F3000009212680A4200D001200CBD7FB5044621
:100F400080880D4620F03F06684600F0F3FF2649F2
:100F50000298B0FBF1F189B20E43A680228822F0FC
:100F600001022280214B2A689A421BD85200B0FB12
:100F7000F2F080B2042800D20420491C2184A0830E
:100F8000208840F00100208021884FF6F530014094
:100F9000A8886A89104308432080A88929890843C2
:100FA00020817FBDEB88A3F53F46FF3E05D102EBD4
:100FB0004202B0FBF2F080B208E002EBC20303EBA6
:100FC0000212B0FBF2F080B240F48040020501D181
:100FD00040F001004FF4967251434FF47A72B1FB26
:100FE000F2F140F40040C8E740420F00A086010043
:100FF0002DE9F84F8246002089460090694601207D
:1010000000F0D6F9504D01212846FFF764FF012179
:101010002846FFF76AFF4D4C4FF440564C4F266070
:1010200004E02068401E2060401C7CD039462846E1
:10103000FFF76FFF0028F4D000225146284600F049
:101040008FF8DFF81081266004E02068401E2060E1
:10105000401C77D041462846FFF727FF0028F4D0F0
:101060004946284600F084F8DFF8E480DFF8E09095
:1010700008F17F0809F10309266004E02068401E9A
:101080002060401C5ED041462846FFF742FF28B949
:1010900049462846FFF73DFF0028EFD001212846AA
:1010A000FFF723FF266004E02068401E2060401CFC
:1010B00048D039462846FFF72CFF0028F4D00122FB
:1010C0005146284600F04CF82660234E04E0206884
:1010D000401E2060401C35D031462846FFF7E5FE13
:1010E0000028F4D001212846FFF7EBFE1B4E01211A
:1010F0003046FFF737FC164F4FF4C0401F372060D3
:1011000004E02068401E2060401C1BD03946304659
:10111000FFF7CEFC0028F4D001212846FFF7EFFEB0
:101120000021304600E00DE0FFF71CFC00212846BE
:10113000FFF7C7FE39463046FFF7FEFB9DF800007B
:10114000BDE8F88F0220FBE700540040C4020020F5
:10115000010000108200070002000300106002403E
:1011600012B141F0010101E001F0FE01018270477E
:10117000018270472DE9F84F8A46814600278DF895
:1011800000206946384600F013F9414D01212846F8
:10119000FFF7ABFE3F4C4FF44056DFF8FC80266073
:1011A00004E02068401E2060401C6FD04146284665
:1011B000FFF7AFFE0028F4D0002249462846FFF78B
:1011C000CFFFDFF8D880266004E02068401E206052
:1011D000401C5BD041462846FFF767FE0028F4D04C
:1011E00051462846FFF7C4FFDFF8AC80DFF8A8902F
:1011F00008F17F0809F10309266004E02068401E19
:101200002060401C42D041462846FFF782FE28B9A4
:1012100049462846FFF77DFE0028EFD001212846E9
:10122000FFF74FFEDFF8788001214046FFF79AFB79
:1012300026604646DFF86C8004E02068401E20608F
:10124000401C23D041463046FFF732FC0028F4D042
:101250004FF4C04020604C4621462846FFF759FE17
:101260000028F9D001212846FFF749FE0021304629
:10127000FFF778FB00212846FFF723FE4146304662
:10128000FFF75AFB3846BDE8F88FFFE70220FAE780
:1012900000540040C402002001000010820007003A
:1012A000A0600240000020201FB500F0CBF8002015
:1012B000ADF80400ADF808004FF48060ADF80A0006
:1012C0000001ADF80C004BF6FF713748ADF8061081
:1012D000009069463548FFF731FE822000F048F95A
:1012E00010B1042004B010BD882000F041F908B10D
:1012F0000520F7E7822000F07BF9882000F078F9DC
:1013000001220721822000F08BF801221146822061
:1013100000F01BF901221146822000F0DFF80021C5
:10132000012000F0F5F900220C21882000F00DF9D1
:1013300001220C21882000F0D1F803220C21882002
:1013400000F0DEF800F064F901220D21882000F0A1
:1013500067F801220421882000F0F7F8002201211B
:10136000882000F0F2F801220521882000F0B6F86C
:101370000021042000F0CCF90021012000F0C8F980
:101380000022F821882000F0E0F80122F8218820CE
:1013900000F0A4F80322F821882000F0B1F800F052
:1013A00095F900209EE70000A0860100005400404F
:1013B00030B50D46044601218FB0480500F066FDAA
:1013C0004FF0007000901448CDE901050021001590
:1013D000CDE905100420CDE90A1007910891099183
:1013E0000C910D910E91012C0FD0002C0BD14020AF
:1013F00003900120094C04902046FFF7BDFA69468E
:101400002046FFF789FB0FB030BD0220034CCDE929
:101410000310903CF0E7000010540040A060024030
:1014200070B50C46164605460421FFF7E1FD0EB1E6
:10143000A04300E02043024604212846FFF79AFE1D
:10144000002070BD7CB501214C05204600F042FD16
:1014500001214FF4817000F019FD0121880300F093
:1014600051FD0121204600F041FD0021204600F001
:101470003DFD184D042206212846FFF7FEFC0422FC
:1014800009212846FFF7F9FC022140208DF80410BD
:1014900000908DF8051001208DF8060000248DF8CD
:1014A000074069462846FFF797FC68150090694693
:1014B0002846FFF791FC042000908DF804408DF839
:1014C000074069460448FFF787FC0221082002F024
:1014D000F9F97CBD000402400020024070B50C46C2
:1014E000164605461721FFF783FD0EB1204300E0A5
:1014F000A043024617212846FFF73CFE002070BD9E
:101500002DE9F0410D46164607461621FFF770FDFE
:10151000044615213846FFF76BFD20EA050124EA51
:1015200005020C46F00700D02A43B00701D541EA76
:10153000050416213846FFF71DFE224615213846C0
:10154000FFF718FE0020BDE8F08170B50C46164686
:1015500005461321FFF74CFD0EB1204300E0A043E8
:10156000024613212846FFF705FE002070BD00004B
:1015700010B500F02EF8A0F50061113906D004482E
:10158000006808B1012010BD022010BD002010BD70
:10159000C402002010B512218820FFF729FD1F2169
:1015A000B1EBD00F13D0010601D4012010BD4106CC
:1015B00001D4022010BD810601D4032010BDC10654
:1015C00001D4042010BD000701D4052010BD002067
:1015D00010BD70B505460021FFF70AFD4FF6FF71FB
:1015E00001EA002401212846FFF702FD204370BDD7
:1015F00010B5044602220321FFF7BCFD022004F0CF
:10160000A7F8002203212046FFF7B4FD002010BDFB
:1016100010B504218220FFF7EBFC20F00302042127
:101620008220FFF7A7FD0A218220FFF7E1FC40F0AE
:1016300007020A218220FFF79DFD492220218220F6
:10164000FFF798FD022004F083F801222121822077
:10165000FFF790FD17218220FFF7CAFC20F01E0241
:1016600017218220FFF786FD9A2241218220FFF771
:1016700081FD01224A218220FFF77CFD01224B21BE
:101680008220FFF777FD00224B218220FFF772FDB9
:10169000012256218220FFF76DFD01225821822070
:1016A000FFF768FD012240218220FFF763FDFF2242
:1016B0000B218220FFF75EFD03480021C18081805D
:1016C00041800180084610BDD402002008B50020EA
:1016D0008DF8000004218820FFF78AFC8DF80000B7
:1016E0009DF8000020F009008DF800009DF8002012
:1016F00004218820FFF73EFD012260218820FFF7AA
:1017000039FD032260218820FFF734FD002008BD49
:1017100010B5C20701D0822303E010F0050F08D0F6
:101720008823024639B110211846FFF723FD002017
:1017300010BD032010BD1121F6E730B50546002489
:1017400040F23F11204600F0FDF94FF0D041222039
:1017500008804FF496304D80641C8442FBD330BD2A
:1017600070B5064640F23F14084D08E0202221469D
:10177000304600F0A7F868688088201A84B269684B
:10178000601C80B289888842F0D270BDDC020020E3
:101790001CB50121782000F079FB4CF233700090E9
:1017A00002208DF804008DF8050000208DF8060059
:1017B000404C8DF8070069462046FFF70DFB0C22D0
:1017C00000212046FFF759FB0C2201212046FFF79C
:1017D00054FB0C2204212046FFF74FFB0C2205216D
:1017E0002046FFF74AFB0C2208212046FFF745FB65
:1017F0000C2209212046FFF740FB0C220A2120463B
:10180000FFF73BFB0C220E212046FFF736FB0C2294
:101810000F212046FFF731FB4FF68070264C0090D9
:1018200069462046FFF7D8FA0C2207212046FFF729
:1018300024FB0C2208212046FFF71FFB0C22092164
:101840002046FFF71AFB0C220A212046FFF715FB62
:101850000C220B212046FFF710FB0C2211462046DC
:10186000FFF70BFB0C220D212046FFF706FB0C2295
:101870000E212046FFF701FB0C220F212046FFF727
:10188000FCFA01200D4C009069462046FFF7A4FAAF
:101890000C2200212046FFF7F0FA2015084C00909A
:1018A00069462046FFF798FA0C220A212046FFF7E6
:1018B000E4FA1CBD000C024000100240001402407B
:1018C00000180240064B10B45B68203AD2B21C6884
:1018D000DB88534304EB430210BC00F01FB8000048
:1018E000DC020020F0B50D46074640F23F140A4ED8
:1018F00008E021463846FFF7E5FF70688088201A27
:1019000084B26D1C2A78002A05D07168601C80B2F0
:1019100089888842EDD2F0BDDC0200202DE9F04339
:10192000904689460026054600F00CF94FF0D04756
:10193000184C29E02220388000201BE00C23B1FB4A
:10194000F3F34FEAC30C802303FA0CF338F816C004
:10195000034113EA0C0F01D10C2906D9012383405E
:101960001CEA030F03D10C2901D9618800E021880A
:101970007980401C91888142E0D86D1CADB2494607
:10198000284600F0DFF8761C6268D088B042D1D8D3
:10199000BDE8F083DC02002000B5012197B00846C5
:1019A00000F08CFA05200F9000200921CDE91001EC
:1019B000149004211590CDE9001012901021CDE96A
:1019C0000201139004900590069009020790CDE95A
:1019D00008010A900B900C900FA80D900E9068468D
:1019E000FFF700F901210420FFF7ECF817B000BD64
:1019F0000148406870470000DC02002008484FF6AC
:101A0000FF7181800021C180018141818181C1817B
:101A10000122027041708170C17001827047000024
:101A20005802002010B5FFF7E9FFBDE81040002084
:101A3000FFF783BE70B505468AB01F2000F07AF824
:101A4000FFF7D6FF0446002069464FF4A07220231A
:101A500002E00B54401CC0B2A688B2FBF6F6761E1C
:101A60008642F6DCA088B2FBF0F00844002100F8C2
:101A7000011CE0886946C0F1F00080B2FFF732FF38
:101A8000E0882946C0F1F00080B2FFF72BFF00206C
:101A900000F050F80AB070BD70B588B00021034660
:101AA00000E0491C13F8012B002AFAD11A2900D9A9
:101AB0001A21002220246B469C54521C1B2AFBD363
:101AC0000022C1F11B0404E0855C02EB5406521CA9
:101AD0009D558A42F8D30020FFF72FFE104800F0F2
:101AE0003DF8FFF785FF04464FF6FF75284600F0E6
:101AF0003BF81F2000F01EF80020FFF731FEE088C1
:101B00006946FFF7EFFEE08805EA4000FFF728FE90
:101B1000002000F00FF8034800F020F808B070BD76
:101B2000EC020020F40200204FF0D04108804888E9
:101B30007047000001B5BDF800000149488008BDAC
:101B4000DC0200200B4600B50146202000F014F80E
:101B5000194621205DF804EB00F00EB801494860F9
:101B600070470000DC02002001B5BDF8000001490B
:101B7000088008BDDC0200204FF0D0421080518068
:101B80007047000070B50E4905460E4C087B38B909
:101B9000886828B1607818B901212846FEF799FCB9
:101BA00081212846FEF795FC6078022807D1284657
:101BB000BDE870401F23024A0121FEF765BC70BDDD
:101BC000581F0020DC0100202DE9F041284C074679
:101BD00004F1200660687060A068B060012138469A
:101BE00002F0D8F8234D1F280AD1234920688842E3
:101BF00006D1617B012903D8A07B08B1102807D941
:101C0000607B2022052100F023FC0220687006E0A2
:101C1000174A38460F3200F0E9F9002804DA38464E
:101C2000BDE8F041FFF7AEBF287802281ED001289A
:101C30001CD003281AD0698891B1A3680F4A38468E
:101C40008B4200D219468BB2B168C91AB16000212B
:101C5000317304212970BDE8F0418121FEF755BCA4
:101C60003846BDE8F041002100F096B8BDE8F081AB
:101C7000581F0020DC01002055534243580F00201C
:101C800010B5094C6278022A08D009060BD5012A42
:101C900009D0BDE81040012100F07EB88121FEF797
:101CA00018FC0020607010BDDC01002010B5044657
:101CB0000C480078022805D0032801D0042810D150
:101CC000002109E0084800F10F02417B204600F0A6
:101CD0008DF9002805DA01212046BDE8104000F00A
:101CE0005BB810BDDC010020581F002010B5044671
:101CF0000C48007880B1012813D10B4800F10F0285
:101D0000417B204600F072F900280ADA2046BDE83F
:101D10001040012100F040B82046BDE81040FFF718
:101D200053BF10BDDC010020581F002001490020D6
:101D300008707047DC01002010B504460C480021F3
:101D4000017041700B48006801680020884701213C
:101D50002046FEF76FFB81212046FEF76BFB2046F5
:101D60001F23BDE81040044A0121FEF78DBB00008F
:101D7000DC01002058000020581F002004490022E8
:101D80001F230A7001224A70024A0121FEF77CBB20
:101D9000DC010020581F002010B50C4A04460A48F8
:101DA000106011730A4900200D230870812120461C
:101DB000FEF7ABFB054A20461F23203ABDE8104042
:101DC0000121FEF761BB000055534253781F0020EC
:101DD000DC010020FEE7704770B50F21C47802785F
:101DE00001234FF0E026E4B1124C246804F4E064CF
:101DF000C4F5E064C4F30724C4F10405E140447869
:101E0000AC4085780D4025430B4C290111550078D5
:101E100000F01F018B40400906EB8000C0F8003144
:101E200070BD02F01F008340500906EB8000C0F82F
:101E3000803170BD0CED00E000E400E00249084391
:101E400002490860704700000000FA050CED00E050
:101E5000014802F083BA0000100300204FF48020F4
:101E6000FEF79ABE014802F015BA000004090020EE
:101E7000014802F04BBA000004090020014802F0BA
:101E80006DBA00000409002070470000044A0029D0
:101E9000116801D0014300E08143116070470000E8
:101EA00030380240044A0029116801D0014300E0A3
:101EB000814311607047000034380240044A002911
:101EC000116801D0014300E08143116070470000B8
:101ED00038380240044A0029116801D0014300E06B
:101EE000814311607047000040380240044A0029D5
:101EF000116801D0014300E0814311607047000088
:101F000020380240044A0029116801D0014300E052
:101F1000814311607047000044380240044A0029A0
:101F2000116801D0014300E0814311607047000057
:101F30002438024070B5204A1168204C11F00C0181
:101F400004D01F4E042903D0082903D004601BE0ED
:101F5000066019E01849091F0B68C3F380550B6828
:101F600003F03F0315B1B6FBF3F301E0B4FBF3F369
:101F70000C680968C4F388146343C1F30141491C28
:101F80004900B3FBF1F1016011680F2303EA11115D
:101F90000C4B5C5C0168E14041601468072505EA70
:101FA00094241C5D21FA04F48460126805EA52321C
:101FB0009A5CD140C16070BD083802400024F40032
:101FC00040787D01FC0200201144074A00B5926868
:101FD000914206D92122052100F03AFA4FF0FF3054
:101FE00000BD002000BD0000C40100202DE9F0412B
:101FF0000B4601464F480024661E416117784E4D3E
:102000004E49232F6AD00FDC1A2F50D007DC4C48E2
:102010000068BFB1032F27D0122F11D12AE01B2F48
:1020200043D01E2F0CD140E02A2F69D004DC252F8D
:102030005AD0282F04D15DE02F2F67D05A2F41D0DE
:10204000202267E03F491F468A681AB1487B202258
:10205000052106E081681846884790B33A2202219C
:10206000384600F0F5F960E0BDE8F0411146184649
:1020700000F0BAB95678F60703D00720324B288013
:102080000CE0C06903EBC30300EB830312791879FA
:10209000401D824200D81046288003E0401E80B2D6
:1020A0001A5C0A540028F9D115E02C8013E00820AE
:1020B000264A2880401E0004000C135C0B54F9D102
:1020C00009E034E00820224A2880401E0004000C69
:1020D000135C0B54F9D12046BDE8F081BDE8F04116
:1020E0001146184600F048B9BDE8F04111461846BF
:1020F00000F00EB9BDE8F0411146184600F0B6B840
:10210000BDE8F0411146184600F0B8B9517889078A
:1021100003D5242205211846A3E7018A8AB2C168A3
:102120001846FFF751FF002801DA3046D4E72C802B
:102130000020D1E7C4010020DE010020580F00205C
:1021400058000020581F0020305800083758000859
:102150003F5800082DE9F0411B4D06464FF48050D2
:102160002C69844200D304466868B4FBF0F18BB25A
:10217000E968B1FBF0F21548154900680769304677
:10218000B847002808DA11220421304600F060F92F
:102190004FF0FF30BDE8F08123460D4A8121686988
:1021A000FEF7B3F9E8680B492044E8602869001B92
:1021B00028618A68A2EB04028A6002D106490320E2
:1021C00008700020E6E70000C4010020580000204D
:1021D000580F0020781F0020DC0100202DE9F0417D
:1021E0001E4C4FF4805706462569BD4200D33D463C
:1021F0006068B5FBF0F18BB2E168B1FBF0F2184812
:1022000018490068D0F814C03046E047002808DAC2
:1022100003220421304600F01BF94FF0FF30BDE8E7
:10222000F081E0682844E0602069461B0E48266182
:102230008168A1EB050181600AD0BE4200D33E4611
:10224000B3B2084A01216069FEF71EF90020E6E7F3
:1022500000216069FFF7A0FDF8E70000C40100203D
:1022600058000020580F0020781F00202DE9F0476B
:10227000224E81460F463078B0BB214D4FF0FF38DB
:10228000287B00062CD51F4800688168484688478F
:1022900028B13A220221484600F0DAF811E0D7F8D6
:1022A0000200194C00BA20F0FF0178790143E16087
:1022B000B7F8070042BA48462261FFF785FE0028BA
:1022C00002DA4046BDE8F087022030706168E068BD
:1022D0004843E060206948432061A968814204D0F6
:1022E0002022687B0521D7E7FFE708494FF480509B
:1022F00008804846BDE8F047FFF72CBFDC0100200E
:10230000581F002058000020C4010020DE010020DA
:1023100010B504461448154A0068111D436820464C
:10232000984738B13A220221204600F091F84FF048
:10233000FF3010BD0D4A0E48121F9168491E0B0E4A
:1023400003700B0C43700B0A8370C17051680A0E46
:1023500002710A0C42710A0A8271C1710549082092
:102360000880002010BD000058000020C801002097
:10237000580F0020DE0100207CB505460021174CD7
:1023800008466054491C89B20C29FAD314486A469D
:1023900001A9006843682846984738B13A220221CB
:1023A000284600F055F84FF0FF307CBD0820E07063
:1023B0000198401E010E2171010C6171010AA17189
:1023C000E071022020720098010C6172010AA17272
:1023D0000449E0720C20088000207CBD580F0020CA
:1023E00058000020DE01002070B50020144A044689
:1023F0001454401CC0B21228FAD3702010700C2064
:10240000D071104803784578AB420FD00E4D15F8C7
:10241000336005EBC30596706E7916732D7955738D
:102420005B1CDAB20270042A00D104700748122241
:1024300002800979122900D80180002070BD0000B7
:10244000580F0020C4010020380F0020DE010020BA
:1024500010B50948074C437804F83310110204EB17
:10246000C3025B1C5160D9B24170042901D1002123
:10247000417010BD380F0020C40100202DE9F04745
:102480002A4E81460F46307820B14846BDE8F047D5
:10249000FFF7A4BE264D4FF0FF38287B000632D44C
:1024A000244C206881684846884720B13A2208E0D9
:1024B000FFF7CEFF1AE02068C1684846884718B188
:1024C000272202214846F3E7D7F802001A4C00BA47
:1024D00020F0FF0178790143E160B7F8070042BAC4
:1024E00048462261FFF770FD002802DA4046BDE849
:1024F000F0876168E0684843E060206948432061F4
:10250000A968814203D02022687B0521D0E7012100
:1025100031700903884200D3084683B2074A01217B
:102520006069FDF7B1FF0020E1E70000DC01002059
:10253000581F002058000020C4010020580F002020
:102540002DE9FC470025804600952846019500F0BE
:10255000B5F8800102D50E20BDE8FC87264F6946FC
:10256000388980B2FEF79EFB0028F5D13720234C36
:10257000402601994FF0060A4FF48069B8F1010F27
:102580001FD0C90335D53989C4F810900904C4E9AE
:102590000010C4E90265204600F0C2F83720FDF7BC
:1025A00051FE0028D8D1C4E9005AC4F8109000BFE9
:1025B000C4E90265114800F0B3F80620FDF742FEB9
:1025C000CAE7490315D53989C4F810900904C4E94C
:1025D0000010C4E90265094800F0A2F83720FDF7B1
:1025E00031FE0028B8D10220C4F81090C4E9000AD6
:1025F000DEE72520B0E70000800200202820002030
:102600000149086070470000382C0140014908600A
:1026100070470000382C01400149086070470000F5
:10262000A080254201490860704700008C85254242
:1026300010B50A4A01681160121D41681160121D2F
:10264000116821F0F703D0E902142143D0E90440D6
:10265000044321431943116010BD0000242C0140A4
:1026600010B50121CC022046FFF758FC2046BDE8FA
:1026700010400021FFF752BC01480068C0B270470B
:10268000102C0140034A0146002012680A4200D083
:1026900001207047342C0140034A01460020126893
:1026A0000A4200D001207047342C014002480068E3
:1026B00000F0030070470000002C014008B50249FB
:1026C00008440090006808BD142C014000F076BC5E
:1026D000044A0029116801D0014300E081431160E0
:1026E000704700003C2C014030B5094B1A6847F692
:1026F000FF618A43017D8468C568214344682C4397
:10270000214304680069214301431143196030BD2E
:10271000042C01400148006870470000802C0140F3
:1027200010B5084A01681160121D1168CB0AD0E982
:1027300001142143D0E903400443DB022143194340
:10274000116010BD082C014001490860704700006D
:10275000002C014008B501208DF800004103054818
:10276000FEF79BFB10B100208DF800009DF80000E3
:1027700008BD0000001C02402DE9F0410146194847
:1027800000264068032813D018B1012801D0022880
:1027900025D1B1F5805F0BD04FF400670025124CB6
:1027A000B9420ED10120FFF7CBFE060003D016E0A0
:1027B0002720BDE8F081257525606560C4E90257D2
:1027C00009E00020FFF7BCFE060008D12575256052
:1027D0006560A560E56004482561FFF785FF304628
:1027E000E7E7000080020020102000202DE9F043E0
:1027F0009349DFF85092D1F804C080F856C0098997
:10280000A0F85410D9F800100A0E94090470C2F30D
:102810008304447002F0030282700A0CC2700A0A38
:1028200002714171D9F80470390E0901C180C28862
:10283000C7F3074142EA1112C28001F00F01017291
:10284000C7F30722D1094172C2F380118172C2F32A
:102850004011C172C2F300110173002141734B4654
:102860009D6801232E0EC5F30744C5F30728BCF16C
:10287000000F06D0BCF1010F03D0BCF1020F3BD01A
:102880004DE09207120D0261FAB2076947EA82022F
:102890000261026942EA96120261C6F3C20202753F
:1028A00006F00702427562098275C4F38202C2759E
:1028B000A207520F0276047E424644EAD2140476FE
:1028C0000469077E641CBF1C03FA07F6A4FB0678A4
:1028D0004FEAE67C01FB068604FB0C6690F808C014
:1028E00003FA0CF4A7FB04C8046506FB048407FB89
:1028F0000144C0E912C412E0BA06920A02610269F8
:1029000042EA0622026102692243026104694246E8
:10291000641CE404C0E912414FF400740465C2F37E
:10292000801444769206520E8276EAB2857E45EA9B
:10293000D215857602F07F02C276D9F80C40220EBD
:10294000D5090577C2F341154577C2F3820585772E
:102950009207120FC277C57FC4F3074245EA92156A
:10296000C577C2F3401500F8205F417002F0010204
:102970008270C4F30722D509C570C2F380150571B2
:10298000C2F340154571C2F300158571C2F381058C
:10299000C57102F003020272C4F3460242728372EE
:1029A000284C10342268150E0573C2F307452D021A
:1029B000C581C689C2F307252E43C681120602616E
:1029C00062680669150E46EA054505610669C2F3A7
:1029D000074546EA052505610669C2F307252E432A
:1029E00006610275A268150E4575C2F307452D06EE
:1029F00085618669C2F3072546EA054585618569D3
:102A0000D2B245EA02228261E268856945EA12652E
:102A10008561057FC2F3074445EA1415057724074D
:102A2000240DC483C58BC2F307242543C583C2F399
:102A3000460280F8202080F821300846BDE8F08367
:102A400080020020881F002008B500200090FFF7BA
:102A500081FE012803D1684600F06EFB08B1FF201B
:102A600008BD0098C0F3432008BD10B5FFF7ECFF88
:102A7000042803D0FF2803D0012010BD002010BD82
:102A8000022010BD38B500248DF8004000F042F956
:102A9000FFF7E6FD00F09EF98DF800009DF80000BC
:102AA00050BB00F02FF88DF800009DF8000018BB17
:102AB00013480475046044608460C4600461FFF7D7
:102AC00013FE0F485838FFF791FE8DF800009DF86F
:102AD000000040B90A485838B0F85400000400F02B
:102AE00015FB8DF800009DF8000028B94FF4006038
:102AF000FFF742FE8DF800009DF8000038BD000091
:102B0000102000202DE9F84F01200025ADF800002D
:102B1000FFF7CCFDA8B3DFF8E490D9F8040004284F
:102B200069D0374C4FF0C00A00260220C4F808A034
:102B3000C4E900604FF48068C4E903682046FFF7E9
:102B4000EFFDFDF7F3FB05001DD1FFF7B7FDA4F185
:102B5000900738600420FFF7B1FD78600820FFF788
:102B6000ADFDB8600C20FFF7A9FDF860D9F80400AE
:102B70004F4650B1012808D0062806D0022804D0BC
:102B800014E0FFE72520BDE8F88F0320C4E90060CA
:102B900004F108014020A1E841011948FFF7C0FDF8
:102BA00069460320FDF7DCFB0500ECD178680428BA
:102BB00021D0BDF80000B860000420600920C4E9FD
:102BC000010AC4E903680E48FFF7AAFDFDF7AEFB52
:102BD0000500D8D1FFF772FD094CA03C206004200D
:102BE000FFF76CFD60600820FFF768FDA0600C2017
:102BF000FFF764FDE0602846C5E700008002002082
:102C00002820002030B51F4D04468FB04FF0FA51F8
:102C10002846FDF791FE00212846FDF7A3FE284631
:102C2000FDF7AAFE4FF0006000901748CDE90104BF
:102C30000020039029150490CDE905018900079132
:102C40008900CDE908104FF440300A9004200B9021
:102C500003200C9048020D9080100E906946284683
:102C6000FDF75AFF012210212846FDF73BFF2021E6
:102C70002846FDF713FF01212846FDF773FE0FB02C
:102C800030BD000058640240802C014030B51F4D1B
:102C900004468FB04FF0FA512846FDF74DFE002153
:102CA0002846FDF75FFE2846FDF766FE4FF0006000
:102CB00000901748CDE90104402003900020291519
:102CC0000490CDE90501890007918900CDE908103C
:102CD0004FF440300A9004200B9003200C904802DF
:102CE0000D9080100E9069462846FDF715FF0122D1
:102CF00010212846FDF7F6FE20212846FDF7CEFEDE
:102D000001212846FDF72EFE0FB030BD5864024069
:102D1000802C01402DE9FC4101218C20FFF7B6F801
:102D2000294E0C2208213046FEF7A7F80C22092173
:102D30003046FEF7A2F80C220A213046FEF79DF835
:102D40000C220B213046FEF798F80C221146304633
:102D5000FEF793F81D4F0C2202213846FEF78DF83E
:102D60004FF47060012400908DF8054002208DF82A
:102D7000040000258DF806508DF80740694630465E
:102D8000FEF72AF80420009069463846FEF724F83A
:102D9000200300908DF8075069463046FEF71CF876
:102DA000600300908DF804508DF80740694608488C
:102DB000FEF712F80121C802FFF7A4F801218805E7
:102DC000FFF764F8BDE8FC8100080240000C0240F7
:102DD000001C02402DE9FC5F00258DF8005073486F
:102DE0007621A9460175056045608560C560A846E5
:102DF0000561FFF779FC0320FFF7A6FC0120FFF730
:102E00000BFC6A4C4FF4806B1834204625606560DB
:102E1000A560C4E9035BFFF783FC4FF4803A002709
:102E2000564601E0761E10D08020FFF72BFC0028CC
:102E3000F8D056B140F2FF50FFF7E2FB8DF800707A
:102E40009DF80000002855D101E00327F6E74FF474
:102E5000D570206008204027C4E901075348C4E921
:102E6000035B5E461830FFF75BFC514B0020514678
:102E70001A684FF0370B03E04D4AA1F101011268C7
:102E800012F0450F06D009B1510706D54FF0030ADD
:102E9000042007E00029EFD1F8E7510605D54FF0EF
:102EA000000A4020FFF7ACFB50468DF800009DF86B
:102EB000000000B3A760C4E9005B3C48C4E90356C6
:102EC0001830FFF72DFC3720FDF7BCF98DF8000016
:102ED000A760C4E9005B3548C4E90356DA461830F8
:102EE000FFF71EFC3720FDF7ADF98DF800009DF8C7
:102EF000000088B355E02F4801214FF08048416021
:102F0000E6E7A760C4E9005A2848C4E90356183028
:102F1000FFF706FC3720FDF795F98DF800009DF8C6
:102F2000000078BB244948EA010020602920C4E958
:102F300001071E48C4E903561830FFF7F1FB0020D3
:102F40001B490190086810F0450FFBD0400704D5DD
:102F500003200190042002E011E040F2FF50FFF74F
:102F60004FFB01988DF800009DF8000050B900203B
:102F7000FFF7A4FBC10F09F1010904D005E04FF6EA
:102F8000FF7BBEE70DE0D945BBD3D94503D31B205A
:102F90008DF8000005E010F0804F02D005480221B6
:102FA00041609DF80000BDE8FC9F0000102000205B
:102FB000342C0140800200200000108070B54FF4D6
:102FC00080752846FFF768FB1F4C38B10020207041
:102FD0002846FFF71BFB012020612EE00220FFF7AF
:102FE0005BFB20B10220FFF711FB022024E0082048
:102FF000FFF752FB20B10820FFF708FB04201BE07D
:103000002020FFF749FB20B12020FFF7FFFA062020
:1030100012E01020FFF740FB20B11020FFF7F6FA76
:10302000052009E04FF400752846FFF735FB20B175
:103030002846FFF7EBFA0720207000214CF23A30C7
:10304000FFF746FB207870BD800200202DE9FF5F6E
:103050002B4800251E4690460F46057005614FF02F
:10306000010AC0F80CA027490D604068022802D16F
:103070004FF400787F0A244C4FF4806B1020C4F882
:1030800010B0C4E900804FF04009C4E90295204621
:10309000FFF746FB1020FDF7D5F800282CD1411E84
:1030A00004F1140006FB08F6C0E9001690218160C7
:1030B0000C300221A0E8220404F11400FFF7B8FA52
:1030C0001220C4F810B0C4E90070C4E9029520468B
:1030D000FFF726FB1220FDF7B5F804000CD1012103
:1030E00040F22A30FFF7F4FA0120FFF79BFA31464D
:1030F0000098FFF787FD204604B0BDE8F09F000070
:10310000800200202C2C014028200020094910B505
:10311000086007204860402088600020C8604FF4A5
:10312000806008610846FFF7FBFABDE81040072001
:10313000FDF788B82820002070B504001AD00E488A
:103140000E490089000408600D2048604020886016
:103150000020C8604FF4806008610846FFF7E0FA7D
:103160000D20FDF76FF8050003D1FFF7A7FA2060E7
:10317000284670BD262070BD800200202820002037
:10318000084810B500210C22C0E900124022C0E915
:10319000022111010161FFF7C3FABDE810400C20C4
:1031A000FDF750B82820002070B50026741E204678
:1031B000144D01E0A0F10100696929B9296919B923
:1031C000297809B90028F5D1002068610E4801E08E
:1031D000A4F101040168890401D5002CF8D1E86844
:1031E000012802D1FFF7CCFF0646344300D1042664
:1031F00040F2FF50FFF704FA287808B1287870BD34
:10320000304670BD80020020342C014070B500268D
:10321000741E2046144D01E0A0F10100696929B92E
:10322000296919B9297809B90028F5D10020686100
:103230000E4801E0A4F101040168C90401D5002C85
:10324000F8D1E868012802D1FFF79AFF0646344317
:1032500000D1042640F2FF50FFF7D2F9287808B1D8
:10326000287870BD304670BD80020020342C0140AB
:103270002DE9FF5FDFF8F0B000201D4616460F462F
:103280008BF80000CBF810000122CBF80C20374A55
:103290001060DBF80410022901D10E027F0A344CC1
:1032A0004FF4806A1021C4F810A0C4E90061804680
:1032B0004FF04009C4E902982046FFF731FA102088
:1032C000FCF7C0FF00284BD1BBF8080000042060C9
:1032D0003720C4E90109C4E9038A2046FFF720FA30
:1032E0003720FCF7AFFF00283AD11720C4F810A010
:1032F000C4E90050C4E902982046FFF711FA1720EC
:10330000FCF7A0FF00282BD11920C4E90070C4F8F5
:1033100010A0C4E9029847462046FFF701FA192099
:10332000FCF790FF00281BD104F11401401E7543E7
:10333000C1E900059020C1E902070120C1E904703C
:103340000846FFF775F9012140F22A30FFF7C0F96E
:103350000120FFF767F929460098FFF797FC3846E8
:1033600004B0BDE8F09F0000800200202C2C01403A
:10337000282000202DE9F84F00200090FEF708FAE1
:10338000FEF70AFB052002F0F1F90020FEF7CCFB66
:10339000A0F513414FF480774FF4E06540F202232B
:1033A00041F2B07640F2371840F239194FF4E85A3A
:1033B00040F23F1B41F21804009020397ED1F90100
:1033C000E520FEF7D9FB01210020FEF7D5FB3946A9
:1033D0000120FEF7D1FB29460220FEF7CDFB41F28A
:1033E00030010320FEF7C8FB00210420FEF7C4FBD8
:1033F00019460820FEF7C0FB00210920FEF7BCFBA0
:1034000000210A20FEF7B8FB00210C20FEF7B4FBD8
:1034100000210D20FEF7B0FB00210F20FEF7ACFBD2
:1034200000211020FEF7A8FB00211120FEF7A4FBCD
:1034300000211220FEF7A0FB00211320FEF79CFBC9
:10344000142002F093F931461020FEF795FB414617
:103450001120FEF791FB052002F088F94946122061
:10346000FEF78AFB052002F081F951461320FEF792
:1034700083FB13212920FEF77FFB052002F076F95C
:1034800000212020FEF778FB00212120FEF774FBAD
:1034900007213020FEF770FB07213120FEF76CFB7F
:1034A00007213220FEF768FB07213520FEF764FB79
:1034B00007213620FEF760FB294600E068E0372050
:1034C000FEF75AFB29463820FEF756FB29463920DD
:1034D000FEF752FB29463C20FEF74EFB4FF4F85115
:1034E0003D20FEF749FB00215020FEF745FBEF2170
:1034F0005120FEF741FB00215220FEF73DFB5946CB
:103500005320FEF739FB4FF41C516020FEF734FBCB
:1035100001216120FEF730FB00216A20FEF72CFB21
:1035200000218020FEF728FB00218120FEF724FBEC
:1035300000218220FEF720FB00218320FEF71CFBE8
:1035400000218420FEF718FB00218520FEF714FBE4
:1035500010219020FEF710FB00219220FEF70CFBBB
:1035600003219320FEF708FB4FF488719520FEF7A6
:1035700003FB00219720FEF7FFFA00219820FEF7B9
:10358000FBFA21460320FEF7F7FA40F27311EDE053
:10359000A0F5134125397DD101210020FEF7ECFA79
:1035A00039460120FEF7E8FA29460220FEF7E4FA40
:1035B00021460320FEF7E0FA00210420FEF7DCFAA2
:1035C00019460820FEF7D8FA00210920FEF7D4FAA0
:1035D00000210A20FEF7D0FA00210C20FEF7CCFAD9
:1035E00000210D20FEF7C8FA00210F20FEF7C4FAD3
:1035F00000211020FEF7C0FA00211120FEF7BCFACE
:1036000000211220FEF7B8FA00211320FEF7B4FAC9
:10361000142002F0ABF831461020FEF7ADFA414617
:103620001120FEF7A9FA052002F0A0F84946122061
:10363000FEF7A2FA052002F099F851461320FEF792
:103640009BFA13212920FEF797FA052002F08EF845
:1036500000212020FEF790FA00212120FEF78CFAAD
:1036600007213020FEF788FA40F202313120FEF7C0
:1036700083FA40F2051319463220FEF77DFA40F234
:10368000062529463520FEF777FA40F6080631462A
:10369000362000E06DE0FEF76FFA29463720FEF78E
:1036A0006BFA40F204513820FEF766FA0721392000
:1036B000FEF762FA19463C20FEF75EFA31463D20DD
:1036C000FEF75AFA00215020FEF756FAEF2151205A
:1036D000FEF752FA00215220FEF74EFA59465320C7
:1036E000FEF74AFA4FF427416020FEF745FA012120
:1036F0006120FEF741FA00216A20FEF73DFA002121
:103700008020FEF739FA00218120FEF735FA0021EA
:103710008220FEF731FA00218320FEF72DFA0021E6
:103720008420FEF729FA00218520FEF725FA1021D2
:103730009020FEF721FA00219220FEF71DFA0321C6
:103740009320FEF719FA4FF488719520FEF714FACA
:1037500000219720FEF710FA00219820FEF70CFABE
:1037600021460320FEF708FA40F233110720FEF746
:1037700003FA0348A0F108014860BDE8F88F000093
:10378000E40200201CB504460E48012150F8240034
:10379000FEF77CFB0B4800210A3830F8140000903B
:1037A00001208DF804008DF806108DF80700022026
:1037B0008DF805000448694650F82400FDF70CFB1D
:1037C0001CBD000088580008A8020020044951F8D8
:1037D00020104A69034B33F8100042404A61704799
:1037E000A80200207E58000870B515460C46FFF769
:1037F0003CF910B14FF0FF3070BD4FF400702860FD
:103800000448816CB0F84C00C20542EA51202060A7
:10381000002070BDB81F00200020704708B531207F
:103820008DF8000000208DF801008DF802000120C5
:103830008DF803006846FEF7CFFAFFF723F900285A
:1038400001D04FF0FF3008BD10B5084C94F90000CE
:10385000002803DAFFF716F900202070FFF705F9BA
:10386000002802D04FF0FF30207010BD5C00002017
:1038700000207047084610B551024FF40072FFF760
:10388000E5FB10B14FF0FF3010BDFFF78DFC00BF1E
:10389000FFF7EBF80028FBD110BD0000084610B57B
:1038A00051024FF40072FFF7E3FC10B14FF0FF300C
:1038B00010BDFFF7ABFC00BFFFF7D7F80028FBD126
:1038C00010BD704710B58A0721F003040649130F95
:1038D00021440F220C689A4094430C600A68984077
:1038E00002430A6010BD0000083801400CB50020FA
:1038F0002749019000900A6842F480320A604FF430
:10390000A0630A6802F400320092019A521C0192EC
:10391000009A12B9019A9A42F3D10A68920334D5F7
:10392000012000901A484030026842F08052026044
:103930001848026842F48042026015480830026864
:103940000260026842F400420260026842F4A0523F
:103950000260031F104A1A600A6842F080720A600F
:103960000A689201FCD50D4A40F2056111600168B8
:1039700021F003010160016841F00201016001686A
:10398000C1F381010229FAD10CBD00900CBD0000E9
:10399000003802400070004008544007003C0240DC
:1039A00070B500252C46FDF7F5FD02280ED06FF00E
:1039B0000901032804D0042804D0052807D103E016
:1039C0000D4604E00A2502E00C4600E00A240949FD
:1039D000002215F0FF000A704870E3B28B70CA70C5
:1039E00001D1002B05D0BDE870400422024800F050
:1039F0008BBA70BDBA00002010030020124810B529
:103A0000016841F4700101601048016841F0010152
:103A100001600E4A00210832116002680C4B1A4006
:103A20000260031D0B4A1A60026822F480220260C1
:103A300006480C300160FFF759FF03494FF0006062
:103A40008039086010BD000088ED00E000380240B9
:103A5000FFFFF6FE1030002410B5D0F8E4255268C0
:103A60009047002010BD10B5134600240A46214699
:103A7000FCF70AFD204610BD10B5134600240A4687
:103A80002146FCF742FD204610BD10B504468021BA
:103A9000FCF71FFD00212046FCF71BFD2046BDE87A
:103AA000104001F0B9BB70B505460024052085F82B
:103AB00011012346224621462846FCF7E5FC28460C
:103AC00001F0AAFB204670BD10B5C0F83C210223CE
:103AD000C0F8382180F81131134600240A462146E7
:103AE000FCF713FD204610BD70B5054600240420E8
:103AF00085F811012346224621462846FCF705FD9C
:103B0000284601F089FB204670BD000070B50546CF
:103B100041B1D5F8E40542698AB395F8120103284A
:103B200046D047E095F81101002605F58E7402286D
:103B300033D1E169A06881420FD9081AE061E878C1
:103B4000012803D1D4E902100844E060A08BE168A9
:103B500082B22846FFF790FF1FE0216AB1FBF0F226
:103B600000FB121262B981420AD3606A814207D215
:103B7000002211462846FFF77FFF66620DE016E03F
:103B8000D5F8E405C16829B195F81201032801D1DF
:103B9000284688472846FFF786FF95F81601012832
:103BA00008D1054800682969486085F8166101E078
:103BB00028469047002070BD0001002070B50546E2
:103BC00041B1D5F8E40582690AB395F812010328DA
:103BD0002CD02DE095F8110105F55D74032827D14F
:103BE000E169A068814213D9081AE061E8780128E8
:103BF00003D1D4E902100844E060E169A068814281
:103C000000D2084682B22846E168FFF72CFF0FE099
:103C1000D5F8E405016929B195F81201032801D10D
:103C2000284688472846FFF75FFF01E0284690476F
:103C3000002070BD10B50446D0F8E8054069804703
:103C4000012084F81501002010BD10B50446D0F8FD
:103C5000E80580698047D4F8E405002142682046E1
:103C60009047002084F8150110BD000038B50446C7
:103C700048880D46010A08296AD2DFE801F0690484
:103C8000142C69695567D4F8EC15A0780A68694660
:103C900090470146E888402803D094F81201012893
:103CA00063D108204FE0D4F8E415A0788A6A694609
:103CB00090470146A078012808D1227A012A05D12F
:103CC000D4F8E415CA6A6946904701460220487054
:103CD000C4F8F01549E0C0B2062839D2DFE800F098
:103CE00003080D12171CD4F8EC15A0784A6817E0E9
:103CF000D4F8EC15A0788A6812E0D4F8EC15A07816
:103D0000CA680DE0D4F8EC15A0780A6908E0D4F888
:103D1000EC15A0784A6903E0D4F8EC15A0788A691C
:103D200069469047014620E0A07888B9D4F8E415A8
:103D30008A6A694690471649827B0A71C27B4A713A
:103D4000007C88710A20ADF8000012E0A07820B154
:103D500029462046FFF799FE38BDD4F8E415CA6A13
:103D600069469047014607204870BDF800000028CA
:103D7000F2D0E8880028EFD0BDF80020904200D9AA
:103D80001046ADF8000082B22046FFF79DFE38BD18
:103D9000B000002001EB810100EBC100B0F88C0302
:103DA00080B2704770B5002300281DD0044600255E
:103DB00002E06D1CEDB2641C2678002EF9D10224BD
:103DC00004EB45041480CC545B1C0322CA545B1CD6
:103DD000002406E0CA545B1CDAB2401C8C54521C0E
:103DE000D3B20278002AF5D170BD000010B50A46A2
:103DF000024903A0FFF7D6FF004810BDF80E0020CF
:103E000048494420436F6E666967000010B5812100
:103E1000FCF710FB002010BD0020704710B50446D1
:103E20008121FCF7D5FA01212046FCF7D1FA0020C8
:103E300010BD000012200880004870479C00002040
:103E400029200880004870474001002010B5044632
:103E5000032304228121FCF7F9FA03230422012120
:103E60002046FCF7F3FA002010BD000010B50A460A
:103E7000024903A0FFF796FF004810BDF80E00208E
:103E800048494420496E74657266616365000000AC
:103E900004200880004870479800002010B50A46AA
:103EA000024903A0FFF77EFF004810BDF80E002076
:103EB00053544D6963726F656C656374726F6E699C
:103EC000637300000A4610B5044928B104A000BF7E
:103ED000FFF768FF014810BD06A0F9E7F80E0020C3
:103EE0004A6F79737469636B20696E204653204D65
:103EF0006F6465004A6F79737469636B20696E2023
:103F00004853206D6F64650010B590F81231032B93
:103F100004D113460A468121FCF7F7FA002010BDB0
:103F20000A4610B5044928B104A000BFFFF73AFFC4
:103F3000014810BD05A0F9E7F80E00203030303000
:103F4000303030303031314300000000303030301C
:103F500030303030303131420000000070B50C7824
:103F6000002214F06005254C13461DD0202D42D1AF
:103F70004A78022A14D0032A0AD00A2A0CD00B2A23
:103F800003D0FFF782FD022070BD8878606032E0C8
:103F90001A490122091D26E04888000AA0602AE08B
:103FA0001649012208311EE04D78062D04D00A2D55
:103FB0001CD00B2D1FD11CE04C882225B5EB142FF3
:103FC00006D1CA884A2A00D94A220C4B443309E058
:103FD0002125B5EB142F05D1084BCA883833092A9F
:103FE00000D909221946FFF76FFD04E001220349B9
:103FF000F9E788782060002070BD000034010020BF
:104000002DE9F0411D46174688460446069E00F0FD
:1040100069FEC4F8E45504F5BD65414685E8C00075
:104020002046FCF707FC2868006880472046BDE86A
:10403000F04100F015BE10B5D0F8E415096A8847C4
:10404000002010BD10B5D0F8E415496A884700205B
:1040500010BD000010B50A46024903A0FFF7A2FEFA
:10406000004810BDF80E00204D534320436F6E668C
:104070006967000010B5FDF719FE002010BD10B5EE
:10408000FDF734FE002010BD10B504468121FCF779
:104090009FF901212046FCF79BF92046FDF746FEDB
:1040A000002010BD12200880004870479C000020AE
:1040B0002020088000487047180200202020088037
:1040C000004870473802002070B50446FFF7DCFF57
:1040D00002231D022A4681212046FCF7B7F902235C
:1040E0002A4601212046FCF7B1F92046FDF724FEBF
:1040F000002070BD10B50A46024903A0FFF752FE2A
:10410000004810BDF80E00204D534320496E7465E1
:1041100072666163650000000420088000487047F3
:104120009800002010B50A46024903A0FFF73AFEA6
:10413000004810BDF80E002053544D6963726F653E
:104140006C656374726F6E69637300000A4610B524
:10415000044928B104A000BFFFF724FE014810BDA8
:1041600007A0F9E7F80E00204D6173732053746FB8
:104170007261676520696E204653204D6F6465004B
:104180004D6173732053746F7261676520696E208F
:104190004853204D6F6465000A4610B5044928B1A4
:1041A00004A000BFFFF7FEFD014810BD05A0F9E720
:1041B000F80E002030303030303030303030314286
:1041C000000000003030303030303030303031419D
:1041D0000000000070B50C46097806462B4D11F022
:1041E000600029D020284ED16078FE2802D0FF2818
:1041F0001CD111E06088C8B9E088012816D10806F2
:1042000014D5234800688069804710F0FF002870AB
:104210000CD001221D491AE0608838B9E08828B91D
:10422000080603D43046FDF7A9FD2CE021463046B0
:10423000FFF72BFC022070BD607801280ED00A2801
:1042400002D00B281FD106E010490122091D30467B
:10425000FFF73AFC17E0A078287114E02179304686
:10426000FCF7E8F821793046FCF7B2F8A0884FF463
:1042700000720106C1B202233046FCF7E7F821794B
:104280003046FDF7FDFC002070BD0000100200204C
:104290005800002070B505460069426C416BC1F3BF
:1042A000400142EAC111EA6994680C40E1070CD070
:1042B000416B21F002014163E869012484601248E6
:1042C00021460068426828469047A00702D5E86961
:1042D00002248460200702D5E86908248460E0068F
:1042E00002D5E86910248460600602D5E86940249C
:1042F0008460200606D501212846FCF7E0FAE9692A
:1043000080208860012070BDFC00002070B504464C
:10431000806D85682169D1F884100D40E90713D0BC
:1043200001258560E078012808D1A06D0069D4F8E6
:10433000A413C0F31200081AC4F8B40306480121FC
:104340000068026820469047A80702D5A16D0220A8
:104350008860012070BD0000FC0000202DE9F047BE
:104360000446002501F00DF900287DD0204601F01B
:1043700011F9060079D0300303D52046FCF746F941
:104380000546700303D52046FCF7DAF80543B0076D
:104390004FF0000A02D5E168022048614C4F4FF00F
:1043A0000109002E17DAA07A30B1D4F80C01D4F844
:1043B0000C1120F0030008602069416821F0010120
:1043C00041603868816920468847E1684FF00040C5
:1043D000486145F00105300503D52046FCF7AAF9F0
:1043E0000543300708D53868C16820468847E1682A
:1043F0000820486145F00105F00603D52046FCF78A
:104400005BF90543F00403D52046FCF7CBF90543DF
:10441000B0041AD5204600F085FEE068D0F80C8084
:10442000204601F095F8032847D084F802904021F7
:1044300028F47050A18000F5A050E168C860E168E0
:104440004FF40050486145F00105F00209D5386885
:10445000C16920468847E1684FF48010486145F003
:104460000105B0020CD501E024E024E03868016ABF
:1044700020468847E1684FF40010486145F0010587
:10448000700009D53868416A20468847E1684FF0D6
:104490008040486145F0010570070BD5E06846682B
:1044A000700703D53868816A20468847E06846600F
:1044B00045F001052846BDE8F08784F802A04FF4D6
:1044C000007128F47050A18000F51050B5E700008D
:1044D000FC00002090F8CC250A7090F8CD254A7099
:1044E00090F8CE2590F8CF3502EB03224A8090F861
:1044F000D02590F8D13502EB03228A8090F8D2259E
:1045000090F8D33502EB032292B2CA800121C0F8A1
:10451000402180F81111704710B500230446402255
:104520001946FBF793FF0023402280212046FBF72A
:104530008DFF012084F81201D4F8E815A0784968AD
:104540008847002010BD10B50446D0F8E805006982
:104550008047032084F81201002010BD10B5D0F868
:10456000E415C96901B18847002010BD10B50446A3
:10457000D0F8E405026820469047D4F8E805806842
:104580008047002010BD000070B50A461A4D89789A
:1045900004462970012905D894F81201022807D091
:1045A00003280CD02046BDE870401146FFF76DBAD5
:1045B000A1B184F81011032084F812010BE091B12D
:1045C00094F81001884209D001462046FFF744FACA
:1045D000297884F810112046FFF7C8FF2046BDE86F
:1045E0007040FFF781BA022084F8120184F810119C
:1045F0002046FFF731FAF1E7C000002010B504466D
:104600004888012201280FD0022831D1888810F073
:10461000FF0F2DD121694968000A06281FD2DFE863
:1046200000F01E0B0F13171BC4F81821D4F8E40573
:1046300082682046904716E021F0700110310EE0AC
:1046400021F0700120310AE021F07001303106E0E4
:1046500021F07001403102E021F070015031054835
:10466000016084F816212046BDE81040FFF73CBAEF
:1046700010BD0000000100201CB504466946FFF78C
:1046800029FF9DF8001011F01F000AD001280DD05D
:10469000022810D001F080012046FBF71AFF00200D
:1046A0001CBD6946204600F00BF8F8E76946204635
:1046B00000F0E8F8F3E76946204600F079F8EEE705
:1046C0002DE9F0414A78002601250A2A42D2DFE886
:1046D00002F03B554152410805412A27FFF7C6FA2F
:1046E00061E004468888C8B9C888B8B9887800F0FD
:1046F0007F0794F81201032810D084F8147139460A
:104700002046FBF7DEFE2046FFF7EEF91FB1022040
:1047100084F8120147E084F8125144E0204619E081
:10472000FFF732FF3FE0CA88012A13D190F8122127
:10473000022A02D0032A0DD102E001221B4917E010
:10474000012200F5887113E090F81221022A04D0AA
:10475000032A02D0FFF799F925E014490839CD6002
:10476000D0F818210AB10322CA6010490222091D9B
:10477000FFF7AAF917E0FFF741FF14E0044690F8AD
:104780001201022801D00328C8D1488801280AD183
:104790000020C4F81801D4F8E40582682046904748
:1047A0002046FFF7A1F93046BDE8F081C80000209F
:1047B00070B50D46044609796878002658B301287B
:1047C00016D0032831D194F8120102282FD00328E3
:1047D00027D1688828B921B1802902D02046FBF76B
:1047E00078FED4F8E40529468268204690470EE01A
:1047F00094F8120102281AD0032812D16888A0B9AF
:1048000029B1802903D02046FBF7F8FDE9E72046CF
:10481000FFF76AF909E094F81201022807D003288B
:104820000DD029462046FFF730F9304670BD0029EB
:10483000FBD08029F9D02046FBF74BFEF5E7104866
:104840000D064FF000034FF0010208D501F07F0183
:1048500001EB810104EBC10191F81E1105E001EBB0
:10486000810104EBC10191F8761309B1426000E0C7
:10487000436003490222091D2046FFF725F9D4E7CA
:10488000C000002070B5054690F8120100260C46C5
:1048900003280DD1207901280AD8D5F8E4058268CB
:1048A00028469047E08830B92846FFF71DF902E016
:1048B0002846FFF7EAF8304670BD10B500F589705C
:1048C0000178417004210170D0F8D604C068804797
:1048D000002010BD03494FF6FF70088002A000F0D1
:1048E0000FBF00005C0200203E2048494420496E72
:1048F0007465726661636520737461727465642E99
:104900000A00000003494FF6FF70088002A000F083
:10491000F7BE00005C0200203E2055534220465363
:104920002044657669636520436F6E6E65637465C8
:10493000642E0A0003494FF6FF70088002A000F0C1
:10494000DFBE00005C0200203E205553422046534B
:104950002044657669636520446973636F6E6E6594
:10496000637465642E0A00007047704703494FF670
:10497000FF70088002A000F0C3BE00005C020020AF
:104980003E204849442044657669636520696E206D
:1049900053757370656E64204D6F64652E0A000058
:1049A00010B5FCF781FC214830210068B0FBF1F024
:1049B000401EB0F1807F37D24FF0E02148611C4AA1
:1049C000F020107000208861072008610020FEF7A9
:1049D000D9FE0120FEF7D6FE0220FEF7D3FE03200B
:1049E000FEF7D0FEFEF7C6FCFDF71CF811A0FDF7A0
:1049F00053F815484FF6FF74048014A000F080FEB1
:104A00001AA0FDF717F84FF4FC60FDF7ADF81FA1F1
:104A1000C620FCF767FF24A1D220FCF763FF2046E5
:104A2000BDE81040FDF7A0B8FEE700006C020020D2
:104A300023ED00E0555342204475616C20446576B7
:104A400069636573000000005C0200203E2055533E
:104A50004220646576696365206C6962726172796F
:104A600020737461727465642E0A00002020202077
:104A70002055534220446576696365204C69627213
:104A80006172792076312E312E3000004D53432053
:104A900072756E6E696E67206F6E20486967682058
:104AA00073706565642E00004849442072756E6E0F
:104AB000696E67206F6E2046756C6C20737065653B
:104AC000642E000003494FF6FF70088002A000F03A
:104AD00017BE00005C0200203E204D534320496E6B
:104AE0007465726661636520737461727465642EA7
:104AF0000A00000003494FF6FF70088002A000F092
:104B0000FFBD00005C0200203E2055534220485368
:104B10002044657669636520436F6E6E65637465D6
:104B2000642E0A0003494FF6FF70088002A000F0CF
:104B3000E7BD00005C0200203E2055534220485350
:104B40002044657669636520446973636F6E6E65A2
:104B5000637465642E0A000018B1012803D003A015
:104B600002E00CA000E015A0FCF764BF202020208C
:104B70002055534220446576696365204C69627212
:104B80006172792076312E312E302020205B3F3F1C
:104B90005D000000202020202055534220446576EF
:104BA000696365204C6962726172792076312E31B9
:104BB0002E302020205B48535D0000002020202064
:104BC0002055534220446576696365204C696272C2
:104BD0006172792076312E312E302020205B4653B1
:104BE0005D0000007047000003494FF6FF70088029
:104BF00002A000F085BD00005C0200203E204D5365
:104C0000432044657669636520696E20537573702F
:104C1000656E64204D6F64652E0A0000704710B504
:104C20000446D0F81801002819D020698068C00710
:104C300015D0A07A30B1D4F80C01D4F80C1120F0C2
:104C4000030008602069416841F0010141600520CE
:104C500000F016F92069416821F00101416010BDA2
:104C600038B54FF4C0652846FDF7E8F84D208DF8BB
:104C7000000001248DF8014004208DF802008DF819
:104C800003406846FDF7A8F843208DF800008DF832
:104C9000014003208DF802008DF803406846FDF7BF
:104CA0009BF82846FDF7CAF84A208DF800008DF8D9
:104CB000014002208DF802008DF803406846FDF7A0
:104CC0008BF82846FDF7BAF84B208DF800008DF8D8
:104CD00001408DF802408DF803406846FDF77CF8EE
:104CE00038BD00002DE9FC5F01210846FDF7CEF834
:104CF00003248DF8054002254FF4C0508DF8045070
:104D000000265A4F00908DF806608DF807606946BE
:104D10003846FCF761F80A220B213846FCF7ADF85B
:104D20000A220C213846FCF7A8F801218803FDF778
:104D3000E9F801218020FDF7B5F8012140F2871044
:104D4000FDF7A4F80A2203213846FCF796F80A2258
:104D500005213846FCF791F8DFF814810A2200217A
:104D60004046FCF78AF80A2201214046FCF785F804
:104D70000A2205214046FCF780F80A2211464046E7
:104D8000FCF77BF80A220B214046FCF776F80A2252
:104D90000C214046FCF771F80A220D214046FCF731
:104DA0006CF8DFF8D0900A2204214846FCF765F839
:104DB000DFF8C4B00A220B215846FCF75EF8DFF892
:104DC000BCA00A2200215046FCF757F82020009092
:104DD0008DF805408DF8045069463846FBF7FCFF16
:104DE0008DF8054008208DF8045000908DF806607D
:104DF0008DF8076069463846FBF7EEFF8DF80540F1
:104E000043F623408DF8045000908DF806608DF82D
:104E1000076069464046FBF7DFFF012000908DF8F0
:104E200005408DF8045069465046FBF7D5FF102029
:104E300000908DF805408DF8045069464846FBF710
:104E4000CBFFA80200908DF805408DF8045069460C
:104E50005846FBF7C1FF01216007FDF717F8012154
:104E60000807FDF737F8BDE8FC9F0000000002408E
:104E700000040240001C02400020024000080240E2
:104E80004FF47A714843AFF30080C0EB001000216B
:104E9000C0000722B0FBF2F0491C8142FCD97047E8
:104EA00070B50446017A0025C068012915D0C16893
:104EB00041F04001C160204600F000F9617A4FF4F2
:104EC000502009B14FF4E810E16888631420FFF71F
:104ED000D7FFE078012819D020E0816B627A21F4B5
:104EE00080310AB141F480118163E068C16821F02A
:104EF000401121F42021C160204600F0DFF8E07865
:104F000001280BD1E1682A208860E2E7E068816827
:104F100021F01E010A3141F020018160284670BD58
:104F20002DE9F04704464FF00009D0F80C014E4639
:104F300033463546C0F800902069016821F4C0511D
:104F40000160E07A80274FF04008012824D1032136
:104F5000204600F010FBE0684762E06868F31F43FA
:104F600067F30F03836203EB134060F30F05E06800
:104F700067F31F45C0F8045105EB154060F30F05BA
:104F8000E06866F31F45C0F8085105EB154060F373
:104F90000F05E068C0F80C51E07AC8BB207A012800
:104FA0004CD00121204600F0E6FAE1684FF4007091
:104FB000486267F31F4360F30F03E068836203EB0B
:104FC000134060F30F054FF4BA7060F31F45E068BB
:104FD000C0F8045105EB154060F30F05E06866F377
:104FE0001F45C0F8085105EB154060F30F05E06858
:104FF000C0F80C5105EB154060F30F05E068C0F8F0
:10500000105105EB154060F30F05E068C0F814512E
:105010001021204600F07CFA204600F05DFA20695D
:1050200006612069466121694FF0FF30886120697F
:10503000C66100224FF09040FF2310E00021B1E74D
:1050400004EB8205AF693968002901DA014600E006
:1050500031463960A9690E61A9698B60521C61787B
:105060009142EDD800220EE004EB82056F6D3968A5
:10507000002901DA014600E031463960696D0E61B0
:10508000696D8B60521C61789142EDD8206901698D
:1050900041F480710161E078012808D1032068F3B0
:1050A0008A00216940F4803068F359400863204643
:1050B00000F0E2F94846BDE8F0870000F8B50027A7
:1050C00004463E460097124D0320FFF7DEFEE068DF
:1050D00000690090761CAE4201D90020F8BD00980E
:1050E0000028F1DA0099002041F0010100910099B7
:1050F000E2681161E1680A690092401CA84202D886
:10510000009AD207F7D10320FFF7BFFE3846F8BD5B
:10511000400D0300C0680021826822F00102826015
:105120000846704710B5016900238C6882691168D0
:10513000C4F341042CB1012C03D0022C04D0032C65
:1051400005D16FF30A0102E06FF30A01C91C116077
:105150000069416841F480714160184610BD00004B
:10516000F0B54A7800254C69012A15D00A7800EB81
:1051700082035A6D16681269DCB38C68C1F814405A
:1051800064F306025B6D22F4C01202F500221A617C
:10519000C278012A30D035E083691F681A6934B1BA
:1051A0008E68B44206D966F306024E6104E022F02E
:1051B0007F0201E064F3060222F4C01202F500222D
:1051C0001A61C278012A05D10C780A6900EB8404BF
:1051D000A469626147F004421A60C278CAB94A6998
:1051E000BAB10A78006901219140426B0A434263D7
:1051F0000FE0FFE70C7AC3E70B780A6900EB830343
:105200005B6D5A61097846F0044200EB8100406D05
:1052100002602846F0BD0000426D07491161C17867
:10522000012908D1426D00F2CC515161406D0168F5
:105230004FF0802101607047180008C0F0B50E786B
:1052400000254F780122B2402B4600EB8604012F47
:1052500017D0646D62F31F43226816040DD40E89C3
:1052600066F30A02CE7866F393428E7966F399521A
:1052700042F0805242F4004222600978012904D0B1
:1052800005E0A46962F30F03E6E7C17A29B100697A
:10529000C1691943C1612846F0BD0069C16B19435A
:1052A000C163F8E710B502464C780B78002002EB9A
:1052B0008302012C09D0526D1368C97823F40013BE
:1052C000032904D0022902D003E09269F4E743F0F5
:1052D0008053136010BDF0B50F78002691F801C01F
:1052E00001243346BC401A4600EB8705BCF1010F90
:1052F00007D06D6D64F31F422B600978012904D03B
:1053000005E0AD6964F30F02F6E7C17A29B10069DF
:10531000C1699143C1613046F0BD0069C16B9143E1
:10532000C163F8E702464B780978002002EB81015F
:10533000012B05D0496D0A6842F400120A607047DB
:105340008A691168002901DA41F0804141F40011B5
:1053500011607047F0B54B780A78002401264F6938
:1053600000EB8202012B15D0556D2B682A69002FA6
:1053700062D08E6837447F1EB7FBF6F767F3DC42D6
:10538000C2F3C947774367F312022A61C278012A40
:1053900058D05DE095692B682A696FB1D1F808C0D3
:1053A00067F3120267447F1EB7FBFCF767F3DC422A
:1053B000CF78012F05D008E06FF3120266F3DC42CC
:1053C00003E022F0C04202F100522A61C278012AB1
:1053D0000ED0CA78012A12D04A69C2B10A78964022
:1053E0000269556B35435563CA78012A07D00EE030
:1053F0000D780A6900EB8505AD696A61F4E7026919
:105400009268C2F30D22D2070CD043F0805343F0D0
:1054100004420B7800EB83039B691A60CA78012A67
:1054200003D026E043F00053F1E78A8A93B20A786A
:10543000C96800F050F91CE08F6867F3120266F348
:10544000DC42A2E70D780A6900EB85056D6D6A61A3
:10545000CA78012A06D14A7912B143F0005301E01B
:1054600043F08053097843F0044200EB8100406D23
:1054700002602046F0BD000030B5C368002211462E
:105480009A61C4686FF080436361C568541E6C60A4
:10549000C4686361C4680B4BA361C37803B910216E
:1054A00041F48721C06841F0081141F4401141F0F6
:1054B0008041836941F004018B430B4383611046B3
:1054C00030BD000000080080C0680021826842F002
:1054D000010282600846704738B5002421460094D6
:1054E000009A42F010020092009AC3681A61074ABB
:1054F000C06803690093491C914202D8009BDB06F7
:10550000F7D40320FFF7C1FC204638BD400D03004F
:1055100038B5002422460094009B43F020030093FA
:10552000009B61F38A1300930099C36819610749CE
:10553000C06803690093521C8A4202D8009B9B06F4
:10554000F7D40320FFF7A1FC204638BD400D03002F
:105550000146002009698968C1F3410139B1012977
:1055600003D0022905D0032900D10220704703206F
:105570007047012070470269106861F301001060F4
:105580007047C068406910F0010F01D000207047DB
:1055900001207047C0684169806908407047006910
:1055A0008169C069084080B2704700698169C0693B
:1055B0000840000C704700EB8101496D8968006963
:1055C000406908407047034610B50020D21C92087D
:1055D000D3F8D03003E01C6841F8044B401C9042E3
:1055E000F9D3084610BD000070B500220123C27037
:1055F00040268370144615468680012901D061B18A
:1056000016E0C3720821017004214FF0A0424170DE
:105610009115C180022101720AE0C5720C2101704E
:10562000062141704FF4A061C1801F4A0372C3700C
:1056300002F50061C0E9032100210AE002EB4113F9
:1056400003F5106600EB810503F53063AE61491C7C
:105650006B6543788B42F1D802F58061416140313E
:10566000C0F8CC10002108E002EB411300EB8105EB
:1056700003F5A063491CC5F8903003788B42F3D83A
:10568000002108E002EB013300EB810503F58053B4
:10569000491CC5F8D03003788B42F3D802F560621C
:1056A000C0F80C21204670BD0000044010B5C06851
:1056B0000024C268012922F0C04201D019B104E0DF
:1056C00042F0005201E042F08042C2603220FFF717
:1056D000D7FB204610BD30B5C47800256CB900EB6F
:1056E00082000024DB1C9B08D0F8D00003E051F8B6
:1056F000042B0260641C9C42F9D3284630BDFEE7AF
:10570000014A024900F013B8895700080C03002031
:1057100002E008C8121F08C1002AFAD1704770477A
:10572000002001E001C1121F002AFBD170472DE9C2
:10573000F04116460F460446002503E03946B047BF
:105740006D1C641C20780028F8D12846BDE8F08143
:1057500001B581B00449019848430090002801D068
:10576000401EFAE70CBD0000A086010001B581B023
:105770000449019848430090002801D0401EFAE7F0
:105780000CBD0000A086010038B504468DF800006D
:1057900069460320ABBE204638BD00001CB500247E
:1057A0001248CDE90004124B124A01211248FEF7BB
:1057B00027FC12480090124B124A00211248FEF7B3
:1057C0001FFC4FF480150198411C0191A842FAD1A9
:1057D0000020FDF7FBFF0120FDF7F8FF0220FDF799
:1057E000F5FF0320FDF7F2FF0194ECE70000002035
:1057F0000401002060000020100300201C00002095
:10580000E00100207C00002004090020008002024A
:105810001F00000053544D20202020206D6963722A
:105820006F534420466C617368202020302E303145
:105830000000000300808300000000000000000062
:105840000600000000000000000400080A000B0031
:10585000070007000000040004000000040000002E
:1058600001000020008001000020008000000200F4
:10587000060000000D000F00060028002800400070
:105880000001000280000000400000004000000015
:1058900000010000040000000100000004000000FE
:1058A00040000000000000000000000000000000B8
:1058B00000000000000000000000000000000000E8
:1058C00000000000000000000000000000000000D8
:1058D0000000000000008001800180018001800143
:1058E00080018001800180018001800180018001B0
:1058F00000000000800180010000000000000000A6
:105900000000000000000000CC00CC00CC00CC0067
:10591000CC00CC00000000000000000000000000EF
:105920000000000000000000000000000000000077
:105930000000000000000000000000000000000067
:10594000600C600C600C30063006FE1FFE1F300637
:1059500038071803FE1FFE1F180318038C018C0163
:105960008C01000000008000E003F80F9C0E8C1CEE
:105970008C188C009800F801E007800E801C8C18B1
:105980008C189C18B80CF00FE00380008000000019
:10599000000000000000000000000E181B0C110C9D
:1059A00011061106110311039B018E01C038C06C52
:1059B00060446044304430441844186C0C38000093
:1059C000000000000000E001F00338071806180688
:1059D0003003F001F000F8009C310E33061E061C67
:1059E000061C063FFC73F0210000000000000000D0
:1059F00000000000000000000C000C000C000C0077
:105A00000C000C000000000000000000000000007E
:105A10000000000000000000000000000000000086
:105A2000000000000000000200038001C000C00070
:105A30006000600030003000300030003000300086
:105A40003000300060006000C000C0008001000332
:105A500000020000000020006000C0008001800102
:105A6000000300030006000600060006000600060C
:105A7000000600060003000380018001C0006000F2
:105A800020000000000000000000000000000000F6
:105A9000C000C000D806F807E00130033807000056
:105AA00000000000000000000000000000000000F6
:105AB00000000000000000000000000000000000E6
:105AC00080018001800180018001FC3FFC3F80015A
:105AD00080018001800180010000000000000000C2
