:020000040800F2
:10000000880C00209D010008AB1900088F0C000827
:10001000A919000841020008C53C000800000000C2
:100020000000000000000000000000002521000882
:100030008D090008000000008D1A00080522000844
:10004000B7010008B7010008B7010008B7010008B0
:10005000B7010008B7010008B7010008B7010008A0
:10006000B7010008B7010008B7010008B701000890
:10007000B7010008B7010008B7010008B701000880
:10008000B7010008B7010008B7010008B701000870
:10009000B7010008B7010008B7010008B701000860
:1000A000B7010008B7010008B7010008B701000850
:1000B000B7010008B7010008B7010008B701000840
:1000C000B7010008B7010008B7010008B701000830
:1000D000B7010008B7010008B7010008B701000820
:1000E00091090008B7010008311A0008B70100089B
:1000F000B7010008B7010008B7010008B701000800
:10010000B7010008B7010008B7010008B7010008EF
:1001100075230008B7010008B7010008B7010008FF
:10012000B7010008B7010008B7010008B7010008CF
:10013000B7010008B7010008B7010008B7010008BF
:10014000B7010008B7010008B7010008251A000828
:10015000B7010008B7010008B7010008B70100089F
:10016000B7010008B7010008B7010008B70100088F
:10017000B7010008B7010008B7010008B70100087F
:10018000B7010008B7010008DFF80CD000F018F83C
:1001900000480047753D0008880C0020064880474D
:1001A00006480047FEE7FEE7FEE7FEE7FEE7FEE75C
:1001B000FEE7FEE7FEE7FEE761220008890100088E
:1001C000064C074D06E0E06840F0010394E80700A4
:1001D00098471034AC42F6D3FFF7DAFF006200080C
:1001E0002062000870B501EB020410F8015B15F005
:1001F000070301D110F8013B2A1106D110F8012B99
:1002000003E010F8016B01F8016B5B1EF9D12B07BD
:1002100005D40023521E0FD401F8013BFAE710F871
:10022000013B02F10202A1EB030303E013F8015BBF
:1002300001F8015B521EF9D5A142D6D3002070BD52
:10024000FEE710B50A460C0601F07F0303EB8301BD
:1002500000EBC10102D501F58E7101E001F55D7180
:10026000D2090B704A7003F017FB002010BD0A463C
:1002700010B5090602F07F0306D503EB830100EBFE
:10028000C10101F58E7105E002EB820100EBC101B5
:1002900001F55D7100248C700B70D2094A7003F077
:1002A000E2FA002010BD10B50A0604D501F07F0166
:1002B00003F002FC01E003F0E3FB002010BD70B589
:1002C0000C460E0601F07F0505EB850100EBC10130
:1002D00002D501F58E7101E001F55D71E4090D7043
:1002E0004C708A60CB7000D0CD80022B01D10022EF
:1002F0000A7103F08FFA002070BD10B501F07F0481
:1003000004EB840100EBC10101F55D714B61CA6032
:1003100000238B614B700C70C378012B00D10A61F4
:1003200014F0FF0F03D003F0E9FA002010BD03F032
:1003300003FAFAE70069002261F30A120168114327
:10034000016070470A4610B5090602F07F0306D522
:1003500003EB830100EBC10101F58E7105E002EBB7
:10036000820100EBC10101F55D7101248C700B70FD
:10037000D2094A7003F0AAFA002010BD70B511F03E
:100380007F0404EB840100EBC10101F58E714FF095
:1003900001054D700C70CA600A614FF00002C1E99E
:1003A000053203D003F0AAFA002070BD03F0C4F9AF
:1003B000FAE700002DE9F0410646002503F0C3FBF3
:1003C000074655E0F80751D03069EAB20369416B3E
:1003D000D14006EB820201F00101926943EAC111AA
:1003E00094680C40E1071AD00124426B04FA05F12D
:1003F0008A43426306EB8500806984601F48E9B246
:100400000068426830469047F078012807D135B936
:1004100096F81101042802D1304603F0E9F92007CB
:1004200004D506EB8500082480698460E00604D5C5
:1004300006EB8500102480698460600604D506EB15
:100440008500402480698460A00704D506EB850000
:10045000022480698460200608D52946304600F0D1
:1004600062F906EB85018020896988606D1C7F0830
:10047000002FA7D10120BDE8F081000098000020E6
:100480002DE9F0410646002403F063FB0746DFF840
:10049000988043E0F8073FD0E1B2304603F05FFBBD
:1004A0000546C00725D006EB84000125416D8D600F
:1004B000F17801290CD1406D016904EB840006EB51
:1004C000C000C1F31201D0F87C23511AC0F88C137C
:1004D000D8F80000E1B2026830469047F078012871
:1004E00007D134B996F81101052802D1304603F03E
:1004F0007FF9A80704D506EB84000225406D8560CE
:10050000280709D5D8F8000081683046884706EBEF
:1005100084010820496D8860641C7F08002FB9D1D0
:100520000120BDE8F08100009800002070B506466B
:10053000C068816921F010018161F068056A05F0E9
:100540000F0000EB800006EBC004C5F3434004F548
:100550005D74072821D2DFE800F02020042020204D
:10056000150047F6F070054217D0C5F30A152A4664
:100570003046E16803F0FBFAE0682844E060A069D7
:10058000284409E0082206F2CC51304603F0EFFA85
:10059000A069C5F30A110844A061F068816941F0BF
:1005A00010018161012070BD38B5044600208DF82E
:1005B000000094F812018DF80000154800684169A8
:1005C0002046884720698068E2684FF400615161E5
:1005D000A17AD1B1C00718D094F81501012814D11F
:1005E0009DF80000032810D1D4F80C01016841F0F7
:1005F00001010160D4F80C01016841F003010160C0
:100600000448016841F006010160012038BD000086
:100610009800002010ED00E070B504460069002548
:100620000126416821F0010141602946204603F07E
:1006300043FA0020FF2106E004EB800293699960F1
:10064000526D9160401C62788242F5D821694FF06A
:10065000FF3088612846216966F30F0066F31F406A
:10066000C861216945F00B004861216945F00B0024
:1006700008612069016821F4FE610160204603F0F1
:10068000B7F8E1684FF48050486103480068016999
:1006900020468847012070BD9800002070B50446B0
:1006A00003F076FA0122002384F8122184F8143131
:1006B000194640250EE000BF01EB810004EBC000AD
:1006C00000F58E7042700170C180C370C0E90253A2
:1006D000491C436160788842EED800210EE000BFDB
:1006E00001EB810004EBC00202F55D7253701170E2
:1006F000D180D370C2E90253491C536160788842AB
:10070000EED8204602F0F2FF204602F0EBFE002178
:10071000204603F09FFA204602F024FF2046BDE861
:10072000704003F0A5B92DE9F0470D46064601EBF0
:10073000850006EBC00404F58E74D4E90501421A65
:10074000A068904200D20246D21C970806EB8509A9
:1007500017E0A0EB0108A068404500D2804608F1F0
:10076000030087081FFA88F3EAB23046E16803F015
:1007700095FAE16801EB0800E060A16901EB08006F
:10078000A061D9F81800806980B2B84205D9D4E9CF
:100790000501814201D20028DBD10120BDE8F087AC
:1007A000074A904201D2074801E005481038064A3E
:1007B0008B0001EA020101D5C1607047816070477A
:1007C00010640240006002407D0F7D0F0029016827
:1007D00002D041F0010101E021F001010160704708
:1007E0002DE9F043016821F0010101600021016061
:1007F00041608160C1600161212141613C493C4A05
:100800003D251039904202D18D60BDE8F083384A11
:100810004FF474661832904201D18E60F5E7344A85
:100820004FF474173032904201D18F60EDE7304AB7
:100830004FF0746C4832904202D1C1F808C0E4E72E
:100840002B4B2C4A6033984201D1CA60DDE7284C1B
:10085000294B7834A04201D1CB60D6E7DFF89080F5
:10086000264C08F19008404501D1CC60CDE7DFF877
:1008700080804FF03D5908F1A808404502D1C1F8E9
:100880000C90C2E71E49DFF878800839404501D155
:100890000D60BAE71A4D1835A84201D10E60B4E7D1
:1008A000174D3035A84201D10F60AEE7144D4835E1
:1008B000A84202D1C1F800C0A7E7114D1049603528
:1008C000091FA84201D10A609FE70D4A7832904281
:1008D00001D10B6099E70A4A9032904201D10C6035
:1008E00093E7074AA83290428FD1C1F800908CE775
:1008F000106002403D000020400F002000003D201D
:10090000106402400246094B00209A4201D2084A74
:1009100001E0064A103A8B0001D5526800E01268E7
:10092000044B1A400A4200D0012070471064024074
:10093000006002407D0F7D0F30B50368124ACC681D
:1009400013400A682243D1E905452C432243CC6970
:1009500022430C6A22434C6A22438C6A22434C6B2A
:1009600022438C6B22431A430260426922F0070340
:10097000D1E90B2422431A4342610A6942604A6862
:1009800082608968C16030BD3F801CF07047000004
:1009900070B54FF40045284600F05CF800283ED0C2
:1009A0001F4CD4F81801A8B3A07A10B394F8120120
:1009B00004281ED11B49086820F0060008600120A9
:1009C00001F01AF9312001F0F5F80028FAD00120E1
:1009D00001F01AF9392001F0EDF80028FAD00220D0
:1009E00001F018F901F000F90828FBD10C4803F0D8
:1009F00046F90B4802F074FC94F813010A4984F894
:100A000012010120086009494FF6FF70088008A014
:100A100003F05AF92846BDE8704000F015B870BDE3
:100A2000EC01002010ED00E0040000205001002047
:100A30003E205553422044657669636520776F6B8D
:100A4000652075702E0A000001490860704700009B
:100A5000143C0140064A014600201268044B0A403B
:100A600014331B680B4202D0002A00D001207047CB
:100A7000003C014030B51A498379026853B30B68D2
:100A800093430B600A1D13680468A3431360027943
:100A90000A441368046823431360114A0832136838
:100AA0000468A3431360131D1C680568AC431C60F5
:100AB0004479102C05D021440A68006802430A607A
:100AC00030BD116804682143116019680068014352
:100AD000196030BD0079084401689143016030BD60
:100AE000003C01404FF0204202EB800000290168E9
:100AF00002D041F0010101E0014A1140016070475C
:100B0000FEFF0F0030B5D0E901121143D0E90323F5
:100B10001A43114342690368114382691143C26950
:100B20001143026A1143426A1143826A1143C26A45
:100B30001143026B11434FF0204242F823108168A9
:100B4000082906D1016802EB81010B6843F04003DC
:100B50000B60416BD1E9003443EA04138C688D8942
:100B6000240244EA054423430C8A43EA04530C7DDF
:100B7000896943EA04630B43016802EB81014B601E
:100B8000C16AB1F5804F07D000686FF0704102EB89
:100B90008000C0F8041130BD816B0068D1E90034D9
:100BA00043EA04138C680D8A240244EA0554234363
:100BB0000C7D896943EA046302EB80000B43C0F8B3
:100BC000043130BDF0B50023012403270D6804FA79
:100BD00003F21540954242D1D0F800C05E0007FAFA
:100BE00006F52CEA050CC0F800C091F804C0D0F856
:100BF00000E00CFA06FC4CEA0E0CC0F800C091F8BC
:100C000004C0BCF1010F02D0BCF1020F1FD1D0F81B
:100C100008C02CEA050CC0F808C091F805C0D0F84F
:100C200008E00CFA06FC4CEA0E0CC0F808C0D0F83C
:100C300004C02CEA020CC0F804C0426891F806C057
:100C40000CFA03FC1FFA8CFC42EA0C024260C268F8
:100C5000AA43C260CA79C568B2402A43C2605B1C1D
:100C6000102BB3D3F0BD4B07DB0E9A40C90810B56B
:100C700000EB8100016A0F249C40A1430162016ADC
:100C80001143016210BD4183704701837047FEE745
:100C900002460020938A128B43EA024323F07F42EC
:100CA000914300D1012070470029818802D041F48E
:100CB000006101E021F40061818070470029818892
:100CC00002D041F4805101E021F4805181807047CD
:100CD0000029018802D041F4807101E021F4807183
:100CE000018070470029018802D041F4007101E0C1
:100CF00021F40071018070470CB50246002000927B
:100D00000A0F21F07F41019202D0009A143202E0D2
:100D1000009A090C1832009212680A4200D0012091
:100D20000CBD00007FB5044680880D4620F03F06CC
:100D3000684600F0F5FE26490298B0FBF1F189B251
:100D40000E43A680228822F001022280214B2A68CD
:100D50009A421BD85200B0FBF2F080B2042800D2B5
:100D60000420491C2184A083208840F001002080B9
:100D700021884FF6F5300140A8886A89104308435E
:100D80002080A8892989084320817FBDEB88A3F5AD
:100D90003F46FF3E05D102EB4202B0FBF2F080B2CB
:100DA00008E002EBC20303EB0212B0FBF2F080B2E8
:100DB00040F48040020501D140F001004FF49672EA
:100DC00051434FF47A72B1FBF2F140F40040C8E7AE
:100DD00040420F00A08601002DE9F84F8246002016
:100DE000894600906946012000F0D6F9504D012156
:100DF0002846FFF763FF01212846FFF769FF4D4CA6
:100E00004FF440564C4F266004E02068401E20609E
:100E1000401C7CD039462846FFF76EFF0028F4D0EE
:100E200000225146284600F08FF8DFF81081266036
:100E300004E02068401E2060401C77D041462846D0
:100E4000FFF726FF0028F4D04946284600F084F832
:100E5000DFF8E480DFF8E09008F17F0809F103098A
:100E6000266004E02068401E2060401C5ED04146A1
:100E70002846FFF741FF28B949462846FFF73CFFBF
:100E80000028EFD001212846FFF722FF266004E06A
:100E90002068401E2060401C48D039462846FFF795
:100EA0002BFF0028F4D001225146284600F04CF8D0
:100EB0002660234E04E02068401E2060401C35D090
:100EC00031462846FFF7E4FE0028F4D001212846E9
:100ED000FFF7EAFE1B4E01213046FFF777FC164F65
:100EE0004FF4C0401F37206004E02068401E20609F
:100EF000401C1BD039463046FFF704FD0028F4D0D3
:100F000001212846FFF7EEFE0021304600E00DE00B
:100F1000FFF75CFC00212846FFF7C6FE3946304645
:100F2000FFF73EFC9DF80000BDE8F88F0220FBE7CC
:100F300000540040C00100200100001082000700A2
:100F4000020003001060024012B141F0010101E013
:100F500001F0FE0101827047018270472DE9F84FD0
:100F60008A46814600278DF800206946384600F001
:100F700013F9414D01212846FFF7AAFE3F4C4FF4DB
:100F80004056DFF8FC80266004E02068401E2060A8
:100F9000401C6FD041462846FFF7AEFE0028F4D033
:100FA000002249462846FFF7CFFFDFF8D8802660A9
:100FB00004E02068401E2060401C5BD0414628466B
:100FC000FFF766FE0028F4D051462846FFF7C4FF1D
:100FD000DFF8AC80DFF8A89008F17F0809F1030979
:100FE000266004E02068401E2060401C42D041463C
:100FF0002846FFF781FE28B949462846FFF77CFEC0
:101000000028EFD001212846FFF74EFEDFF8788058
:1010100001214046FFF7DAFB26604646DFF86C8088
:1010200004E02068401E2060401C23D0414630462A
:10103000FFF768FC0028F4D04FF4C04020604C4615
:1010400021462846FFF758FE0028F9D001212846FE
:10105000FFF748FE00213046FFF7B8FB0021284685
:10106000FFF722FE41463046FFF79AFB3846BDE8BF
:10107000F88FFFE70220FAE700540040C00100208B
:101080000100001082000700A06002400000202044
:101090001FB500F0CBF80020ADF80400ADF8080053
:1010A0004FF48060ADF80A000001ADF80C004BF67B
:1010B000FF713748ADF80610009069463548FFF7D4
:1010C00031FE822000F048F910B1042004B010BDB8
:1010D000882000F041F908B10520F7E7822000F0F0
:1010E0007BF9882000F078F901220721822000F0A6
:1010F0008BF801221146822000F01BF901221146D3
:10110000822000F0DFF80021012000F0F5F9002234
:101110000C21882000F00DF901220C21882000F01C
:10112000D1F803220C21882000F0DEF800F064F9E9
:1011300001220D21882000F067F801220421882077
:1011400000F0F7F800220121882000F0F2F80122D7
:101150000521882000F0B6F80021042000F0CCF929
:101160000021012000F0C8F90022F821882000F0B9
:10117000E0F80122F821882000F0A4F80322F821E9
:10118000882000F0B1F800F095F900209EE70000FB
:10119000A08601000054004030B50D4604460121F0
:1011A0008FB0480500F074FC4FF0007000901448B8
:1011B000CDE9010500210015CDE905100420CDE998
:1011C0000A100791089109910C910D910E91012C33
:1011D0000FD0002C0BD1402003900120094C04902B
:1011E0002046FFF7FDFA69462046FFF7A5FB0FB042
:1011F00030BD0220034CCDE90310903CF0E7000025
:1012000010540040A060024070B50C4616460546DA
:101210000421FFF7E1FD0EB1A04300E020430246A8
:1012200004212846FFF79AFE002070BD7CB50121FD
:101230004C05204600F050FC01214FF4817000F075
:1012400027FC0121880300F05FFC0121204600F00B
:101250004FFC0021204600F04BFC184D04220621D3
:101260002846FFF700FD042209212846FFF7FBFC72
:10127000022140208DF8041000908DF80510012007
:101280008DF8060000248DF8074069462846FFF7D0
:1012900099FC6815009069462846FFF793FC0420E6
:1012A00000908DF804408DF8074069460448FFF728
:1012B00089FC0221082000F037FF7CBD00040240B9
:1012C0000020024070B50C46164605461721FFF770
:1012D00083FD0EB1204300E0A043024617212846BB
:1012E000FFF73CFE002070BD2DE9F0410D4616468B
:1012F00007461621FFF770FD044615213846FFF713
:101300006BFD20EA050124EA05020C46F00700D037
:101310002A43B00701D541EA050416213846FFF7F4
:101320001DFE224615213846FFF718FE0020BDE8B5
:10133000F08170B50C46164605461321FFF74CFDAB
:101340000EB1204300E0A043024613212846FFF7D8
:1013500005FE002070BD000010B500F02EF8A0F5CD
:101360000061113906D00448006808B1012010BDA1
:10137000022010BD002010BDC001002010B51221B8
:101380008820FFF729FD1F21B1EBD00F13D00106F4
:1013900001D4012010BD410601D4022010BD8106F8
:1013A00001D4032010BDC10601D4042010BD0007E4
:1013B00001D4052010BD002010BD70B505460021E8
:1013C000FFF70AFD4FF6FF7101EA002401212846CC
:1013D000FFF702FD204370BD10B504460222032131
:1013E000FFF7BCFD022002F0A5FC002203212046ED
:1013F000FFF7B4FD002010BD10B504218220FFF7D7
:10140000EBFC20F0030204218220FFF7A7FD0A2154
:101410008220FFF7E1FC40F007020A218220FFF75B
:101420009DFD492220218220FFF798FD022002F035
:1014300081FC012221218220FFF790FD17218220CB
:10144000FFF7CAFC20F01E0217218220FFF786FD5D
:101450009A2241218220FFF781FD01224A21822028
:10146000FFF77CFD01224B218220FFF777FD002250
:101470004B218220FFF772FD012256218220FFF7C7
:101480006DFD012258218220FFF768FD01224021D5
:101490008220FFF763FDFF220B218220FFF75EFD14
:1014A00003480021C180818041800180084610BD31
:1014B000D001002008B500208DF80000042188200C
:1014C000FFF78AFC8DF800009DF8000020F009006D
:1014D0008DF800009DF8002004218820FFF73EFDD4
:1014E000012260218820FFF739FD03226021882036
:1014F000FFF734FD002008BD10B5C20701D08223DC
:1015000003E010F0050F08D08823024639B11021FE
:101510001846FFF723FD002010BD032010BD112148
:10152000F6E730B50546002440F23F11204600F0B2
:10153000FDF94FF0D041222008804FF496304D80C5
:10154000641C8442FBD330BD70B5064640F23F14A4
:10155000084D08E020222146304600F0A7F86868D0
:101560008088201A84B26968601C80B289888842A9
:10157000F0D270BD740100201CB50121782000F06C
:1015800087FA4CF23370009002208DF804008DF839
:10159000050000208DF80600404C8DF807006946D4
:1015A0002046FFF70FFB0C2200212046FFF75BFBD4
:1015B0000C2201212046FFF756FB0C220421204675
:1015C000FFF751FB0C2205212046FFF74CFB0C22B4
:1015D00008212046FFF747FB0C2209212046FFF790
:1015E00042FB0C220A212046FFF73DFB0C220E2174
:1015F0002046FFF738FB0C220F212046FFF733FB74
:101600004FF68070264C009069462046FFF7DAFAC4
:101610000C2207212046FFF726FB0C22082120463A
:10162000FFF721FB0C2209212046FFF71CFB0C22AF
:101630000A212046FFF717FB0C220B212046FFF75B
:1016400012FB0C2211462046FFF70DFB0C220D2148
:101650002046FFF708FB0C220E212046FFF703FB74
:101660000C220F212046FFF7FEFA01200D4C0090BE
:1016700069462046FFF7A6FA0C2200212046FFF714
:10168000F2FA2015084C009069462046FFF79AFAB6
:101690000C220A212046FFF7E6FA1CBD000C02408E
:1016A000001002400014024000180240064B10B423
:1016B0005B68203AD2B21C68DB88534304EB4302D8
:1016C00010BC00F01FB8000074010020F0B50D46FA
:1016D000074640F23F140A4E08E021463846FFF71D
:1016E000E5FF70688088201A84B26D1C2A78002A71
:1016F00005D07168601C80B289888842EDD2F0BD47
:10170000740100202DE9F0439046894600260546E5
:1017100000F00CF94FF0D047184C29E02220388017
:1017200000201BE00C23B1FBF3F34FEAC30C802332
:1017300003FA0CF338F816C0034113EA0C0F01D179
:101740000C2906D9012383401CEA030F03D10C297D
:1017500001D9618800E021887980401C918881420C
:10176000E0D86D1CADB24946284600F0DFF8761C83
:101770006268D088B042D1D8BDE8F08374010020FF
:1017800000B5012197B0084600F09AF905200F90A6
:1017900000200921CDE91001149004211590CDE914
:1017A000001012901021CDE90201139004900590D1
:1017B000069009020790CDE908010A900B900C9061
:1017C0000FA80D900E906846FFF79CF901210420A8
:1017D000FFF788F917B000BD014840687047000066
:1017E0007401002008484FF6FF7181800021C180FC
:1017F000018141818181C18101220270417081702A
:10180000C1700182704700004C01002010B5FFF745
:10181000E9FFBDE810400020FFF783BE70B5054624
:101820008AB01F2000F07AF8FFF7D6FF04460020A8
:1018300069464FF4A072202302E00B54401CC0B252
:10184000A688B2FBF6F6761E8642F6DCA088B2FBCE
:10185000F0F00844002100F8011CE0886946C0F15E
:10186000F00080B2FFF732FFE0882946C0F1F000B7
:1018700080B2FFF72BFF002000F050F80AB070BDD7
:1018800070B588B00021034600E0491C13F8012B15
:10189000002AFAD11A2900D91A21002220246B46E5
:1018A0009C54521C1B2AFBD30022C1F11B0404E0F0
:1018B000855C02EB5406521C9D558A42F8D30020E9
:1018C000FFF72FFE104800F03DF8FFF785FF0446B4
:1018D0004FF6FF75284600F03BF81F2000F01EF879
:1018E0000020FFF731FEE0886946FFF7EFFEE08851
:1018F00005EA4000FFF728FE002000F00FF803483B
:1019000000F020F808B070BD840100208C01002098
:101910004FF0D041088048887047000001B5BDF8FD
:1019200000000149488008BD740100200B4600B545
:101930000146202000F014F8194621205DF804EB40
:1019400000F00EB8014948607047000074010020A3
:1019500001B5BDF800000149088008BD74010020F0
:101960004FF0D04210805180704700001CB501211B
:10197000042000F08DF80820009001208DF804006C
:1019800000208DF8060003218DF80510054C8DF818
:10199000070069462046FFF715F908212046FFF7A2
:1019A00072F91CBD00080240FEE7704770B50F21B8
:1019B000C478027801234FF0E026E4B1124C246889
:1019C00004F4E064C4F5E064C4F30724C4F104053E
:1019D000E1404478AC4085780D4025430B4C29010B
:1019E0001155007800F01F018B40400906EB800084
:1019F000C0F8003170BD02F01F008340500906EBB3
:101A00008000C0F8803170BD0CED00E000E400E023
:101A10000249084302490860704700000000FA05C7
:101A20000CED00E0014800F0D3BF0000EC01002005
:101A3000144810B5807AF0B11348016821F006010E
:101A40000160012000F0D8F8312000F0B3F8002840
:101A5000FAD0012000F0D8F8392000F0ABF80028C7
:101A6000FAD0022000F0D6F800F0BEF80828FBD12A
:101A7000044802F004F9BDE810404FF48020FEF75E
:101A8000E3BF0000EC01002010ED00E07047000013
:101A9000044A0029116801D0014300E0814311602C
:101AA0007047000030380240044A0029116801D014
:101AB000014300E081431160704700003438024068
:101AC000044A0029116801D0014300E081431160FC
:101AD0007047000038380240044A0029116801D0DC
:101AE000014300E08143116070470000403802402C
:101AF000044A0029116801D0014300E081431160CC
:101B00007047000020380240044A0029116801D0C3
:101B1000014300E0814311607047000044380240F7
:101B200070B5204A1168204C11F00C0104D01F4EF2
:101B3000042903D0082903D004601BE0066019E0E3
:101B40001849091F0B68C3F380550B6803F03F0366
:101B500015B1B6FBF3F301E0B4FBF3F30C680968CD
:101B6000C4F388146343C1F30141491C4900B3FB2A
:101B7000F1F1016011680F2303EA11110C4B5C5C59
:101B80000168E14041601468072505EA94241C5D62
:101B900021FA04F48460126805EA52329A5CD1405A
:101BA000C16070BD083802400024F40040787D0117
:101BB000D801002002460020510901290BD002293A
:101BC0000CD00849096802F01F02012393400B4220
:101BD00000D00120704703497439F3E70149091F18
:101BE000F0E70000743802400248006800F00C0082
:101BF0007047000008380240024900220A7008704D
:101C00007047000002380240014908667047000032
:101C100000004742034A116821F0030101431160AB
:101C200070470000083802402DE9F84F002000906E
:101C3000FFF7A2FCFFF7A4FD052002F06DF80020DD
:101C4000FFF766FEA0F513414FF480774FF4E0658F
:101C500040F2022341F2B07640F2371840F23919CF
:101C60004FF4E85A40F23F1B41F21804009020392B
:101C70007ED1F901E520FFF773FE01210020FFF777
:101C80006FFE39460120FFF76BFE29460220FFF761
:101C900067FE41F230010320FFF762FE00210420BD
:101CA000FFF75EFE19460820FFF75AFE00210920C3
:101CB000FFF756FE00210A20FFF752FE00210C20FC
:101CC000FFF74EFE00210D20FFF74AFE00210F20F6
:101CD000FFF746FE00211020FFF742FE00211120F1
:101CE000FFF73EFE00211220FFF73AFE00211320ED
:101CF000FFF736FE142002F00FF831461020FFF7F0
:101D00002FFE41461120FFF72BFE052002F004F8BC
:101D100049461220FFF724FE052001F0FDFF514641
:101D20001320FFF71DFE13212920FFF719FE0520C0
:101D300001F0F2FF00212020FFF712FE00212120F8
:101D4000FFF70EFE07213020FFF70AFE07213120A2
:101D5000FFF706FE07213220FFF702FE072135209C
:101D6000FFF7FEFD07213620FFF7FAFD294600E0C8
:101D700068E03720FFF7F4FD29463820FFF7F0FD33
:101D800029463920FFF7ECFD29463C20FFF7E8FD06
:101D90004FF4F8513D20FFF7E3FD00215020FFF7FD
:101DA000DFFDEF215120FFF7DBFD00215220FFF77F
:101DB000D7FD59465320FFF7D3FD4FF41C51602047
:101DC000FFF7CEFD01216120FFF7CAFD00216A2047
:101DD000FFF7C6FD00218020FFF7C2FD0021812012
:101DE000FFF7BEFD00218220FFF7BAFD002183200E
:101DF000FFF7B6FD00218420FFF7B2FD002185200A
:101E0000FFF7AEFD10219020FFF7AAFD00219220E0
:101E1000FFF7A6FD03219320FFF7A2FD4FF4887181
:101E20009520FFF79DFD00219720FFF799FD0021E8
:101E30009820FFF795FD21460320FFF791FD40F222
:101E40007311EDE0A0F5134125397DD1012100206A
:101E5000FFF786FD39460120FFF782FD2946022063
:101E6000FFF77EFD21460320FFF77AFD00210420C5
:101E7000FFF776FD19460820FFF772FD00210920C3
:101E8000FFF76EFD00210A20FFF76AFD00210C20FC
:101E9000FFF766FD00210D20FFF762FD00210F20F6
:101EA000FFF75EFD00211020FFF75AFD00211120F1
:101EB000FFF756FD00211220FFF752FD00211320ED
:101EC000FFF74EFD142001F027FF31461020FFF7E9
:101ED00047FD41461120FFF743FD052001F01CFF9F
:101EE00049461220FFF73CFD052001F015FF514641
:101EF0001320FFF735FD13212920FFF731FD0520C1
:101F000001F00AFF00212020FFF72AFD00212120F7
:101F1000FFF726FD07213020FFF722FD40F20231B6
:101F20003120FFF71DFD40F2051319463220FFF75F
:101F300017FD40F2062529463520FFF711FD40F632
:101F400008063146362000E06DE0FFF709FD29461E
:101F50003720FFF705FD40F204513820FFF700FD60
:101F600007213920FFF7FCFC19463C20FFF7F8FC5D
:101F700031463D20FFF7F4FC00215020FFF7F0FC34
:101F8000EF215120FFF7ECFC00215220FFF7E8FC85
:101F900059465320FFF7E4FC4FF427416020FFF738
:101FA000DFFC01216120FFF7DBFC00216A20FFF745
:101FB000D7FC00218020FFF7D3FC00218120FFF710
:101FC000CFFC00218220FFF7CBFC00218320FFF70C
:101FD000C7FC00218420FFF7C3FC00218520FFF708
:101FE000BFFC10219020FFF7BBFC00219220FFF7DF
:101FF000B7FC03219320FFF7B3FC4FF488719520C1
:10200000FFF7AEFC00219720FFF7AAFC00219820E3
:10201000FFF7A6FC21460320FFF7A2FC40F2331194
:102020000720FFF79DFC0348A0F108014860BDE8C8
:10203000F88F00007C0100201CB504460E480121E9
:1020400050F82400FFF724FD0B4800210A3830F82F
:102050001400009001208DF804008DF806108DF812
:10206000070002208DF805000448694650F8240056
:10207000FEF7A8FD1CBD0000E4610008A4010020DB
:1020800070B5044625480E4686B050F8240001215C
:10209000FFF7FEFC01218803FFF736FD1F480025EE
:1020A0008DF8105038388DF8135030F81400039024
:1020B0001B4803A950F82400FEF784FD012E2BD104
:1020C0001648263810F81410801F10F8140000F07D
:1020D0002BF81248323830F8140000908DF8045074
:1020E0000CB10C2000E008208DF8050001258DF8CA
:1020F00006506846FEF7BEFC0848203810F8140069
:102100008DF808000F208DF809008DF80A008DF871
:102110000B5002A8FFF74AFC06B070BDF46100083E
:10212000B40100207047000010B58A0721F00304B5
:102130000649130F21440F220C689A4094430C6007
:102140000A68984002430A6010BD00000838014048
:102150000CB500202749019000900A6842F48032B3
:102160000A604FF4A0630A6802F400320092019AF8
:10217000521C0192009A12B9019A9A42F3D10A684C
:10218000920334D5012000901A484030026842F092
:10219000805202601848026842F48042026015488A
:1021A000083002680260026842F40042026002687D
:1021B00042F4A0520260031F104A1A600A6842F0FB
:1021C00080720A600A689201FCD50D4A40F20561EE
:1021D0001160016821F003010160016841F0020112
:1021E00001600168C1F381010229FAD10CBD0090A0
:1021F0000CBD000000380240007000400854400749
:10220000003C024070B500252C46FFF7B7F80228C5
:102210000ED06FF00901032804D0042804D005284B
:1022200007D103E00D4604E00A2502E00C4600E079
:102230000A240949002215F0FF000A704870E3B231
:102240008B70CA7001D1002B05D0BDE8704004220C
:10225000024800F032BB70BD08000020EC010020F5
:10226000124810B5016841F470010160104801681E
:1022700041F0010101600E4A00210832116002683C
:102280000C4B1A400260031D0B4A1A60026822F4CC
:102290008022026006480C300160FFF759FF0349B5
:1022A0004FF000608039086010BD000088ED00E04C
:1022B00000380240FFFFF6FE1030002470B588B0F1
:1022C00001210420FFF7E4FB0121C804FFF704FC0F
:1022D000264E08220A213046FEF7C5FC08220B21B3
:1022E0003046FEF7C0FC02218DF814108DF8151051
:1022F0004FF44060002404908DF8164001258DF8BD
:10230000175004A93046FEF75DFC4FF41650ADF8A7
:1023100004400090ADF80640ADF80840ADF80C4020
:102320000C20134CADF80A006946204600F0A4F8D2
:102330000121204600F057F84021204600F04AF8DD
:10234000012240F22551204600F07DF834208DF81E
:10235000180003208DF819008DF81A008DF81B5015
:1023600006A8FFF723FB08B070BD0000000802407C
:10237000004C004070B5134D40F2255631462846BA
:1023800000F042F8104C58B13146284600F025F8CC
:10239000284600F0CDF80D4A11786054491C1170A0
:1023A00021780B48012906D0022909D1BDE87040E7
:1023B0000821FEF768BCBDE870400821FEF765BC47
:1023C00070BD0000004C0040E0070020000000202D
:1023D00000080240C943018070470A0A0121914068
:1023E000C943018070470029818902D041F400511E
:1023F00001E021F4005181817047024600201288DB
:102400000A4200D00120704730B501F01F020124BC
:102410000025C1F3421304FA02F2012B0FD0022B64
:102420000FD0838A4FEA11210088134204FA01F485
:1024300000EA040001D000B10125284630BD83899F
:10244000F0E7038AEEE710B5C1F3421301F01F0471
:102450000121A140012B07D0022B07D01430002A04
:10246000026805D00A4304E00C30F8E71030F6E7C4
:102470008A43026010BD00007FB50446008A0D4605
:1024800020F44051E88808432082A08941F20C6181
:102490008843A9882A8911436A8902431143A1818B
:1024A000A08A20F44071A8890843A0826846FFF7FB
:1024B00037FB1D48844202D01C48844201D1039856
:1024C00000E00298A1890904002900EBC00101EB9A
:1024D0000010296802DA4FEA410101E04FEA810168
:1024E000B0FBF1F26420B2FBF0F14FEA01114FEAC8
:1024F00011136FF018056B4302EB8302A3891D04CF
:102500004FF0320306D503EBC202B2FBF0F000F04D
:10251000070005E003EB0212B2FBF0F000F00F0041
:10252000084320817FBD00000010014000140140DD
:102530008088C0F308007047C1F3080181807047AC
:1025400010B5D0F8E42552689047002010BD10B5B2
:10255000134600240A462146FDF7CFFE204610BD53
:1025600010B5134600240A462146FDF707FF204612
:1025700010BD10B504468021FDF7E4FE0021204681
:10258000FDF7E0FE2046BDE8104001F031B970B51E
:1025900005460024052085F81101234622462146E0
:1025A0002846FDF7AAFE284601F022F9204670BD14
:1025B00010B5C0F83C210223C0F8382180F8113151
:1025C000134600240A462146FDF7D8FE204610BDDA
:1025D00070B505460024042085F8110123462246E3
:1025E00021462846FDF7CAFE284601F001F920469B
:1025F00070BD000070B5054641B1D5F8E4054269EB
:102600008AB395F81201032846D047E095F81101E6
:10261000002605F58E74022833D1E169A068814255
:102620000FD9081AE061E878012803D1D4E9021033
:102630000844E060A08BE16882B22846FFF790FF73
:102640001FE0216AB1FBF0F200FB121262B9814275
:102650000AD3606A814207D2002211462846FFF75A
:102660007FFF66620DE016E0D5F8E405C16829B188
:1026700095F81201032801D1284688472846FFF71C
:1026800086FF95F81601012808D1054800682969D8
:10269000486085F8166101E028469047002070BD2B
:1026A0009C00002070B5054641B1D5F8E40582696B
:1026B0000AB395F8120103282CD02DE095F81101EA
:1026C00005F55D74032827D1E169A068814213D91B
:1026D000081AE061E878012803D1D4E9021008441F
:1026E000E060E169A068814200D2084682B22846D3
:1026F000E168FFF72CFF0FE0D5F8E405016929B187
:1027000095F81201032801D1284688472846FFF78B
:102710005FFF01E028469047002070BD10B50446D9
:10272000D0F8E80540698047012084F815010020B1
:1027300010BD10B50446D0F8E80580698047D4F88C
:10274000E4050021426820469047002084F81501E6
:1027500010BD38B5044648880D46010A04295CD2EC
:10276000DFE801F05B021420D4F8EC15A0780A68C9
:10277000694690470146E888402803D094F8120142
:10278000012837D10820ADF8000037E0D4F8E4156F
:10279000A0788A6A69469047014602204870C4F8CA
:1027A000F01527E0C0B2062837D2DFE800F00308B2
:1027B0000D12171CD4F8EC15A0784A6817E0D4F86D
:1027C000EC15A0788A6812E0D4F8EC15A078CA68F5
:1027D0000DE0D4F8EC15A0780A6908E0D4F8EC15FF
:1027E000A0784A6903E0D4F8EC15A0788A696946B4
:1027F00090470146BDF8000000280DD0E888002869
:102800000AD0BDF80020904200D91046ADF8000073
:1028100082B22046FFF7CCFE38BD29462046FFF79E
:10282000A8FE38BD70B5002300281DD00446002541
:1028300002E06D1CEDB2641C2678002EF9D1022452
:1028400004EB45041480CC545B1C0322CA545B1C6B
:10285000002406E0CA545B1CDAB2401C8C54521CA3
:10286000D3B20278002AF5D170BD10B58121FDF7F1
:102870001AFD002010BD0020704710B504468121CC
:10288000FDF7DFFC01212046FDF7DBFC002010BD39
:102890002920088000487047D800002010B5044661
:1028A000032304228121FDF70AFD032304220121D1
:1028B0002046FDF704FD002010BD10B590F8123140
:1028C000032B04D113460A468121FDF757FD002052
:1028D00010BD000070B50C78002214F06005254C86
:1028E00013461DD0202D42D14A78022A14D0032A43
:1028F0000AD00A2A0CD00B2A03D0FFF73AFE022096
:1029000070BD8878606032E01A490122091D26E016
:102910004888000AA0602AE01649012208311EE01A
:102920004D78062D04D00A2D1CD00B2D1FD11CE094
:102930004C882225B5EB142F06D1CA884A2A00D923
:102940004A220C4B353309E02125B5EB142F05D174
:10295000084BCA881E33092A00D909221946FFF7F5
:1029600027FE04E001220349F9E78878206000206F
:1029700070BD0000CC0000202DE9F0411D46174637
:1029800088460446069E00F0E1FCFFF797FCC4F879
:10299000E45504F5BD65414685E8C0002046FDF7D5
:1029A0007DFE2868006880472046BDE8F04100F0C1
:1029B000B8BC10B5D0F8E415096A8847002010BDEE
:1029C00010B5D0F8E415496A8847002010BD000012
:1029D0002DE9F0470446002501F0A7F800287DD036
:1029E000204601F0ABF8060079D0300303D520462D
:1029F000FDF746FD0546700303D52046FDF7DAFCDA
:102A00000543B0074FF0000A02D5E1680220486193
:102A10004C4F4FF00109002E17DAA07A30B1D4F8EC
:102A20000C01D4F80C1120F0030008602069416803
:102A300021F0010141603868816920468847E168DA
:102A40004FF00040486145F00105300503D52046B0
:102A5000FDF7AAFD0543300708D53868C168204650
:102A60008847E1680820486145F00105F00603D574
:102A70002046FDF75BFD0543F00403D52046FDF736
:102A8000CBFD0543B0041AD5204600F037FEE068C0
:102A9000D0F80C80204601F02FF8032847D084F8A6
:102AA0000290402128F47050A18000F5A050E16808
:102AB000C860E1684FF40050486145F00105F0023C
:102AC00009D53868C16920468847E1684FF480100D
:102AD000486145F00105B0020CD501E024E024E096
:102AE0003868016A20468847E1684FF40010486161
:102AF00045F00105700009D53868416A20468847CD
:102B0000E1684FF08040486145F0010570070BD542
:102B1000E0684668700703D53868816A20468847B0
:102B2000E068466045F001052846BDE8F08784F876
:102B300002A04FF4007128F47050A18000F51050ED
:102B4000B5E700009800002090F8CC250A7090F8B6
:102B5000CD254A7090F8CE2590F8CF3502EB0322B0
:102B60004A8090F8D02590F8D13502EB03228A8074
:102B700090F8D22590F8D33502EB032292B2CA80A6
:102B80000121C0F8402180F81111704710B50023D1
:102B9000044640221946FDF792FB00234022802183
:102BA0002046FDF78CFB012084F81201D4F8E815CB
:102BB000A07849688847002010BD10B50446D0F8B9
:102BC000E80500698047032084F81201002010BD49
:102BD00010B5D0F8E415C96901B18847002010BDCF
:102BE00010B50446D0F8E405026820469047D4F8B2
:102BF000E80580688047002010BD000070B50A46D7
:102C00001A4D897804462970012905D894F81201D3
:102C1000022807D003280CD02046BDE8704011469A
:102C2000FFF7A7BCA1B184F81011032084F81201AA
:102C30000BE091B194F81001884209D0014620467A
:102C4000FFF77EFC297884F810112046FFF7C8FFB3
:102C50002046BDE87040FFF7BBBC022084F812019B
:102C600084F810112046FFF76BFCF1E75C000020B0
:102C700010B504464888012201280FD0022831D11E
:102C8000888810F0FF0F2DD121694968000A0628B5
:102C90001FD2DFE800F01E0B0F13171BC4F818211A
:102CA000D4F8E40582682046904716E021F07001D0
:102CB00010310EE021F0700120310AE021F07001A6
:102CC000303106E021F07001403102E021F0700166
:102CD00050310548016084F816212046BDE81040B7
:102CE000FFF776BC10BD00009C0000201CB5044618
:102CF0006946FFF729FF9DF8001011F01F000AD068
:102D000001280DD0022810D001F080012046FDF7E7
:102D100019FB00201CBD6946204600F00BF8F8E7BF
:102D20006946204600F0E8F8F3E76946204600F0DF
:102D300079F8EEE72DE9F0414A78002601250A2AC4
:102D400042D2DFE802F03B554152410805412A27B3
:102D5000FFF7FFFC61E004468888C8B9C888B8B9A5
:102D6000887800F07F0794F81201032810D084F8C7
:102D7000147139462046FDF7DDFA2046FFF728FC9E
:102D80001FB1022084F8120147E084F8125144E098
:102D9000204619E0FFF732FF3FE0CA88012A13D12D
:102DA00090F81221022A02D0032A0DD102E001225A
:102DB0001B4917E0012200F5887113E090F81221F9
:102DC000022A04D0032A02D0FFF7D3FB25E01449DE
:102DD0000839CD60D0F818210AB10322CA60104921
:102DE0000222091DFFF7E4FB17E0FFF741FF14E0A3
:102DF000044690F81201022801D00328C8D148885F
:102E000001280AD10020C4F81801D4F8E40582682A
:102E1000204690472046FFF7DBFB3046BDE8F081B7
:102E20006400002070B50D460446097968780026D4
:102E300058B3012816D0032831D194F81201022882
:102E40002FD0032827D1688828B921B1802902D042
:102E50002046FDF777FAD4F8E40529468268204633
:102E600090470EE094F8120102281AD0032812D1DC
:102E70006888A0B929B1802903D02046FDF7F7F969
:102E8000E9E72046FFF7A4FB09E094F812010228C5
:102E900007D003280DD029462046FFF76AFB3046AD
:102EA00070BD0029FBD08029F9D02046FDF74AFAF1
:102EB000F5E710480D064FF000034FF0010208D56A
:102EC00001F07F0101EB810104EBC10191F81E11BA
:102ED00005E001EB810104EBC10191F8761309B122
:102EE000426000E0436003490222091D2046FFF7CB
:102EF0005FFBD4E75C00002070B5054690F8120136
:102F000000260C4603280DD1207901280AD8D5F8CF
:102F1000E405826828469047E08830B92846FFF7E4
:102F200057FB02E02846FFF724FB304670BD10B582
:102F300000F589700178417004210170D0F8D60441
:102F4000C0688047002010BD10B50A46024903A0A2
:102F5000FFF768FC004810BD4408002048494420A1
:102F6000436F6E666967000003494FF6FF70088083
:102F700002A000F0A9BE0000500100203E204849F8
:102F80004420496E74657266616365207374617272
:102F90007465642E0A00000003494FF6FF70088034
:102FA00002A000F091BE0000500100203E205553C9
:102FB000422044657669636520436F6E6E65637475
:102FC00065642E0A00000000122008800048704747
:102FD0004800002003494FF6FF70088002A000F06F
:102FE00073BE0000500100203E205553422044652E
:102FF0007669636520446973636F6E6E656374659B
:10300000642E0A0018B1012803D003A002E00BA02F
:1030100000E013A0FEF702BC2020202020555342E0
:1030200020446576696365204C696272617279201B
:1030300076312E312E30205B3F3F5D002020202056
:103040002055534220446576696365204C6962725D
:103050006172792076312E312E30205B48535D002D
:103060002020202020555342204465766963652046
:103070004C6962726172792076312E312E30205B7C
:1030800046535D0003494FF6FF70088002A000F030
:103090001BBE0000500100203E20555342204465D5
:1030A0007669636520696E2049646C65204D6F64A4
:1030B000652E0A0003494FF6FF70088002A000F059
:1030C00003BE0000500100203E20555342204465BD
:1030D0007669636520696E2053757370656E642030
:1030E0004D6F64652E0A000010B50020FEF7A4FFA6
:1030F0000120FEF7A1FF0220FEF79EFF0320FEF74E
:103100009BFFFDF7C5FF1B4830210068B0FBF1F0C5
:10311000401EB0F1807F2BD24FF0E0214861164A6B
:10312000F02010700020886107200861FEF77CFD08
:10313000FEF76CFB11A0FEF7A3FB16484FF6FF74D9
:10314000048015A000F0C0FD1BA0FEF767FB4FF444
:10315000FC60FEF7FDFB20A1C620FEF7B7FA23A115
:10316000D220FEF7B3FA2046BDE81040FEF7F0BBD0
:10317000FEE700006001002023ED00E020555342EF
:10318000204F5447204653204849442044657669DF
:1031900063650000500100203E20555342206465C5
:1031A00076696365206C69627261727920737461FB
:1031B000727465642E0A000020202020205553429E
:1031C00020446576696365204C696272617279207A
:1031D00076312E312E3000005B4B65795D3A5265B9
:1031E0006D6F746557616B65757000005B4A6F7930
:1031F000737469636B5D3A4D6F75736520656D75AA
:103200006C6174696F6E000010B50A46024903A034
:10321000FFF708FB004810BD44080020484944203F
:10322000496E746572666163650000000420088061
:10323000004870474400002010B50A46024903A028
:10324000FFF7F0FA004810BD4408002053544D69C0
:1032500063726F656C656374726F6E69637300008F
:103260000A4610B5044928B104A000BFFFF7DAFAF6
:10327000014810BD06A0F9E7440800204A6F7973A1
:103280007469636B20696E204653204D6F6465003E
:103290004A6F79737469636B20696E204853206D9F
:1032A0006F6465000A4610B5044928B104A000BF48
:1032B000FFF7B8FA014810BD05A0F9E7440800205F
:1032C00030303030303030303031314300000000A9
:1032D000303030303030303030313142000000009A
:1032E00010B50446D0F81801002819D0206980686C
:1032F000C00715D0A07A30B1D4F80C01D4F80C1165
:1033000020F0030008602069416841F0010141603C
:10331000052000F0D7F82069416821F001014160E3
:1033200010BD08B54FF4C060FEF772FB43208DF866
:10333000000001208DF8010003218DF802108DF8A6
:1033400003006846FEF732FB08BD00002DE9F0419E
:10335000012186B00846FEF79BFB03268DF8056029
:1033600002274FF4C8508DF804700024DFF84C8118
:1033700000908DF806408DF8074069464046FDF7FD
:1033800021FC0A2208214046FDF76DFC0A220B2190
:103390004046FDF768FC0A220C214046FDF763FC1D
:1033A0008DF8056038028DF80440012500908DF8F5
:1033B00006508DF8074069464046FDF703FCA80219
:1033C0008DF8065000908DF807508DF8056069461D
:1033D0004046FDF7F7FB0A2211464046FDF743FC45
:1033E00001218803FEF790FB01218020FEF75CFBA2
:1033F00001210220FEF74CFB8DF805608DF804706A
:103400004FF450402E4F00908DF806408DF8074045
:1034100069463846FDF7D6FB0A220C213846FDF7EF
:1034200022FC0A220E213846FDF71DFC0A220F213C
:103430003846FDF718FC8DF8056068038DF80440E8
:1034400000908DF806508DF8074069463846FDF724
:10345000B9FB01214807FEF71BFB01210807FEF716
:1034600047FB01210220FEF70BFEAE043046FDF7BC
:10347000EBFA8DF80C4008208DF80D0002968DF8BF
:103480000E5002A8FDF7F6FA3046FDF7DDFA2A20C5
:103490008DF810008DF8115005208DF812008DF870
:1034A000135004A8FEF782FA3046FDF7CDFAE80380
:1034B000FDF7CAFA06B0BDE8F08100000000024046
:1034C000000402404FF47A714843AFF30080C0EB30
:1034D00000100021C0000722B0FBF2F0491C81421D
:1034E000FCD9704770B50446017A0025C0680129EF
:1034F00015D0C16841F04001C160204600F0CAF813
:10350000617A4FF4502009B14FF4E810E168886304
:103510001420FFF7D7FFE078012819D020E0816B55
:10352000627A21F480310AB141F480118163E0684C
:10353000C16821F0401121F42021C160204600F033
:10354000A9F8E07801280BD1E1682A208860E2E739
:10355000E068816821F01E010A3141F0200181609C
:10356000284670BD2DE9F04104460027D0F80C0133
:103570003D462B4607602069016821F4C051016077
:10358000E07A4026012826D10321204600F0C7FA20
:10359000E068802141621846E26866F31F4061F3EB
:1035A0000F00906200EB104060F30F03E06861F3DE
:1035B0001F43C0F8043103EB134060F30F03E068CE
:1035C00065F31F43C0F8083103EB134060F30F03AA
:1035D000E068C0F80C311021204600F06DFA20465A
:1035E00000F04EFA206905612069456121694FF0BC
:1035F000FF3088612069C56100234FF09040FF22B1
:1036000014E000BF04EB830CDCF818E0DEF80010D7
:10361000002901DA014600E02946CEF80010DCF866
:1036200018100D61DCF818108A605B1C61789942F3
:10363000E8D80023294613E004EB830CDCF854E0BF
:10364000DEF80050002D01DA054600E00D46CEF808
:103650000050DCF854502961DCF85450AA605B1C1F
:1036600065789D42E8D82069016941F48071016163
:10367000E078012808D1032066F38A00216940F42C
:10368000803066F359400863204600F0C9F9384697
:10369000BDE8F081F8B5002704463E460097124D7C
:1036A0000320FFF714FFE06800690090761CAE422B
:1036B00001D90020F8BD00980028F1DA0099002017
:1036C00041F0010100910099E2681161E1680A6925
:1036D0000092401CA84202D8009AD207F7D10320DA
:1036E000FFF7F5FE3846F8BD400D0300C068002125
:1036F000826822F0010282600846704710B50169B5
:1037000000238C6882691168C4F341042CB1012C38
:1037100003D0022C04D0032C05D16FF30A0102E080
:103720006FF30A01C91C11600069416841F480719E
:103730004160184610BD0000F0B54A7800254C697C
:10374000012A15D00A7800EB82035A6D16681269B7
:10375000DCB38C68C1F8144064F306025B6D22F49C
:10376000C01202F500221A61C278012A30D035E079
:1037700083691F681A6934B18E68B44206D966F34A
:1037800006024E6104E022F07F0201E064F30602CB
:1037900022F4C01202F500221A61C278012A05D172
:1037A0000C780A6900EB8404A469626147F0044262
:1037B0001A60C278CAB94A69BAB10A7800690121A7
:1037C0009140426B0A4342630FE0FFE70C7AC3E784
:1037D0000B780A6900EB83035B6D5A61097846F048
:1037E000044200EB8100406D02602846F0BD0000FD
:1037F000426D07491161C178012908D1426D00F27B
:10380000CC515161406D01684FF0802101607047DB
:10381000180008C0F0B50E7800254F780122B2409C
:103820002B4600EB8604012F19D0646D62F31F4311
:10383000226816040DD40E8966F30A02CE788979BF
:1038400066F3934261F3995242F0805141F4004192
:1038500021600069C1691943C1612846F0BDA469AE
:1038600062F30F03E4E710B502464C780B780020B2
:1038700002EB8302012C09D0526D1368C97823F43E
:103880000013032904D0022902D003E09269F4E76F
:1038900043F08053136010BD30B50C7803464D786B
:1038A00001220020A24003EB8401012D09D04C6DC0
:1038B000014662F31F4120601A69D3698B43D361CB
:1038C00030BD8C69014662F30F01F4E702464B7884
:1038D0000978002002EB8101012B05D0496D0A68AF
:1038E00042F400120A6070478A691168002901DAFF
:1038F00041F0804141F4001111607047F0B54B7800
:103900000A78002401264F6900EB8202012B15D0B2
:10391000556D2B682A69002F62D08E6837447F1E50
:10392000B7FBF6F767F3DC42C2F3C947774367F3A7
:1039300012022A61C278012A58D05DE095692B688D
:103940002A696FB1D1F808C067F3120267447F1E7D
:10395000B7FBFCF767F3DC42CF78012F05D008E016
:103960006FF3120266F3DC4203E022F0C04202F180
:1039700000522A61C278012A0ED0CA78012A12D0D8
:103980004A69C2B10A7896400269556B354355635E
:10399000CA78012A07D00EE00D780A6900EB850588
:1039A000AD696A61F4E702699268C2F30D22D20739
:1039B0000CD043F0805343F004420B7800EB8303B8
:1039C0009B691A60CA78012A03D026E043F00053AD
:1039D000F1E78A8A93B20A78C96800F05FF91CE0BF
:1039E0008F6867F3120266F3DC42A2E70D780A697A
:1039F00000EB85056D6D6A61CA78012A06D14A79A6
:103A000012B143F0005301E043F08053097843F0D2
:103A1000044200EB8100406D02602046F0BD0000D2
:103A200030B5C368002211469A61C4686FF08043C4
:103A30006361C568541E6C60C4686361C4680B4BE5
:103A4000A361C37803B9102141F48721C06841F014
:103A5000081141F4401141F08041836941F00401B3
:103A60008B430B438361104630BD0000000800808B
:103A7000C0680021826842F00102826008467047F7
:103A800038B5002421460094009A42F010020092BA
:103A9000009AC3681A61074AC06803690093491C09
:103AA000914202D8009BDB06F7D40320FFF70FFDFD
:103AB000204638BD400D030038B50024224600944E
:103AC000009B43F020030093009B61F38A13009353
:103AD0000099C36819610749C06803690093521CC3
:103AE0008A4202D8009B9B06F7D40320FFF7EFFC25
:103AF000204638BD400D0300014600200969896851
:103B0000C1F3410139B1012903D0022905D00329AC
:103B100000D10220704703207047012070470269DE
:103B2000106861F3010010607047C068406910F0D0
:103B3000010F01D00020704701207047C068416923
:103B400080690840704700698169C069084080B297
:103B5000704700698169C0690840000C704700EB3C
:103B60008101496D896800694069084070470346D2
:103B700010B50020D21C9208D3F8D03003E01C68A6
:103B800041F8044B401C9042F9D3084610BD000098
:103B900070B500220123C27040268370144615467A
:103BA0008680012901D069B115E0C3720821017036
:103BB00004214FF0A04241709115C1800221017291
:103BC000837208E0C5720C21017006214170204A01
:103BD0004FF4A061C18002F50061C0E9032100211A
:103BE0000BE000BF02EB411303F5106600EB81050B
:103BF00003F53063AE61491C6B6543788B42F1D8A5
:103C000002F5806141614031C0F8CC10002108E02C
:103C100002EB411300EB810503F5A063491CC5F8D5
:103C2000903003788B42F3D8002108E002EB013397
:103C300000EB810503F58053491CC5F8D0300378AB
:103C40008B42F3D802F56062C0F80C21204670BDAB
:103C50000000044010B5C0680024C268012922F0A9
:103C6000C04201D019B104E042F0005201E042F03C
:103C70008042C2603220FFF725FC204610BD817AC9
:103C800000290AD001698968C90706D0D0F80C114B
:103C9000D0F80C0121F003010160704730B5C47801
:103CA00000256CB900EB82000024DB1C9B08D0F8D7
:103CB000D00003E051F8042B0260641C9C42F9D34D
:103CC000284630BDFEE70000014A024900F013B863
:103CD000513D0008E801002002E008C8121F08C199
:103CE000002AFAD170477047002001E001C1121F7D
:103CF000002AFBD170472DE9F04116460F460446D5
:103D0000002503E03946B0476D1C641C207800286C
:103D1000F8D12846BDE8F08101B581B00449019889
:103D200048430090002801D0401EFAE70CBD000077
:103D3000A086010001B581B0044901984843009074
:103D4000002801D0401EFAE70CBD0000A08601004B
:103D500070B5074D0446C1B22846FEF7EDFB402181
:103D60002846FEF74AFB0028F9D0204670BD000027
:103D7000004C00401CB50020019011480090114BF0
:103D8000114A01211148FEF7F7FDFDF7EFFD104E36
:103D90004FF480170198411C0191B842FAD12225B5
:103DA0000024A9B23046FEF7C7FB6D1C4021304607
:103DB000FEF723FB0028F9D0641C1E2CF1DBE9E799
:103DC0000C000020A000002028000020EC010020B2
:103DD000004C004000000000000000000000000057
:103DE00000000000000000000000000000000000D3
:103DF00000000000000000000000000000000000C3
:103E0000000000000000800180018001800180012D
:103E1000800180018001800180018001800180019A
:103E20000000000080018001000000000000000090
:103E30000000000000000000CC00CC00CC00CC0052
:103E4000CC00CC00000000000000000000000000DA
:103E50000000000000000000000000000000000062
:103E60000000000000000000000000000000000052
:103E7000600C600C600C30063006FE1FFE1F300622
:103E800038071803FE1FFE1F180318038C018C014E
:103E90008C01000000008000E003F80F9C0E8C1CD9
:103EA0008C188C009800F801E007800E801C8C189C
:103EB0008C189C18B80CF00FE00380008000000004
:103EC000000000000000000000000E181B0C110C88
:103ED00011061106110311039B018E01C038C06C3D
:103EE00060446044304430441844186C0C3800007E
:103EF000000000000000E001F00338071806180673
:103F00003003F001F000F8009C310E33061E061C51
:103F1000061C063FFC73F0210000000000000000BA
:103F200000000000000000000C000C000C000C0061
:103F30000C000C0000000000000000000000000069
:103F40000000000000000000000000000000000071
:103F5000000000000000000200038001C000C0005B
:103F60006000600030003000300030003000300071
:103F70003000300060006000C000C000800100031D
:103F800000020000000020006000C00080018001ED
:103F900000030003000600060006000600060006F7
:103FA000000600060003000380018001C0006000DD
:103FB00020000000000000000000000000000000E1
:103FC000C000C000D806F807E00130033807000041
:103FD00000000000000000000000000000000000E1
:103FE00000000000000000000000000000000000D1
:103FF00080018001800180018001FC3FFC3F800145
:1040000080018001800180010000000000000000AC
:1040100000000000000000000000000000000000A0
:104020000000000000000000000000000000000090
:1040300000000000000080018001000100018000FC
:104040000000000000000000000000000000000070
:10405000000000000000000000000000E007E00792
:104060000000000000000000000000000000000050
:104070000000000000000000000000000000000040
:104080000000000000000000000000000000000030
:10409000000000000000C000C000000000000000A0
:1040A000000000000000000C000C000600060006E6
:1040B0000003000300038003800180018001C00031
:1040C000C000C000600060000000000000000000B0
:1040D000000000000000E003F007380E180C0C1878
:1040E0000C180C180C180C180C180C180C180C18B0
:1040F000180C380EF007E00300000000000000007C
:1041000000000000000000018001C001F0019801E2
:10411000880180018001800180018001800180018F
:10412000800180018001800100000000000000008B
:10413000000000000000E003F80F180C0C180C1829
:1041400000180018000C000600038001C000600089
:1041500030001800FC1FFC1F0000000000000000E1
:10416000000000000000E001F807180E0C0C0C0C19
:10417000000C0006C003C007000C001800180C1843
:104180000C18180CF807E003000000000000000005
:10419000000000000000000C000E000F000F800D5A
:1041A000C00C600C600C300C180C0C0CFC3FFC3F7D
:1041B000000C000C000C000C0000000000000000CF
:1041C000000000000000F80FF80F180018000C00A5
:1041D000EC03FC071C0E001C0018001800180C183B
:1041E0001C0C180EF807E00300000000000000009F
:1041F000000000000000C007F00F381C181818005D
:104200000C00CC03EC0F3C0E1C1C0C180C180C18EA
:10421000181C380EF007E00300000000000000004A
:10422000000000000000FC1FFC1F000C0006000640
:10423000000380038001C001C000E0006000600056
:10424000700030003000300000000000000000006E
:10425000000000000000E003F007380E180C180CF6
:10426000180C3806F007F007180C0C180C180C186E
:104270000C18380CF80FE0030000000000000000EC
:10428000000000000000E003F007380E1C0C0C18C2
:104290000C180C181C1C381EF81BE0190018000C18
:1042A000000C1C0EF807F0010000000000000000E8
:1042B00000000000000000000000000000000000FE
:1042C00080018001000000000000000000000000EC
:1042D00000000000800180010000000000000000DC
:1042E00000000000000000000000000000000000CE
:1042F00080018001000000000000000000000000BC
:104300000000000080018001000100018000000029
:10431000000000000000000000000000000000009D
:10432000000000000010001C800FE003F8001800DF
:10433000F800E003800F001C0010000000000000E7
:10434000000000000000000000000000000000006D
:1043500000000000F81F000000000000F81F00002F
:10436000000000000000000000000000000000004D
:10437000000000000000000000000000000000003D
:104380000000000008003800F001C007001F0018FE
:10439000001FC007F0013800080000000000000006
:1043A000000000000000E003F80F180C0C180C18B7
:1043B0000018000C000600038001C000C000C0000F
:1043C00000000000C000C00000000000000000006D
:1043D0000000000000000000E00718180420C229B7
:1043E000224A114409440944094409221113E20CE8
:1043F000024004201818E007000000000000000040
:1044000000000000000080038003C006C006C00654
:10441000600C600C301830183018F83FF83F1C70F2
:104420000C600C6006C006C0000000000000000028
:10443000000000000000FC03FC0F0C0C0C180C1812
:104440000C180C0CFC07FC0F0C180C300C300C304A
:104450000C300C18FC1FFC070000000000000000DE
:10446000000000000000C007F01F38381C300C703E
:10447000066006000600060006000600060006604C
:104480000C701C30F01FE00700000000000000006E
:10449000000000000000FE03FE0F060E06180618BE
:1044A0000630063006300630063006300630061874
:1044B0000618060EFE0FFE030000000000000000BC
:1044C000000000000000FC3FFC3F0C000C000C0052
:1044D0000C000C00FC1FFC1F0C000C000C000C005E
:1044E0000C000C00FC3FFC3F00000000000000003E
:1044F000000000000000F83FF83F18001800180006
:1045000018001800F81FF81F1800180018001800ED
:10451000180018001800180000000000000000003B
:10452000000000000000E00FF83F3C780E6006E05D
:1045300007C00300030003FE03FE03C007C006C05C
:104540000EC03CF0F83FE00F00000000000000004B
:104550000000000000000C300C300C300C300C302F
:104560000C300C30FC3FFC3F0C300C300C300C306D
:104570000C300C300C300C3000000000000000004B
:1045800000000000000080018001800180018001A6
:104590008001800180018001800180018001800113
:1045A0008001800180018001000000000000000007
:1045B00000000000000000060006000600060006DD
:1045C00000060006000600060006000600061806A3
:1045D00018063807F003E0010000000000000000AA
:1045E00000000000000006300618060C0606060350
:1045F0008601C60066007600DE008E010603060610
:10460000060C0618063006600000000000000000DE
:104610000000000000001800180018001800180022
:1046200018001800180018001800180018001800CA
:1046300018001800F81FF81F00000000000000001C
:104640000000000000000EE01EF01EF01EF036D844
:1046500036D836D836D866CC66CC66CCC6C6C6C682
:10466000C6C6C6C686C386C30000000000000000A0
:104670000000000000000C301C303C303C306C303E
:104680006C30CC30CC308C310C330C330C360C36D7
:104690000C3C0C3C0C380C3000000000000000000A
:1046A000000000000000E007F81F1C380E700660D4
:1046B00003C003C003C003C003C003C003C006603F
:1046C0000E701C38F81FE00700000000000000001A
:1046D000000000000000FC0FFC1F0C380C300C30F8
:1046E0000C300C300C18FC1FFC070C000C000C00EC
:1046F0000C000C000C000C0000000000000000008A
:10470000000000000000E007F81F1C380E70066073
:1047100003E003C003C003C003C003C007E0066397
:104720000E3F1C3CF83FE0F700C000000000000016
:10473000000000000000FE0FFE1F063806300630A5
:1047400006300638FE1FFE0706030606060C06188E
:104750000618063006300660000000000000000069
:10476000000000000000E003F80F1C0C0C180C18EF
:104770000C001C00F803E00F001E00380630063065
:104780000E301C1CF80FE0070000000000000000C5
:10479000000000000000FE7FFE7F8001800180019C
:1047A0008001800180018001800180018001800101
:1047B00080018001800180010000000000000000F5
:1047C0000000000000000C300C300C300C300C30BD
:1047D0000C300C300C300C300C300C300C300C30F9
:1047E0000C301818F81FE00700000000000000005F
:1047F00000000000000003600630063006300C1890
:104800000C180C18180C180C380E300630067007EF
:1048100060036003C001C001000000000000000050
:104820000000000000000360C361C361C361663320
:10483000663366336633663366336C1B6C1B6C1BE6
:104840002C1A3C1E380E380E00000000000000003C
:104850000000000000000FE00C7018303018700CE1
:10486000600EC00780038003C003E006700C301C9C
:1048700018180C300E6007E0000000000000000077
:1048800000000000000003C006600C301C3838181F
:10489000300C6006E007C0038001800180018001C8
:1048A0008001800180018001000000000000000004
:1048B000000000000000FC7FFC7F0060003000185A
:1048C000000C000600038001C000600030001800EA
:1048D0000C000600FE7FFE7F0000000000000000CC
:1048E000000000000000E003E003600060006000E2
:1048F00060006000600060006000600060006000B8
:104900006000600060006000600060006000E00324
:10491000E003000000003000300060006000600034
:10492000C000C000C000C001800180018001000300
:104930000003000300060006000000000000000065
:10494000000000000000E003E00300030003000398
:10495000000300030003000300030003000300033F
:104960000003000300030003000300030003E0034F
:10497000E003000000000000C001C001600360030C
:10498000600330063006180C180C00000000000010
:104990000000000000000000000000000000000017
:1049A0000000000000000000000000000000000007
:1049B00000000000000000000000000000000000F7
:1049C000000000000000FFFFFFFF000000000000EB
:1049D0000000000000000C000C000C000C000C009B
:1049E0000C000000000000000000000000000000BB
:1049F00000000000000000000000000000000000B7
:104A000000000000000000000000000000000000A6
:104A1000F003F8071C0C0C0C000FF00FF80C0C0C3A
:104A20000C0C1C0FF80FF018000000000000000034
:104A300000000000000018001800180018001800FE
:104A4000D803F80F380C1818181818181818181850
:104A50001818380CF80FD803000000000000000000
:104A60000000000000000000000000000000000046
:104A7000C003F007300E180C1800180018001800BA
:104A8000180C300EF007C00300000000000000000A
:104A9000000000000000001800180018001800189E
:104AA000C01BF01F301C18181818181818181818E0
:104AB0001818301CF01FC01B000000000000000090
:104AC00000000000000000000000000000000000E6
:104AD000C003F00F300C1818F81FF81F180018004A
:104AE0003818301CF00FC007000000000000000064
:104AF000000000000000800FC00FC000C000C00018
:104B0000F007F007C000C000C000C000C000C00037
:104B1000C000C000C000C000000000000000000095
:104B20000000000000000000000000000000000085
:104B3000E00DF80F180E0C0C0C0C0C0C0C0C0C0CE3
:104B40000C0C180EF80FE00D000C0C0C1C06F807EE
:104B5000F0010000000018001800180018001800EC
:104B6000D807F80F381C181818181818181818181B
:104B70001818181818181818000000000000000075
:104B8000000000000000C000C000000000000000A5
:104B9000C000C000C000C000C000C000C000C00015
:104BA000C000C000C000C000000000000000000005
:104BB000000000000000C000C00000000000000075
:104BC000C000C000C000C000C000C000C000C000E5
:104BD000C000C000C000C000C000C000C000F8009D
:104BE0007800000000000C000C000C000C000C0011
:104BF0000C0C0C060C038C01CC006C00FC009C011E
:104C00008C030C030C060C0C0000000000000000DC
:104C1000000000000000C000C000C000C000C000D4
:104C2000C000C000C000C000C000C000C000C00084
:104C3000C000C000C000C000000000000000000074
:104C40000000000000000000000000000000000064
:104C50007C3CFF7EC7E383C183C183C183C183C121
:104C600083C183C183C183C1000000000000000034
:104C70000000000000000000000000000000000034
:104C80009807F80F381C181818181818181818183A
:104C90001818181818181818000000000000000054
:104CA0000000000000000000000000000000000004
:104CB000C003F00F300C1818181818181818181806
:104CC0001818300CF00FC0030000000000000000B6
:104CD00000000000000000000000000000000000D4
:104CE000D803F80F380C18181818181818181818AE
:104CF0001818380CF80FD8031800180018001800FE
:104D0000180000000000000000000000000000008B
:104D1000C01BF01F301C181818181818181818186D
:104D20001818301CF01FC01B0018001800180018BD
:104D3000001800000000000000000000000000005B
:104D4000B007F00370003000300030003000300059
:104D50003000300030003000000000000000000093
:104D60000000000000000000000000000000000043
:104D7000E003F003380E180C3800F003C007000CF5
:104D8000180C380EF007E0030000000000000000DF
:104D900000000000000000008000C000C000C00053
:104DA000F007F007C000C000C000C000C000C00095
:104DB000C000C000C0078007000000000000000025
:104DC00000000000000000000000000000000000E3
:104DD0001818181818181818181818181818181853
:104DE0001818381CF01FE019000000000000000037
:104DF00000000000000000000000000000000000B3
:104E00000C18180C180C180C30063006300660030D
:104E100060036003C001C00100000000000000004A
:104E20000000000000000000000000000000000082
:104E3000C141C141C3616363636363633636363620
:104E400036361C1C1C1C1C1C00000000000000004E
:104E50000000000000000000000000000000000052
:104E60001C38381C300C600660036003600360036C
:104E70006006300C381C1C380000000000000000E8
:104E80000000000000000000000000000000000022
:104E90001830301830187018600C600CE00CC00628
:104EA000C00680038003800380018001C001F00000
:104EB0007000000000000000000000000000000082
:104EC000FC1FFC1F000C000600038001C0006000F6
:104ED00030001800FC1FFC1F000000000000000054
:104EE00000000000000000038001C000C000C000FE
:104EF000C000C000C00060006000300060004000E2
:104F0000C000C000C000C000C000C000800100039D
:104F1000000000000000800180018001800180010C
:104F20008001800180018001800180018001800179
:104F30008001800180018001800180018001800169
:104F40008001000000006000C000C00180018001FD
:104F500080018001800100030003000600030001BE
:104F6000800180018001800180018001C00060001B
:104F70000000000000000000000000000000000031
:104F800000000000F010F81F080F000000000000F3
:104F90000000000000000000000000000000000011
:104FA0000000000000000000000000000000000001
:104FB00000000000000000000000000000000020D1
:104FC0000020002000200020002000200000002001
:104FD00000000000000000500050005000000000E1
:104FE00000000000000000000000000000000009B8
:104FF00000090012007F0012007F0012002400242C
:10500000000000000010003800540050005000382C
:1050100000140054005400380010000000008030DC
:1050200000490049004AC032200520092009C0106B
:10503000000000000000000C001200120014001814
:10504000002500230023801D000000000000004018
:1050500000400040000000000000000000000000D0
:1050600000000000000000080010001000200020D8
:105070000020002000200020001000100000004050
:105080000020002000100010001000100010001080
:1050900000200020000000200070002000500000D0
:1050A0000000000000000000000000000000000000
:1050B000000000080008007F000800080000000051
:1050C00000000000000000000000000000000000E0
:1050D0000000000000000020002000400000000050
:1050E0000000000000000000007000000000000050
:1050F00000000000000000000000000000000000B0
:10510000000000000000002000000000000000106F
:10511000001000100020002000200020004000406F
:10512000000000000000001000280044004400447B
:10513000004400440028001000000000000000109F
:10514000003000500010001000100010001000107F
:105150000000000000000030004800440004000887
:10516000001000200040007C000000000000003023
:105170000048000400080010000800440048003007
:105180000000000000000008001800180028002897
:105190000048007C00080008000000000000003CFF
:1051A0000020004000700048000400440048003027
:1051B00000000000000000180024004000500068BB
:1051C0000044004400280010000000000000007CA3
:1051D0000004000800100010001000200020002033
:1051E000000000000000001000280044002800100B
:1051F00000280044002800100000000000000010FB
:10520000002800440044002C001400040048003032
:10521000000000000000000000000020000000006E
:10522000000000000000002000000000000000005E
:10523000000000200000000000000000000000202E
:105240000020004000000000000400080030004082
:105250000030000800040000000000000000000012
:105260000000007C00000000007C00000000000046
:1052700000000000000000000040002000180004B2
:10528000001800200040000000000000000000386E
:10529000006400440004000800100010000000102A
:1052A000000000000000800F4010A02EA0512051EF
:1052B000205120512053C04D2020401000000008F4
:1052C0000014001400140022003E0022004100419E
:1052D000000000000000003C002200220022003CF0
:1052E000002200220022003C000000000000000E0E
:1052F0000011002100200020002000210011000EDC
:10530000000000000000003C0022002100210021DC
:10531000002100210022003C000000000000003EAF
:10532000002000200020003E002000200020003E41
:10533000000000000000003E002000200020003C93
:105340000020002000200020000000000000000ECF
:105350000011002100200027002100210011000E73
:105360000000000000000021002100210021003F7A
:105370000021002100210021000000000000002089
:10538000002000200020002000200020002000201D
:1053900000000000000000080008000800080008E5
:1053A0000008004800480030000000000000002213
:1053B00000240028002800380028002400240022AF
:1053C000000000000000002000200020002000203D
:1053D000002000200020003E00000000000080208F
:1053E000803180318031802A802A802A802A80245E
:1053F00000000000000000210031003100290029D8
:105400000025002300230021000000000000000C04
:105410000012002100210021002100210012000CB7
:10542000000000000000003C002200220022003C9E
:105430000020002000200020000000000000000CE0
:105440000012002100210021002100210016000D82
:10545000000100000000003E002100210021003E6C
:105460000024002200218020000000000000001C19
:10547000002200220020001C000200220022001C4A
:10548000000000000000003E0008000800080008BE
:1054900000080008000800080000000000000021CB
:1054A0000021002100210021002100210012000C18
:1054B0000000000000000041004100220022002204
:1054C0000014001400140008000000000000404414
:1054D000404A402A802A802A802A802A802A001175
:1054E0000000000000000041002200140014000829
:1054F00000140014002200410000000000000041E0
:10550000002200220014000800080008000800081B
:10551000000000000000007E0002000400080010EF
:10552000001000200040007E00000000000000305D
:10553000002000200020002000200020002000206B
:10554000002000200000004000400020002000203B
:10555000002000200010001000000000000000608B
:10556000002000200020002000200020002000203B
:10557000002000200000001000280028002800441F
:10558000000000000000000000000000000000001B
:10559000000000000000000000000000000000000B
:1055A0000000007E0040002000000000000000001D
:1055B00000000000000000000000000000000000EB
:1055C0000000003800440004003C00440044003C5B
:1055D000000000000000004000400058006400444B
:1055E0000044004400640058000000000000000077
:1055F00000000030004800400040004000480030FB
:10560000000000000000000400040034004C0044CE
:1056100000440044004C0034000000000000000082
:105620000000003800440044007C00400044003882
:105630000000000000000060004000E0004000406A
:10564000004000400040004000000000000000005A
:1056500000000034004C004400440044004C00347E
:105660000004004400000040004000580064004472
:1056700000440044004400440000000000000040DA
:10568000000000400040004000400040004000405A
:10569000000000000000004000000040004000400A
:1056A000004000400040004000400040000000403A
:1056B0000040004800500060005000500048004882
:1056C000000000000000004000400040004000409A
:1056D00000400040004000400000000000000000CA
:1056E00000000052006D004900490049004900498E
:1056F00000000000000000000000005800640044AA
:105700000044004400440044000000000000000089
:1057100000000038004400440044004400440038C5
:105720000000000000000000000000580064004479
:1057300000440044006400580040004000000000A5
:1057400000000034004C004400440044004C00348D
:105750000004000400000000000000500060004051
:105760000040004000400040000000000000000039
:1057700000000030004800400030000800480030C1
:105780000000000000000040004000E00040004039
:1057900000400040004000600000000000000000E9
:1057A000000000440044004400440044004C003425
:1057B0000000000000000000000000440044002839
:1057C0000028002800280010000000000000000051
:1057D00000000049004900550055005500550022C1
:1057E0000000000000000000000000440028002825
:1057F0000010002800280044000000000000000005
:105800000000004400440028002800280010001078
:1058100000100010000000000000007800080010D8
:105820000020002000400078000000000000001070
:105830000020002000200020004000200020002048
:105840000020002000000020002000200020002078
:105850000020002000200020002000200000004048
:105860000020002000200020001000200020002048
:10587000002000200000000000000000007400581C
:105880000000000000000000000000000000000018
:105890000070005000500050005000500050007048
:1058A00000000000000000000000000000000000F8
:1058B00000000000000000000000000000000000E8
:1058C0000000100010001000100010001000000078
:1058D0001000000000000000000028002800280040
:1058E00000000000000000000000000000000000B8
:1058F0000000140014003E00140028007C00280062
:105900002800000000000000100038005400500083
:10591000380014001400540038001000000000008B
:1059200000004400A800A800500014001A002A003B
:105930002400000000000000000020005000500083
:105940002000E800980098006000000000000000BF
:1059500000008000800080000000000000000000C7
:1059600000000000000000000000400080008000F7
:105970008000800080008000800080000000000027
:105980000000800040004000400040004000400017
:10599000400040000000000000004000E000400027
:1059A000A000000000000000000000000000000057
:1059B00000000000000020002000F800200020006F
:1059C00000000000000000000000000000000000D7
:1059D0000000000000000000400040000000000047
:1059E000000000000000000000000000C0000000F7
:1059F00000000000000000000000000000000000A7
:105A00000000000000000000400000000000000056
:105A100000002000200020004000400080008000A6
:105A20008000000000000000000060009000900076
:105A300090009000900090006000000000000000C6
:105A4000000020006000A0002000200020002000B6
:105A50002000000000000000000060009000100026
:105A60001000200040008000F00000000000000056
:105A70000000600090001000600010001000900016
:105A80006000000000000000000010003000500026
:105A900050009000F800100010000000000000000E
:105AA0000000700040008000E00010001000900036
:105AB0006000000000000000000060009000800016
:105AC000A000D000900090006000000000000000E6
:105AD0000000F000100020002000200040004000E6
