:020000040800F2
:10000000080E00209D010008111A0008930C00083A
:100010000F1A000841020008113D0008000000000E
:100020000000000000000000000000002D22000879
:100030009909000800000000791B00080D23000842
:10004000B7010008B7010008B7010008B7010008B0
:10005000B7010008B7010008B7010008B7010008A0
:10006000B7010008B7010008B7010008B701000890
:10007000B7010008B7010008B7010008B701000880
:10008000B7010008B7010008B7010008B701000870
:10009000B7010008B7010008B7010008B701000860
:1000A000B7010008B7010008B7010008B701000850
:1000B000B7010008B7010008B7010008B701000840
:1000C000B7010008B7010008B7010008B701000830
:1000D000B7010008B7010008B7010008B701000820
:1000E0009D090008B70100088D1A0008B701000833
:1000F000B7010008B7010008B7010008B701000800
:10010000B7010008B7010008B7010008B7010008EF
:10011000B7010008B7010008B7010008B7010008DF
:10012000B7010008B7010008B7010008B7010008CF
:10013000B7010008B7010008B7010008B7010008BF
:10014000B7010008B7010008B7010008B7010008AF
:10015000B7010008B7010008B7010008B70100089F
:10016000B7010008B7010008F51A0008E91A0008ED
:100170000D1B0008011B0008B7010008B7010008AB
:10018000B7010008B7010008DFF80CD000F018F83C
:1001900000480047993E0008080E002006488047A6
:1001A00006480047FEE7FEE7FEE7FEE7FEE7FEE75C
:1001B000FEE7FEE7FEE7FEE7692300088901000885
:1001C000064C074D06E0E06840F0010394E80700A4
:1001D00098471034AC42F6D3FFF7DAFF14630008F7
:1001E0003463000870B501EB020410F8015B15F0F0
:1001F000070301D110F8013B2A1106D110F8012B99
:1002000003E010F8016B01F8016B5B1EF9D12B07BD
:1002100005D40023521E0FD401F8013BFAE710F871
:10022000013B02F10202A1EB030303E013F8015BBF
:1002300001F8015B521EF9D5A142D6D3002070BD52
:10024000FEE710B50A460C0601F07F0303EB8301BD
:1002500000EBC10102D501F58E7101E001F55D7180
:10026000D2090B704A7003F02EFB002010BD0A4625
:1002700010B5090602F07F0306D503EB830100EBFE
:10028000C10101F58E7105E002EB820100EBC101B5
:1002900001F55D7100248C700B70D2094A7003F077
:1002A000F9FA002010BD10B50A0604D501F07F014F
:1002B00003F026FC01E003F007FC002010BD70B540
:1002C0000C460E0601F07F0505EB850100EBC10130
:1002D00002D501F58E7101E001F55D71E4090D7043
:1002E0004C708A60CB7000D0CD80022B01D10022EF
:1002F0000A7103F09BFA002070BD10B501F07F0475
:1003000004EB840100EBC10101F55D714B61CA6032
:1003100000238B614B700C70C378012B00D10A61F4
:1003200014F0FF0F03D003F00DFB002010BD03F00D
:100330000FFAFAE70069002261F30A12016811431B
:10034000016070470A4610B5090602F07F0306D522
:1003500003EB830100EBC10101F58E7105E002EBB7
:10036000820100EBC10101F55D7101248C700B70FD
:10037000D2094A7003F0CEFA002010BD70B511F01A
:100380007F0404EB840100EBC10101F58E714FF095
:1003900001054D700C70CA600A614FF00002C1E99E
:1003A000053203D003F0CEFA002070BD03F0D0F97F
:1003B000FAE700002DE9F0410646002503F0E7FBCF
:1003C000074655E0F80751D03069EAB20369416B3E
:1003D000D14006EB820201F00101926943EAC111AA
:1003E00094680C40E1071AD00124426B04FA05F12D
:1003F0008A43426306EB8500806984601F48E9B246
:100400000068426830469047F078012807D135B936
:1004100096F81101042802D1304603F0F5F92007BF
:1004200004D506EB8500082480698460E00604D5C5
:1004300006EB8500102480698460600604D506EB15
:100440008500402480698460A00704D506EB850000
:10045000022480698460200608D52946304600F0D1
:1004600068F906EB85018020896988606D1C7F082A
:10047000002FA7D10120BDE8F0810000A0000020DE
:100480002DE9F0410646002403F087FB0746DFF81C
:10049000988043E0F8073FD0E1B2304603F083FB99
:1004A0000546C00725D006EB84000125416D8D600F
:1004B000F17801290CD1406D016904EB840006EB51
:1004C000C000C1F31201D0F87C23511AC0F88C137C
:1004D000D8F80000E1B2026830469047F078012871
:1004E00007D134B996F81101052802D1304603F03E
:1004F0008BF9A80704D506EB84000225406D8560C2
:10050000280709D5D8F8000081683046884706EBEF
:1005100084010820496D8860641C7F08002FB9D1D0
:100520000120BDE8F0810000A000002070B5064663
:10053000C068816921F010018161F068056A05F0E9
:100540000F0000EB800006EBC004C5F3434004F548
:100550005D74072821D2DFE800F02020042020204D
:10056000150047F6F070054217D0C5F30A152A4664
:100570003046E16803F01FFBE0682844E060A069B2
:10058000284409E0082206F2CC51304603F013FB60
:10059000A069C5F30A110844A061F068816941F0BF
:1005A00010018161012070BD38B5044600208DF82E
:1005B000000094F812018DF80000154800684169A8
:1005C0002046884720698068E2684FF400615161E5
:1005D000A17AD1B1C00718D094F81501012814D11F
:1005E0009DF80000032810D1D4F80C01016841F0F7
:1005F00001010160D4F80C01016841F003010160C0
:100600000448016841F006010160012038BD000086
:10061000A000002010ED00E070B504460069002540
:100620000126416821F0010141602946204603F07E
:1006300067FA0020FF2106E004EB800293699960CD
:10064000526D9160401C62788242F5D821694FF06A
:10065000FF3088612846216966F30F0066F31F406A
:10066000C861216945F00B0048612169C1F8840027
:10067000216945F00B00086121694864206901681F
:1006800021F4FE610160204603F0BEF8E1684FF4FA
:10069000805048610348006801692046884701206E
:1006A00070BD0000A000002070B5044603F094FA6D
:1006B0000122002384F8122184F8143119464025C0
:1006C0000EE000BF01EB810004EBC00000F58E706E
:1006D00042700170C180C370C0E90253491C43617C
:1006E00060788842EED800210EE000BF01EB810067
:1006F00004EBC00202F55D7253701170D180D370AB
:10070000C2E90253491C536160788842EED8204602
:1007100002F0F8FF204602F0BBFE0021204603F065
:10072000BFFA204602F0F4FE2046BDE8704003F018
:10073000C3B92DE9F0470D46064601EB850006EBEF
:10074000C00404F58E74D4E90501421AA0689042F1
:1007500000D20246D21C970806EB850917E0A0EBF1
:100760000108A068404500D2804608F103008708D0
:100770001FFA88F3EAB23046E16803F0B5FAE1689F
:1007800001EB0800E060A16901EB0800A061D9F865
:100790001800806980B2B84205D9D4E905018142C8
:1007A00001D20028DBD10120BDE8F087074A904242
:1007B00001D2074801E005481038064A8B0001EADB
:1007C000020101D5C160704781607047106402402A
:1007D000006002407D0F7D0F0029016802D041F0CA
:1007E000010101E021F00101016070472DE9F043B2
:1007F000016821F001010160002101604160816018
:10080000C1600161212141613C493C4A3D251039CB
:10081000904202D18D60BDE8F083384A4FF474668F
:100820001832904201D18E60F5E7344A4FF47417C4
:100830003032904201D18F60EDE7304A4FF0746C56
:100840004832904202D1C1F808C0E4E72B4B2C4A51
:100850006033984201D1CA60DDE7284C294B7834D7
:10086000A04201D1CB60D6E7DFF89080264C08F19A
:100870009008404501D1CC60CDE7DFF880804FF093
:100880003D5908F1A808404502D1C1F80C90C2E7D3
:100890001E49DFF878800839404501D10D60BAE77C
:1008A0001A4D1835A84201D10E60B4E7174D303506
:1008B000A84201D10F60AEE7144D4835A84202D1DD
:1008C000C1F800C0A7E7114D10496035091FA842C3
:1008D00001D10A609FE70D4A7832904201D10B6046
:1008E00099E70A4A9032904201D10C6093E7074A97
:1008F000A83290428FD1C1F800908CE7106002407E
:100900003D000020400F002000003D201064024008
:100910000246094B00209A4201D2084A01E0064AE9
:10092000103A8B0001D5526800E01268044B1A405F
:100930000A4200D00120704710640240006002406B
:100940007D0F7D0F30B50368124ACC6813400A68EA
:100950002243D1E905452C432243CC6922430C6A4A
:1009600022434C6A22438C6A22434C6B22438C6B99
:1009700022431A430260426922F00703D1E90B24A3
:1009800022431A4342610A6942604A688260896868
:10099000C16030BD3F801CF07047000070B54FF45F
:1009A0000045284600F05CF800283ED01F4CD4F8E3
:1009B0001801A8B3A07A10B394F8120104281ED12C
:1009C0001B49086820F006000860012001F08AF940
:1009D000312001F065F90028FAD0012001F08AF9F0
:1009E000392001F05DF90028FAD0022001F088F9E1
:1009F00001F070F90828FBD10C4803F066F90B48A8
:100A000002F03CFC94F813010A4984F81201012019
:100A1000086009494FF6FF70088008A003F07AF9D2
:100A20002846BDE8704000F015B870BDFC010020FC
:100A300010ED00E000000020620100203E20555330
:100A4000422044657669636520776F6B6520757019
:100A50002E0A00000149086070470000143C014064
:100A6000064A014600201268044B0A4014331B68F2
:100A70000B4202D0002A00D001207047003C014008
:100A800030B51A498379026853B30B6893430B60FE
:100A90000A1D13680468A343136002790A441368AB
:100AA000046823431360114A083213680468A3439F
:100AB0001360131D1C680568AC431C604479102C3E
:100AC00005D021440A68006802430A6030BD1168FD
:100AD000046821431160196800680143196030BD42
:100AE0000079084401689143016030BD003C014039
:100AF0004FF0204202EB80000029016802D041F053
:100B0000010101E0014A114001607047FEFF0F0042
:100B100030B5D0E901121143D0E903231A43114340
:100B200042690368114382691143C2691143026A31
:100B30001143426A1143826A1143C26A1143026B34
:100B400011434FF0204242F823108168082906D152
:100B5000016802EB81010B6843F040030B60416BBD
:100B6000D1E9003443EA04138C688D89240244EAF5
:100B7000054423430C8A43EA04530C7D896943EA04
:100B800004630B43016802EB81014B60C16AB1F55C
:100B9000804F07D000686FF0704102EB8000C0F812
:100BA000041130BD816B0068D1E9003443EA0413BD
:100BB0008C680D8A240244EA055423430C7D89691C
:100BC00043EA046302EB80000B43C0F8043130BDFC
:100BD000F0B50023012403270D6804FA03F2154041
:100BE000954242D1D0F800C05E0007FA06F52CEA23
:100BF000050CC0F800C091F804C0D0F800E00CFA71
:100C000006FC4CEA0E0CC0F800C091F804C0BCF120
:100C1000010F02D0BCF1020F1FD1D0F808C02CEA9E
:100C2000050CC0F808C091F805C0D0F808E00CFA2F
:100C300006FC4CEA0E0CC0F808C0D0F804C02CEA40
:100C4000020CC0F804C0426891F806C00CFA03FC1C
:100C50001FFA8CFC42EA0C024260C268AA43C260DE
:100C6000CA79C568B2402A43C2605B1C102BB3D35B
:100C7000F0BD4B07DB0E9A40C90810B500EB8100B0
:100C8000016A0F249C40A1430162016A1143016281
:100C900010BDFEE702460020938A128B43EA02430E
:100CA00023F07F42914300D10120704700298188C1
:100CB00002D041F4006101E021F4006181807047BD
:100CC0000029818802D041F4805101E021F4805153
:100CD000818070470029018802D041F4807101E0D1
:100CE00021F48071018070470029018802D041F40D
:100CF000007101E021F40071018070470CB50246DB
:100D0000002000920A0F21F07F41019202D0009A48
:100D1000143202E0009A090C1832009212680A425A
:100D200000D001200CBD00007FB5044680880D4630
:100D300020F03F06684600F069FF26490298B0FBA4
:100D4000F1F189B20E43A680228822F001022280AE
:100D5000214B2A689A421BD85200B0FBF2F080B2B5
:100D6000042800D20420491C2184A083208840F05C
:100D70000100208021884FF6F5300140A8886A895B
:100D8000104308432080A8892989084320817FBD1A
:100D9000EB88A3F53F46FF3E05D102EB4202B0FBD4
:100DA000F2F080B208E002EBC20303EB0212B0FBE8
:100DB000F2F080B240F48040020501D140F0010021
:100DC0004FF4967251434FF47A72B1FBF2F140F452
:100DD0000040C8E740420F00A08601002DE9F84F0F
:100DE00082460020894600906946012000F0D6F92D
:100DF000504D01212846FFF763FF01212846FFF7E8
:100E000069FF4D4C4FF440564C4F266004E020687B
:100E1000401E2060401C7CD039462846FFF76EFFFC
:100E20000028F4D000225146284600F08FF8DFF861
:100E30001081266004E02068401E2060401C77D0AE
:100E400041462846FFF726FF0028F4D049462846A9
:100E500000F084F8DFF8E480DFF8E09008F17F0824
:100E600009F10309266004E02068401E2060401C50
:100E70005ED041462846FFF741FF28B9494628463B
:100E8000FFF73CFF0028EFD001212846FFF722FFA3
:100E9000266004E02068401E2060401C48D039468F
:100EA0002846FFF72BFF0028F4D0012251462846A0
:100EB00000F04CF82660234E04E02068401E2060BD
:100EC000401C35D031462846FFF7E4FE0028F4D018
:100ED00001212846FFF7EAFE1B4E01213046FFF7AD
:100EE0007BFC164F4FF4C0401F37206004E02068A1
:100EF000401E2060401C1BD039463046FFF708FDDD
:100F00000028F4D001212846FFF7EEFE00213046EC
:100F100000E00DE0FFF760FC00212846FFF7C6FE69
:100F200039463046FFF742FC9DF80000BDE8F88FD7
:100F30000220FBE700540040D00100200100001017
:100F400082000700020003001060024012B141F06D
:100F5000010101E001F0FE0101827047018270474A
:100F60002DE9F84F8A46814600278DF80020694612
:100F7000384600F013F9414D01212846FFF7AAFE3B
:100F80003F4C4FF44056DFF8FC80266004E02068B8
:100F9000401E2060401C6FD041462846FFF7AEFE41
:100FA0000028F4D0002249462846FFF7CFFFDFF89B
:100FB000D880266004E02068401E2060401C5BD082
:100FC00041462846FFF766FE0028F4D051462846E1
:100FD000FFF7C4FFDFF8AC80DFF8A89008F17F08C6
:100FE00009F10309266004E02068401E2060401CCF
:100FF00042D041462846FFF781FE28B94946284697
:10100000FFF77CFE0028EFD001212846FFF74EFEB7
:10101000DFF8788001214046FFF7DEFB2660464678
:10102000DFF86C8004E02068401E2060401C23D064
:1010300041463046FFF76CFC0028F4D04FF4C04026
:1010400020604C4621462846FFF758FE0028F9D07C
:1010500001212846FFF748FE00213046FFF7BCFB80
:1010600000212846FFF722FE41463046FFF79EFB4F
:101070003846BDE8F88FFFE70220FAE70054004049
:10108000D00100200100001082000700A060024093
:10109000000020201FB500F0CBF80020ADF80400C0
:1010A000ADF808004FF48060ADF80A000001ADF81B
:1010B0000C004BF6FF713748ADF8061000906946FA
:1010C0003548FFF731FE822000F048F910B10420C6
:1010D00004B010BD882000F041F908B10520F7E701
:1010E000822000F07BF9882000F078F901220721A6
:1010F000822000F08BF801221146822000F01BF9BB
:1011000001221146822000F0DFF80021012000F0CA
:10111000F5F900220C21882000F00DF901220C21A4
:10112000882000F0D1F803220C21882000F0DEF89E
:1011300000F064F901220D21882000F067F80122F7
:101140000421882000F0F7F800220121882000F017
:10115000F2F801220521882000F0B6F800210420D1
:1011600000F0CCF90021012000F0C8F90022F8219C
:10117000882000F0E0F80122F821882000F0A4F88F
:101180000322F821882000F0B1F800F095F9002042
:101190009EE70000A08601000054004030B50D46D7
:1011A000044601218FB0480500F0E8FC4FF00070C4
:1011B00000901448CDE9010500210015CDE9051086
:1011C0000420CDE90A100791089109910C910D9125
:1011D0000E91012C0FD0002C0BD140200390012048
:1011E000094C04902046FFF701FB69462046FFF7B3
:1011F000A9FB0FB030BD0220034CCDE90310903C99
:10120000F0E7000010540040A060024070B50C46AA
:10121000164605460421FFF7E1FD0EB1A04300E0AC
:101220002043024604212846FFF79AFE002070BDA5
:101230007CB501214C05204600F0C4FC01214FF48F
:10124000817000F09BFC0121880300F0D3FC012198
:10125000204600F0C3FC0021204600F0BFFC184DE2
:10126000042206212846FFF704FD0422092128460E
:10127000FFF7FFFC022140208DF8041000908DF84C
:10128000051001208DF8060000248DF807406946FE
:101290002846FFF79DFC6815009069462846FFF731
:1012A00097FC042000908DF804408DF807406946B3
:1012B0000448FFF78DFC0221082000F0B9FF7CBD37
:1012C000000402400020024070B50C461646054658
:1012D0001721FFF783FD0EB1204300E0A043024633
:1012E00017212846FFF73CFE002070BD2DE9F04194
:1012F0000D46164607461621FFF770FD04461521D8
:101300003846FFF76BFD20EA050124EA05020C468A
:10131000F00700D02A43B00701D541EA05041621A1
:101320003846FFF71DFE224615213846FFF718FE06
:101330000020BDE8F08170B50C4616460546132125
:10134000FFF74CFD0EB1204300E0A04302461321FD
:101350002846FFF705FE002070BD000010B500F024
:101360002EF8A0F50061113906D00448006808B1D4
:10137000012010BD022010BD002010BDD0010020B2
:1013800010B512218820FFF729FD1F21B1EBD00FE6
:1013900013D0010601D4012010BD410601D4022062
:1013A00010BD810601D4032010BDC10601D4042064
:1013B00010BD000701D4052010BD002010BD70B580
:1013C00005460021FFF70AFD4FF6FF7101EA0024F0
:1013D00001212846FFF702FD204370BD10B50446E9
:1013E00002220321FFF7BCFD022002F0C9FC00220B
:1013F00003212046FFF7B4FD002010BD10B50421E5
:101400008220FFF7EBFC20F0030204218220FFF78B
:10141000A7FD0A218220FFF7E1FC40F007020A2124
:101420008220FFF79DFD492220218220FFF798FDB1
:10143000022002F0A5FC012221218220FFF790FD6D
:1014400017218220FFF7CAFC20F01E0217218220FC
:10145000FFF786FD9A2241218220FFF781FD0122BC
:101460004A218220FFF77CFD01224B218220FFF7D9
:1014700077FD00224B218220FFF772FD01225621C9
:101480008220FFF76DFD012258218220FFF768FDC1
:10149000012240218220FFF763FDFF220B218220E1
:1014A000FFF75EFD03480021C180818041800180FB
:1014B000084610BDE001002008B500208DF80000AE
:1014C00004218820FFF78AFC8DF800009DF80000B9
:1014D00020F009008DF800009DF8002004218820EC
:1014E000FFF73EFD012260218820FFF739FD03222E
:1014F00060218820FFF734FD002008BD10B5C20729
:1015000001D0822303E010F0050F08D088230246A3
:1015100039B110211846FFF723FD002010BD03202C
:1015200010BD1121F6E730B50546002440F23F1109
:10153000204600F04DFA4FF0D041222008804FF4B1
:1015400096304D80641C8442FBD330BD70B5064696
:1015500040F23F14084D08E020222146304600F0BA
:10156000A7F868688088201A84B26968601C80B215
:1015700089888842F0D270BD840100201CB5012109
:10158000782000F0FBFA4CF23370009002208DF8C6
:1015900004008DF8050000208DF80600404C8DF801
:1015A000070069462046FFF713FB0C220021204666
:1015B000FFF75FFB0C2201212046FFF75AFB0C22AC
:1015C00004212046FFF755FB0C2205212046FFF79A
:1015D00050FB0C2208212046FFF74BFB0C2209216F
:1015E0002046FFF746FB0C220A212046FFF741FB6D
:1015F0000C220E212046FFF73CFB0C220F21204637
:10160000FFF737FB4FF68070264C00906946204666
:10161000FFF7DEFA0C2207212046FFF72AFB0C22F7
:1016200008212046FFF725FB0C2209212046FFF761
:1016300020FB0C220A212046FFF71BFB0C220B216A
:101640002046FFF716FB0C2211462046FFF711FB40
:101650000C220D212046FFF70CFB0C220E21204608
:10166000FFF707FB0C220F212046FFF702FB0120AA
:101670000D4C009069462046FFF7AAFA0C22002183
:101680002046FFF7F6FA2015084C009069462046E0
:10169000FFF79EFA0C220A212046FFF7EAFA1CBD4A
:1016A000000C0240001002400014024000180240EA
:1016B000064B10B45B68203AD2B21C68DB885343F7
:1016C00004EB430210BC00F01FB8000084010020AE
:1016D000F0B50D46074640F23F140A4E08E0214699
:1016E0003846FFF7E5FF70688088201A84B26D1CC9
:1016F0002A78002A05D07168601C80B289888842E7
:10170000EDD2F0BD840100202DE9F04390468946DA
:101710000026054600F05CF94FF0D047184C29E050
:101720002220388000201BE00C23B1FBF3F34FEAAA
:10173000C30C802303FA0CF338F816C0034113EAF4
:101740000C0F01D10C2906D9012383401CEA030F99
:1017500003D10C2901D9618800E021887980401CDF
:1017600091888142E0D86D1CADB24946284600F010
:101770002FF9761C6268D088B042D1D8BDE8F083DA
:101780008401002000B5012197B0084600F00EFA50
:1017900005200F9000200921CDE9100114900421AB
:1017A0001590CDE9001012901021CDE9020113909F
:1017B00004900590069009020790CDE908010A906F
:1017C0000B900C900FA80D900E906846FFF7A0F9B3
:1017D00001210420FFF78CF917B000BD01484068D3
:1017E000704700008401002008484FF6FF71818097
:1017F0000021C180018141818181C181012202706A
:1018000041708170C1700182704700005E0100204C
:1018100010B5FFF7E9FFBDE810400020FFF783BED9
:1018200070B505468AB01F2000F0CAF8FFF7D6FF52
:101830000446002069464FF4A072202302E00B54B6
:10184000401CC0B2A688B2FBF6F6761E8642F6DCD5
:10185000A088B2FBF0F00844002100F8011CE088E9
:101860006946C0F1F00080B2FFF732FFE0882946F8
:10187000C0F1F00080B2FFF72BFF002000F0A0F8CD
:101880000AB070BD70B588B00021034600E0491C65
:1018900013F8012B002AFAD11A2900D91A210022A3
:1018A00020246B469C54521C1B2AFBD30022C1F1FE
:1018B0001B0404E0855C02EB5406521C9D558A42D1
:1018C000F8D30020FFF72FFE104800F08DF8FFF747
:1018D00085FF04464FF6FF75284600F08BF81F2061
:1018E00000F06EF80020FFF731FEE0886946FFF750
:1018F000EFFEE08805EA4000FFF728FE002000F038
:101900005FF8034800F070F808B070BD9401002043
:101910009C0100202DE9F0470024FFF75FFF234DD5
:101920000646234F688908281AD22989884217D386
:1019300000EB800101EBC00007EB8000408E00F05F
:1019400059F86889F28800EB800101EBC00107EBD0
:101950008101BDE8F047C01C424390B2FFF7B8BE1A
:101960002989884201D2093080B2083885B2B84648
:101970004FF009096119B1FBF9F209FB121000EBF4
:10198000800101EBC00108EB8107788E00F032F88E
:10199000F088E21C5043394680B2FFF799FE641C80
:1019A000E4B2092CE6D3BDE8F08700005E01002018
:1019B000300800204FF0D041088048887047000070
:1019C00001B5BDF800000149488008BD8401002030
:1019D0000B4600B50146202000F014F819462120DE
:1019E0005DF804EB00F00EB8014948607047000054
:1019F0008401002001B5BDF800000149088008BD40
:101A0000840100204FF0D042108051807047FEE7E3
:101A10007047000070B50F21C478027801234FF0A1
:101A2000E026E4B1124C246804F4E064C4F5E064F8
:101A3000C4F30724C4F10405E1404478AC40857840
:101A40000D4025430B4C29011155007800F01F0172
:101A50008B40400906EB8000C0F8003170BD02F0F9
:101A60001F008340500906EB8000C0F8803170BD34
:101A70000CED00E000E400E0024908430249086080
:101A8000704700000000FA050CED00E0144810B5A6
:101A9000807AF0B11348016821F00601016001204D
:101AA00000F020F9312000F0FBF80028FAD00120E6
:101AB00000F020F9392000F0F3F80028FAD00220D5
:101AC00000F01EF900F006F90828FBD1044802F0E6
:101AD000FCF8BDE810404FF48020FEF7BBBF0000CB
:101AE000FC01002010ED00E0014800F0DBBE00002A
:101AF000FC010020014800F011BF0000FC010020A3
:101B0000014800F033BF0000FC010020174810B569
:101B10000168012927D01648807AF0B1154801687C
:101B200021F006010160012000F0DCF8312000F016
:101B3000B7F80028FAD0012000F0DCF8392000F0D6
:101B4000AFF80028FAD0022000F0DAF800F0C2F86E
:101B50000828FBD1064802F0B8F8BDE810404FF461
:101B60008010FEF777BF00210160F6E7000000203B
:101B7000FC01002010ED00E070470000044A00293D
:101B8000116801D0014300E08143116070470000FB
:101B900030380240044A0029116801D0014300E0B6
:101BA000814311607047000034380240044A002924
:101BB000116801D0014300E08143116070470000CB
:101BC00038380240044A0029116801D0014300E07E
:101BD000814311607047000040380240044A0029E8
:101BE000116801D0014300E081431160704700009B
:101BF00020380240044A0029116801D0014300E066
:101C000081431160704700004438024070B5204A9B
:101C10001168204C11F00C0104D01F4E042903D090
:101C2000082903D004601BE0066019E01849091F69
:101C30000B68C3F380550B6803F03F0315B1B6FB87
:101C4000F3F301E0B4FBF3F30C680968C4F3881400
:101C50006343C1F30141491C4900B3FBF1F1016049
:101C600011680F2303EA11110C4B5C5C0168E14021
:101C700041601468072505EA94241C5D21FA04F4E8
:101C80008460126805EA52329A5CD140C16070BD2E
:101C9000083802400024F40040787D01E80100206B
:101CA00002460020510901290BD002290CD0084915
:101CB000096802F01F02012393400B4200D001206B
:101CC000704703497439F3E70149091FF0E7000041
:101CD000743802400248006800F00C0070470000B1
:101CE00008380240024900220A700870704700005C
:101CF0000238024001490866704700000000474270
:101D0000034A116821F0030101431160704700008C
:101D1000083802402DE9F84F00200090FFF72EFC14
:101D2000FFF730FD052002F01DF80020FFF742FE0E
:101D3000A0F513414FF480774FF4E06540F20223A1
:101D400041F2B07640F2371840F239194FF4E85AB0
:101D500040F23F1B41F21804009020397ED1F90176
:101D6000E520FFF74FFE01210020FFF74BFE39462B
:101D70000120FFF747FE29460220FFF743FE41F20C
:101D800030010320FFF73EFE00210420FFF73AFE5A
:101D900019460820FFF736FE00210920FFF732FE22
:101DA00000210A20FFF72EFE00210C20FFF72AFE5B
:101DB00000210D20FFF726FE00210F20FFF722FE55
:101DC00000211020FFF71EFE00211120FFF71AFE50
:101DD00000211220FFF716FE00211320FFF712FE4C
:101DE000142001F0BFFF31461020FFF70BFE4146E3
:101DF0001120FFF707FE052001F0B4FF494612202D
:101E0000FFF700FE052001F0ADFF51461320FFF75C
:101E1000F9FD13212920FFF7F5FD052001F0A2FFB0
:101E200000212020FFF7EEFD00212120FFF7EAFD31
:101E300007213020FFF7E6FD07213120FFF7E2FD03
:101E400007213220FFF7DEFD07213520FFF7DAFDFD
:101E500007213620FFF7D6FD294600E068E037204D
:101E6000FFF7D0FD29463820FFF7CCFD2946392061
:101E7000FFF7C8FD29463C20FFF7C4FD4FF4F85199
:101E80003D20FFF7BFFD00215020FFF7BBFDEF21F4
:101E90005120FFF7B7FD00215220FFF7B3FD59464F
:101EA0005320FFF7AFFD4FF41C516020FFF7AAFD50
:101EB00001216120FFF7A6FD00216A20FFF7A2FDA6
:101EC00000218020FFF79EFD00218120FFF79AFD71
:101ED00000218220FFF796FD00218320FFF792FD6D
:101EE00000218420FFF78EFD00218520FFF78AFD69
:101EF00010219020FFF786FD00219220FFF782FD40
:101F000003219320FFF77EFD4FF488719520FFF7A2
:101F100079FD00219720FFF775FD00219820FFF73C
:101F200071FD21460320FFF76DFD40F27311EDE0D6
:101F3000A0F5134125397DD101210020FFF762FD75
:101F400039460120FFF75EFD29460220FFF75AFDC2
:101F500021460320FFF756FD00210420FFF752FD24
:101F600019460820FFF74EFD00210920FFF74AFD22
:101F700000210A20FFF746FD00210C20FFF742FD5B
:101F800000210D20FFF73EFD00210F20FFF73AFD55
:101F900000211020FFF736FD00211120FFF732FD50
:101FA00000211220FFF72EFD00211320FFF72AFD4C
:101FB000142001F0D7FE31461020FFF723FD4146E3
:101FC0001120FFF71FFD052001F0CCFE494612202D
:101FD000FFF718FD052001F0C5FE51461320FFF75D
:101FE00011FD13212920FFF70DFD052001F0BAFE98
:101FF00000212020FFF706FD00212120FFF702FD30
:1020000007213020FFF7FEFC40F202313120FFF7BC
:10201000F9FC40F2051319463220FFF7F3FC40F2B9
:10202000062529463520FFF7EDFC40F60806314627
:10203000362000E06DE0FFF7E5FC29463720FFF78A
:10204000E1FC40F204513820FFF7DCFC0721392085
:10205000FFF7D8FC19463C20FFF7D4FC31463D2061
:10206000FFF7D0FC00215020FFF7CCFCEF215120DE
:10207000FFF7C8FC00215220FFF7C4FC594653204B
:10208000FFF7C0FC4FF427416020FFF7BBFC0121A4
:102090006120FFF7B7FC00216A20FFF7B3FC0021A5
:1020A0008020FFF7AFFC00218120FFF7ABFC00216F
:1020B0008220FFF7A7FC00218320FFF7A3FC00216B
:1020C0008420FFF79FFC00218520FFF79BFC102157
:1020D0009020FFF797FC00219220FFF793FC03214B
:1020E0009320FFF78FFC4FF488719520FFF78AFC4F
:1020F00000219720FFF786FC00219820FFF782FC43
:1021000021460320FFF77EFC40F233110720FFF742
:1021100079FC0348A0F108014860BDE8F88F000091
:102120008C0100201CB504460E48012150F8240003
:10213000FFF724FD0B4800210A3830F81400009006
:1021400001208DF804008DF806108DF8070002209C
:102150008DF805000448694650F82400FEF738FD64
:102160001CBD0000F8620008B4010020044951F8C9
:1021700020104A69034B33F8100042404A6170470F
:10218000B4010020EE62000870B5044625480E46F2
:1021900086B050F824000121FFF7F0FC01218803EC
:1021A000FFF728FD1F4800258DF8105038388DF8AE
:1021B000135030F8140003901B4803A950F8240072
:1021C000FEF706FD012E2BD11648263810F8141004
:1021D000801F10F8140000F02BF81248323830F845
:1021E000140000908DF804500CB10C2000E0082081
:1021F0008DF8050001258DF806506846FEF740FC75
:102200000848203810F814008DF808000F208DF8C9
:1022100009008DF80A008DF80B5002A8FFF7FAFBB1
:1022200006B070BD08630008C401002070470000BC
:1022300010B58A0721F003040649130F21440F2229
:102240000C689A4094430C600A68984002430A6004
:1022500010BD0000083801400CB50020274901904E
:1022600000900A6842F480320A604FF4A0630A6862
:1022700002F400320092019A521C0192009A12B9A3
:10228000019A9A42F3D10A68920334D50120009052
:102290001A484030026842F08052026018480268D2
:1022A00042F4804202601548083002680260026809
:1022B00042F400420260026842F4A0520260031F2E
:1022C000104A1A600A6842F080720A600A68920135
:1022D000FCD50D4A40F205611160016821F003014F
:1022E0000160016841F0020101600168C1F38101F0
:1022F0000229FAD10CBD00900CBD0000003802404C
:102300000070004008544007003C024070B50025B2
:102310002C46FFF735F802280ED06FF0090103288C
:1023200004D0042804D0052807D103E00D4604E0BA
:102330000A2502E00C4600E00A240949002215F0B3
:10234000FF000A704870E3B28B70CA7001D1002B95
:1023500005D0BDE870400422024800F01ABA70BDF2
:1023600004000020FC010020124810B5016841F46F
:10237000700101601048016841F0010101600E4ADE
:1023800000210832116002680C4B1A400260031DE4
:102390000B4A1A60026822F48022026006480C3060
:1023A0000160FFF759FF03494FF000608039086072
:1023B00010BD000088ED00E000380240FFFFF6FE8F
:1023C0001030002410B5D0F8E42552689047002062
:1023D00010BD10B5134600240A462146FDF78DFFB7
:1023E000204610BD10B5134600240A462146FDF7CD
:1023F000C5FF204610BD10B504468021FDF7A2FFA1
:1024000000212046FDF79EFF2046BDE8104001F068
:10241000FBB970B505460024052085F81101234657
:10242000224621462846FDF768FF284601F0ECF9D0
:10243000204670BD10B5C0F83C210223C0F83821F9
:1024400080F81131134600240A462146FDF796FF15
:10245000204610BD70B505460024042085F8110102
:102460002346224621462846FDF788FF284601F0EC
:10247000CBF9204670BD000070B5054641B1D5F8D6
:10248000E40542698AB395F81201032846D047E073
:1024900095F81101002605F58E74022833D1E16903
:1024A000A06881420FD9081AE061E878012803D1B9
:1024B000D4E902100844E060A08BE16882B22846AB
:1024C000FFF790FF1FE0216AB1FBF0F200FB121250
:1024D00062B981420AD3606A814207D20022114662
:1024E0002846FFF77FFF66620DE016E0D5F8E405A9
:1024F000C16829B195F81201032801D128468847FF
:102500002846FFF786FF95F81601012808D10548EF
:1025100000682969486085F8166101E028469047FF
:10252000002070BDA400002070B5054641B1D5F86B
:10253000E40582690AB395F8120103282CD02DE036
:1025400095F8110105F55D74032827D1E169A068AC
:10255000814213D9081AE061E878012803D1D4E94F
:1025600002100844E060E169A068814200D2084698
:1025700082B22846E168FFF72CFF0FE0D5F8E405AA
:10258000016929B195F81201032801D1284688472D
:102590002846FFF75FFF01E028469047002070BD06
:1025A00010B50446D0F8E80540698047012084F85A
:1025B0001501002010BD10B50446D0F8E80580696B
:1025C0008047D4F8E4050021426820469047002067
:1025D00084F8150110BD000038B5044648880D4642
:1025E000010A08296AD2DFE801F06904142C69693C
:1025F0005567D4F8EC15A0780A68694690470146FB
:10260000E888402803D094F81201012863D10820FB
:102610004FE0D4F8E415A0788A6A694690470146ED
:10262000A078012808D1227A012A05D1D4F8E4152E
:10263000CA6A69469047014602204870C4F8F015FE
:1026400049E0C0B2062839D2DFE800F003080D12D5
:10265000171CD4F8EC15A0784A6817E0D4F8EC15EC
:10266000A0788A6812E0D4F8EC15A078CA680DE06A
:10267000D4F8EC15A0780A6908E0D4F8EC15A07835
:102680004A6903E0D4F8EC15A0788A696946904756
:10269000014620E0A07888B9D4F8E4158A6A694632
:1026A00090471649827B0A71C27B4A71007C88710F
:1026B0000A20ADF8000012E0A07820B1294620469B
:1026C000FFF799FE38BDD4F8E415CA6A6946904709
:1026D000014607204870BDF800000028F2D0E888C5
:1026E0000028EFD0BDF80020904200D91046ADF888
:1026F000000082B22046FFF79DFE38BD5800002042
:1027000070B5002300281DD00446002502E06D1C92
:10271000EDB2641C2678002EF9D1022404EB4504A6
:102720001480CC545B1C0322CA545B1C002406E0BA
:10273000CA545B1CDAB2401C8C54521CD3B20278CF
:10274000002AF5D170BD10B58121FDF7ACFD002048
:1027500010BD10B504468121FDF773FD012120460F
:10276000FDF76FFD002010BD222008800048704753
:10277000E400002010B50446032304228121FDF764
:102780009EFD0323042201212046FDF798FD002031
:1027900010BD10B590F81231032B04D113460A4630
:1027A0008121FDF7EBFD002010BD000070B50C7815
:1027B000002214F06005254C13461DD0202D42D177
:1027C0004A78022A14D0032A0AD00A2A0CD00B2AEB
:1027D00003D0FFF710FE022070BD8878606032E001
:1027E0001A490122091D26E04888000AA0602AE053
:1027F0001649012208311EE04D78062D04D00A2D1D
:102800001CD00B2D1FD11CE04C882225B5EB142FBA
:1028100006D1CA884A2A00D94A220C4B3C3309E027
:102820002125B5EB142F05D1084BCA883033092A6E
:1028300000D909221946FFF7FDFD04E001220349F2
:10284000F9E788782060002070BD0000D8000020E3
:102850002DE9F0411D46174688460446069E00F0C5
:1028600063FDC4F8E45504F5BD65414685E8C00044
:102870002046FDF719FF2868006880472046BDE81C
:10288000F04100F01CBD10B5D0F8E415096A884786
:10289000002010BD10B5D0F8E415496A8847002023
:1028A00010BD000070B505460069426C416BC1F374
:1028B000400142EAC111EA6994680C40E1070CD07A
:1028C000416B21F002014163E869012484601248F0
:1028D00021460068426828469047A00702D5E8696B
:1028E00002248460200702D5E86908248460E00699
:1028F00002D5E86910248460600602D5E8694024A6
:102900008460200606D501212846FDF712FFE969FB
:1029100080208860012070BDA000002070B50446B2
:10292000806D85682169D1F884100D40E90713D0C6
:1029300001258560E078012808D1A06D0069D4F8F0
:10294000A413C0F31200081AC4F8B4030648012106
:102950000068026820469047A80702D5A16D0220B2
:102960008860012070BD0000A00000202DE9F04724
:102970000446002501F0FDF800287DD0204601F036
:1029800001F9060079D0300303D52046FDF778FD24
:102990000546700303D52046FDF70CFD0543B0073F
:1029A0004FF0000A02D5E168022048614C4F4FF019
:1029B0000109002E17DAA07A30B1D4F80C01D4F84E
:1029C0000C1120F0030008602069416821F001012A
:1029D00041603868816920468847E1684FF00040CF
:1029E000486145F00105300503D52046FDF7DCFDC3
:1029F0000543300708D53868C16820468847E16834
:102A00000820486145F00105F00603D52046FDF792
:102A10008DFD0543F00403D52046FDF7FDFD05437C
:102A2000B0041AD5204600F075FEE068D0F80C809E
:102A3000204601F085F8032847D084F80290402111
:102A400028F47050A18000F5A050E168C860E168EA
:102A50004FF40050486145F00105F00209D538688F
:102A6000C16920468847E1684FF48010486145F00D
:102A70000105B0020CD501E024E024E03868016AC9
:102A800020468847E1684FF40010486145F0010591
:102A9000700009D53868416A20468847E1684FF0E0
:102AA0008040486145F0010570070BD5E068466835
:102AB000700703D53868816A20468847E068466019
:102AC00045F001052846BDE8F08784F802A04FF4E0
:102AD000007128F47050A18000F51050B5E7000097
:102AE000A000002090F8CC250A7090F8CD254A70FF
:102AF00090F8CE2590F8CF3502EB03224A8090F86B
:102B0000D02590F8D13502EB03228A8090F8D225A7
:102B100090F8D33502EB032292B2CA800121C0F8AB
:102B2000402180F81111704710B50023044640225F
:102B30001946FDF7C4FB0023402280212046FDF703
:102B4000BEFB012084F81201D4F8E815A07849688A
:102B50008847002010BD10B50446D0F8E80500698C
:102B60008047032084F81201002010BD10B5D0F872
:102B7000E415C96901B18847002010BD10B50446AD
:102B8000D0F8E405026820469047D4F8E80580684C
:102B90008047002010BD000070B50A461A4D8978A4
:102BA00004462970012905D894F81201022807D09B
:102BB00003280CD02046BDE870401146FFF71BBC2F
:102BC000A1B184F81011032084F812010BE091B137
:102BD00094F81001884209D001462046FFF7F2FB25
:102BE000297884F810112046FFF7C8FF2046BDE879
:102BF0007040FFF72FBC022084F8120184F81011F6
:102C00002046FFF7DFFBF1E76400002010B5044623
:102C10004888012201280FD0022831D1888810F07D
:102C2000FF0F2DD121694968000A06281FD2DFE86D
:102C300000F01E0B0F13171BC4F81821D4F8E4057D
:102C400082682046904716E021F0700110310EE0B6
:102C500021F0700120310AE021F07001303106E0EE
:102C600021F07001403102E021F07001503105483F
:102C7000016084F816212046BDE81040FFF7EABB4A
:102C800010BD0000A40000201CB504466946FFF7F3
:102C900029FF9DF8001011F01F000AD001280DD067
:102CA000022810D001F080012046FDF74BFB0020E8
:102CB0001CBD6946204600F00BF8F8E7694620463F
:102CC00000F0E8F8F3E76946204600F079F8EEE70F
:102CD0002DE9F0414A78002601250A2A42D2DFE890
:102CE00002F03B554152410805412A27FFF774FC89
:102CF00061E004468888C8B9C888B8B9887800F007
:102D00007F0794F81201032810D084F81471394613
:102D10002046FDF70FFB2046FFF79CFB1FB102206A
:102D200084F8120147E084F8125144E0204619E08B
:102D3000FFF732FF3FE0CA88012A13D190F8122131
:102D4000022A02D0032A0DD102E001221B4917E01A
:102D5000012200F5887113E090F81221022A04D0B4
:102D6000032A02D0FFF747FB25E014490839CD605C
:102D7000D0F818210AB10322CA6010490222091DA5
:102D8000FFF758FB17E0FFF741FF14E0044690F807
:102D90001201022801D00328C8D1488801280AD18D
:102DA0000020C4F81801D4F8E40582682046904752
:102DB0002046FFF74FFB3046BDE8F0816C00002055
:102DC00070B50D46044609796878002658B3012885
:102DD00016D0032831D194F8120102282FD00328ED
:102DE00027D1688828B921B1802902D02046FDF773
:102DF000A9FAD4F8E40529468268204690470EE0F7
:102E000094F8120102281AD0032812D16888A0B9B8
:102E100029B1802903D02046FDF729FAE9E72046A9
:102E2000FFF718FB09E094F81201022807D00328E5
:102E30000DD029462046FFF7DEFA304670BD002946
:102E4000FBD08029F9D02046FDF77CFAF5E7104841
:102E50000D064FF000034FF0010208D501F07F018D
:102E600001EB810104EBC10191F81E1105E001EBBA
:102E7000810104EBC10191F8761309B1426000E0D1
:102E8000436003490222091D2046FFF7D3FAD4E725
:102E90006400002070B5054690F8120100260C462B
:102EA00003280DD1207901280AD8D5F8E4058268D5
:102EB00028469047E08830B92846FFF7CBFA02E071
:102EC0002846FFF798FA304670BD10B500F58970B6
:102ED0000178417004210170D0F8D604C0688047A1
:102EE000002010BD10B50A46024903A0FFF708FCF8
:102EF000004810BDF007002048494420436F6E662B
:102F00006967000003494FF6FF70088002A000F0D7
:102F100001BF0000620100203E2048494420496E64
:102F20007465726661636520737461727465642E82
:102F30000A00000003494FF6FF70088002A000F06D
:102F4000E9BE0000620100203E2055534220446546
:102F50007669636520436F6E6E65637465642E0ADF
:102F60000000000012200880004870474400002044
:102F700003494FF6FF70088002A000F0CBBE0000AE
:102F8000620100203E205553422044657669636506
:102F900020446973636F6E6E65637465642E0A0006
:102FA00018B1012803D003A002E00BA000E013A099
:102FB000FEF736BC20202020205553422044657661
:102FC000696365204C6962726172792076312E31B5
:102FD0002E30205B3F3F5D002020202020555342B3
:102FE00020446576696365204C696272617279205C
:102FF00076312E312E30205B48535D00202020207A
:103000002055534220446576696365204C6962729D
:103010006172792076312E312E30205B46535D006F
:1030200003494FF6FF70088002A000F073BE000055
:10303000620100203E205553422044657669636555
:1030400020696E2049646C65204D6F64652E0A000E
:1030500003494FF6FF70088002A000F05BBE00003D
:10306000620100203E205553422044657669636525
:1030700020696E2053757370656E64204D6F6465B2
:103080002E0A000010B50020FFF74CF80120FFF7D2
:1030900049F80220FFF746F80320FFF743F8FDF751
:1030A000F9FF1B4830210068B0FBF1F0401EB0F181
:1030B000807F2BD24FF0E0214861164AF02010703B
:1030C0000020886107200861FEF724FEFEF7A0FBC0
:1030D00011A0FEF7D7FB16484FF6FF74048015A029
:1030E00000F018FE1BA0FEF79BFB4FF4FC60FEF700
:1030F00081FC20A1C620FEF7EBFA23A1D220FEF727
:10310000E7FA2046BDE81040FEF774BCFEE7000079
:103110007001002023ED00E020555342204F54471A
:10312000204853204849442044657669636500007F
:10313000620100203E205553422064657669636534
:10314000206C696272617279207374617274656453
:103150002E0A00002020202020555342204465766E
:10316000696365204C6962726172792076312E3113
:103170002E3000005B4B65795D3A52656D6F74656A
:1031800057616B65757000005B4A6F797374696392
:103190006B5D3A4D6F75736520656D756C61746913
:1031A0006F6E000010B50A46024903A0FFF7A8FAA7
:1031B000004810BDF007002048494420496E74655E
:1031C0007266616365000000042008800048704753
:1031D0004000002010B50A46024903A0FFF790FA0C
:1031E000004810BDF007002053544D6963726F65AD
:1031F0006C656374726F6E69637300000A4610B584
:10320000044928B104A000BFFFF77AFA014810BDB5
:1032100006A0F9E7F00700204A6F79737469636BC1
:1032200020696E204653204D6F6465004A6F7973A4
:103230007469636B20696E204853206D6F6465006C
:103240000A4610B5044928B104A000BFFFF758FA98
:10325000014810BD05A0F9E7F007002030303030FC
:103260003030303030313143000000003030303009
:1032700030303030303131420000000010B50446AB
:10328000D0F81801002819D020698068C00715D02F
:10329000A07A30B1D4F80C01D4F80C1120F003005E
:1032A00008602069416841F001014160052000F09B
:1032B000DFF82069416821F00101416010BD38B597
:1032C0004FF4C0652846FEF7D7FB4D208DF800006F
:1032D00001248DF8014003208DF802008DF8034091
:1032E0006846FEF797FB2846FEF7C6FB4A208DF896
:1032F00000008DF8014002208DF802008DF8034097
:103300006846FEF787FB2846FEF7B6FB4B208DF894
:1033100000008DF801408DF802408DF803406846AA
:10332000FEF778FB38BD00002DE9F041012186B0A1
:103330000846FEF723FC4FF4C850032600908DF892
:10334000056002208DF804000025484F8DF80650D6
:103350008DF8075069463846FDF73AFC0A220821E5
:103360003846FDF786FC0A220B213846FDF781FC22
:103370000A220C213846FDF77CFC8DF80560781593
:103380008DF80450012400908DF806408DF8075008
:1033900069463846FDF71CFCA0028DF806400090F7
:1033A0008DF807408DF8056069463846FDF710FC3A
:1033B0000A2211463846FDF75CFC01218803FEF71E
:1033C00019FC01218020FEF7E5FB01210807FEF72B
:1033D00005FC01210220FEF7D7FEA6043046FDF7CA
:1033E00039FB8DF80C5008278DF80D7002968DF87A
:1033F0000E4002A8FDF744FB3046FDF72BFB2A20C8
:103400008DF810008DF811404FF005088DF81280EE
:103410008DF8134004A8FEF7FDFA3046FDF71AFBBD
:1034200026053046FDF716FB8DF80C508DF80D7013
:1034300002968DF80E4002A8FDF722FB3046FDF7FC
:1034400009FB4C208DF810008DF811408DF812808A
:103450008DF8134004A8FEF7DDFA3046FDF7FAFABE
:10346000E003FDF7F7FA06B0BDE8F0810000024086
:103470004FF47A714843AFF30080C0EB0010002195
:10348000C0000722B0FBF2F0491C8142FCD9704712
:1034900070B50446017A0025C068012915D0C168BD
:1034A00041F04001C160204600F000F9617A4FF41C
:1034B000502009B14FF4E810E16888631420FFF749
:1034C000D7FFE078012819D020E0816B627A21F4DF
:1034D00080310AB141F480118163E068C16821F054
:1034E000401121F42021C160204600F0DFF8E0788F
:1034F00001280BD1E1682A208860E2E7E068816852
:1035000021F01E010A3141F020018160284670BD82
:103510002DE9F04704464FF00009D0F80C014E4663
:1035200033463546C0F800902069016821F4C05147
:103530000160E07A80274FF04008012824D1032160
:10354000204600F010FBE0684762E06868F31F4324
:1035500067F30F03836203EB134060F30F05E0682A
:1035600067F31F45C0F8045105EB154060F30F05E4
:10357000E06866F31F45C0F8085105EB154060F39D
:103580000F05E068C0F80C51E07AC8BB207A01282A
:103590004CD00121204600F0E6FAE1684FF40070BB
:1035A000486267F31F4360F30F03E068836203EB35
:1035B000134060F30F054FF4BA7060F31F45E068E5
:1035C000C0F8045105EB154060F30F05E06866F3A1
:1035D0001F45C0F8085105EB154060F30F05E06882
:1035E000C0F80C5105EB154060F30F05E068C0F81A
:1035F000105105EB154060F30F05E068C0F8145159
:103600001021204600F07CFA204600F05DFA206987
:1036100006612069466121694FF0FF3088612069A9
:10362000C66100224FF09040FF2310E00021B1E777
:1036300004EB8205AF693968002901DA014600E030
:1036400031463960A9690E61A9698B60521C6178A5
:103650009142EDD800220EE004EB82056F6D3968CF
:10366000002901DA014600E031463960696D0E61DA
:10367000696D8B60521C61789142EDD820690169B7
:1036800041F480710161E078012808D1032068F3DA
:103690008A00216940F4803068F35940086320466D
:1036A00000F0E2F94846BDE8F0870000F8B50027D1
:1036B00004463E460097124D0320FFF7DEFEE06809
:1036C00000690090761CAE4201D90020F8BD009838
:1036D0000028F1DA0099002041F0010100910099E1
:1036E000E2681161E1680A690092401CA84202D8B0
:1036F000009AD207F7D10320FFF7BFFE3846F8BD86
:10370000400D0300C0680021826822F0010282603F
:103710000846704710B5016900238C6882691168FA
:10372000C4F341042CB1012C03D0022C04D0032C8F
:1037300005D16FF30A0102E06FF30A01C91C1160A1
:103740000069416841F480714160184610BD000075
:10375000F0B54A7800254C69012A15D00A7800EBAB
:1037600082035A6D16681269DCB38C68C1F8144084
:1037700064F306025B6D22F4C01202F500221A61A6
:10378000C278012A30D035E083691F681A6934B1E4
:103790008E68B44206D966F306024E6104E022F058
:1037A0007F0201E064F3060222F4C01202F5002257
:1037B0001A61C278012A05D10C780A6900EB8404E9
:1037C000A469626147F004421A60C278CAB94A69C2
:1037D000BAB10A78006901219140426B0A43426301
:1037E0000FE0FFE70C7AC3E70B780A6900EB83036D
:1037F0005B6D5A61097846F0044200EB8100406D30
:1038000002602846F0BD0000426D07491161C17891
:10381000012908D1426D00F2CC515161406D01681F
:103820004FF0802101607047180008C0F0B50E7895
:1038300000254F780122B2402B4600EB8604012F71
:1038400017D0646D62F31F43226816040DD40E89ED
:1038500066F30A02CE7866F393428E7966F3995244
:1038600042F0805242F4004222600978012904D0DB
:1038700005E0A46962F30F03E6E7C17A29B10069A4
:10388000C1691943C1612846F0BD0069C16B194384
:10389000C163F8E710B502464C780B78002002EBC4
:1038A0008302012C09D0526D1368C97823F40013E8
:1038B000032904D0022902D003E09269F4E743F01F
:1038C0008053136010BDF0B50F78002691F801C049
:1038D00001243346BC401A4600EB8705BCF1010FBA
:1038E00007D06D6D64F31F422B600978012904D065
:1038F00005E0AD6964F30F02F6E7C17A29B100690A
:10390000C1699143C1613046F0BD0069C16B91430B
:10391000C163F8E702464B780978002002EB810189
:10392000012B05D0496D0A6842F400120A60704705
:103930008A691168002901DA41F0804141F40011DF
:1039400011607047F0B54B780A78002401264F6962
:1039500000EB8202012B15D0556D2B682A69002FD0
:1039600062D08E6837447F1EB7FBF6F767F3DC4200
:10397000C2F3C947774367F312022A61C278012A6A
:1039800058D05DE095692B682A696FB1D1F808C0FD
:1039900067F3120267447F1EB7FBFCF767F3DC4254
:1039A000CF78012F05D008E06FF3120266F3DC42F6
:1039B00003E022F0C04202F100522A61C278012ADB
:1039C0000ED0CA78012A12D04A69C2B10A7896404C
:1039D0000269556B35435563CA78012A07D00EE05A
:1039E0000D780A6900EB8505AD696A61F4E7026943
:1039F0009268C2F30D22D2070CD043F0805343F0FB
:103A000004420B7800EB83039B691A60CA78012A91
:103A100003D026E043F00053F1E78A8A93B20A7894
:103A2000C96800F061F91CE08F6867F3120266F361
:103A3000DC42A2E70D780A6900EB85056D6D6A61CD
:103A4000CA78012A06D14A7912B143F0005301E045
:103A500043F08053097843F0044200EB8100406D4D
:103A600002602046F0BD000030B5C3680022114658
:103A70009A61C4686FF080436361C568541E6C60CE
:103A8000C4686361C4680B4BA361C37803B9102198
:103A900041F48721C06841F0081141F4401141F020
:103AA0008041836941F004018B430B4383611046DD
:103AB00030BD000000080080C0680021826842F02C
:103AC000010282600846704738B500242146009400
:103AD000009A42F010020092009AC3681A61074AE5
:103AE000C06803690093491C914202D8009BDB0621
:103AF000F7D40320FFF7C1FC204638BD400D03007A
:103B000038B5002422460094009B43F02003009324
:103B1000009B61F38A1300930099C36819610749F8
:103B2000C06803690093521C8A4202D8009B9B061E
:103B3000F7D40320FFF7A1FC204638BD400D030059
:103B40000146002009698968C1F3410139B10129A1
:103B500003D0022905D0032900D102207047032099
:103B60007047012070470269106861F3010010601E
:103B70007047C068406910F0010F01D00020704705
:103B800001207047C068416980690840704700693A
:103B90008169C069084080B2704700698169C06965
:103BA0000840000C704700EB8101496D896800698D
:103BB000406908407047034610B50020D21C9208A7
:103BC000D3F8D03003E01C6841F8044B401C90420D
:103BD000F9D3084610BD000070B500220123C27061
:103BE00040268370144615468680012901D061B1B4
:103BF00017E0C3720821017004214FF0A042417008
:103C00009115C180022101720AE0C5720C21017078
:103C1000062141704FF4A061C180204A0372C37035
:103C2000837202F50061C0E9032100210BE000BFAF
:103C300002EB411303F5106600EB810503F53063D9
:103C4000AE61491C6B6543788B42F1D802F5806107
:103C500041614031C0F8CC10002108E002EB411373
:103C600000EB810503F5A063491CC5F8903003788B
:103C70008B42F3D8002108E002EB013300EB810511
:103C800003F58053491CC5F8D03003788B42F3D834
:103C900002F56062C0F80C21204670BD00000440AF
:103CA00010B5C0680024C268012922F0C04201D0CA
:103CB00019B104E042F0005201E042F08042C260DB
:103CC0003220FFF7D5FB204610BD817A00290AD0AB
:103CD00001698968C90706D0D0F80C11D0F80C0129
:103CE00021F003010160704730B5C47800256CB93C
:103CF00000EB82000024DB1C9B08D0F8D00003E01E
:103D000051F8042B0260641C9C42F9D3284630BD54
:103D1000FEE70000014A024900F013B89D3D00088B
:103D2000F801002002E008C8121F08C1002AFAD1D9
:103D300070477047002001E001C1121F002AFBD12B
:103D400070472DE9F04116460F460446002503E072
:103D50003946B0476D1C641C20780028F8D12846ED
:103D6000BDE8F08101B581B0044901984843009055
:103D7000002801D0401EFAE70CBD0000A08601001B
:103D800001B581B00449019848430090002801D052
:103D9000401EFAE70CBD0000A08601002DE9F05F8F
:103DA0000646FDF71BFD3A4C0246A07800286CD170
:103DB00060780025012806D1E0896081A0892081F2
:103DC0006570E570258291884FF4A07ABAFBF1F115
:103DD000E088304BF7B2814209D90A2E07D06189B9
:103DE00001EB810202EBC10103EB81014AE0B4F86F
:103DF00008C061898C4505D394F80080B8F1000FA4
:103E00000AD0257001EB810C0CEBC10C4FF0200B9C
:103E1000994603EB8C0C10E00CF1010C1FFA8CFCA2
:103E2000A4F808C0BCF1090FECD12581EAE7E388CA
:103E30000CF803B05B1CE380401CB2F80480BAFBB2
:103E4000F8F38342F3D801EB810000EBC10109EBE9
:103E50008100A2884286E580FDF75CFD6089401CF8
:103E600080B26081092803D1658101202081207002
:103E70000A2E0AD0608900EB800101EBC001E088C6
:103E800009EB81010F54401CE0803046BDE8F09FF3
:103E90005E010020300800201CB500240E48CDE94A
:103EA00000040E4B0E4A21460E48FEF7D1FC4FF49B
:103EB00080150198411C0191A842FAD10020FEF71B
:103EC00055F90120FEF752F90220FEF74FF90320C1
:103ED000FEF74CF90194ECE708000020A800002050
:103EE00024000020FC010020000000000000000071
:103EF00000000000000000000000000000000000C2
:103F000000000000000000000000000000000000B1
:103F1000000000000000000000008001800180011E
:103F20008001800180018001800180018001800189
:103F3000800180010000000080018001000000007D
:103F4000000000000000000000000000CC00CC00D9
:103F5000CC00CC00CC00CC00000000000000000031
:103F60000000000000000000000000000000000051
:103F70000000000000000000000000000000000041
:103F800000000000600C600C600C30063006FE1F64
:103F9000FE1F300638071803FE1FFE1F1803180304
:103FA0008C018C018C01000000008000E003F80F00
:103FB0009C0E8C1C8C188C009800F801E007800E79
:103FC000801C8C188C189C18B80CF00FE003800033
:103FD00080000000000000000000000000000E183B
:103FE0001B0C110C11061106110311039B018E010C
:103FF000C038C06C60446044304430441844186C8D
:104000000C380000000000000000E001F003380759
:10401000180618063003F001F000F8009C310E334A
:10402000061E061C061C063FFC73F0210000000063
:104030000000000000000000000000000C000C0068
:104040000C000C000C000C00000000000000000040
:104050000000000000000000000000000000000060
:1040600000000000000000000000000200038001CA
:10407000C000C00060006000300030003000300040
:10408000300030003000300060006000C000C00030
:104090008001000300020000000020006000C0005A
:1040A00080018001000300030006000600060006F0
:1040B00000060006000600060003000380018001E0
:1040C000C0006000200000000000000000000000B0
:1040D00000000000C000C000D806F807E00130036F
:1040E0003807000000000000000000000000000091
:1040F00000000000000000000000000000000000C0
:104100000000000080018001800180018001FC3FEF
:10411000FC3F8001800180018001800100000000DF
:10412000000000000000000000000000000000008F
:10413000000000000000000000000000000000007F
:10414000000000000000000000008001800100016C
:1041500000018000000000000000000000000000DE
:10416000000000000000000000000000000000004F
:10417000E007E00700000000000000000000000071
:10418000000000000000000000000000000000002F
:10419000000000000000000000000000000000001F
:1041A00000000000000000000000C000C00000008F
:1041B00000000000000000000000000C000C0006E1
:1041C0000006000600030003000380038001800155
:1041D0008001C000C000C00060006000000000005E
:1041E00000000000000000000000E003F007380EAF
:1041F000180C0C180C180C180C180C180C180C189F
:104200000C180C18180C380EF007E0030000000022
:104210000000000000000000000000018001C0015B
:10422000F0019801880180018001800180018001F6
:104230008001800180018001800180010000000078
:1042400000000000000000000000E003F80F180C60
:104250000C180C1800180018000C00060003800150
:10426000C000600030001800FC1FFC1F00000000B0
:1042700000000000000000000000E001F807180E38
:104280000C0C0C0C000C0006C003C007000C00183E
:1042900000180C180C18180CF807E00300000000B8
:1042A00000000000000000000000000C000E000FE5
:1042B000000F800DC00C600C600C300C180C0C0C46
:1042C000FC3FFC3F000C000C000C000C0000000048
:1042D00000000000000000000000F80FF80F1800B8
:1042E00018000C00EC03FC071C0E001C0018001842
:1042F00000180C181C0C180EF807E0030000000052
:1043000000000000000000000000C007F00F381C93
:10431000181818000C00CC03EC0F3C0E1C1C0C18D9
:104320000C180C18181C380EF007E00300000000F1
:1043300000000000000000000000FC1FFC1F000C3B
:1043400000060006000380038001C001C000E000F9
:10435000600060007000300030003000000000009D
:1043600000000000000000000000E003F007380E2D
:10437000180C180C180C3806F007F007180C0C185D
:104380000C180C180C18380CF80FE0030000000093
:1043900000000000000000000000E003F007380EFD
:1043A0001C0C0C180C180C181C1C381EF81BE019DF
:1043B0000018000C000C1C0EF807F00100000000B3
:1043C00000000000000000000000000000000000ED
:1043D00000000000800180010000000000000000DB
:1043E00000000000000000008001800100000000CB
:1043F00000000000000000000000000000000000BD
:1044000000000000800180010000000000000000AA
:104410000000000000000000800180010001000198
:10442000800000000000000000000000000000000C
:1044300000000000000000000010001C800FE003DE
:10444000F8001800F800E003800F001C00100000C6
:10445000000000000000000000000000000000005C
:104460000000000000000000F81F00000000000035
:10447000F81F000000000000000000000000000025
:10448000000000000000000000000000000000002C
:10449000000000000000000008003800F001C00724
:1044A000001F0018001FC007F001380008000000BE
:1044B00000000000000000000000E003F80F180CEE
:1044C0000C180C180018000C000600038001C00036
:1044D000C000C00000000000C000C00000000000DC
:1044E000000000000000000000000000E0071818B5
:1044F0000420C229224A11440944094409440922DA
:104500001113E20C024004201818E007000000001C
:104510000000000000000000000080038003C006CF
:10452000C006C006600C600C301830183018F83F18
:10453000F83F1C700C600C6006C006C00000000054
:1045400000000000000000000000FC03FC0F0C0C49
:104550000C180C180C180C0CFC07FC0F0C180C3069
:104560000C300C300C300C18FC1FFC070000000055
:1045700000000000000000000000C007F01F3838F5
:104580001C300C70066006000600060006000600DF
:10459000060006600C701C30F01FE00700000000F1
:1045A00000000000000000000000FE03FE0F060EE9
:1045B000061806180630063006300630063006307B
:1045C000063006180618060EFE0FFE030000000057
:1045D00000000000000000000000FC3FFC3F0C0059
:1045E0000C000C000C000C00FC1FFC1F0C000C004D
:1045F0000C000C000C000C00FC3FFC3F0000000015
:1046000000000000000000000000F83FF83F180024
:104610001800180018001800F81FF81F18001800DC
:1046200018001800180018001800180000000000FA
:1046300000000000000000000000E00FF83F3C78A0
:104640000E6006E007C00300030003FE03FE03C084
:1046500007C006C00EC03CF0F83FE00F00000000AD
:10466000000000000000000000000C300C300C3096
:104670000C300C300C300C30FC3FFC3F0C300C305C
:104680000C300C300C300C300C300C3000000000C2
:104690000000000000000000000080018001800197
:1046A0008001800180018001800180018001800102
:1046B00080018001800180018001800100000000F4
:1046C00000000000000000000000000600060006D8
:1046D00000060006000600060006000600060006AA
:1046E0000006180618063807F003E0010000000075
:1046F0000000000000000000000006300618060C54
:10470000060606038601C60066007600DE008E01FE
:1047100006030606060C06180630066000000000B8
:104720000000000000000000000018001800180041
:1047300018001800180018001800180018001800B9
:104740001800180018001800F81FF81F00000000DB
:10475000000000000000000000000EE01EF01EF04F
:104760001EF036D836D836D836D866CC66CC66CC6D
:10477000C6C6C6C6C6C6C6C686C386C30000000077
:10478000000000000000000000000C301C303C3035
:104790003C306C306C30CC30CC308C310C330C3342
:1047A0000C360C360C3C0C3C0C380C300000000075
:1047B00000000000000000000000E007F81F1C38A7
:1047C0000E70066003C003C003C003C003C003C073
:1047D00003C006600E701C38F81FE00700000000E0
:1047E00000000000000000000000FC0FFC1F0C385F
:1047F0000C300C300C300C300C18FC1FFC070C007B
:104800000C000C000C000C000C000C000000000060
:1048100000000000000000000000E007F81F1C3846
:104820000E70066003E003C003C003C003C003C0F2
:1048300007E006630E3F1C3CF83FE0F700C00000B5
:1048400000000000000000000000FE0FFE1F063800
:104850000630063006300638FE1FFE070603060641
:10486000060C061806180630063006600000000028
:1048700000000000000000000000E003F80F1C0C26
:104880000C180C180C001C00F803E00F001E003878
:10489000063006300E301C1CF80FE0070000000048
:1048A00000000000000000000000FE7FFE7F80018D
:1048B00080018001800180018001800180018001F0
:1048C00080018001800180018001800100000000E2
:1048D000000000000000000000000C300C300C3024
:1048E0000C300C300C300C300C300C300C300C30E8
:1048F0000C300C300C301818F81FE00700000000D6
:1049000000000000000000000000036006300630D8
:1049100006300C180C180C18180C180C380E300631
:104920003006700760036003C001C0010000000092
:10493000000000000000000000000360C361C361CC
:10494000C3616633663366336633663366336C1B26
:104950006C1B6C1B2C1A3C1E380E380E000000001D
:10496000000000000000000000000FE00C70183094
:104970003018700C600EC00780038003C003E0068F
:10498000700C301C18180C300E6007E0000000009E
:104990000000000000000000000003C006600C30B2
:1049A0001C383818300C6006E007C0038001800115
:1049B00080018001800180018001800100000000F1
:1049C00000000000000000000000FC7FFC7F006091
:1049D00000300018000C000600038001C0006000D9
:1049E000300018000C000600FE7FFE7F0000000073
:1049F00000000000000000000000E003E003600091
:104A000060006000600060006000600060006000A6
:104A10006000600060006000600060006000600096
:104A20006000E003E00300000000300030006000A0
:104A300060006000C000C000C000C00180018001B3
:104A400080010003000300030006000600000000D0
:104A500000000000000000000000E003E00300038D
:104A6000000300030003000300030003000300032E
:104A7000000300030003000300030003000300031E
:104A80000003E003E003000000000000C001C001DB
:104A900060036003600330063006180C180C000039
:104AA0000000000000000000000000000000000006
:104AB00000000000000000000000000000000000F6
:104AC00000000000000000000000000000000000E6
:104AD00000000000000000000000FFFFFFFF0000DA
:104AE000000000000000000000000C000C000C00A2
:104AF0000C000C000C000000000000000000000092
:104B000000000000000000000000000000000000A5
:104B10000000000000000000000000000000000095
:104B200000000000F003F8071C0C0C0C000FF00F45
:104B3000F80C0C0C0C0C1C0FF80FF0180000000007
:104B4000000000000000000000001800180018001D
:104B500018001800D803F80F380C1818181818186F
:104B6000181818181818380CF80FD803000000008F
:104B70000000000000000000000000000000000035
:104B800000000000C003F007300E180C18001800D9
:104B900018001800180C300EF007C00300000000C9
:104BA00000000000000000000000001800180018BD
:104BB00000180018C01BF01F301C181818181818FF
:104BC000181818181818301CF01FC01B000000001F
:104BD00000000000000000000000000000000000D5
:104BE00000000000C003F00F300C1818F81FF81F69
:104BF000180018003818301CF00FC0070000000023
:104C000000000000000000000000800FC00FC00086
:104C1000C000C000F007F007C000C000C000C00026
:104C2000C000C000C000C000C000C0000000000004
:104C30000000000000000000000000000000000074
:104C400000000000E00DF80F180E0C0C0C0C0C0C02
:104C50000C0C0C0C0C0C180EF80FE00D000C0C0CCE
:104C60001C06F807F00100000000180018001800EA
:104C700018001800D807F80F381C1818181818183A
:104C80001818181818181818181818180000000004
:104C900000000000000000000000C000C000000094
:104CA00000000000C000C000C000C000C000C00084
:104CB000C000C000C000C000C000C0000000000074
:104CC00000000000000000000000C000C000000064
:104CD00000000000C000C000C000C000C000C00054
:104CE000C000C000C000C000C000C000C000C000C4
:104CF000C000F8007800000000000C000C000C0060
:104D00000C000C000C0C0C060C038C01CC006C008D
:104D1000FC009C018C030C030C060C0C0000000032
:104D200000000000000000000000C000C000C00043
:104D3000C000C000C000C000C000C000C000C00073
:104D4000C000C000C000C000C000C00000000000E3
:104D50000000000000000000000000000000000053
:104D6000000000007C3CFF7EC7E383C183C183C198
:104D700083C183C183C183C183C183C1000000009B
:104D80000000000000000000000000000000000023
:104D9000000000009807F80F381C18181818181889
:104DA00018181818181818181818181800000000E3
:104DB00000000000000000000000000000000000F3
:104DC00000000000C003F00F300C18181818181855
:104DD000181818181818300CF00FC0030000000045
:104DE00000000000000000000000000000000000C3
:104DF00000000000D803F80F380C181818181818FD
:104E0000181818181818380CF80FD80318001800BC
:104E1000180018001800000000000000000000004A
:104E200000000000C01BF01F301C181818181818BC
:104E3000181818181818301CF01FC01B001800187C
:104E4000001800180018000000000000000000001A
:104E500000000000B007F0037000300030003000A8
:104E60003000300030003000300030000000000022
:104E70000000000000000000000000000000000032
:104E800000000000E003F003380E180C3800F003B7
:104E9000C007000C180C380EF007E00300000000FB
:104EA0000000000000000000000000008000C000C2
:104EB000C000C000F007F007C000C000C000C00084
:104EC000C000C000C000C000C00780070000000094
:104ED00000000000000000000000000000000000D2
:104EE00000000000181818181818181818181818A2
:104EF000181818181818381CF01FE01900000000C6
:104F000000000000000000000000000000000000A1
:104F1000000000000C18180C180C180C3006300695
:104F20003006600360036003C001C00100000000A0
:104F30000000000000000000000000000000000071
:104F400000000000C141C141C361636363636363E7
:104F50003636363636361C1C1C1C1C1C0000000065
:104F60000000000000000000000000000000000041
:104F7000000000001C38381C300C60066003600321
:104F8000600360036006300C381C1C380000000011
:104F90000000000000000000000000000000000011
:104FA000000000001830301830187018600C600CC9
:104FB000E00CC006C00680038003800380018001EE
:104FC000C001F000700000000000000000000000C0
:104FD00000000000FC1FFC1F000C00060003800105
:104FE000C000600030001800FC1FFC1F0000000023
:104FF0000000000000000000000000038001C0006D
:10500000C000C000C000C000C000600060003000F0
:1050100060004000C000C000C000C000C000C00070
:105020008001000300000000000080018001800179
:105030008001800180018001800180018001800168
:105040008001800180018001800180018001800158
:10505000800180018001000000006000C000C001EC
:1050600080018001800180018001000300030006AF
:105070000003000180018001800180018001800126
:10508000C000600000000000000000000000000000
:105090000000000000000000F010F81F080F0000E2
:1050A0000000000000000000000000000000000000
:1050B00000000000000000000000000000000000F0
:1050C00000000000000000000000000000000000E0
:1050D00000000020002000200020002000200020F0
:1050E00000000020000000000000005000500050B0
:1050F00000000000000000000000000000000000B0
:105100000000000900090012007F0012007F001259
:10511000002400240000000000100038005400505B
:1051200000500038001400540054003800100000F3
:105130000000803000490049004AC03220052009A3
:105140002009C010000000000000000C0012001236
:1051500000140018002500230023801D000000001B
:10516000000000400040004000000000000000007F
:105170000000000000000000000000080010001007
:10518000002000200020002000200020001000103F
:10519000000000400020002000100010001000104F
:1051A00000100010002000200000002000700020EF
:1051B000005000000000000000000000000000009F
:1051C00000000000000000080008007F0008000840
:1051D00000000000000000000000000000000000CF
:1051E000000000000000000000000020002000403F
:1051F000000000000000000000000000007000003F
:10520000000000000000000000000000000000009E
:10521000000000000000000000000020000000006E
:1052200000000010001000100020002000200020CE
:105230000040004000000000000000100028004472
:105240000044004400440044002800100000000016
:10525000000000100030005000100010001000107E
:105260000010001000000000000000300048004462
:1052700000040008001000200040007C0000000036
:10528000000000300048000400080010000800443E
:10529000004800300000000000000008001800185E
:1052A000002800280048007C0008000800000000DA
:1052B0000000003C00200040007000480004004452
:1052C00000480030000000000000001800240040EA
:1052D0000050006800440044002800100000000056
:1052E0000000007C000400080010001000100020E6
:1052F00000200020000000000000001000280044F2
:1053000000280010002800440028001000000000C1
:1053100000000010002800440044002C0014000489
:1053200000480030000000000000000000000020E5
:10533000000000000000000000000020000000004D
:10534000000000000000002000000000000000003D
:1053500000000020002000400000000000040008C1
:105360000030004000300008000400000000000091
:10537000000000000000007C00000000007C000035
:1053800000000000000000000000000000400020BD
:105390000018000400180020004000000000000079
:1053A00000000038006400440004000800100010F1
:1053B00000000010000000000000800F4010A02E30
:1053C000A0512051205120512053C04D2020401089
:1053D000000000080014001400140022003E002207
:1053E00000410041000000000000003C00220022BB
:1053F0000022003C002200220022003C00000000AD
:105400000000000E001100210020002000200021DB
:105410000011000E000000000000003C00220021EE
:1054200000210021002100210022003C000000009A
:105430000000003E002000200020003E0020002050
:105440000020003E000000000000003E0020002080
:105450000020003C00200020002000200000000070
:105460000000000E00110021002000270021002173
:105470000011000E000000000000002100210021AA
:105480000021003F00210021002100210000000038
:10549000000000200020002000200020002000202C
:1054A00000200020000000000000000800080008A4
:1054B0000008000800080048004800300000000014
:1054C00000000022002400280028003800280024C2
:1054D0000024002200000000000000200020002026
:1054E00000200020002000200020003E00000000DE
:1054F00000008020803180318031802A802A802AFB
:10550000802A8024000000000000002100310031CA
:1055100000290029002500230023002100000000AD
:105520000000000C001200210021002100210021B8
:105530000012000C000000000000003C00220022CD
:105540000022003C0020002000200020000000007D
:105550000000000C00120021002100210021002188
:105560000016000D000100000000003E0021002197
:105570000021003E002400220021802000000000C5
:105580000000001C002200220020001C000200225B
:105590000022001C000000000000003E000800087F
:1055A00000080008000800080008000800000000CB
:1055B0000000002100210021002100210021002104
:1055C0000012000C00000000000000410041002219
:1055D0000022002200140014001400080000000043
:1055E00000004044404A402A802A802A802A802A9B
:1055F000802A001100000000000000410022001479
:1056000000140008001400140022004100000000F3
:1056100000000041002200220014000800080008D9
:1056200000080008000000000000007E00020004E6
:1056300000080010001000200040007E0000000064
:10564000000000300020002000200020002000206A
:10565000002000200020002000000040004000202A
:10566000002000200020002000100010000000009A
:10567000000000600020002000200020002000200A
:10568000002000200020002000000010002800283A
:10569000002800440000000000000000000000009E
:1056A00000000000000000000000000000000000FA
:1056B000000000000000007E00400020000000000C
:1056C00000000000000000000000000000000000DA
:1056D000000000000000003800440004003C0044CA
:1056E0000044003C00000000000000400040005862
:1056F00000640044004400440064005800000000BE
:105700000000000000000030004800400040004061
:1057100000480030000000000000000400040034D5
:10572000004C004400440044004C003400000000E1
:10573000000000000000003800440044007C0040ED
:10574000004400380000000000000060004000E05D
:1057500000400040004000400040004000000000C9
:105760000000000000000034004C004400440044ED
:10577000004C003400040044000000400040005889
:105780000064004400440044004400440000000061
:105790000000004000000040004000400040004089
:1057A00000400040000000000000004000000040F9
:1057B00000400040004000400040004000400040E9
:1057C00000000040004000480050006000500050C1
:1057D0000048004800000000000000400040004079
:1057E0000040004000400040004000400000000039
:1057F0000000000000000052006D0049004900490F
:1058000000490049000000000000000000000058AE
:1058100000640044004400440044004400000000D0
:105820000000000000000038004400440044004430
:105830000044003800000000000000000000005894
:1058400000640044004400440064005800400040EC
:105850000000000000000034004C004400440044FC
:10586000004C003400040004000000000000005060
:105870000060004000400040004000400000000088
:105880000000000000000030004800400030000828
:10589000004800300000000000000040004000E030
:1058A0000040004000400040004000600000000058
:1058B0000000000000000044004400440044004494
:1058C000004C003400000000000000000000004414
:1058D00000440028002800280028001000000000D4
:1058E0000000000000000049004900550055005527
:1058F00000550022000000000000000000000044ED
:1059000000280028001000280028004400000000A3
:105910000000000000000044004400280028002887
:1059200000100010001000100000000000000078BF
:105930000008001000200020004000780000000057
:105940000000001000200020002000200040002067
:105950000020002000200020000000200020002067
:105960000020002000200020002000200020002037
:105970000000004000200020002000200010002037
:105980000020002000200020000000000000000097
:10599000007400580000000000000000000000003B
:1059A00000000000007000500050005000500050F7
:1059B0000050007000000000000000000000000027
:1059C00000000000000000000000000000000000D7
:1059D0000000000000001000100010001000100077
:1059E000100000001000000000000000000028006F
:1059F0002800280000000000000000000000000057
:105A0000000000000000140014003E0014002800F4
:105A10007C00280028000000000000001000380072
:105A200054005000380014001400540038001000D6
:105A30000000000000004400A800A800500014006E
:105A40001A002A00240000000000000000002000CE
:105A5000500050002000E80098009800600000000E
:105A600000000000000080008000800000000000B6
:105A700000000000000000000000000000004000E6
:105A80008000800080008000800080008000800016
:105A90000000000000008000400040004000400086
:105AA00040004000400040000000000000004000B6
:105AB000E0004000A0000000000000000000000026
:105AC0000000000000000000000020002000F8009E
:105AD0002000200000000000000000000000000086
