:020000040000FA
:10000000501800209D010000B90F0000F708000003
:10001000B50F00008F030000695B000000000000C6
:100020000000000000000000000000007516000045
:1000300093030000000000006D100000B5010000F7
:10004000B7010000B7010000B7010000B7010000D0
:10005000B7010000B7010000B701000095030000E0
:10006000B7010000B7010000B7010000B7010000B0
:10007000B7010000B7010000B7010000B7010000A0
:10008000B7010000B7010000B7010000B701000090
:10009000B7010000B7010000B7010000B701000080
:1000A000B7010000B7010000B7010000B701000070
:1000B00091180000B7010000B7010000B70100006F
:1000C000B7010000B7010000B7010000B701000050
:1000D000B7010000B7010000B7010000B701000040
:1000E000B7010000B7010000B7010000B701000030
:1000F000B7010000B7010000B7010000B701000020
:10010000B7010000B7010000B7010000B70100000F
:10011000B7010000B7010000B7010000B7010000FF
:10012000B7010000B7010000B7010000B7010000EF
:10013000B7010000B7010000B7010000B7010000DF
:10014000B7010000B7010000B70100005D1000001A
:10015000B7010000B7010000B7010000B7010000BF
:10016000B7010000B7010000B7010000B7010000AF
:10017000B7010000B7010000B7010000B70100009F
:10018000B7010000B7010000DFF80CD000F082F8E2
:100190000048004739750000501800200648804785
:1001A00006480047FEE7FEE7FEE7FEE7FEE7FEE75C
:1001B000FEE7FEE7FEE7FEE72918000089010000E0
:1001C00040EA01039B0703D009E008C9121F08C0D9
:1001D000042AFAD203E011F8013B00F8013B521E59
:1001E000F9D27047421E12F8013F002BFBD111F8E3
:1001F000013B02F8013B002BF9D1704730B50546B1
:100200002A460B4612F8010B13F8014B08B1A04225
:10021000F8D01CB1002802D06D1CF1E7284630BD93
:10022000034611F8012B00F8012B002AF9D11846DA
:1002300070472DE9F05F0546002092469B468846B0
:100240000646814640241BE0284641464746224652
:1002500000F041F853465A46C01A914110D3114656
:100260001846224600F028F82D1A67EB01084F4681
:1002700022460120002100F01FF817EB00094E4133
:10028000201EA4F10104DFDC484631462A464346DD
:10029000BDE8F09F064C074D06E0E06840F0010322
:1002A00094E8070098471034AC42F6D3FFF770FF8C
:1002B0008CA50000ACA50000202A04DB203A00FA3F
:1002C00002F1002070479140C2F1200320FA03F3AD
:1002D000194390407047202A04DB203A21FA02F0AB
:1002E0000021704721FA02F3D040C2F12002914070
:1002F000084319467047000070B505460C4608488B
:100300000560204600F00EF800BF05480068002890
:10031000FBD100214FF0804001F0CDFA70BD00000C
:10032000000000203EB5044600214FF0804001F05F
:10033000C2FA00220121880701F0DAFA022C02D168
:100340000B20019004E0012C02D142F6DF60019005
:100350000520ADF800000020ADF80800ADF802005F
:1003600069464FF0804001F0CDFA0121880701F085
:100370009FFA0121880701F08FFA012211469007A8
:1003800001F0B6FA0121880701F095FA3EBD00BFE1
:10039000FEE7704710B5022000F012F838B10449AA
:1003A000D1F8801048698047022000F003F810BDA2
:1003B000C80600200149086070470000143C014055
:1003C000014600200022074B1B6803EA0102054B8F
:1003D00014331B680B4202D00AB1012000E0002058
:1003E00070470000003C0140002123498279002A27
:1003F0003AD00A46126803689A430B461A600A1DEF
:10040000126803689A430B1D1A60027911440A6846
:1004100003681A430A60184A0832126803689A434C
:10042000154B08331A601A1D126803689A43124B61
:100430000C331A604279102A0ED11A1F1268036811
:100440001A430D4B08331A601A1D126803681A43C9
:10045000094B0C331A600DE00749427911440A68D0
:1004600003681A430A6005E0027911440A680368C8
:100470009A430A6070470000003C0140F0B591B01B
:1004800007460C46394604A806F078FC0546002DC0
:100490007ED186E00BA904A806F08CFD054615B9AF
:1004A0009DF8350000B982E09DF835002E2800D176
:1004B00077E00DF1350631466846FFF7B1FE3E485C
:1004C0000078401C3C4908700846007809281DDD6A
:1004D000002008704FF4FC6000F056FD37A1C620E4
:1004E00000F086FB41A1D22000F082FB4FF6FF70A6
:1004F00000F04AFD01E001F047FA434800F0E0F95E
:1005000020B1022001F04AF80128F4D0012C0BD1CF
:1005100047F6FF703D4908803DA005F027FB4FF6E8
:10052000FF703A4908800CE0022C0AD147F6FF70B0
:100530003649088038A005F019FB4FF6FF703349A3
:1005400008809DF8340000F03F0010280BD135A141
:100550006846FFF747FE4FF6FF702C490880684653
:1005600005F004FB0EE02FA16846FFF73BFE47F6BF
:10057000FF7026490880684605F0F8FA4FF6FF70CC
:10058000224908809DF8340000F03F00102800E068
:100590000EE005D1012C03D102213046FFF76EFF9A
:1005A00000BF194800F08CF900287FF473AF00BF3A
:1005B000284611B0F0BD00000900002020202020B6
:1005C000202020202020202020202020202020202B
:1005D000202020202020202020202020202020201B
:1005E0002020202020202020202000005072657331
:1005F00073204B657920746F20636F6E74696E751C
:10060000652E2E2E000000001C010020B2000020EC
:100610002020207C5F5F00002020207C2020207C88
:100620005F5F00000A00000051B14FF0204252F815
:10063000202042F001024FF0204343F8202009E03F
:100640004FF0204252F82020034B1A404FF0204335
:1006500043F8202070470000FEFF0F00D0E9011290
:100660001143C2681143026911434269114382690F
:100670001143C2691143026A1143426A1143826AFB
:100680001143C26A1143026B11434FF020430268C9
:1006900043F822108168082908D11A46016852F8E7
:1006A000211041F04001026843F82210416B0968B3
:1006B000426B526841EA0211426B926841EA0221A0
:1006C000426B928941EA0241426B128A41EA02512D
:1006D000426B127D41EA0261426B926911430268EA
:1006E000521C4FF0204343F82210C16AB1F5804FED
:1006F0001AD1816B0968826B526841EA0211826BE0
:10070000926841EA0221826B128A41EA0251826BAD
:10071000127D41EA0261826B92691143026803EB28
:100720008202C2F8041108E06FF070414FF02043DC
:10073000026803EB8202C2F804117047F0B50A4662
:1007400000210023002400BF3DE0012505FA01F34C
:10075000156805EA03049C4234D105684F0003265E
:10076000BE40B543056015794E00B5400668354377
:1007700005601579012D02D01579022D16D18568F5
:100780004F000326BE40B543856055794E00B54005
:10079000866835438560456801268E40B5434560CF
:1007A000456896798E40B6B235434560C5684F00BE
:1007B0000326BE40B543C560D5794E00B540C66836
:1007C0003543C560491C1029BFD3F0BDF0B50023E7
:1007D00000244D07ED0E02FA05F3CE1000F12005BE
:1007E00055F826504E07F70E0F26BE40B543CF10E2
:1007F00000F1200646F82750CE1000F1200555F8EC
:10080000265045EA0304CE1000F1200545F82640A5
:10081000F0BD0246002013690B4201D0012000E028
:100820000020704741837047018370470146486943
:10083000806880B2704708B50146D1F8CC000068E6
:1008400000900098C0F3414008BD024602F29B3080
:10085000405C7047024602F5547050F82100704722
:1008600070B504460E4600250021C4F8101300BFE1
:100870000BE0002104F5457040F825103C3040F8AD
:1008800025103C304155681CC5B20F2DF1DB082105
:10089000A4F8B2133146204604F0CEF9204603F006
:1008A000D5FD204603F09EFC0121204604F02CFAE1
:1008B000204603F02AFD204603F021FE002070BDF3
:1008C0000146D1F81003704710B50446204604F0E5
:1008D00092F9002010BD70B504460D46002104F2C7
:1008E0009B304155113000EB4510416129462046AF
:1008F00004F030F870BD00BFFEE70000F0B58DB029
:10090000054601272946684606F038FA0646002EB5
:100910003ED100BF07A9684606F04CFB064616B953
:100920009DF8250000B932E09DF825002E2800D161
:10093000F0E70DF125049DF8240010F0100F00D011
:10094000E8E720A12046FFF759FC20B91EA1204668
:10095000FFF754FCD0B1012221461C4806F04AF9A9
:10096000064600F01FFF642003F02EFC002701E084
:1009700001F00AF81648FFF7A3FF20B1022000F0AB
:100980000DFE0128F4D0114806F032F8C2E700BF8E
:1009900010A000F061FA15A000F02BFA4FF6FF70DE
:1009A0001A4908801A480068194A128900FB02F1A6
:1009B00018A005F0DBF801201D49087038460DB07D
:1009C000F0BD0000626D7000424D50008C090020A7
:1009D0001C01002020555342204F544720465320ED
:1009E0004D534320486F73740000000020202020E6
:1009F0002055534220486F7374204C6962726172B3
:100A0000792076322E312E3000000000B200002016
:100A1000B00F00203E204469736B206361706163F6
:100A2000697479203A2025642042797465730A003C
:100A30000800002030B50446002540F23F11002098
:100A400000F064FA00F0ACFA00BF03E04FF0D040D1
:100A500044806D1CB5F5963FF8D330BD30B50546E2
:100A600040F23F1409E020222146284600F0A8F871
:100A7000064800688088201A84B2601C80B203494E
:100A8000096889888842EEDA30BD0000E80000205D
:100A90001CB50121782000F0EBFA4CF23370009085
:100AA00002208DF804008DF8050000208DF8060066
:100AB0008DF8070069463E48FFF740FE0C220021F2
:100AC0003B48FFF783FE0C2201213948FFF77EFEE9
:100AD0000C2204213648FFF779FE0C220521344808
:100AE000FFF774FE0C2208213148FFF76FFE0C223D
:100AF00009212F48FFF76AFE0C220A212C48FFF734
:100B000065FE0C220E212A48FFF760FE0C220F2101
:100B10002748FFF75BFE4FF6807000906946254836
:100B2000FFF70CFE0C2207212248FFF74FFE0C2294
:100B300008212048FFF74AFE0C2209211D48FFF733
:100B400045FE0C220A211B48FFF740FE0C220B2118
:100B50001848FFF73BFE0C2211461648FFF736FEF9
:100B60000C220D211348FFF731FE0C220E211148F3
:100B7000FFF72CFE0C220F210E48FFF727FE012065
:100B8000009069460C48FFF7D9FD0C2200210A4865
:100B9000FFF71CFE4FF48060009069460748FFF79E
:100BA000CDFD0C220A210548FFF710FE1CBD0000F8
:100BB000000C0240001002400014024000180240E5
:100BC00070B505460E461446A4F12000C4B207488D
:100BD0000068016805480068C088604301EB400276
:100BE0003146284600F02AF870BD0000E8000020D9
:100BF00070B506460C4640F23F150AE022782946B9
:100C00003046FFF7DDFF0C4800688088281A85B25F
:100C1000641C681C80B2084909688988884201DB25
:100C2000012000E00020217809B1012100E000212D
:100C30000842E3D170BD0000E80000202DE9F04338
:100C400007468946164600240025A046B846494670
:100C5000404600F05BF900BF39E000F0A1F9002543
:100C600027E01E48006880880C2190FBF1F0C1004D
:100C700080208840284136F81410084204D11748D3
:100C8000006880880C280ADD36F814000121A9408C
:100C9000084209D11148006880880C2804DD1048FA
:100CA000008800F079F903E00E48008800F074F93C
:100CB0006D1C0A4800688088A842D2D808F101005B
:100CC0001FFA80F84946404600F020F9641C0348AA
:100CD0000068C088A042C0D8BDE8F083E8000020CA
:100CE000E6000020E400002000B597B0012108468E
:100CF00000F0DEF905200190002002900920039009
:100D00000020049005900690079004200890002091
:100D100009900A9010200B9000200C900D900E90DE
:100D20000F9010904FF4805011900020129013906B
:100D3000149001A81590169008A8FFF78FFC0121C8
:100D40000420FFF771FC17B000BD000001480068E7
:100D500070470000E800002070B50024FFF7F6FFA0
:100D6000054600BF07E0E988E21C514388B2FFF75F
:100D700075FE601CC4B20C2CF5DB00F001F870BDF0
:100D80004FF6FF700C49088000200C4908800C4980
:100D900008800C4908800C4908800C490880012013
:100DA0000B49087000200B4908700B4908700B496B
:100DB00008700B4908807047B2000020B400002082
:100DC000B6000020B8000020BA000020BC000020BF
:100DD000BE000020BF000020C0000020C100002095
:100DE000C200002010B5FFF7CBFF0020FFF722FE66
:100DF00010BD70B58AB006461F2000F07FF8FFF7DF
:100E0000A5FF0446002504E020200DF80500681C1D
:100E1000C5B2A0884FF4A07191FBF0F0401EA8422B
:100E2000F2DCA08891FBF0F0401E00220DF80020BB
:100E3000E188C1F1F00188B26946FFF7D9FEE18887
:100E4000C1F1F00188B23146FFF7D2FE002000F078
:100E500055F80AB070BD00002DE9F04188B0064693
:100E60000025B04600E06D1C18F8011B0029FAD1DE
:100E70001A2D00D91A25002403E0202001A90855C5
:100E8000641C1B2CF9D3002407E0305DC5F11B0165
:100E900004EB510101AA5054641CAC42F5D300206C
:100EA000FFF7C8FD104800F069F8FFF74FFF07464D
:100EB0004FF6FF7000F068F81F2000F01FF80020C8
:100EC000FFF7CCFDF88801A9FFF792FEF9884904E5
:100ED000080CFFF7C3FD002000F010F8034800F0F5
:100EE0004DF808B0BDE8F081CC000020D40000200F
:100EF00001464FF0D04001804088704701B5BDF8F1
:100F000000000149088008BDE600002010B5034636
:100F10000C461946202000F048F82146212000F018
:100F200044F810BDF0B504460D4616461F46B442BF
:100F300006DBA01B401C81B2502000F036F803E015
:100F40000021502000F031F82146512000F02DF80A
:100F5000BD4206DBE81B401C81B2522000F025F8A0
:100F600003E00021522000F020F82946532000F031
:100F70001CF829462046FFF7C9FFF0BD014908606B
:100F800070470000E800002001B5BDF800000149ED
:100F9000088008BDE40000204FF0D0414880704731
:100FA00022204FF0D041088070474FF0D04210808F
:100FB0005180704700BFFEE77047000070B5002108
:100FC00000230F22C47824B3174C246804F4E0648F
:100FD000C4F5E064C4F30721C1F10404E3B20A419B
:100FE00044789C40E1B28478144021430C07210EE0
:100FF0000E4C05786155047804F01F050124AC40BF
:1010000005786D114FF0E02606EB8505C5F8004127
:1010100009E0047804F01F040125A540044C06787B
:10102000761144F8265070BD0CED00E000E400E0BD
:1010300080E100E002490143024A1160704700006C
:101040000000FA050CED00E0024A0A400243024BA0
:101050001A60704780FFFF1F08ED00E010B50248DE
:1010600002F038F810BD00001C010020704700009D
:1010700029B1064A12680243044B1A6004E0034A8D
:1010800012688243014B1A607047000030380240FA
:1010900029B1064A12680243044B1A6004E0034A6D
:1010A00012688243014B1A607047000034380240D6
:1010B00029B1064A12680243044B1A6004E0034A4D
:1010C00012688243014B1A607047000038380240B2
:1010D00029B1064A12680243044B1A6004E0034A2D
:1010E00012688243014B1A6070470000403802408A
:1010F00029B1064A12680243044B1A6004E0034A0D
:1011000012688243014B1A60704700004438024065
:1011100008B500200090FFF7BBFCFFF7E5FD0520B8
:1011200005F026FA0020FFF7E3FE00900098A0F5F6
:10113000134120397ED14FF40041E520FFF735FF00
:1011400001210020FFF731FF4FF480710120FFF7EC
:101150002CFF4FF4E0610220FFF727FF41F230013E
:101160000320FFF722FF00210420FFF71EFF40F2BB
:1011700002210820FFF719FF00210920FFF715FFC2
:1011800000210A20FFF711FF00210C20FFF70DFFBF
:1011900000210D20FFF709FF00210F20FFF705FFB9
:1011A00000211020FFF701FF00211120FFF7FDFEB5
:1011B00000211220FFF7F9FE00211320FFF7F5FEB2
:1011C000142005F0D5F941F2B0711020FFF7EDFEC3
:1011D00040F237111120FFF7E8FE052005F0C8F9AD
:1011E00040F239111220FFF7E0FE052005F0C0F9AA
:1011F0004FF4E8511320FFF7D8FE13212920FFF701
:10120000D4FE052005F0B4F900212020FFF7CDFE23
:1012100000212120FFF7C9FE07213020FFF7C5FE7E
:1012200007213120FFF7C1FE07213220FFF7BDFE65
:10123000072100E079E03520FFF7B7FE07213620CF
:10124000FFF7B3FE4FF4E0613720FFF7AEFE4FF437
:10125000E0613820FFF7A9FE4FF4E0613920FFF785
:10126000A4FE4FF4E0613C20FFF79FFE4FF4F851DD
:101270003D20FFF79AFE00215020FFF796FEEF2158
:101280005120FFF792FE00215220FFF78EFE40F220
:101290003F115320FFF789FE4FF41C516020FFF7E8
:1012A00084FE01216120FFF780FE00216A20FFF704
:1012B0007CFE00218020FFF778FE00218120FFF7CF
:1012C00074FE00218220FFF770FE00218320FFF7CB
:1012D0006CFE00218420FFF768FE00218520FFF7C7
:1012E00064FE10219020FFF760FE00219220FFF79E
:1012F0005CFE03219320FFF758FE4FF48871952080
:10130000FFF753FE00219720FFF74FFE00219820A2
:10131000FFF74BFE41F218010320FFF746FE40F2B3
:1013200073110720FFF741FEF9E00098A0F5134183
:101330002539F9D101210020FFF737FE4FF48071E4
:101340000120FFF732FE4FF4E0610220FFF72DFE8F
:1013500041F218010320FFF728FE00210420FFF7C7
:1013600024FE40F202210820FFF71FFE0021092081
:10137000FFF71BFE00210A20FFF717FE00210C20BB
:10138000FFF713FE00210D20FFF70FFE00210F20B5
:10139000FFF70BFE00211020FFF707FE00211120B0
:1013A000FFF703FE00211220FFF7FFFD00211320AD
:1013B000FFF7FBFD142005F0DBF841F2B0711020BF
:1013C000FFF7F3FD40F237111120FFF7EEFD052086
:1013D00005F0CEF840F239111220FFF7E6FD0520A6
:1013E00005F0C6F84FF4E8511320FFF7DEFD132196
:1013F0002920FFF7DAFD052005F0BAF800212020AA
:10140000FFF7D3FD00212120FFF7CFFD072130207A
:10141000FFF7CBFD40F202313120FFF7C6FD40F26D
:1014200005113220FFF7C1FD40F206213520FFF7FC
:10143000BCFD40F608013620FFF7B7FD40F206215B
:101440003720FFF7B2FD40F204513820FFF7ADFD21
:1014500007213920FFF7A9FD40F205113C20FFF7D5
:10146000A4FD40F608013D20FFF79FFD002150201C
:10147000FFF79BFDEF215120FFF797FD0021522040
:10148000FFF793FD40F23F115320FFF78EFD4FF41D
:1014900027416020FFF789FD01216120FFF785FDCD
:1014A00000216A20FFF781FD00218020FFF77DFDEC
:1014B00000218120FFF779FD00218220FFF775FDD3
:1014C00000218320FFF771FD00218420FFF76DFDCF
:1014D00000218520FFF769FD10219020FFF765FDB1
:1014E00000219220FFF761FD03219320FFF75DFDAE
:1014F0004FF488719520FFF758FD00219720FFF7E2
:1015000054FD00219820FFF750FD41F218010320FF
:10151000FFF74BFD40F233110720FFF746FD02486D
:10152000FFF72CFD08BD0000C40000201CB50446D8
:101530000E4951F824000121FFF79AFD0C4830F8BC
:101540001400009001208DF8040000208DF80600A2
:1015500001208DF8070002208DF80500054951F89B
:1015600024006946FFF7EAF81CBD000038A500001A
:1015700030A50000EC000020064951F82010496910
:10158000054A32F810205140024A52F82020516199
:1015900070470000EC00002030A5000010B50446A4
:1015A000044A32F81410044A52F82400FFF731F9C3
:1015B00010BD000048A50000FC00002030B585B03B
:1015C00004460D46244951F824000121FFF750FD3F
:1015D00001218803FFF78CFD00208DF810008DF8A5
:1015E00013001E4830F8140003901D4951F82400E0
:1015F00003A9FFF7A3F8012D2CD11A4A12F81410F1
:10160000194A12F8140000F037F8184830F814009E
:10161000019000208DF808001CB10C208DF8090005
:1016200002E008208DF8090001208DF80A0001A8C9
:10163000FEF7DAFE0E4810F814008DF800000F20B7
:101640008DF801008DF8020001208DF80300684636
:10165000FFF7B4FC05B030BD50A5000048A5000060
:10166000FC00002068A5000062A500005CA5000049
:101670006EA500007047000030B500228B071C0FDC
:101680000F2303FA04F20B4B8C1053F824309343CE
:10169000084C8D1044F8253023468C1053F8243024
:1016A0008C07240F00FA04F42343024C8D1044F8F5
:1016B000253030BD083801400CB500200190009065
:1016C0003448006840F480303249086000BF314837
:1016D000006800F4003000900198401C01900098D0
:1016E00018B90198B0F5A06FF1D12A48006810F43C
:1016F000003F02D00120009001E0002000900098FF
:10170000012845D123484030006840F080502149ED
:10171000403108602048006840F480401E4908605D
:101720001C48083000681B490831086008460068FA
:1017300040F4004008600846006840F4A05008608B
:101740001648091F0860081F006840F08070091FD4
:10175000086000BF0F48006810F0007FFAD040F228
:1017600005600F4908600B480830006820F003004E
:101770000849083108600846006840F00200086027
:1017800000BF04480830006800F00C000828F8D1B9
:101790000CBD0000003802400070004008544007B3
:1017A000003C024038B50024002000904FF4A073A4
:1017B000F022591EEF20FFF7B5FB41F2080103208C
:1017C000FFF7F3FBFFF7ECFB3621144805F01BF99C
:1017D0001CE06B464FF400721149104805F002FB03
:1017E0000546BDF8000000B105B114E000240AE090
:1017F0000B490A5D0B46611C595C42EA0120FFF768
:10180000CBFBA01C84B2B4F5007FF1DB0548FFF7E9
:1018100057F80028DDD100BF38BD00008C0900203A
:10182000B00B00201C01002010B51548006840F4E2
:101830007000134908601348006840F00100114926
:10184000086000200F49083108600E4800680E4902
:1018500008400C4908600D48091D0860081F006811
:1018600020F48020091F0860002006490C31086020
:10187000FFF722FF4FF0006001498039086010BD7A
:1018800088ED00E000380240FFFFF6FE1030002433
:1018900010B502F07DFC10BD21B1028842F080023B
:1018A000028004E002884FF67F731A40028070477E
:1018B000CA430282704721B1028842F001020280CD
:1018C00004E002884FF6FE731A400280704730B57C
:1018D0000246002000230024158A05EA01039589A9
:1018E00005EA010413B10CB1012000E0002030BD75
:1018F0001AB183890B43838102E083898B438381FF
:101900007047000000220288184B98420ED0184BF6
:1019100098420BD0B0F1804F08D0164B984205D0BA
:10192000154B984202D0154B984204D14FF68F7355
:101930001A404B881A43124B984207D0114B9842D9
:1019400004D04FF6FF431A400B891A4302804B68BC
:10195000C3620B880385054B984202D0044B984222
:1019600001D18B7A038601238382704700000140F6
:10197000000401400004004000080040000C00404A
:10198000001000400014004010B50C4801680068C9
:10199000401C0A4A1060B1F5803F0ED10020FFF7CD
:1019A000EBFD0120FFF7E8FD0220FFF7E5FD032036
:1019B000FFF7E2FD00200149086010BD580000203B
:1019C00070B505460E46284600F0D4F90446A4F545
:1019D0007F40FF3805D046F4004105F28C5020F8D6
:1019E0001410E0B270BD2DE9F04105460E461746D1
:1019F0001C46012105F56B7000EB4410817005F564
:101A00006B7000EB4410C66005F56B7000EB441082
:101A1000076105F56B7000EB4410007E30B90021C2
:101A200005F56B7000EB4410017205E0022105F52D
:101A30006B7000EB4410017221462846FEF74BFF05
:101A40000020BDE8F0812DE9F04105460E4617461D
:101A50001C46002105F56B7000EB4410817005F504
:101A60006B7000EB4410C66005F56B7000EB441022
:101A7000076105F56B7000EB4410407E28B905F551
:101A80006B7000EB4410017205E0022105F56B70EC
:101A900000EB4410017221462846FEF71CFF00208F
:101AA000BDE8F0812DE9F04105460C4616461F467B
:101AB00002212175012161750021E1822683618364
:101AC00006F08000802805D105F56B7000EB47100B
:101AD000017605E0002105F56B7000EB47104176BB
:101AE00000231A462146284600F02BF8BDE8F08175
:101AF00001460122C1F81023002070472DE9F04172
:101B000005460E4617461C46012105F56B7000EB95
:101B100044108170022105F56B7000EB44100172D6
:101B200005F56B7000EB4410C66005F56B7000EBBB
:101B30004410076121462846FEF7CDFE0020BDE88F
:101B4000F0812DE9F04180460C4615461E460127DE
:101B5000E078012802D0022820D108E03246294648
:101B6000204601F028FE0220E070012717E0207FC8
:101B70000D2805D10120E0700021217700270CE01D
:101B8000207F0B2803D10120E070022705E0207F91
:101B90000C2802D10120E070032700E000BF00BF45
:101BA0003846BDE8F08100002DE9F04105460F46BA
:101BB00016461C464FF6FF701A4908801AA003F01B
:101BC000D5FF002105F56B7000EB4410817005F521
:101BD0006B7000EB4410C76005F56B7000EB4410B0
:101BE00006612EB9012105F56B7000EB44104176BA
:101BF00005F56B7000EB4410407E30B9002105F50F
:101C00006B7000EB4410017205E0022105F56B706A
:101C100000EB4410017221462846FEF75CFE0020CE
:101C2000BDE8F081B2000020555342485F43746C18
:101C300053656E644461746120303030200A0A00BC
:101C400070B505460E461446002105F56B7000EB95
:101C500044108170032105F56B7000EB4410017294
:101C600005F56B7000EB4410C660082105F56B703C
:101C700000EB4410016121462846FEF72CFEC0B25D
:101C800070BD0246022106E0002302F28C5020F8CB
:101C90001130481CC1B20829F6DB0020704770B52E
:101CA00005460C46002020706070A0700120E07096
:101CB000012121774021A171002084F82000012119
:101CC000212001552179284600F023F86179284622
:101CD00000F01FF8002070BD01460022C1F810235B
:101CE0000020704770B504460D46052D01D0042D27
:101CF00006D1D4F88010486C80470A20207007E095
:101D0000062D05D10A202070D4F88010086880477D
:101D100070BD0246082909DA02F28C5030F8110031
:101D2000C0F30E0302F28C5020F8113000207047EF
:101D30002DE9F04780460C4616461D46DDE908971A
:101D400046F08001217506216175E58205F47F402A
:101D5000B0F5407F03D140F20941218301E0002129
:101D6000218367833B464A4621464046FFF7E9FE0A
:101D7000BDE8F0870246002100BF0AE002F28C5065
:101D800030F8110010F4004F01D108467047481C8C
:101D9000C1B20829F2DB4FF6FF70F7E710B5024633
:101DA0000B88147823440B801378981810BD00001A
:101DB0002DE9FC4104460D461646002704F58870BF
:101DC0004FF4007300222946CDE900062046FFF7B4
:101DD000AFFF5FEA000814D106E004F58870C05D2B
:101DE0000949C855781C87B2B742F6DB04F58873F9
:101DF00005F1500205F13E0105F13400009601F0B5
:101E00000BFA4046BDE8FC81B00D00202DE9FC41F5
:101E100004460D46164604F588704FF48073002280
:101E20002946CDE900062046FFF782FF070006D1CC
:101E3000324604F5887105F1220001F07BFA38463C
:101E4000BDE8FC812DE9FC470446884615461E4640
:101E50000A9F04F5887045F4407300224146CDE99D
:101E600000072046FFF764FF5FEA000905D13A4604
:101E7000314604F5887001F0ACFA4846BDE8FC87AD
:101E80002DE9F04106460C464FF0000800250021E0
:101E9000A174207F0C2876D2DFE800F0FD060F3D0C
:101EA000466576919AC0D7ED627904F11401304607
:101EB000FFF7C6FE02212177EEE061793046FEF79A
:101EC000C4FC0546012D1FD1207D00F08007608BEA
:101ED00058B141F2883072490880802F02D1032125
:101EE00021770CE00521217709E032206C49088038
:101EF000802F02D10921217701E007212177304687
:101F0000FEF794FC208205E0032D03D10B212177FD
:101F10000521A174C0E02379A2893046A168FFF7AA
:101F2000EDFD04212177B7E021793046FEF78DFCE5
:101F30000546012D01D109212177042D02D16078B8
:101F400020700FE0032D02D10B2121770AE03046EB
:101F5000FEF76CFC218A401A51490988884201D950
:101F60000B21217798E00121627906F56B7000EB77
:101F7000421041766379A2893046A168FFF714FECA
:101F80000621217788E086E061793046FEF75DFC26
:101F90000546012D02D1072121770FE0042D04D140
:101FA000607820700C21217708E0022D02D10521F4
:101FB000217703E0032D01D10B2121776CE02379F8
:101FC000002211463046FFF799FD0821217763E092
:101FD00021793046FEF739FC0546012D04D16078A1
:101FE00020700D21217718E0032D02D10B212177DC
:101FF00013E03046FEF71AFC218A401A2849098866
:10200000884202D90B21217707E0042D05D16078A1
:1020100020700421A1744FF003083DE0617906F5BA
:102020006B7000EB4110407E80F00101627906F593
:102030006B7000EB42104176637900221146304606
:10204000FFF7B2FD0A21217726E061793046FEF7DD
:10205000FCFB0546012D04D1607820700D2121770D
:1020600008E0022D02D10921217703E0032D01D1DF
:102070000B21217710E0A07B401CC1B2A173022983
:1020800002DC0121217705E00821A174607820702D
:102090004FF0020800E000BF00BF4046BDE8F081FD
:1020A0007000002070B592B005460C460126A0785D
:1020B0000A2875D2DFE800F005364C757E91AECB6C
:1020C000E8F34FF6FF707D4908807DA003F04EFDD8
:1020D000082221462846FFF799FE10BB4FF6FF70F5
:1020E000764908807BA003F041FD94F82910A17186
:1020F0002846FEF7E9FB0120A070A0790021CDE978
:102100000010617900231A46284600F0B1FFA0793B
:102110000021CDE90010217900231A46284600F05D
:10212000A7FFC6E0122221462846FFF76FFE70B9CE
:102130004FF6FF70614908806BA003F017FDD4F8DB
:102140008000C16904F1220088470220A070B0E03D
:1021500001222146284601F008FB00BB022002F0C4
:1021600033F8012004F10204A077D4F87E10086A45
:10217000804703202070002000900190A27FA1786A
:102180000346284600F074FF002000900190A27FD3
:10219000A4F1020461790346284600F069FF88E053
:1021A00086E0092221462846FFF702FE08B90420EE
:1021B000A0707EE0E28E21462846FFF7F9FD58B96F
:1021C000D4F8800004F1500204F13E01436A04F1A6
:1021D000340098470520A0706BE094F8300088B177
:1021E000FF20009094F8302002AB21462846FFF7EC
:1021F00029FE70B9D4F88000816A02A888470620B9
:10220000A07006E0D4F88000816A3FA088470620CD
:10221000A0704EE094F8310088B1FF20009094F84F
:10222000312002AB21462846FFF70CFE70B9D4F8E6
:102230008000C16A02A888470720A07006E0D4F891
:102240008000C16A30A088470720A07031E094F870
:10225000320088B1FF20009094F8322002AB214672
:102260002846FFF7EFFD70B9D4F88000016B02A893
:1022700088470820A07006E0D4F88000016B22A0F7
:1022800088470820A07014E094F839202146284699
:1022900001F07EFA08B90920A0700AE0FFE74FF6C6
:1022A000FF700649088019A003F060FC002600E0DA
:1022B00000BF00BF304612B070BD0000B200002069
:1022C000454E554D5F49444C452034343434342018
:1022D0000A000000454E554D5F49444C45203535B8
:1022E00035353535200A0000454E554D5F4745547C
:1022F0005F46554C4C5F4445565F4445534320343C
:1023000034343434200A00004E2F4100454E554DE0
:102310005F4745545F46554C4C5F4445565F4445C6
:102320005343203535353535200A00002DE9F0417D
:1023300006460F4614461D46DDF81880304601F06B
:10234000B1FE002001F066FE21463046FFF7A7FCF3
:10235000E567C4F8808039463046FEF781FAD4F844
:10236000801008688047304601F086FEBDE8F081A5
:1023700070B505460C4621212175FF2161750021AC
:10238000E1822183618300231A4621462846FFF714
:10239000D8FB70BD2DE9F04105460E4614460127D5
:1023A00014B1012C12D108E010480378C2783146EC
:1023B0002846FFF777FB074609E00C484378827808
:1023C00031462846FFF76EFB074600E000BF00BF1E
:1023D00007480068401C0649086008460068042851
:1023E00000D904273846BDE8F08100000014002021
:1023F0008400002010B5024600200023014C237009
:1024000010BD0000F01300202DE9F04105460F46F5
:10241000002601242846FEF753FA20B31548017818
:102420002846FEF717FA06460D2E01D002241CE0BE
:10243000114800681149884216D10F484068104978
:102440004968884211D10C48007B08B900240CE08F
:102450000948007B012801D1012406E00648007BE1
:10246000022802D1022400E002240648C473204658
:10247000BDE8F08100140020E013002055534253C2
:10248000C0130020F0130020012812D10D49097853
:10249000491C0C4A1170114609780A2905DA0621EF
:1024A000094A11700121D1700AE00A21064A11700F
:1024B00006E0022803D10A21034A117000E000BFA0
:1024C0007047000088000020F013002070B505461A
:1024D0000C46A1212175FE2161750021E182218335
:1024E000012161830123034A21462846FFF729FB86
:1024F00070BD0000081400202DE9F04781460F460A
:102500003E46012403254FF000084846FEF7D8F95F
:10251000002878D05E4800780B2875D2DFE800F0FC
:10252000060D1E5566798A999E44B000484600F013
:102530005FFA012056490870A5E039464846FFF782
:1025400017FF044614B9022051490870032C04D126
:1025500002204F4948700920087094E039464846E7
:10256000FFF7B4FF0446BCB94A48007A494981F8EC
:102570004800084690F8480000280ADD46480078E0
:1025800038B9012044490870D6F88010086C80479B
:1025900079E003203E490870032C04D103203C4914
:1025A0004870092008706EE0737900223946484669
:1025B000FFF778FA04463CB90020364981F8480014
:1025C00033484078324908705DE0484600F086FCA8
:1025D00005463DB904202E49087000202F49087097
:1025E000002402E02846FFF74FFF4CE0484600F089
:1025F00097FB05464DB9052025490870002027495D
:102600000870002404E03FE03CE02846FFF73CFF70
:1026100039E0484600F09CFA05463DB908201C49BF
:10262000087000201D490870002402E02846FFF7CA
:102630002BFF28E0484600F0E1FB05462DB9144881
:10264000407813490870002402E02846FFF71CFF79
:1026500019E03946484600F023F814E0D6F8801017
:10266000C86B804700F0FF08B8F1000F03D10820C5
:102670000749087003E0B8F1010F00D1062402E019
:10268000042400E000BF00BF2046BDE8F087000042
:10269000F0130020001400209C000020880000207F
:1026A0002DE9F0478046894600244046FEF708F9A8
:1026B00000287DD0C548007909287AD2DFE800F0EB
:1026C00079051251A3FDFCFBFA00C14843781F2293
:1026D000C0494046FFF7B7F90120BC4948710220C4
:1026E000087170E1BA4841784046FEF7AEF80446FA
:1026F000012C26D10020B84908600220B349487156
:10270000B448007B00F08007B2488068A8B1B148A7
:102710008068B2490860AD488068B14908600846E1
:102720000068B0490860802F03D10320A7490871D1
:1027300016E00420A549087112E00520A34908719C
:102740000EE0022C04D1A1484079A049087107E0AD
:10275000042C05D10120A449087008209B49087168
:1027600031E19B4801784046FEF76FF80446012CA2
:1027700003D09648407903283AD000209649086053
:102780000320924948719248808894490968884298
:1027900019D28F4803788288914801684046FFF734
:1027A00022F98B4880888D490968081A8B4901E015
:1027B0000AE107E108608648808889490968084479
:1027C000874908601EE08548006818B905207F49E0
:1027D000087117E07E4803788048008882B28048FC
:1027E00001684046FFF7FFF800207C49086009E0D7
:1027F000042C07D100207C49087007207349087118
:1028000005204871DFE0724841784046FEF71DF828
:102810000446012C3BD100206F49086004206B491D
:1028200048716B48C0886D49096888421AD2684867
:102830004378C2886A4801684046FFF704F968484F
:102840000068684908606248C088654909680844AA
:10285000634908605E48C08860490968081A5F4992
:10286000086042E05D48006818B9052057490871C2
:102870003BE0574843785948008882B2584801687D
:102880004046FFF7E0F80020544908602DE0022C94
:1028900021D15348006853490968884212D04C48F6
:1028A0004378C288C088DFF838C1DCF800C0ACEBE0
:1028B000000103E074E059E037E017E04046FFF71D
:1028C000C2F812E042484378C28845480168404651
:1028D000FFF7B9F809E0042C07D10120424908703C
:1028E00008203A490871052048716CE005203749F5
:1028F00048713E4888603F2088810D2604E0002012
:102900003A498855701EC6B2002EF8D100203749CA
:1029100008702F4803782D483F2281684046FFF712
:1029200062F80620294908714DE02948017840469F
:10293000FDF78BFF0446012C0FD1002026490860CB
:10294000052022494871084680780870494640466B
:10295000FFF75AFD1D49C87307E0042C05D100207C
:10296000214908700720194908712CE000224946C6
:102970004046FFF70FFD054665B91B480078022861
:1029800003D108201149087109E0104840790F4926
:10299000087104E0042D02D102200C49C87312E032
:1029A000012249464046FFF7F5FC054625B9074890
:1029B00040790649087104E0042D02D10220034940
:1029C000C87300E000BF00BFBDE8F087F01300202F
:1029D00000140020C0130020840000207400002098
:1029E000780000207C00002080000020E013002000
:1029F00010B504462046FDF763FF48B10748084973
:102A00000860084848600020487301200649C870E3
:102A10000020064908600649087010BD555342431E
:102A2000C013002050403020F0130020840000200C
:102A30008800002070B504460D461048407860B10B
:102A40000E484178204601F028FE0C484178204687
:102A5000FFF75FF90020094948700848007860B125
:102A600006480178204601F018FE04480178204607
:102A7000FFF74FF900200149087070BD00140020D5
:102A80007CB506460D462C4694F84300082856D1DE
:102A900094F84500502852D194F8520010F0800F5D
:102AA00007D094F852002949C870B4F854008880BF
:102AB00006E094F8520025498870B4F85400C880A4
:102AC00094F85A0010F0800F07D094F85A001F496C
:102AD000C870B4F85C00888006E094F85A001B497E
:102AE0008870B4F85C00C880184881783046FEF7DA
:102AF00067FF164948700846C1783046FEF760FF08
:102B0000124908700846C0880221CDE90010212032
:102B1000035D94F820200D484178304600F02EFBEC
:102B20000A4880880221CDE900102120035D94F835
:102B3000202006480178304600F020FB03E0D4F85E
:102B40008010086C804700207CBD0000001400202D
:102B500070B5054603262846FDF7B2FE002855D07D
:102B60002B48C078012802D002284DD127E03F2011
:102B700028498860802008730A20887326482449E1
:102B8000886005208870102405E0002121480F305E
:102B90000155601EC4B2002CF7D11A201D49C8731C
:102BA0003F211C484174C174012019490871072054
:102BB00008700320C8730220C870032625E014485B
:102BC000C07B80B91448807810F0800F03D00120BA
:102BD0001249087302E000201049087301200C49D3
:102BE000C87000260FE00A48C07B012803D10849BD
:102BF000C870012607E00648C07B022803D10120E7
:102C00000349C870022600E000BF00BF304670BD17
:102C1000F0130020C0130020C00F0020B00F0020D0
:102C2000FFB581B007460E461D460320394908709E
:102C30003846FDF745FE002867D03748C0780128A0
:102C400002D002285FD139E03448856080203349C2
:102C500008730A20887330488660102405E000213C
:102C60002E480F300155601EC4B2002CF7D1282029
:102C70002A49C8739DF80F10284841749DF80E101A
:102C800081749DF80D10C1749DF80C100175C5F389
:102C90004F2000909DF80110204881759DF800108C
:102CA000C17501201C490871072008700320C873F2
:102CB0000220C87003201749087025E01648C07B21
:102CC00050B93846FDF7FCFD30B101201249C870FB
:102CD00000201049087015E00F48C07B012807D17B
:102CE0003846FDF7EDFD18B101200B49C87009E029
:102CF0000948C07B022805D101200749C87002207D
:102D00000449087000E000BF00BF0248007805B029
:102D1000F0BD000072000020F0130020C01300205E
:102D200070B5054603262846FDF7CAFD00285AD08F
:102D30002E48C078012802D0022852D123E0082072
:102D40002B498860802008730A2088732948274906
:102D5000886004208870102405E0002124480F308A
:102D60000155601EC4B2002CF7D125202049C8733C
:102D700001201E490871072008700320C873022033
:102D8000C87003262EE01948C07BC8B919480078DE
:102D90001949C8701748407888701648807848707C
:102DA0001448C0780870134881791348417211485B
:102DB000C0791149087201200C49C87000260FE043
:102DC0000A48C07B012803D10849C870012607E0E2
:102DD0000648C07B022803D101200449C87002269E
:102DE00000E000BF00BF304670BD0000F0130020BF
:102DF000C0130020C00F0020B00F002070B50546A2
:102E000003262846FDF75CFD00285DD02F48C078DA
:102E1000012802D0022855D12BE03F202C498860A0
:102E2000802008730A2088732A4828498860084649
:102E30008078487006208870102405E0002124481E
:102E40000F300155601EC4B2002CF7D10320204979
:102E5000C87300211E4801743F21C17401201B4921
:102E60000871072008700320C8730220C870032669
:102E700029E01648C07BA0B9164801781648C171F0
:102E80001448417814488171124881781248417180
:102E90001048C0781049087101200C49C8700026FC
:102EA0000FE00A48C07B012803D10849C8700126F9
:102EB00007E00648C07B022803D101200349C870FF
:102EC000022600E000BF00BF304670BDF0130020B6
:102ED000C0130020C00F0020B00F002070B50546C1
:102EE00003262846FDF7ECFC002846D02448C0788D
:102EF000012802D002283ED124E000202149886028
:102F000008730620887320481D4988603F20888107
:102F100003208870102405E000211A480F30015565
:102F2000601EC4B2002CF7D100201649C8730120DE
:102F300013490871072008700320C8730220C87065
:102F4000032619E00E48C07B20B901200C49C87047
:102F500000260FE00A48C07B012803D10849C87049
:102F6000012607E00648C07B022803D1012004495E
:102F7000C870022600E000BF00BF304670BD0000F0
:102F8000F0130020C0130020E01300202DE9FF41C2
:102F900082B007460E461D464FF003083846FDF73F
:102FA0008FFC00285BD03048C078012802D002286E
:102FB00053D138E02D48856000202C4908730A2041
:102FC000887329488660102405E0002127480F30C7
:102FD0000155601EC4B2002CF7D12A202349C873C2
:102FE0009DF81310214841749DF8121081749DF8CA
:102FF0001110C1749DF810100175C5F34F20019098
:103000009DF80510194881759DF80410C1750120BF
:1030100015490871072008700320C8730220C87082
:103020004FF003081AE01048C07B28B901200E4970
:10303000C8704FF000080FE00B48C07B012802D198
:103040000949C87008E00848C07B022804D1012063
:103050000549C8704FF0020800E000BF00BF4046BD
:1030600006B0BDE8F0810000F0130020C01300207E
:103070002DE9F04704460D4617461E46DDE908983F
:1030800027B104F56B7000EB4510077004F56B7009
:1030900000EB4510C088404508D0B8F1000F05D0BE
:1030A00004F56B7000EB4510A0F8068004F56B701A
:1030B00000EB4510C078B04205D026B104F56B7026
:1030C00000EB4510C6702946204601F027FB002082
:1030D000BDE8F08738B5054600240020009028465A
:1030E00001F047FD002847D0284601F04CFD009034
:1030F000009808B9002038BD0098C0F3C00018B18E
:10310000284602F0FBFC04430098C0F3001018B1FD
:10311000284602F040FC04430098C0F3401018B168
:10312000284602F079FA04430098C0F3806018B191
:10313000284602F099FB04430098C0F3406018B1A0
:10314000284601F042FE04430098C0F3006018B125
:10315000284602F0F9FA04430098C0F3407018B111
:10316000284601F0F9FD04430098C0F3405018B11F
:10317000284601F007FE04432046BCE72DE9F0474E
:1031800004460D4617461E46DDE9088904F28C50B8
:1031900010F8150000F07F0104F56B7000EB45108E
:1031A000417004F28C5010F81500C0F3C01104F502
:1031B0006B7000EB4510817004F56B7000EB4510EF
:1031C000077004F56B7000EB451080F8058004F57E
:1031D0006B7000EB4510A0F8069004F56B7000EBE7
:1031E0004510C670002104F56B7000EB45100176A8
:1031F00004F56B7000EB451041762EB9012104F502
:103200006B7000EB451001712946204601F086FAEB
:103210000020BDE8F08700002DE9F04F85B006469C
:10322000894692461D462C460027B84600BF28789E
:10323000307068787070A978E87801EB00207080B1
:103240002879307168797071A879B071E879F07176
:10325000287A30720E98092864DD092000903079B0
:1032600002285ADCBB4653E069462046FEF796FD2D
:103270000446607804284BD1A07847B207EBC7001A
:1032800000EB090BE078032842DA214602A800F09F
:103290008DF84FF000089DF80C00022838DC32E071
:1032A00069462046FEF77AFD0446607805282AD153
:1032B0000AEB071000EBC80001901C480078B842E8
:1032C00006D01A490F7002A9584600F06FF80CE0BA
:1032D0002179607901EB002015490988884200DADC
:1032E00015E002A9584600F061F82146019800F067
:1032F0004DF82179607901EB00200D49088008F133
:1033000001004FFA80F89DF80C004045C8DC00BF72
:103310007088BDF800108842A6DC002004490880AF
:103320000249087005B0BDE8F08F00005E00002083
:103330005C00002010B50B7803704B7843708C78DC
:10334000CB7804EB032343800B7903714B794371F2
:103350008B798371CB79C371082A16DD0C7A4B7A8D
:1033600004EB032303818C7ACB7A04EB03234381A0
:103370000C7B4B7B04EB032383818B7B8373CB7BA5
:10338000C3730B7C03744B7C437410BD0A780270CA
:103390004A7842708A788270CA78C2700B794A790A
:1033A00003EB022282808A79827170470A78027068
:1033B0004A7842708A788270CA78C2700A7902713B
:1033C0004A7942718A798271CA79C2710A7A027223
:1033D000704730B513464578032D14D10578AD1EDE
:1033E0009D4202DC0578AD1E00E01D46ACB2801C9B
:1033F000002204E0855C0D70491C951CAAB2A24213
:10340000F8DB00250D7030BD3EB505460C460220A8
:1034100002902846FDF754FA30B9207820B1207880
:10342000022801D00220207020780B2876D2DFE815
:1034300000F00617E9755B9AC1D476D9DA00284600
:10344000FDF73EFA58B14FF6FF707C4908807CA02A
:1034500002F08CFB01202070642000F0B5FEEAE051
:103460004FF6FF707549088079A002F07FFBD4F811
:1034700080108868804700212846FEF7A1FA607115
:1034800080212846FEF79CFA20712846FDF71CFA99
:1034900048BBD4F88010C86880472846FDF7CBF9B0
:1034A000C1B221200155042020702122105DD4F8E2
:1034B000802091698847A0790021CDE90010212062
:1034C000035D94F8202021792846FFF757FEA07964
:1034D0000021CDE900102120035D94F820206179BE
:1034E0002846FFF74BFEA6E04FF6FF7053490880D1
:1034F0005DA002F03BFB21462846FEF7D3FD60B9F4
:103500004FF6FF704D4908805DA002F02FFBD4F804
:103510008010486B8047082020708CE08AE04FF6CE
:10352000FF70464908805FA002F020FBD4F88010AD
:10353000886B8047012815D14FF6FF703F490880FE
:103540005EA002F013FBE06F214602682846904718
:1035500040B94FF6FF70394908805EA002F006FBC3
:103560000520207067E0E06F21468268284690477A
:1035700002904FF6FF70314908805CA002F0F6FA25
:103580009DF8080048B94FF6FF702C4908805EA0EE
:1035900002F0ECFA062020700BE04FF6FF7027498E
:1035A000088061A002F0E2FA9DF808102046FEF7BC
:1035B00099FB40E04FF6FF702049088062A002F0BE
:1035C000D5FAE06F2146C2682846904702909DF8E0
:1035D00008102046FEF786FB2DE021462846FEF720
:1035E0004FFC28E027E021462846FEF758FBD4F898
:1035F000801048688047E06F04F120014268284647
:10360000904718E0D4F88010086980472146284682
:10361000FEF745FBD4F8801048688047E06F04F15E
:1036200020014268284690472846FEF72AFB0020E2
:10363000207000E000BF00BF3EBD0000B2000020CF
:10364000484F53545F49444C45203131200A000013
:10365000484F53545F4445565F4154544143484595
:1036600044203131200A0000484F53545F454E55E5
:103670004D45524154494F4E203131200A0000003F
:10368000555342485F48616E646C65456E756D28A0
:1036900029203D20555342485F4F4B203131200AAD
:1036A00000000000484F53545F5553525F494E503D
:1036B0005554203131313131200A0000484F5354E4
:1036C0005F5553525F494E50555420323232323298
:1036D00032200A00484F53545F5553525F494E50B1
:1036E000555420333333333333200A00484F535477
:1036F0005F434C4153535F5245515545535420311C
:1037000031313131200A0000484F53545F434C415E
:1037100053535F5245515545535420323232323261
:103720003232200A00000000484F53545F434C419E
:1037300053535F524551554553542033333333333C
:103740003333200A00000000484F53545F434C417C
:1037500053532829203D20555342485F4F4B203278
:1037600032200A0001460020704770B506460C461C
:1037700015460021217505216175E582002121830F
:10378000618300231A4621463046FEF7DAF970BD00
:1037900070B506460C461546002121750921617554
:1037A000E58200212183618300231A4621463046A9
:1037B000FEF7C7F970BD10B503461878587007209A
:1037C000187099609A8101241C77002010BD0000B8
:1037D0002DE9F04106460C4617462546687908282B
:1037E00007D14FF6FF7009490880094802F0BEF979
:1037F00009E06879032806D14FF6FF700349088075
:10380000044802F0B3F9BDE8F0810000B2000020E6
:10381000CB790000EC790000002001490870704766
:10382000080000207047000010B54FF6FF700349F4
:103830000880034802F09AF910BD0000B200002091
:103840001C79000010B5FDF787FA0BA1C620FDF723
:10385000CFF909A1D220FDF7CBF94FF478401049F8
:10386000088010A002F082F9104802F07FF94FF6AC
:10387000FF700B49088010BD202020202020202030
:103880002020202020202020202020202020202038
:103890002020202020202020202020202020000068
:1038A000B20000204552524F523A200030790000B9
:1038B00010B54FF478400649088006A002F056F98A
:1038C00006A002F053F94FF6FF700149088010BDC1
:1038D000B20000204552524F523A20003E2044652B
:1038E00076696365206E6F7420737570706F727483
:1038F00065642E0010B504463CB94FF6FF701149BF
:103900000880114802F032F91AE0012C07D14FF675
:10391000FF700C4908800D4802F028F910E0022CD5
:1039200007D14FF6FF7007490880094802F01EF9D9
:1039300006E04FF6FF7003490880064802F016F9CA
:1039400010BD0000B2000020617900007F79000006
:103950009D790000BA79000070B5044625464FF6FF
:10396000FF7007490880298906A002F0FFF84FF68A
:10397000FF7003490880698906A002F0F7F870BD5E
:10398000B2000020564944203A2025303458680AB5
:1039900000000000504944203A2025303458680A7D
:1039A0000000000010B54FF6FF700B4908800B486F
:1039B00002F0DCF84FF4FC60FDF7E6FA08A1C6203F
:1039C000FDF716F910A1D220FDF712F94FF6FF709E
:1039D000FDF7DAFA10BD0000B200002047790000C0
:1039E000546F207365652074686520726F6F742052
:1039F000636F6E74656E74206F66207468652064F2
:103A000069736B203A2000005072657373204B6518
:103A1000792E2E2E20202020202020202020202023
:103A200020202020202020202020200010B5144815
:103A30000078002823D10120114908700020FDF7EB
:103A400075FD0120FDF772FD0220FDF76FFD0320DB
:103A5000FDF76CFD00210220FDF7B0FDFDF758FBDE
:103A6000FDF7C0F907A0FDF7F7F94FF6FF700B4916
:103A700008800BA002F07AF811A0FDF7BAF910BD8A
:103A80005400002020555342204F544720465320D5
:103A90004D534320486F737400000000B2000020B3
:103AA0003E2055534220486F7374206C69627261E6
:103AB000727920737461727465642E0A00000000CC
:103AC000202020202055534220486F7374204C69D9
:103AD00062726172792076322E312E300000000041
:103AE00030B591B0402289A101A8FCF769FB974845
:103AF000007830B1012845D0022855D003287DD167
:103B0000E0E09349002003F05FF888B14FF478407B
:103B10009049088090A002F029F891A002F026F8C0
:103B20004FF6FF708B4908804FF0FF3011B030BD69
:103B30004FF6FF708749088092A002F017F84FF601
:103B4000FF708449088096480068954A128900FBF6
:103B500002F194A002F00AF89148007B01280DD1EF
:103B60004FF478407B4908807BA001F0FFFF944828
:103B700001F0FCFF4FF6FF70764908800120734981
:103B80000870BFE04FF6FF70724908808D4801F061
:103B9000EDFF01218CA0FCF771FC00208B4908701F
:103BA00002206A490870ADE04FF4FC60FDF7ECF9C3
:103BB00087A1C620FDF71CF891A1D220FDF718F8C7
:103BC0004FF6FF70FDF7E0F9642000F0FDFA01E028
:103BD000FDF7DAFE9048FCF773FE20B10220FDF7F6
:103BE000DDFC0128F4D04FF6FF705A4908808BA005
:103BF00001F0BCFF6A48007B012800E081E011D1A0
:103C00004FF478405349088053A001F0AFFF8CA0D7
:103C100001F0ACFF4FF6FF704E49088003204B497E
:103C200008706FE04A49002002F0CEFF0A228DA101
:103C30008F4802F0DFFF002829D13E256B462A4637
:103C400001A98B4803F03DFA0446BDF8000000B11D
:103C500074B14FF478403F4908803FA001F086FFDF
:103C600084A001F083FF4FF6FF703A49088006E018
:103C70004FF6FF703749088086A001F077FF7C4837
:103C800002F0B6FE0021084602F09EFF06E04FF665
:103C9000FF703049088086A001F068FF03202B499F
:103CA00008704FF4FC60FDF76FF949A1C620FCF7DE
:103CB0009FFF88A1D220FCF79BFF4FF6FF70FDF716
:103CC00063F91FE001E0FDF75FFE5348FCF7F8FDE4
:103CD00020B10220FDF762FC0128F4D00BE01C4962
:103CE000002002F071FF10B14FF0FF301EE736A048
:103CF000FCF704FE1AE74848FCF7E2FD0028EED185
:103D000000E000BF00BF002010E7000053544D3317
:103D10003220436F6E6E6563746976697479206CC6
:103D2000696E6520486F73742044656D6F20617003
:103D3000706C69636174696F6E207573696E67205A
:103D40004641545F46532020200000000800002018
:103D50005C070020B20000204552524F523A20002A
:103D60003E2043616E6E6F7420696E697469616C88
:103D7000697A652046696C652053797374656D2E88
:103D80000A0000003E2046696C6520537973746513
:103D90006D20696E697469616C697A65642E0A00C8
:103DA000B00F00203E204469736B20636170616333
:103DB000697479203A2025642042797465730A0079
:103DC000607A0000447A0000303A2F000900002099
:103DD00020202020202020202020202020202020E3
:103DE00020202020202020202020202020202020D3
:103DF0002020202020202020202020202020000003
:103E00005072657373204B657920746F20777269E7
:103E100074652066696C65001C0100203E205772A5
:103E20006974696E672046696C6520746F206469E7
:103E3000736B20666C617368202E2E2E0A000000C2
:103E40003E204469736B20666C617368206973203F
:103E500077726974652070726F746563746564202D
:103E60000A000000303A53544D33322E5458540057
:103E70008C0900203E2053544D33322E5458542088
:103E800043414E4E4F542062652077726974656ECF
:103E90002E0A00003E202753544D33322E545854DE
:103EA000272066696C6520637265617465640A0029
:103EB0003E2053544D33322E545854206372656162
:103EC00074656420696E20746865206469736B0A88
:103ED00000000000546F20737461727420496D619A
:103EE000676520736C6964652073686F7720507212
:103EF000657373204B65792E0000000010B50446F1
:103F00004FF6FF7003490880214603A001F02EFE02
:103F100010BD0000B20000204D616E7566616374D3
:103F200075726572203A2025730A000010B54FF4AF
:103F300078400649088006A001F018FE06A001F0AE
:103F400015FE4FF6FF700149088010BDB200002039
:103F50004552524F523A20004F7665726375727225
:103F6000656E742064657465637465642E0000007A
:103F700010B504464FF6FF7003490880214603A0A0
:103F800001F0F4FD10BD0000B200002050726F641B
:103F9000756374203A2025730A0000007047000002
:103FA00010B504464FF6FF7003490880214603A070
:103FB00001F0DCFD10BD0000B20000205365726905
:103FC000616C204E756D626572203A2025730A007F
:103FD00010B54FF478400649088006A001F0C6FDF0
:103FE000064801F0C3FD4FF6FF700149088010BD7F
:103FF000B20000204552524F523A20007F7A000012
:1040000010B500240220FDF7C9FA00B901242046AA
:1040100010BD00001CB5044601218020FDF728F8E2
:104020002020009003208DF8050001208DF8040069
:1040300000208DF806008DF8070069460548FCF75A
:104040007DFB20210348FCF7EFFBC82000F0BCF803
:104050001CBD0000001C024070B505460C4624B98A
:1040600020210448FCF7E0FB03E020210148FCF795
:10407000D9FB70BD001C024038B504464FF4C06047
:10408000FCF7D8FF43208DF8000001208DF80100D7
:1040900003208DF8020001208DF803006846FCF72C
:1040A0008DFF38BD1CB5044601210846FCF7E0FF32
:1040B0004FF4C850009003208DF8050002208DF8C1
:1040C000040000208DF806008DF80700694621489D
:1040D000FCF734FB4FF40070009003208DF80500CE
:1040E00000208DF804008DF806008DF80700694661
:1040F0001848FCF723FB0A2208211648FCF766FB48
:104100000A220B211348FCF761FB0A220C211148FB
:10411000FCF75CFB4FF48060009001208DF80600F6
:104120008DF8070003208DF8050069460948FCF763
:1041300005FB0A2211460748FCF748FB01218803CA
:10414000FCF7D6FF01218020FCF7A2FF00F004F865
:104150001CBD00000000024008B500214FF00060C7
:10416000FCF772FF4FF4A060FCF764FF1C208DF891
:10417000000001208DF801008DF802008DF8030089
:104180006846FCF71BFF01210846FCF7A1FF08BDAC
:1041900010B501218807FDF79AFB88B10121880736
:1041A000FDF786FB0748006828B106480068401EF6
:1041B0000449086004E000214FF08040FDF77BFBDC
:1041C00010BD00000000002010B50446012120466B
:1041D000FCF792F810BD10B5044602212046FCF70A
:1041E0008BF810BD3EB504460025002002900190DA
:1041F0000090207A01283DD1E068806B0190019801
:1042000020F480300190607A28B1019820F4801069
:1042100000F5801001900198E16888630020029009
:10422000E068C0680290029820F040000290029876
:1042300020F480000290029820F40030029002984E
:1042400020F4002002900298E168C860204600F047
:10425000C7F8E078012843D1009820F01E000A300A
:104260000090009820F02000203000900098E16835
:10427000886035E0E068C0680290029820F0400055
:10428000403002900298E168C860204600F0A8F82B
:1042900000200190019820F4803000F580300190DA
:1042A000019820F4802000F580200190019820F4EE
:1042B000002000F500200190019820F4001000F586
:1042C00000100190607A28B1019820F4801000F568
:1042D000801001900198E16888631420FFF774FF53
:1042E000E07801280FD1E06880680090009820F005
:1042F0001E000A300090009820F02000203000902E
:104300000098E168886028463EBDFEB50446002658
:10431000002500200290019000902046FFF77AFED1
:104320000021D4F80C010160207A012803D1204635
:1043300000F00BFC03E00121204600F006FC2046C3
:1043400000F059FC606900680090009820F00400BB
:104350000090009960690160E07A01281DD18020F9
:10436000E168486202986FF30F0080300290029873
:1043700080B200F5C00002900298E168886201985E
:104380006FF30F00E0300190019880B200F5C0009B
:1043900001900198E168C1F800011021204600F069
:1043A0001FF9204600F0F6F800250DE04FF0FF3130
:1043B00004F1900050F825008160002104F1900084
:1043C00050F82500C1606D1C2078A842EED801216C
:1043D000204600F04CF8204600F0A2F83046FEBD22
:1043E000F8B50446002600250020009000BF0320F9
:1043F000FFF7F1FEE06800690090681C054612496D
:10440000884201D90020F8BD0098C00FEFD00025E8
:10441000009820F00100401C00900098E1680861BD
:1044200000BFE06800690090681C054606498842A4
:1044300000D903E0009810F0010FF2D100BF032073
:10444000FFF7C9FE3046DEE7400D030008B5014620
:10445000002000220092009A22F00102521C0092D9
:10446000CA689268009B9A43CB689A6008BD38B5C9
:1044700005460C460020009021462846FFF7ECFD3B
:10448000284600F088FB00900098C0F3003058B92F
:10449000012C09D1009820F4805000F58050009044
:1044A0000099D5F8CC0001600098C0F3003040B10D
:1044B0003CB9009820F4805000900099D5F8CC00C9
:1044C0000160C820FFF780FE38BD08B500210091CB
:1044D000491EC26851606FF08041C2685161009905
:1044E00021F0004101F100410091009921F40061A7
:1044F00001F5006100910099C268916108BD08B59D
:104500000146002000220092009A22F00102521C73
:104510000092CA689268009B1A43CB689A6008BDF3
:1045200038B50446002500200090E1688861401EEF
:10453000E16848612046FFF7C8FFE07820B900989D
:1045400020F0100010300090009820F0807000F1F2
:1045500080700090009820F0007000F100700090D2
:10456000009820F0005000F100500090009820F0DA
:10457000080008300090009820F4001000F50010AA
:104580000090E0688069009988430843E168886189
:10459000284638BDF8B504460025002600200090C6
:1045A000009820F01000103000900098E168086139
:1045B00000BFE06800690090701C06460749884209
:1045C00000D904E00098C0F300100028F1D100BF2A
:1045D0000320FFF700FE2846F8BD0000400D030051
:1045E000F8B504460D4600260027002000900098EC
:1045F00020F0200020300090009865F38A10009091
:104600000098E168086100BFE06800690090781CCC
:1046100007460749884200D904E00098C0F34010DB
:104620000028F1D100BF0320FFF7D5FD3046F8BDCB
:10463000400D03000146C868406900F00100704762
:104640001CB50246002000230093009B23F000438A
:1046500003F1004300930124009B64F3DC430093C7
:1046600002F1900353F82130009C1C6102F1900389
:1046700053F821301B680193019B23F0004303F1A1
:1046800000430193019B23F08043019302F19003C7
:1046900053F82130019C1C601CBD10B586B0024649
:1046A000002000230393019302F1900353F821307B
:1046B0001B680093009B23F0004303F10043009329
:1046C000009B23F0804303F180430093009BC3F3DE
:1046D000814323B1009BC3F38143022B0BD1D368E9
:1046E000DB6A0393039BC3F307437BB9009B23F06F
:1046F000004300930AE053691B690193019BC3F3D4
:1047000007431BB9009B23F00043009302F1900381
:1047100053F82130009C1C6006B010BD3FB5024626
:10472000002000230024029403940194441E00946A
:1047300002F1900454F82140009DA56000240394E8
:10474000D478012C04D1039C24F00404241D039488
:1047500002F56B7404EB4114647934B1012C6AD016
:10476000022C03D0032C38D138E000BF039C24F086
:104770000104641C0394039C24F00804083403948B
:10478000039C24F0800480340394039C24F480640C
:1047900004F580640394039C24F010041034039403
:1047A00002F56B7404EB4114A47834B1039C24F437
:1047B000807404F5807403940FE0039C24F040049B
:1047C0004034039402F56B7404EB4114247924B152
:1047D000039C24F02004203403944EE0039C24F036
:1047E0000104641C0394039C24F01004103403940B
:1047F000039C24F0080408340394039C24F08004F0
:1048000080340394039C24F4806404F5806403944E
:10481000039C24F4007404F50074039402F56B7493
:1048200004EB4114A4782CB1039C24F4807404F5A7
:104830008074039421E0039C24F00104641C03941D
:10484000039C24F4007404F500740394039C24F086
:1048500020042034039402F56B7404EB4114A47813
:1048600054B1039C24F0800480340394039C24F40A
:10487000807404F58074039400BF00BF02F19004BB
:1048800054F82140039DE560012404FA01F35469C2
:10489000A4691C435569AC61029C24F0007404F1C6
:1048A00000740294D468A469029D2C43D568AC615D
:1048B0000024019402F56B7404EB41142578019CEB
:1048C00065F39C54019402F56B7404EB4114657814
:1048D000019C65F3CE24019402F56B7404EB411442
:1048E000A578019C65F3CF34019402F56B7404EB59
:1048F0004114E478022C01D1012500E00025019C3F
:1049000065F35144019402F56B7404EB411465792D
:10491000019C65F39344019402F56B7404EB41141C
:10492000E588019C65F30A04019402F56B7404EBBD
:1049300041146479032C05D1019C24F0005404F146
:104940000054019402F1900454F82140019D256027
:1049500004B030BD2DE9F04388B004460D464FF059
:104960000009C8464FF48077002006900790009019
:1049700004F56B7000EB4510006910B304F56B7023
:1049800000EB4510016904F56B7000EB4510C08821
:104990000144491E04F56B7000EB4510C088B1FB63
:1049A000F0F086B2BE420DDD3E4604F56B7000EBC2
:1049B0004510C188714304F56B7000EB451001612F
:1049C00000E0012604F56B7000EB4510807850B1D3
:1049D00004F56B7000EB4510C188714304F56B70F2
:1049E00000EB4510016104F56B7000EB45100169A7
:1049F000069861F312000690069866F3DC40069074
:104A000004F56B7000EB4510017A069861F35E7057
:104A1000069004F1900050F8250006990161E078B5
:104A2000012809D104F56B7000EB4510C16804F151
:104A3000900050F82500416104F1900050F82500E5
:104A400000680790204600F08CF8079960F35D71CC
:104A50000791079820F0004000F100400790079868
:104A600020F08040079004F1900050F8250007994D
:104A70000160E078002864D104F56B7000EB45100C
:104A8000807800285DD104F56B7000EB451000695B
:104A9000002856D004F56B7000EB4510407930B11A
:104AA000012821D0022803D0032839D11BE000BF00
:104AB000E068C06A039004F56B7000EB4510006974
:104AC000C01CC0F38F08039880B240450ADA0098F2
:104AD00020F0200020300090E068806900990843B1
:104AE000E16888611DE000BF60690069019004F51C
:104AF0006B7000EB45100069C01CC0F38F08019873
:104B000080B240450BDA009820F0806000F18060B0
:104B10000090E068806900990843E168886100E0DE
:104B200000BF00BF04F56B7000EB4510008A83B234
:104B300004F56B7000EB45102A46C168204600F072
:104B4000F3FF484608B0BDE8F08308B54269126833
:104B50000092009A61F301020092009B4269136087
:104B600008BD01464869806800F0010080F001003E
:104B7000704700B502461046FFF75CFD012800D1E2
:104B800000BD0020FCE701460020CA685069CA68E1
:104B900092691040704708B50146D1F8CC00006812
:104BA0000090009820F004000090009820F002008F
:104BB0000090009820F008000090009820F020005D
:104BC0000090009808BD0146486940697047F0B5FB
:104BD00003460024D01CC71700EB9777BD10D3F80D
:104BE000D06000BF03E030680860641C091DAC425F
:104BF000F9D30846F0BD38B504462046FFF7CBFF91
:104C00000090009820F4807000F58070009000996A
:104C1000D4F8CC0001600A20FFF7D6FA009820F4FF
:104C2000807000900099D4F8CC0001601420FFF748
:104C3000CBFA012038BD000070B502460C460023B7
:104C400000200025D5700125957040259580012C08
:104C50000CD14FF0A0430125D5720825157004250D
:104C600055709D15D580022515720AE04CB9254B6B
:104C70000025D5720C251570062555704FF4A065DA
:104C8000D580D36003F500651561002110E003F5C0
:104C9000106505EB411602F1180545F8216003F592
:104CA000306505EB411602F1540545F82160491CB9
:104CB00055788D42EBD803F5806555614035C2F8D3
:104CC000CC50002108E003F5A06505EB411602F188
:104CD000900545F82160491C15788D42F3D80021D4
:104CE00008E003F5805505EB013602F1D00545F8E3
:104CF0002160491C15788D42F3D803F56065C2F830
:104D00000C5170BD00000440F8B504460D46002665
:104D1000E068C0680090009820F000500090009873
:104D200020F080400090012D06D1009820F0005026
:104D300000F10050009006E02DB9009820F080406E
:104D400000F1804000900098E168C8603220FFF7D1
:104D50003BFA3046F8BD000038B50446002000900C
:104D600007480068816820468847009820F0005076
:104D700000F1005000900098E1684861012038BDC2
:104D80006C0000200CB50146D1F89000006800903E
:104D9000009820F0004000F100400090009820F0C2
:104DA000804000F180400090009AD1F890000260AD
:104DB00000200190019820F4001000F500100190EF
:104DC0000198CA68506101200CBD7CB505460024DD
:104DD00000262846FFF7F7FE019000BF1BE0019870
:104DE00080B20121A140084214D005F1900050F892
:104DF0002400006800900098C0F3C03028B121461C
:104E0000284600F00DF8064304E02146284600F04D
:104E10001BFA0643641C2878A042E0D830467CBDCB
:104E200070B586B005460C4605F1900050F8246038
:104E3000B0680590F0680490DDE904100840059022
:104E400005F1900050F824000068039000200490C1
:104E50000598C0F38000D0B100200190019820F0A7
:104E60000400001D01900198B06005F1900050F819
:104E70002400C0680190019820F00200801C01907D
:104E800005F1900050F824000199C16073E0059885
:104E9000C0F3401048B100200190019820F020009C
:104EA000203001900198B06065E00598C0F3C00023
:104EB00078B305F1900050F82400C0680190019883
:104EC00020F00200801C019005F1900050F82400B1
:104ED0000199C160052105F563700155002001901D
:104EE000019820F01000103001900198B06000206F
:104EF0000190019820F00800083001900198B060FE
:104F0000059820F010000590E1B22846FFF7C5FB98
:104F100031E0FFE70598C0F3802060B305F1900011
:104F200050F82400C0680190019820F00200801C15
:104F3000019005F1900050F824000199C160E1B2A0
:104F40002846FFF7AAFB00200190019820F01000EE
:104F5000103001900198B060082105F5637001558B
:104F600000200190019820F4806000F5806001909D
:104F70000198B06000BF0598C0F34020F8B105F17A
:104F8000900050F82400C0680190019820F00200C1
:104F9000801C019005F1900050F824000199C16037
:104FA000E1B22846FFF779FB00200190019820F438
:104FB000007000F5007001900198B06041E1059823
:104FC00010F0010F71D0E878012812D105F190009E
:104FD00050F824000069029005F56B7000EB441056
:104FE00000690299C1F31201411A05F5547040F8A5
:104FF0002410012105F5637001550021783840F82F
:10500000241000200190019820F00100401C019024
:105010000198B0600398C0F3814020B10398C0F3B9
:10502000814002282AD105F1900050F82400C06880
:105030000190019820F00200801C019005F1900081
:1050400050F824000199C160E1B22846FFF725FB22
:1050500000200190019820F010001030019001987C
:10506000B06005F56B7000EB4410007E80F001012C
:1050700005F56B7000EB44100176E2E00398C0F395
:10508000814003289AD1039820F0005000F100508D
:10509000039005F1900050F824000399016001216C
:1050A00005F29B300155CCE0FFE70598C0F34000C6
:1050B000002851D005F1900050F82400C0680190FC
:1050C000019820F00200019005F1900050F82400B2
:1050D0000199C16005F56370005D012804D10121CB
:1050E00005F29B3001552DE005F56370005D052844
:1050F00004D1042105F29B30015523E005F56370CE
:10510000005D062804D005F56370005D082808D10D
:10511000002105F5457040F8241003218730015522
:1051200010E00398C0F3814003280BD105F56B70A4
:1051300000EB4410007E80F0010105F56B7000EB80
:105140004410017600200190019820F00200801C9C
:1051500001900198B06074E00598C0F3C01040B3AE
:1051600005F1900050F82400C0680190019820F0EB
:105170000200801C019005F1900050F82400019974
:10518000C16005F5457050F82410491C40F8241002
:10519000062178300155E1B22846FFF77EFA00205B
:1051A0000190019820F08000803001900198B0605B
:1051B00047E00598C0F30010F0B30398C0F38140B6
:1051C000032815D105F1900050F82400C068019023
:1051D000019820F00200801C019005F1900050F829
:1051E00024000199C160E1B22846FFF756FA18E0A1
:1051F0000398C0F3814020B10398C0F38140022896
:105200000FD1039820F0004000F100400390039874
:1052100020F08040039005F1900050F8240003999D
:105220000160032105F5637001550020019001988C
:1052300020F01000103000E003E001900198B06011
:1052400000BF012006B070BD7FB505460C4605F1D4
:10525000900050F82460B0680390F0680290DDE997
:1052600002100840039005F1900050F824000068F7
:1052700001900398C0F38000D0B100200090009806
:1052800020F00400001D00900098B06005F190002F
:1052900050F82400C0680090009820F00200801CA4
:1052A000009005F1900050F824000099C160B0E131
:1052B0000398C0F3401048B100200090009820F0FF
:1052C0002000203000900098B060A2E10398C0F365
:1052D0004020F8B105F1900050F82400C06800901B
:1052E000009820F00200801C009005F1900050F81A
:1052F00024000099C160E1B22846FFF7CEF90020F2
:105300000090009820F4007000F500700090009864
:10531000B0607EE1039810F0010F27D0002105F561
:10532000457040F8241005F1900050F82400C06842
:105330000090009820F00200801C009005F1900081
:1053400050F824000099C160E1B22846FFF7A5F9A2
:1053500000200090009820F00100401C0090009870
:10536000B060012105F56370015552E10398C0F367
:10537000C00010B300200090009820F00800083012
:1053800000900098B06005F1900050F82400C068CB
:105390000090009820F00200801C009005F1900021
:1053A00050F824000099C160E1B22846FFF775F972
:1053B000052105F5637001552BE10398C0F300103A
:1053C00038B3002105F5457040F8241005F1900030
:1053D00050F82400C0680090009820F00200801C63
:1053E000009005F1900050F824000099C160E1B2EE
:1053F0002846FFF752F900200090009820F0100096
:10540000103000900098B060032105F563700155DD
:10541000FFE00398C0F3C01040B305F1900050F8CE
:105420002400C0680090009820F00200801C0090CA
:1054300005F1900050F824000099C160E1B22846BF
:10544000FFF72BF905F5457050F82410491C40F87A
:10545000241006217830015500200090009820F09B
:105460008000803000900098B060D2E00398C0F3D4
:10547000801038B3002105F5457040F8241005F17F
:10548000900050F82400C0680090009820F00200BE
:10549000801C009005F1900050F824000099C16034
:1054A000E1B22846FFF7F9F800200090009820F0BC
:1054B0004000403000900098B060042105F5637012
:1054C0000155A6E00398C0F3802060B305F1900079
:1054D00050F82400C0680090009820F00200801C62
:1054E000009005F1900050F824000099C160E1B2ED
:1054F0002846FFF7D2F800200090009820F0100016
:10550000103000900098B060082105F563700155D7
:1055100000200090009820F4806000F580600090EA
:105520000098B06075E00398C0F34000002870D088
:1055300005F1900050F82400C0680090009820F019
:105540000200009005F1900050F824000099C1601D
:1055500005F56370005D012815D1012105F29B302E
:1055600001550198C0F38140022848D105F56B70C0
:1055700000EB4410407E80F0010105F56B7000EBFC
:10558000441041763BE005F56370005D032804D1CB
:10559000022105F29B30015531E005F56370005D95
:1055A00004280FD105F56B7000EB44100079012839
:1055B00003D1E1B22846FFF743F8022105F29B3000
:1055C00001551CE005F56370005D052804D1042138
:1055D00005F29B30015512E005F56370005D062869
:1055E0000DD105F5457050F82400032807D103219B
:1055F00005F29B3001550021873840F82410002027
:105600000090009820F00200801C00900098B0608C
:1056100000BF012004B070BD7FB50446E068C06AD9
:1056200000900198C0F3C30104F56B7000EB4110CA
:105630000069C01CC0F38F0673E04FF6FF7100983D
:1056400001EA80050198C0F3C30104F56B7000EB1B
:1056500041100069A84215D20198C0F3C30104F5B6
:105660006B7000EB4110008A85B200200390039814
:1056700020F0200020300390E0688069039988437F
:10568000E16888610198C0F3C30104F56B7000EB19
:1056900041100069C01CC0F38F060198C0F3C3021B
:1056A000C0F3C30304F56B7000EB43102B46C168D5
:1056B000204600F039FA0198C0F3C30104F56B707D
:1056C00000EB4110C06841190198C0F3C30204F512
:1056D0006B7000EB4210C1600198C0F3C30104F588
:1056E0006B7000EB41100069411B0198C0F3C302CD
:1056F00004F56B7000EB421001610198C0F3C30127
:1057000004F56B7000EB4110406941190198C0F33A
:10571000C30204F56B7000EB42104161E068C06A9F
:105720000090009880B2B0420ADD0198C0F3C30136
:1057300004F56B7000EB4110006900287FF47DAF29
:10574000012004B070BD0000FEB50446002600250F
:105750000020009002900190D4F8CC0000680290E4
:10576000D4F8CC0000680190019820F0040001906A
:10577000019820F002000190019820F008000190AB
:10578000019820F0200001900298C0F3400058B129
:10579000019820F00200801C0190324800684168A6
:1057A0002046884745F001050298C0F3C000002854
:1057B00042D0019820F00800083001900298C0F310
:1057C0008000002838D02748006841682046884774
:1057D0000298C0F34140022804D00298C0F341402F
:1057E000012828D16069006800900298C0F3414008
:1057F000022811D141F2707160694160009800F097
:105800000300022818D0207A022803D10221204662
:10581000FFF79BF901260FE04BF68031606941608C
:10582000009800F00300012806D001212046FFF770
:105830008CF9012600E001260298C0F3401030B137
:10584000019820F020002030019045F0010516B1AC
:105850002046FFF7D0F90199D4F8CC000160284622
:10586000FEBD00006C000020FEB5044660690069C2
:1058700000900198C0F3C30104F56B7000EB411078
:105880000069C01CC0F38F0674E04FF6FF710098EA
:1058900001EA80050198C0F3C30104F56B7000EBC9
:1058A00041100069A84216D20198C0F3C30104F563
:1058B0006B7000EB4110008A85B2002002900298C4
:1058C00020F0806000F180600290E06880690299B9
:1058D0008843E16888610198C0F3C30104F56B70E7
:1058E00000EB41100069C01CC0F38F060198C0F3A3
:1058F000C302C0F3C30304F56B7000EB43102B46E7
:10590000C168204600F010F90198C0F3C30104F506
:105910006B7000EB4110C06841190198C0F3C302DD
:1059200004F56B7000EB4210C1600198C0F3C30135
:1059300004F56B7000EB41100069411B0198C0F346
:10594000C30204F56B7000EB421001610198C0F3D3
:10595000C30104F56B7000EB4110406941190198D7
:10596000C0F3C30204F56B7000EB42104161606943
:1059700000690090009880B2B0420ADD0198C0F33F
:10598000C30104F56B7000EB4110006900287FF43F
:105990007CAF0120FEBD30B585B0044600200090EC
:1059A0000390039820F0100010300390E0688069A5
:1059B00003998843E1688861E068006A049004986C
:1059C00000F00F00009004F190009DF8001050F8D6
:1059D0002100006801900498C0F34340022806D0DB
:1059E000032878D0052877D0072873D175E004986C
:1059F000C0F30A10002869DD04F56B709DF80010F3
:105A000000EB4110C068002860D00498C0F30A126F
:105A100004F56B709DF8003000EB4310C168204620
:105A2000FFF7D5F8049800F00F0104F56B7000EB58
:105A30004110C0680499C1F30A110144049800F0B0
:105A40000F0204F56B7000EB4210C160049800F087
:105A50000F0104F56B7000EB411040690499C1F32C
:105A60000A110144049800F00F0204F56B7000EB7A
:105A70004210416104F56B709DF8001000EB41107D
:105A8000456904F554709DF8001040F8215004F168
:105A900090009DF8001050F82100006902900298D3
:105AA000C0F3C940002811DD019820F0004000F14A
:105AB00000400190019820F08040019004F1900096
:105AC0009DF80020019950F82200016006E002E0F4
:105AD00002E0FFE700BF00BF00BF00BF00BF0398A8
