:020000040800F2
:10000000A80D00209D0100085B0E00085D07000898
:10001000590E000817030008F9400008000000000E
:100020000000000000000000000000006D14000847
:100030001903000800000000F50E0008B5010008D3
:10004000B7010008B7010008B7010008B7010008B0
:10005000B7010008B7010008B70100081D03000838
:10006000B7010008B7010008B7010008B701000890
:10007000B7010008B7010008B7010008B701000880
:10008000B7010008B7010008B7010008B701000870
:10009000B7010008B7010008B7010008B701000860
:1000A000B7010008B7010008B7010008B701000850
:1000B000A9150008B7010008B7010008B70100083A
:1000C000B7010008B7010008B7010008B701000830
:1000D000B7010008B7010008B7010008B701000820
:1000E000B7010008B7010008B7010008B701000810
:1000F000B7010008B7010008B7010008B701000800
:10010000B7010008B7010008B7010008B7010008EF
:10011000B7010008B7010008B7010008B7010008DF
:10012000B7010008B7010008B7010008B7010008CF
:10013000B7010008B7010008B7010008B7010008BF
:10014000B7010008B7010008B7010008B7010008AF
:10015000B7010008B7010008B7010008B70100089F
:10016000B7010008B7010008B7010008B70100088F
:10017000B7010008E90E0008B7010008B701000840
:10018000B7010008B7010008DFF80CD000F04AF80A
:1001900000480047FD450008A80D0020064880479C
:1001A00006480047FEE7FEE7FEE7FEE7FEE7FEE75C
:1001B000FEE7FEE7FEE7FEE74D15000889010008AF
:1001C0002DE9F05F0546002092469B46884606468C
:1001D000814640241BE0284641464746224600F01F
:1001E00042F853465A46C01A914110D31146184658
:1001F000224600F029F82D1A67EB01084F462246E7
:100200000120002100F020F817EB00094E41201ECC
:10021000A4F10104DFDC484631462A464346BDE8E6
:10022000F09F0000064C074D06E0E06840F0010337
:1002300094E8070098471034AC42F6D3FFF7A8FFC4
:10024000946D0008B46D0008202A04DB203A00FAFF
:1002500002F1002070479140C2F1200320FA03F31D
:10026000194390407047202A04DB203A21FA02F01B
:100270000021704721FA02F3D040C2F120029140E0
:10028000084319467047000010B5074C2060084627
:1002900000F00CF820680028FCD1BDE810400021D7
:1002A0004FF0804001F08FB9000000203EB50446B9
:1002B0004FF080450021284601F085F900220121F8
:1002C000284601F096F9022C02D0012C02D004E05D
:1002D0000B2001E042F6DF6001900520ADF8000040
:1002E0000020ADF80800ADF802006946284601F08C
:1002F00089F90121284601F063F90121284601F01E
:1003000055F901221146284601F073F901212846CA
:1003100001F059F93EBDFEE77047000010B502201C
:1003200000F016F8002809D00548D0F88000406990
:100330008047BDE81040022000F004B810BD000066
:10034000C40600200149086070470000143C0140C9
:10035000064A014600201268044B0A4014331B6809
:100360000B4202D0002A00D001207047003C01401F
:1003700030B51A498379026853B30B6893430B6015
:100380000A1D13680468A343136002790A441368C2
:10039000046823431360114A083213680468A343B6
:1003A0001360131D1C680568AC431C604479102C55
:1003B00005D021440A68006802430A6030BD116814
:1003C000046821431160196800680143196030BD59
:1003D0000079084401689143016030BD003C014050
:1003E0004FF0204202EB80000029016802D041F06A
:1003F000010101E0014A114001607047FEFF0F005A
:1004000030B5D0E901121143D0E903231A43114357
:1004100042690368114382691143C2691143026A48
:100420001143426A1143826A1143C26A1143026B4B
:1004300011434FF0204242F823108168082906D169
:10044000016802EB81010B6843F040030B60416BD4
:10045000D1E9003443EA04138C688D89240244EA0C
:10046000054423430C8A43EA04530C7D896943EA1B
:1004700004630B43016802EB81014B60C16AB1F573
:10048000804F07D000686FF0704102EB8000C0F829
:10049000041130BD816B0068D1E9003443EA0413D4
:1004A0008C680D8A240244EA055423430C7D896933
:1004B00043EA046302EB80000B43C0F8043130BD13
:1004C000F0B50023012403270D6804FA03F2154058
:1004D000954242D1D0F800C05E0007FA06F52CEA3A
:1004E000050CC0F800C091F804C0D0F800E00CFA88
:1004F00006FC4CEA0E0CC0F800C091F804C0BCF138
:10050000010F02D0BCF1020F1FD1D0F808C02CEAB5
:10051000050CC0F808C091F805C0D0F808E00CFA46
:1005200006FC4CEA0E0CC0F808C0D0F804C02CEA57
:10053000020CC0F804C0426891F806C00CFA03FC33
:100540001FFA8CFC42EA0C024260C268AA43C260F5
:10055000CA79C568B2402A43C2605B1C102BB3D372
:10056000F0BD4B07DB0E9A40C90810B500EB8100C7
:10057000016A0F249C40A1430162016A1143016298
:1005800010BD0246002012690A4200D001207047C7
:10059000418370474069806880B27047D0F8CC00D2
:1005A0000068C0F341407047084490F89B037047CF
:1005B00010B5044600221046C4F8102304EB820351
:1005C000C3F81403C3F85003A31883F88C03521C18
:1005D000D2B20F2AF2D30820A4F8B203204602F0C8
:1005E00007FD204602F00AFB204602F043FA0121F3
:1005F000204602F05FFD204602F07EFA204602F01F
:100600001FFB002010BDD0F81003704710B502F09A
:10061000DAFC002010BD0022431883F89B2300EB76
:100620004113C3F8C02302F01CBC70B504464FF45C
:10063000FC65284600F0D6FB284600F0B9FB5CB10B
:10064000012C0DD0022C0FD10A231822A621BDE8BF
:100650007040C92000F02EBA0A231822DC21F6E7E8
:100660000A2318227421F2E770BD70B504464FF6D4
:10067000FF75284600F0B6FB284600F099FB5CB1F8
:10068000012C0DD0022C0FD10A231822A621BDE87F
:100690007040C92000F00EBA0A231822DC21F6E7C8
:1006A0000A2318227421F2E770BD000070B50446D9
:1006B0000D464FF4FC6000F095FB002000F078FB45
:1006C00054EA050046D004EBD470234C218801EB9A
:1006D000600000B22080628805EBD57102EB6101F9
:1006E00009B261804E2901DD4E216180762801DD4D
:1006F00076202080B4F902100220022900DA6080FE
:10070000B4F90010022900DA2080B4F9040048B1DD
:10071000B4F9062032B1C0F1DC0081B2643290B28B
:10072000202206E0B4F90610084304D12022DB2180
:10073000652000F055F9B4F900007822C0F1DC0022
:1007400081B26088643080B200F04AF92088A080CD
:100750006088E08070BD000054000020FEE70000CB
:100760002DE9F047374C00221346A270E270227147
:100770006270017802290CD020290AD0227000254D
:100780000221465C012E07D0022E05D0032E03D095
:1007900003E001212170F2E70125491CC9B20829B3
:1007A000EFD3012D3DD0DFF89C90A27009F10B0929
:1007B000A9F10606E270022106F10C0510F801C04D
:1007C000BCF1000F1CD0A77806F807C07F1CA770EB
:1007D000002707E010F801C015F80780C44503D0D2
:1007E0007F1CFFB29F42F5D39F4209D194F803804A
:1007F00010F801C009F808C008F1010884F8038066
:10080000491CC9B20829D9D3E07801280BD06270FD
:10081000A07820710020315C2954401CC0B2062809
:10082000F9D3BDE8F08799F8000007496070227895
:10083000085C012A04D0E831085C03F0A1FBE7E77B
:100840000249F9E79C0000207A470008E4480008C4
:1008500003F042BB30B50546002440F23F1120466C
:1008600000F0AEFA4FF0D041222008804FF49630CD
:100870004D80641C8442FBD330BD000070B5064639
:1008800040F23F14084D08E020222146304600F097
:10089000A7F868688088201A84B26968601C80B2F2
:1008A00089888842F0D270BDF40000201CB5012177
:1008B000782000F021FB4CF23370009002208DF87C
:1008C00004008DF8050000208DF80600404C8DF8DE
:1008D000070069462046FFF7F3FD0C220021204661
:1008E000FFF73FFE0C2201212046FFF73AFE0C22C3
:1008F00004212046FFF735FE0C2205212046FFF794
:1009000030FE0C2208212046FFF72BFE0C22092185
:100910002046FFF726FE0C220A212046FFF721FE83
:100920000C220E212046FFF71CFE0C220F21204630
:10093000FFF717FE4FF68070264C00906946204660
:10094000FFF7BEFD0C2207212046FFF70AFE0C220E
:1009500008212046FFF705FE0C2209212046FFF75B
:1009600000FE0C220A212046FFF7FBFD0C220B2182
:100970002046FFF7F6FD0C2211462046FFF7F1FD59
:100980000C220D212046FFF7ECFD0C220E21204603
:10099000FFF7E7FD0C220F212046FFF7E2FD0120C3
:1009A0000D4C009069462046FFF78AFD0C2200217D
:1009B0002046FFF7D6FD2015084C009069462046DA
:1009C000FFF77EFD0C220A212046FFF7CAFD1CBD61
:1009D000000C0240001002400014024000180240C7
:1009E000064B10B45B68203AD2B21C68DB885343D4
:1009F00004EB430210BC00F01FB80000F40000201C
:100A0000F0B50D46074640F23F140A4E08E0214675
:100A10003846FFF7E5FF70688088201A84B26D1CA5
:100A20002A78002A05D07168601C80B289888842C3
:100A3000EDD2F0BDF40000202DE9F0439046894648
:100A40000026054600F0BCF94FF0D047184C29E0CD
:100A50002220388000201BE00C23B1FBF3F34FEA87
:100A6000C30C802303FA0CF338F816C0034113EAD1
:100A70000C0F01D10C2906D9012383401CEA030F76
:100A800003D10C2901D9618800E021887980401CBC
:100A900091888142E0D86D1CADB24946284600F0ED
:100AA0008FF9761C6268D088B042D1D8BDE8F08357
:100AB000F40000202DE9F843244C05461E4620880A
:100AC00017468846ADF80000BDF8000020800023DE
:100AD000284600F03DF8A81980B200233A46414666
:100AE00000F036F8012332464146284600F030F83F
:100AF000A8EB0700401C81B201233246284600F0D3
:100B000027F8BF1E1FFA87F9A8F1010087B2761EE9
:100B10006088B6B2ADF80000BDF80000208007E0A4
:100B20006D1CA8B2054600234A46394600F010F86D
:100B30003000A6F10106B6B2F2D12088ADF800006F
:100B4000BDF800002080BDE8F8830000F40000201C
:100B50002DE9F047984617468A460646002400F0DD
:100B60002FF9222110484FF0D045B8F1000F02D0E4
:100B70008946804614E0298002E001886980641C6F
:100B8000BC42FAD3BDE8F087A5F80090B8F80000A1
:100B90006880761CB6B25146304600F011F9641CEC
:100BA000BC42F1D3EEE70000F4000020F0B51C4693
:100BB00015460F46064600232246FFF7C9FF701967
:100BC00080B2002322463946FFF7C2FF01232A469E
:100BD00039463046FFF7BCFF381B401C81B22A461D
:100BE0003046BDE8F0400123FFF7B2BF00B5012158
:100BF00097B0084600F08CF905200F9000200921DD
:100C0000CDE91001149004211590CDE90010129047
:100C10001021CDE90201139004900590069009027D
:100C20000790CDE908010A900B900C900FA80D9049
:100C30000E906846FFF7E4FB01210420FFF7D0FB8C
:100C400017B000BD0148406870470000F400002064
:100C500070B50024FFF7F6FF0546E11CE88848431D
:100C600080B2FFF70BFE641CE4B20C2CF5D3BDE898
:100C7000704000F001B8000008484FF6FF71818015
:100C80000021C180018141818181C18101220270E5
:100C900041708170C170018270470000B400002073
:100CA00010B5FFF7E9FFBDE810400020FFF7D2BD07
:100CB00070B505468AB01F2000F07AF8FFF7C2FF32
:100CC0000446002069464FF4A072202302E00B5432
:100CD000401CC0B2A688B2FBF6F6761E8642F6DC51
:100CE000A088B2FBF0F00844002100F8011CE08865
:100CF0006946C0F1F00080B2FFF782FEE088294625
:100D0000C0F1F00080B2FFF77BFE002000F050F849
:100D10000AB070BD70B588B00021034600E0491CE0
:100D200013F8012B002AFAD11A2900D91A2100221E
:100D300020246B469C54521C1B2AFBD30022C1F179
:100D40001B0404E0855C02EB5406521C9D558A424C
:100D5000F8D30020FFF77EFD104800F03DF8FFF7C4
:100D600071FF04464FF6FF75284600F03BF81F2040
:100D700000F01EF80020FFF781FDE0886946FFF7CC
:100D80003FFEE08805EA4000FFF778FD002000F014
:100D90000FF8034800F020F808B070BD04010020EF
:100DA0000C0100204FF0D0410880488870470000B7
:100DB00001B5BDF800000149488008BDF4000020DD
:100DC0000B4600B50146202000F014F819462120FA
:100DD0005DF804EB00F00EB8014948607047000070
:100DE000F400002001B5BDF800000149088008BDED
:100DF000F40000204FF0D042108051807047000076
:100E00001CB50121042000F077F808200090012093
:100E10008DF8040000208DF8060003218DF80510E0
:100E2000054C8DF8070069462046FFF749FB08216D
:100E30002046FFF7ADFB1CBD0008024004490278C4
:100E4000CA7042780A7080784870084603F028B962
:100E50007C00002003F0C6B8FEE7704770B50F2194
:100E6000C478027801234FF0E026E4B1124C2468E4
:100E700004F4E064C4F5E064C4F30724C4F1040599
:100E8000E1404478AC4085780D4025430B4C290166
:100E90001155007800F01F018B40400906EB8000DF
:100EA000C0F8003170BD02F01F008340500906EB0E
:100EB0008000C0F8803170BD0CED00E000E400E07F
:100EC0000249084302490860704700000000FA0523
:100ED0000CED00E0024A11400143024801607047F6
:100EE00080FFFF1F08ED00E0014801F0D6B80000C8
:100EF0001801002070470000044A0029116801D041
:100F0000014300E081431160704700003038024027
:100F1000044A0029116801D0014300E081431160B7
:100F20007047000038380240044A0029116801D097
:100F3000014300E0814311607047000040380240E7
:100F4000044A0029116801D0014300E08143116087
:100F500070470000443802402DE9F84F002000900F
:100F6000FFF7A4FCFFF742FE052003F02FFB002053
:100F7000FFF718FFA0F513414FF480774FF4E065B9
:100F800040F2022341F2B07640F2371840F23919AC
:100F90004FF4E85A40F23F1B41F218040090203908
:100FA0007ED1F901E520FFF725FF01210020FFF7A1
:100FB00021FF39460120FFF71DFF29460220FFF7D8
:100FC00019FF41F230010320FFF714FF0021042034
:100FD000FFF710FF19460820FFF70CFF002109203A
:100FE000FFF708FF00210A20FFF704FF00210C2073
:100FF000FFF700FF00210D20FFF7FCFE00210F206E
:10100000FFF7F8FE00211020FFF7F4FE0021112069
:10101000FFF7F0FE00211220FFF7ECFE0021132065
:10102000FFF7E8FE142003F0D1FA31461020FFF755
:10103000E1FE41461120FFF7DDFE052003F0C6FA70
:1010400049461220FFF7D6FE052003F0BFFA5146AD
:101050001320FFF7CFFE13212920FFF7CBFE052039
:1010600003F0B4FA00212020FFF7C4FE0021212064
:10107000FFF7C0FE07213020FFF7BCFE072131201B
:10108000FFF7B8FE07213220FFF7B4FE0721352015
:10109000FFF7B0FE07213620FFF7ACFE294600E03F
:1010A00068E03720FFF7A6FE29463820FFF7A2FEAA
:1010B00029463920FFF79EFE29463C20FFF79AFE7D
:1010C0004FF4F8513D20FFF795FE00215020FFF727
:1010D00091FEEF215120FFF78DFE00215220FFF7F6
:1010E00089FE59465320FFF785FE4FF41C516020BE
:1010F000FFF780FE01216120FFF77CFE00216A20BE
:10110000FFF778FE00218020FFF774FE0021812088
:10111000FFF770FE00218220FFF76CFE0021832084
:10112000FFF768FE00218420FFF764FE0021852080
:10113000FFF760FE10219020FFF75CFE0021922057
:10114000FFF758FE03219320FFF754FE4FF48871F8
:101150009520FFF74FFE00219720FFF74BFE00215F
:101160009820FFF747FE21460320FFF743FE40F299
:101170007311EDE0A0F5134125397DD10121002047
:10118000FFF738FE39460120FFF734FE29460220DA
:10119000FFF730FE21460320FFF72CFE002104203C
:1011A000FFF728FE19460820FFF724FE002109203A
:1011B000FFF720FE00210A20FFF71CFE00210C2073
:1011C000FFF718FE00210D20FFF714FE00210F206D
:1011D000FFF710FE00211020FFF70CFE0021112068
:1011E000FFF708FE00211220FFF704FE0021132064
:1011F000FFF700FE142003F0E9F931461020FFF755
:10120000F9FD41461120FFF7F5FD052003F0DEF959
:1012100049461220FFF7EEFD052003F0D7F95146AD
:101220001320FFF7E7FD13212920FFF7E3FD052039
:1012300003F0CCF900212020FFF7DCFD0021212064
:10124000FFF7D8FD07213020FFF7D4FD40F202312F
:101250003120FFF7CFFD40F2051319463220FFF78A
:10126000C9FD40F2062529463520FFF7C3FD40F6AB
:1012700008063146362000E06DE0FFF7BBFD294649
:101280003720FFF7B7FD40F204513820FFF7B2FDD9
:1012900007213920FFF7AEFD19463C20FFF7AAFDD4
:1012A00031463D20FFF7A6FD00215020FFF7A2FDAB
:1012B000EF215120FFF79EFD00215220FFF79AFDFC
:1012C00059465320FFF796FD4FF427416020FFF762
:1012D00091FD01216120FFF78DFD00216A20FFF7BC
:1012E00089FD00218020FFF785FD00218120FFF787
:1012F00081FD00218220FFF77DFD00218320FFF783
:1013000079FD00218420FFF775FD00218520FFF77E
:1013100071FD10219020FFF76DFD00219220FFF755
:1013200069FD03219320FFF765FD4FF48871952037
:10133000FFF760FD00219720FFF75CFD002198205A
:10134000FFF758FD21460320FFF754FD40F233110B
:101350000720FFF74FFD0348A0F108014860BDE8F2
:10136000F88F0000FC0000201CB504460E48012147
:1013700050F82400FFF7C0FD0B4800210A3830F870
:101380001400009001208DF804008DF806108DF8EF
:10139000070002208DF805000448694650F8240033
:1013A000FFF78EF81CBD0000A8490008D8000020F7
:1013B0000349044A31F8101052F82000FFF7E1B851
:1013C00080490008E800002070B5044625480E4614
:1013D00086B050F824000121FFF78EFD012188031B
:1013E000FFF7AEFD1F4800258DF8105038388DF8F6
:1013F000135030F8140003901B4803A950F8240040
:10140000FFF75EF8012E2BD11648263810F814107D
:10141000801F10F8140000F02BF81248323830F812
:10142000140000908DF804500CB10C2000E008204E
:101430008DF8050001258DF806506846FEF798FFE7
:101440000848203810F814008DF808000F208DF897
:1014500009008DF80A008DF80B5002A8FFF7FEFC7A
:1014600006B070BDB8490008E800002070470000D1
:1014700010B58A0721F003040649130F21440F22F7
:101480000C689A4094430C600A68984002430A60D2
:1014900010BD0000083801400CB50020274901901C
:1014A00000900A6842F480320A604FF4A0630A6830
:1014B00002F400320092019A521C0192009A12B971
:1014C000019A9A42F3D10A68920334D50120009020
:1014D0001A484030026842F08052026018480268A0
:1014E00042F48042026015480830026802600268D7
:1014F00042F400420260026842F4A0520260031FFC
:10150000104A1A600A6842F080720A600A68920102
:10151000FCD50D4A40F205611160016821F003011C
:101520000160016841F0020101600168C1F38101BD
:101530000229FAD10CBD00900CBD00000038024019
:101540000070004008544007003C0240124810B5AB
:10155000016841F4700101601048016841F0010127
:1015600001600E4A00210832116002680C4B1A40DB
:101570000260031D0B4A1A60026822F48022026096
:1015800006480C300160FFF787FF03494FF0006009
:101590008039086010BD000088ED00E0003802408E
:1015A000FFFFF6FE1030002401F042BA0029018846
:1015B00002D041F0800101E021F0800101807047FC
:1015C000C943018270470029018802D041F001011E
:1015D00001E021F001010180704702460020138ADA
:1015E00092890B4202EA010202D0002A00D00120B7
:1015F0007047002A828901D00A4300E08A43828131
:101600007047000030B50288164B174C98420DD039
:10161000A0420BD0B0F1804F08D0144DA84205D0A5
:10162000134DA84202D0134DA84203D122F07005F9
:101630004A882A43104DA84206D0104DA84203D034
:1016400022F440750A892A4302804A68C2620A88E5
:101650000285984201D0A04201D1897A01860121F8
:10166000818230BD000001400004014000040040C0
:1016700000080040000C0040001000400014004032
:1016800010B500224FF6FF7300EB4204B4F88C450E
:10169000240409D49A4205D000EB420041F40041F1
:1016A000A0F88C15D0B210BD521CD2B2082AEBD3D0
:1016B0001A46F7E730B402240C7501244C75002457
:1016C000CC820A8315064C8300EB431202D582F8C4
:1016D000C44301E082F8C543002330BC1A4600F041
:1016E00016B80121C0F810130020704770B500EB48
:1016F000431404F56C74012504F8025C022525717D
:10170000C4E902121946FEF786FF002070BD30B50D
:101710000120CD780446012D0BD0022D08D10A7F7F
:101720000D2A10D00B2A12D00C2A01D1CC70032024
:1017300030BD0D784D7007250D708A608B810C7758
:101740000222CA7030BDCC700020087730BDCC704A
:10175000022030BD70B500EB4314002584F8AE5371
:10176000C4E9EE121AB194F8C51359B102E001218F
:1017700084F8C513022184F8B4131946FEF74BFF11
:10178000002070BD84F8B453F7E710B500EB4213A6
:1017900003F56C73002403F8024C03241C71996058
:1017A0000821D9601146FEF736FFC0B210BD0221F4
:1017B000002200EB4103491CC9B2A3F88C2508297B
:1017C000F7D30020704770B50C460021217061707E
:1017D000A17001220546E27022774020A07184F8B2
:1017E000201084F821202179284600F021F8617921
:1017F000284600F01DF8002070BD0021C0F810132D
:101800000846704770B50A25044605290AD0042900
:1018100008D006290BD12570D0F880000068BDE8FB
:1018200070400047D4F88000406C8047257070BD40
:10183000082908D200EB410101F28C50B1F88C1557
:10184000C1F30E0101800020704730B442F08002E5
:10185000DDE902540A7506224A750322CB82B2EBF7
:10186000132F02D140F2094200E000220A834C8388
:1018700023462A4630BCFFF74ABF0A8803781A4439
:101880000A800178084470472DE9FC47174600F5A7
:101890008878CDE90087002406460D464FF4007392
:1018A0002246FFF7D2FF5FEA000907D013E03119A3
:1018B00091F810110155641CA4B200E00748BC4225
:1018C000F5D3434605F1500205F13E0105F1340020
:1018D000009700F05FFC4846BDE8FC874807002001
:1018E0007CB51646044600F58870CDE900060D4625
:1018F0004FF4807300222046FFF7A7FF002830D165
:1019000004F58874082E217805F8221F6178697023
:10191000A178E27801EB022169802179297161794E
:101920006971A179A971E179A4F58874E97118D96F
:1019300004F58C742178627801EB02212981A17869
:10194000E27801EB022169812179627901EB0221C0
:10195000A981A179A973E179E973217A2974617A5E
:1019600069747CBD7CB51E46069D00F5887442F402
:1019700040730022CDE90045FFF767FF002814D12E
:101980006178032911D121788A1EAA4200DC15460C
:10199000A41CAAB2002104E0635C891C06F8013B88
:1019A00089B29142F8D3002131707CBD2DE9FC4110
:1019B000364D0446012695F845E000F5887C212245
:1019C00000203746BEF1050F5CD2DFE80EF0032899
:1019D00003384A000922CDE900C220464FF40453DF
:1019E0000122FFF732FF48BB284804F588745430C1
:1019F0002178017061784170A178E27801EB0221D1
:101A000041802179017161794171A1798171E17917
:101A1000227A01EB0221018185F8457032E01B4AF0
:101A2000204654324FF408531289CDE900C20122F6
:101A3000FFF70BFF10B9032085F8450022E00A7577
:101A40000A224A75C8820883488300231A46204622
:101A5000FFF75DFE042108B1032813D185F8451076
:101A600010E00A750B224A75CF82A446088304460B
:101A7000488300231A466046FFF749FE10B985F8EF
:101A8000454000263046BDE8FC81000048090020A2
:101A90002DE9F0472E4C81460F4694F842004FF056
:101AA0000008032638B12B4D032810D0042808D095
:101AB00005284AD11BE0206D00688047042084F887
:101AC0004200484601F054FA01283CD03DE014F8A9
:101AD000403F1F49A279484600F0ADFA0120287026
:101AE0000520A0704846FEF755FDA0812DE0484630
:101AF000FEF750FDB4F84C10401AB4F84A10884272
:101B000021D294F840104846FEF74EFD012807D038
:101B100094F840104846FEF747FD04280AD014E028
:101B20002878012811D100202870206D41680848CC
:101B300088470AE094F8403094F8482039464846EF
:101B4000FFF7B8FD08B984F842604046BDE8F08769
:101B5000480900208000002070B50F4C0646002583
:101B600094F8401041B101F0E8F894F84010304684
:101B7000FFF75EFE84F8405094F8411041B13046C2
:101B800001F0DBF814F8411F3046FFF751FE2570D5
:101B90000248057070BD0000480900208000002048
:101BA0002DE9FC47344D8246062085F8420091F825
:101BB0004400002601270C46012806D0D1F88000F9
:101BC000006C80473846BDE8FC8794F84500012842
:101BD00002D0022802D003E0284800E02848286507
:101BE0004FF0000905F8429F85F8039014F8520F52
:101BF000A8716088A88020792881523C423D0A283B
:101C000002D20A20A5F84A0094F84270022F2CD97B
:101C10005FF0020704EBC6004FF0030890F8521083
:101C20000A060BD54035297190F852105046FFF73F
:101C300027FD28700146E888403D0BE085F84310F9
:101C400090F852105046FFF71BFD85F84100014601
:101C5000B5F84600CDE9008094F8213094F82020B2
:101C6000504600F06EFA761CF6B2BE42D2D3054959
:101C700081F800900027A5E7480900209400002083
:101C800074000020800000202DE9F05F00260C4643
:101C90008E748046097F0B2509270120DFF8B89153
:101CA0004FF0080B4FF0050A0C2917D2DFE801F0BE
:101CB000D1060E39415A677B84A3B4C4627904F11A
:101CC00014014046FFF761FD0220BBE06179404608
:101CD000FEF76AFC012802D003281ED0B9E0207D5F
:101CE000618B00F0800051B141F28832A9F80020E8
:101CF000802802D084F81CA008E0032005E03222EE
:101D0000A9F80020802806D0072020774046FEF75B
:101D100041FC20829DE02777F8E7257784F812A020
:101D200097E02379A2894046A168FFF7DFFC0420F1
:101D300088E021794046FEF737FC01280DD00428C1
:101D40000DD0032876D04046FEF724FC218A411AA4
:101D5000B9F8000081426DD87BE02777F3E760781F
:101D6000207076E0627908EB421181F8C50363794F
:101D7000A2894046A168FFF7EDFC062062E0617988
:101D80004046FEF711FC012804D0042804D00228A4
:101D900006D049E0072055E0607820700C2051E023
:101DA00084F81CA055E00022237911464046FFF735
:101DB0009DFC84F81CB04CE021794046FEF7F4FB12
:101DC000074601280DD0032F34D04046FEF7E2FB32
:101DD000218A411AB9F8000081422BD8042F04D07F
:101DE00037E0607820700D202CE0607820700420AF
:101DF000A07403262DE06179002208EB411090F8D1
:101E0000C51381F0010180F8C5136379114640467E
:101E1000FFF7A0FC0A2015E061794046FEF7C4FBFD
:101E20000128DED0022803D0032803D011E001E00E
:101E300027770EE025770CE0A17B491CC9B2A1737E
:101E4000022901D8207704E084F812B0607820706D
:101E500002263046BDE8F09F700000202DE9F041D9
:101E60000C468046012589780027FF2092B02E4637
:101E70000A2955D2DFE801F0052332555E70839BB5
:101E8000AEB8082221464046FFF72AFD002847D178
:101E900094F82900A0714046FEF7B8FBA670A0791F
:101EA0000023CDE9007061791A46404600F0DCF865
:101EB000A0790023CDE9007021791A462DE0122285
:101EC00021464046FFF70CFD002829D1D4F88000B8
:101ED000C16904F122008847022083E001222146E3
:101EE000404600F0BEFA00287FD1022000F0BCFD81
:101EF000A41CA677D4F87E00006A804703202070D7
:101F000000970197A27FA1780023404600F0ACF82B
:101F100000970197A27FE1780023404600F0A4F8E3
:101F200063E0092221464046FFF7AEFC00285CD161
:101F3000042057E0E28E21464046FFF7A5FC70BB27
:101F4000D4F8800004F1500204F13E01436A04F128
:101F500034009847052045E094F83020062652B119
:101F6000009002AB21464046FFF7FCFCB8B9D4F81C
:101F70008000816A11E0D4F88000816A13E094F84F
:101F80003120072662B1009002AB21464046FFF7A0
:101F9000E9FC20B9D4F88000C16A02A804E024E07A
:101FA000D4F88000C16A13A08847A6701DE094F899
:101FB0003220082652B1009002AB21464046FFF77E
:101FC000D1FC90B9D4F88000016BE6E7D4F880002A
:101FD000016BE8E794F839202146404600F04DFABD
:101FE00018B90920A07000E0002512B02846BDE80D
:101FF000F08100004E2F41002DE9F0411D461446AE
:102000000F468046069E00F057FC002000F03DFC85
:1020100021464046FFF7D7FB7C343946C4E90056D9
:102020004046FEF7C5FA6068006880474046BDE854
:10203000F04100F02CBC70B500EB4314012584F88E
:10204000AE53C4E9EE1294F8C41359B1022284F8D5
:10205000B42381F0010184F8C4131946FEF7DBFABA
:10206000002070BD0022F2E770B500EB4114059D21
:102070000AB184F8AC23B4F8B223AA4202D00DB15D
:10208000A4F8B25394F8AF239A4202D00BB184F86B
:10209000AF3300F070FE002070BD38B50546002457
:1020A00000200090284600F069FF002847D028460D
:1020B00000F06BFF0090009808B9002038BD009830
:1020C000C0F3C00018B1284601F0DCFE04430098BC
:1020D000C0F3001018B1284601F021FE0443009817
:1020E000C0F3401018B1284601F05AFC0443009890
:1020F000C0F3806018B1284601F07AFD04430098CF
:10210000C0F3406018B1284601F023F8044300985A
:10211000C0F3006018B1284601F0DAFC04430098CF
:10212000C0F3407018B1284600F0DAFF044300986D
:10213000C0F3405018B1284600F0E8FF04432046A1
:10214000BCE72DE9F04100EB4104DDE9066704F24C
:102150008C5594F88C4504F07F0C00EB411404F589
:102160006B7484F801C02D78C5F3C015A57022707A
:102170006671E780E370002222766276A4F56B74C4
:1021800013B9012284F8B02300F0F5FD0020BDE86A
:10219000F08100002DE9FF4F85B0054619781298AF
:1021A00029705978697092469978DA781C4601EB63
:1021B00002216980197929715A796A719A79AA710B
:1021C000DA79EA71227A2A7209286DD90920DFF8B2
:1021D000E080ADF80C0002295CD960E003A920463C
:1021E000FFF74BFB04464078042853D194F9027062
:1021F000069807EBC70101EB000BE078032849D2F2
:102200002146684600F056F89DF804000026022892
:1022100040D83BE003A92046FFF72FFB0446407857
:10222000052833D10AEB071000EBC60998F8000027
:10223000B84202D088F8007007E02079617900EB9D
:102240000121B8F80200814224D36946584600F0C3
:1022500031F8217889F80010617889F80110A178A7
:1022600089F80210E17889F8031021796279761CE7
:1022700001EB0221A9F80410A17989F80610207950
:10228000617976B200EB0120A8F802009DF8040005
:10229000B042BFDC6888BDF80C1088429ED800218F
:1022A000A8F8021088F8001009B0BDE8F08F00000F
:1022B0005C0000200A7802704A7842708A78827046
:1022C000CA78C2700A7902714A7942718A79827138
:1022D000CA79C271097A017270472DE9FC41022561
:1022E0000C4607468DF80050FEF78DF920B920788E
:1022F00010B1022800D025702078002604F12005B6
:102300000B2847D2DFE800F0061295464864777F35
:10231000544685003846FEF776F900283AD0012069
:102320002070BDE8FC41642000F09EBBD4F8800022
:102330008068804700213846FFF7A2F9607180214C
:102340003846FFF79DF920713846FEF75FF90028FF
:1023500020D1241DE06FC06880473846FEF71EF983
:10236000C0B26077042104F8041CE16F89698847D2
:10237000A078CDE90060637F227F21783846FFF79F
:10238000E0FEA078CDE90060637F227F6178384667
:10239000FFF7D7FEBDE8FC8121463846FFF75EFD1A
:1023A0000028F7D1D4F88000406B804708200DE06A
:1023B000D4F88000806B80470128EBD1E06F214684
:1023C0000268384690470028E4D105202070E1E7F4
:1023D000E06F21468268384690478DF800009DF8EE
:1023E000000008B90620F1E79DF800102046BDE87E
:1023F000FC41FFF707BAE06F2146C26838469047B4
:102400008DF80000F0E721463846BDE8FC41FFF7B3
:102410003BBC21463846FFF7D6F9D4F88000406827
:102420008047E06F2946426802B03846BDE8F04177
:102430001047D4F880000069804721463846FFF7EE
:10244000C2F9D4F8800040688047E06F29464268AE
:10245000384690473846FFF7AAF926709AE70020D9
:10246000704730B400230B7505244C75CA820B836A
:102470004B8330BC1A46FFF74AB930B400230B75C2
:1024800009244C75CA820B834B8330BC1A46FFF774
:102490003EB900004A7908494FF6FF70082A05D076
:1024A000032A07D10880054801F028BE08800348A8
:1024B0002138F9E770470000B80000200E470008F7
:1024C000704770474FF6FF7002490880024801F0DC
:1024D00015BE0000B80000204046000870B500207E
:1024E000FEF766FC0020FEF77DFCFEF7B1FB8023C3
:1024F0005A22DC216420FEF759FB4FF6FF7528466F
:10250000FEF770FC09A1C620FEF77AFA07A1D220D7
:10251000FEF776FA0E4C4FF4784020800DA001F0C3
:10252000EDFD0E4801F0EAFD258070BD2020202041
:10253000202020202020202020202020202020209B
:1025400020202020202020202020202020202000AB
:10255000B80000204552524F523A2000534600081E
:1025600003494FF6FF70088002A001F0C7BD0000CC
:10257000B80000203E20446576696365206E6F7464
:1025800020737570706F727465642E0A000000000D
:102590004FF6FF710A4A38B1012809D0022811808C
:1025A0000AD0084801F0AABD064811805938F9E759
:1025B000044811803B38F5E702481D38F2E7000077
:1025C000B8000020DC46000870B58EB004460289D1
:1025D0000AA1684601F0A2FD0C4E4FF6FF75684651
:1025E000358001F08BFD628909A1684601F096FDF6
:1025F0003580684601F082FD0EB070BD564944201A
:102600003A2025303458680A00000000B800002045
:10261000504944203A2025303458680A0000000010
:1026200010B50C484FF6FF7404800B4801F066FDAE
:102630004FF4FC60FEF7D6FB08A1C620FEF7E0F9D8
:102640000FA1D220FEF7DCF92046BDE81040FEF7CE
:10265000C9BB0000B80000206A460008546F207310
:1026600074617274207468652048494420636C6109
:102670007373206F7065726174696F6E733A2000B6
:102680005072657373204B65792E2E2E20202020EA
:10269000202020202020202020202020202020203A
:1026A00020202000154810B54178002924D10121AF
:1026B00041700020FEF758FE0120FEF755FE022073
:1026C000FEF752FE0320FEF74FFE00210220FEF728
:1026D0007BFEFEF741FCFEF7E3FA09A0FEF71AFBCA
:1026E0000D494FF6FF7008800CA001F007FDBDE812
:1026F000104012A0FEF7DCBA10BD0000040000205C
:1027000020555342204F54472048532048494420E5
:10271000486F737400000000B80000203E2055533D
:102720004220486F7374206C696272617279207301
:102730007461727465642E0A00000000202020205D
:102740002055534220486F7374204C696272617245
:10275000792076322E312E300000000000B599B07D
:10276000024606A1684601F0D9FC09494FF6FF7000
:102770000880684601F0C2FC19B000BD4D616E755D
:102780006661637475726572203A2025730A0000D1
:10279000B800002010B5074C4FF47840208006A008
:1027A00001F0ACFC06A001F0A9FC4FF6FF70208000
:1027B00010BD0000B80000204552524F523A200090
:1027C0004F76657263757272656E742064657465A8
:1027D000637465642E0A000000B599B0024606A134
:1027E000684601F09BFC08494FF6FF700880684678
:1027F00001F084FC19B000BD50726F6475637420E1
:102800003A2025730A000000B8000020704700003D
:1028100000B599B0024606A1684601F07FFC09495F
:102820004FF6FF700880684601F068FC19B000BDE3
:1028300053657269616C204E756D626572203A2035
:1028400025730A00B800002010B5074C4FF47840FB
:10285000208006A001F052FC064801F04FFC4FF624
:10286000FF70208010BD0000B80000204552524F7C
:10287000523A20005F47000810B500240220FEF7FE
:1028800097FD00B90124204610BD7047704708B578
:102890004FF4C060FEF714FB4D208DF800000120BE
:1028A0008DF8010003218DF802108DF803006846B1
:1028B000FEF7D4FA08BD00002DE9FE4F012140F2D9
:1028C0008710FEF719FB554F0A2203213846FDF702
:1028D00048FE0A2205213846FDF743FEDFF8408115
:1028E0000A2200214046FDF73CFE0A220121404613
:1028F000FDF737FE0A2205214046FDF732FE0A2287
:1029000011464046FDF72DFE0A220B214046FDF7F9
:1029100028FE0A220C214046FDF723FE0A220D2143
:102920004046FDF71EFEDFF8FCA00A2204215046B7
:10293000FDF717FEDFF8F0B00A220B215846FDF72D
:1029400010FEDFF8E8900A2200214846FDF709FE54
:102950002020032400908DF8054002258DF80450B6
:1029600069463846FDF7ACFD8DF8054008208DF826
:102970000450002600908DF806608DF807606946C7
:102980003846FDF79DFD8DF8054043F623408DF850
:10299000045000908DF806608DF807606946404647
:1029A000FDF78EFD01268DF8054000968DF8045048
:1029B00069464846FDF784FD102000908DF80540DB
:1029C0008DF8045069465046FDF77AFDA802009044
:1029D0008DF805408DF8045069465846FDF770FDA6
:1029E00001216007FEF788FA0021A806FEF772FAB7
:1029F0004FF4A060FEF764FA1C208DF808008DF8F3
:102A000009608DF80A608DF80B6002A8FEF726FABF
:102A100001210846FEF788FABDE8FE8F000002405B
:102A200000040240001C0240002002400008024056
:102A300010B501218C072046FEF7CFFD002809D0F4
:102A400001212046FEF7BCFD0649086818B1086858
:102A5000401E086010BD2046BDE810400021FEF772
:102A6000B2BD0000000000200121FDF70DBC0221D5
:102A7000FDF70ABC70B50446017A0025C06801293B
:102A800015D0C16841F04001C160204600F08AF8CD
:102A9000617A4FF4341009B14FF47410E16888631F
:102AA0001420FFF7E1FFE07801281BD022E0816BC2
:102AB000627A21F480310AB141F480118163E068C7
:102AC000C16821F0401121F4202141F48011C1603E
:102AD000204600F067F8E07801280BD1E1682A2051
:102AE0008860E0E7E068816821F01E010A3141F06A
:102AF00020018160284670BD2DE9F0410027044681
:102B00003E463D46FFF7C1FED4F80C010560207A31
:102B100001280ED00121204600F024FA204600F0C2
:102B200052FA6069016821F004010160E07A10B195
:102B300017E00021EFE7E0684FF40071416228469A
:102B400061F30F00E268491061F31F4090624FF497
:102B50004072284662F30F0061F31F40E168C1F83C
:102B600000011021204600F0B3F8204600F094F850
:102B70004FF0FF3108E000BF04EB860050F8902FC3
:102B800091600068C560761C2078B042F4D80121BD
:102B9000204600F03BF8204600F05AF83846BDE8E1
:102BA000F0810000F8B5002704463E460097124D1C
:102BB0000320FFF75CFFE06800690090761CAE42DE
:102BC00001D90020F8BD00980028F1DA0099002012
:102BD00041F0010100910099E2681161E1680A6920
:102BE0000092401CA84202D8009AD207F7D10320D5
:102BF000FFF73DFF3846F8BD400D0300C0680021D7
:102C0000826822F0010282600846704770B50C4667
:102C10000546FFF73BFE284600F0BCF9C10404D48A
:102C2000012C08D140F4805002E024B920F48050F7
:102C3000D5F8CC100860BDE87040C820FFF714BF7D
:102C4000C0680021826842F0010282600846704735
:102C500010B5C368002211469A61C468531E6361AF
:102C6000C4686360C4686FF080436361C468094BE3
:102C7000A361C37803B91021C06841F00C5141F041
:102C80000801836941F400118B430B4383611046B3
:102C900010BD00000008008038B5002421460094D3
:102CA000009A42F010020092009AC3681A61074A23
:102CB000C06803690093491C914202D8009BDB065F
:102CC000F7D40320FFF7D3FE204638BD400D0300A4
:102CD00038B5002422460094009B43F02003009363
:102CE000009B61F38A1300930099C3681961074937
:102CF000C06803690093521C8A4202D8009B9B065D
:102D0000F7D40320FFF7B3FE204638BD400D030083
:102D100010B500EB8100002350F8901F4FF00042E7
:102D2000012464F3DC420A610068016821F08041FB
:102D300041F000410160184610BD10B500EB810163
:102D40000022D1F89030196841F0404111F4402F31
:102D500009D0C1F38144022C05D04069006910F408
:102D60007F0F03D004E0C068C06AF8E721F000419B
:102D70001960104610BDF0B5074607EB810600202C
:102D8000D6F890500446431E2246AB60FB78012BD8
:102D900000D1042207EB411393F8B15335B1012D53
:102DA0001FD0022D02D0032D27D10EE042F089055D
:102DB00045F4826293F8AE5385B993F8B05342F06C
:102DC0004002D5B142F0200217E093F8AEC342F0C2
:102DD000990545F4C062BCF1000F0ED042F4807238
:102DE0000BE093F8AEC342F0010242F40872BCF16A
:102DF000000F02D042F08002F0E7D6F89050EA606F
:102E000001228A4079698D6915438D61F9688A6963
:102E100042F000728A6193F8AC1361F39C5493F80A
:102E2000AD1361F3CE2493F8AE1361F3CF3493F86E
:102E3000AF1302290CD024F4003193F8B123B3F876
:102E4000B23362F3934163F30A01032A03D004E02F
:102E500044F40031F1E741F00051D6F890201160C0
:102E6000F0BDF0B500EB411405460026D4F8BC03D4
:102E70004FF48077334668B1B4F8B2231044401E53
:102E8000B0FBF2F080B2B84205D912023846C4F85D
:102E9000BC2300E0012094F8AE23AAB1B4F8B22319
:102EA0004243C4F8BC2362F3120360F3DC4394F89A
:102EB000B40305EB810260F35E73D2F89000036106
:102EC000E878012803D007E0D4F8BC23EBE7D2F878
:102ED0009030D4F8B803586152F8900F0368284630
:102EE00000F046F860F35D73126823F0804040F014
:102EF00000401060E87898BB94F8AE0380BBD4F82B
:102F0000BC0368B394F8B12332B1012A11D0022A6C
:102F100002D0032A1AD10CE0EA68D36AC01CC0F3BD
:102F20008F009BB2834211D2906940F020009061E3
:102F30000CE06A691269C01CC0F38F0092B2824231
:102F400004D2E868826942F080628261B4F8BC030E
:102F50000A4683B2D4F8B8030146284600F0A8FF19
:102F60003046F0BD4269106861F30100106070479F
:102F70004069806840F30000401C7047C0684069A9
:102F800010F0010000D001207047C06841698069DD
:102F900008407047D0F8CC00006820F02E00704741
:102FA000406940697047034610B50020D21C920862
:102FB000D3F8D03003E01C6841F8044B401C904229
:102FC000F9D3084610BD70B50446FFF7E3FF40F49F
:102FD000807554F8CC0F05600A20FFF745FD216885
:102FE00025F4807008601420FFF73EFD012070BDBD
:102FF00070B500220123C270402683701446154626
:103000008680012901D061B116E0C37208210170E8
:1030100004214FF0A04241709115C180022101723C
:103020000AE0C5720C210170062141704FF4A061C5
:10303000C1801F4A0372C37002F50061C0E9032119
:1030400000210AE002EB411303F5106600EB810555
:1030500003F53063AE61491C6B6543788B42F1D850
:1030600002F5806141614031C0F8CC10002108E0D8
:1030700002EB411300EB810503F5A063491CC5F881
:10308000903003788B42F3D8002108E002EB013343
:1030900000EB810503F58053491CC5F8D030037857
:1030A0008B42F3D802F56062C0F80C21204670BD57
:1030B0000000044010B5C0680024C268012922F055
:1030C000C04201D019B104E042F0005201E042F0E8
:1030D0008042C2603220FFF7C7FC204610BD0000CE
:1030E00038B50446002000900748006881682046F3
:1030F0008847009820F0005000F1005000900098A0
:10310000E1684861012038BD6C0000200CB5014623
:10311000D1F8900000680090009820F0004000F185
:1031200000400090009820F0804000F18040009026
:10313000009AD1F89000026000200190019820F4DC
:10314000001000F5001001900198CA68506101203C
:103150000CBD7CB50546002400262846FFF720FF5D
:10316000019000BF1BE0019880B20121A1400842FC
:1031700014D005F1900050F82400006800900098E9
:10318000C0F3C03028B12146284600F00DF80643B0
:1031900004E02146284600F01BFA0643641C287808
:1031A000A042E0D830467CBD70B586B005460C46DE
:1031B00005F1900050F82460B0680590F068049024
:1031C000DDE904100840059005F1900050F8240056
:1031D00000680390002004900598C0F38000D0B1EF
:1031E00000200190019820F00400001D019001983A
:1031F000B06005F1900050F82400C068019001987B
:1032000020F00200801C019005F1900050F824008D
:103210000199C16073E00598C0F3401048B10020E7
:103220000190019820F02000203001900198B060BA
:1032300065E00598C0F3C00078B305F1900050F840
:103240002400C0680190019820F00200801C0190C9
:1032500005F1900050F824000199C160052105F5A1
:103260006370015500200190019820F0100010308B
:1032700001900198B06000200190019820F00800B2
:10328000083001900198B060059820F0100005907A
:10329000E1B22846FFF751FD31E0FFE70598C0F3A2
:1032A000802060B305F1900050F82400C0680190C0
:1032B000019820F00200801C019005F1900050F868
:1032C00024000199C160E1B22846FFF736FD0020D5
:1032D0000190019820F01000103001900198B0602A
:1032E000082105F56370015500200190019820F434
:1032F000806000F5806001900198B06000BF059883
:10330000C0F34020F8B105F1900050F82400C068E7
:103310000190019820F00200801C019005F19000BE
:1033200050F824000199C160E1B22846FFF705FD7D
:1033300000200190019820F4007000F500700190C9
:103340000198B06041E1059810F0010F71D0E87864
:10335000012812D105F1900050F824000069029074
:1033600005F56B7000EB441000690299C1F312017E
:10337000411A05F5547040F82410012105F56370D9
:1033800001550021783840F8241000200190019860
:1033900020F00100401C01900198B0600398C0F338
:1033A000814020B10398C0F3814002282AD105F161
:1033B000900050F82400C0680190019820F00200AD
:1033C000801C019005F1900050F824000199C16023
:1033D000E1B22846FFF7B1FC00200190019820F0EF
:1033E0001000103001900198B06005F56B7000EB93
:1033F0004410007E80F0010105F56B7000EB441075
:103400000176E2E00398C0F3814003289AD1039843
:1034100020F0005000F10050039005F1900050F8AA
:10342000240003990160012105F29B300155CCE095
:10343000FFE70598C0F34000002851D005F1900047
:1034400050F82400C0680190019820F0020001901B
:1034500005F1900050F824000199C16005F56370F2
:10346000005D012804D1012105F29B3001552DE0BA
:1034700005F56370005D052804D1042105F29B3039
:10348000015523E005F56370005D062804D005F5BD
:103490006370005D082808D1002105F5457040F8EB
:1034A000241003218730015510E00398C0F38140B8
:1034B00003280BD105F56B7000EB4410007E80F003
:1034C000010105F56B7000EB4410017600200190BE
:1034D000019820F00200801C01900198B06074E017
:1034E0000598C0F3C01040B305F1900050F82400D7
:1034F000C0680190019820F00200801C019005F145
:10350000900050F824000199C16005F5457050F80D
:103510002410491C40F82410062178300155E1B2EE
:103520002846FFF70AFC00200190019820F0800057
:10353000803001900198B06047E00598C0F300101A
:10354000F0B30398C0F38140032815D105F1900032
:1035500050F82400C0680190019820F00200801CFF
:10356000019005F1900050F824000199C160E1B28A
:103570002846FFF7E2FB18E00398C0F3814020B132
:103580000398C0F3814002280FD1039820F0004037
:1035900000F100400390039820F08040039005F173
:1035A000900050F8240003990160032105F5637031
:1035B000015500200190019820F01000103000E02B
:1035C00003E001900198B06000BF012006B070BD1B
:1035D0007FB505460C4605F1900050F82460B068B0
:1035E0000390F0680290DDE902100840039005F1B5
:1035F000900050F82400006801900398C0F3800008
:10360000D0B100200090009820F00400001D009030
:103610000098B06005F1900050F82400C068009058
:10362000009820F00200801C009005F1900050F8F6
:1036300024000099C160B0E10398C0F3401048B184
:1036400000200090009820F020002030009000988A
:10365000B060A2E10398C0F34020F8B105F19000FA
:1036600050F82400C0680090009820F00200801CF0
:10367000009005F1900050F824000099C160E1B27B
:103680002846FFF75AFB00200090009820F40070B5
:1036900000F5007000900098B0607EE1039810F093
:1036A000010F27D0002105F5457040F8241005F1E1
:1036B000900050F82400C0680090009820F00200AC
:1036C000801C009005F1900050F824000099C16022
:1036D000E1B22846FFF731FB00200090009820F06F
:1036E0000100401C00900098B060012105F5637056
:1036F000015552E10398C0F3C00010B300200090C0
:10370000009820F00800083000900098B06005F1A3
:10371000900050F82400C0680090009820F002004B
:10372000801C009005F1900050F824000099C160C1
:10373000E1B22846FFF701FB052105F5637001554D
:103740002BE10398C0F3001038B3002105F5457054
:1037500040F8241005F1900050F82400C068009053
:10376000009820F00200801C009005F1900050F8B5
:1037700024000099C160E1B22846FFF7DEFA00207C
:103780000090009820F01000103000900098B06079
:10379000032105F563700155FFE00398C0F3C010E5
:1037A00040B305F1900050F82400C06800900098E4
:1037B00020F00200801C009005F1900050F82400D9
:1037C0000099C160E1B22846FFF7B7FA05F54570E8
:1037D00050F82410491C40F8241006217830015577
:1037E00000200090009820F0800080300090009829
:1037F000B060D2E00398C0F3801038B3002105F523
:10380000457040F8241005F1900050F82400C0687D
:103810000090009820F00200801C009005F19000BC
:1038200050F824000099C160E1B22846FFF785FAFC
:1038300000200090009820F0400040300090009858
:10384000B060042105F563700155A6E00398C0F34C
:10385000802060B305F1900050F82400C06800900B
:10386000009820F00200801C009005F1900050F8B4
:1038700024000099C160E1B22846FFF75EFA0020FB
:103880000090009820F01000103000900098B06078
:10389000082105F56370015500200090009820F480
:1038A000806000F5806000900098B06075E003983B
:1038B000C0F34000002870D005F1900050F82400BB
:1038C000C0680090009820F00200009005F1900080
:1038D00050F824000099C16005F56370005D01286F
:1038E00015D1012105F29B3001550198C0F38140AB
:1038F000022848D105F56B7000EB4410407E80F043
:10390000010105F56B7000EB441041763BE005F5D5
:103910006370005D032804D1022105F29B3001553C
:1039200031E005F56370005D04280FD105F56B707B
:1039300000EB44100079012803D1E1B22846FFF7DB
:10394000E7F9022105F29B3001551CE005F5637093
:10395000005D052804D1042105F29B30015512E0D9
:1039600005F56370005D06280DD105F5457050F82A
:103970002400032807D1032105F29B3001550021C3
:10398000873840F8241000200090009820F00200B2
:10399000801C00900098B06000BF012004B070BD92
:1039A0007FB50446E068C06A00900198C0F3C30187
:1039B00004F56B7000EB41100069C01CC0F38F066A
:1039C00073E04FF6FF71009801EA80050198C0F39B
:1039D000C30104F56B7000EB41100069A84215D2D9
:1039E0000198C0F3C30104F56B7000EB4110008A2D
:1039F00085B200200390039820F02000203003902F
:103A0000E068806903998843E16888610198C0F3A0
:103A1000C30104F56B7000EB41100069C01CC0F3DA
:103A20008F060198C0F3C302C0F3C30304F56B70A3
:103A300000EB43102B46C168204600F039FA01988C
:103A4000C0F3C30104F56B7000EB4110C06841196D
:103A50000198C0F3C30204F56B7000EB4210C16023
:103A60000198C0F3C30104F56B7000EB41100069CD
:103A7000411B0198C0F3C30204F56B7000EB4210C8
:103A800001610198C0F3C30104F56B7000EB4110B4
:103A9000406941190198C0F3C30204F56B7000EB53
:103AA00042104161E068C06A0090009880B2B04264
:103AB0000ADD0198C0F3C30104F56B7000EB4110FF
:103AC000006900287FF47DAF012004B070BD0000C4
:103AD000FEB50446002600250020009002900190CB
:103AE000D4F8CC0000680290D4F8CC0000680190B3
:103AF000019820F004000190019820F0020001904C
:103B0000019820F008000190019820F02000019019
:103B10000298C0F3400058B1019820F00200801CC8
:103B200001903248006841682046884745F0010509
:103B30000298C0F3C000002842D0019820F008008D
:103B4000083001900298C0F38000002838D0274840
:103B500000684168204688470298C0F34140022827
:103B600004D00298C0F34140012828D16069006860
:103B700000900298C0F34140022811D141F27071C7
:103B800060694160009800F00300022818D0207A94
:103B9000022803D102212046FFF7E4F901260FE0B5
:103BA0004BF6803160694160009800F00300012805
:103BB00006D001212046FFF7D5F9012600E00126B5
:103BC0000298C0F3401030B1019820F0200020305E
:103BD000019045F0010516B12046FFF7F4F901996F
:103BE000D4F8CC0001602846FEBD00006C00002027
:103BF000FEB504466069006900900198C0F3C301F6
:103C000004F56B7000EB41100069C01CC0F38F0617
:103C100074E04FF6FF71009801EA80050198C0F347
:103C2000C30104F56B7000EB41100069A84216D285
:103C30000198C0F3C30104F56B7000EB4110008ADA
:103C400085B200200290029820F0806000F1806030
:103C50000290E068806902998843E1688861019870
:103C6000C0F3C30104F56B7000EB41100069C01C88
:103C7000C0F38F060198C0F3C302C0F3C30304F579
:103C80006B7000EB43102B46C168204600F010F922
:103C90000198C0F3C30104F56B7000EB4110C068DC
:103CA00041190198C0F3C30204F56B7000EB421098
:103CB000C1600198C0F3C30104F56B7000EB4110C3
:103CC0000069411B0198C0F3C30204F56B7000EB5F
:103CD000421001610198C0F3C30104F56B7000EB61
:103CE0004110406941190198C0F3C30204F56B709B
:103CF00000EB42104161606900690090009880B259
:103D0000B0420ADD0198C0F3C30104F56B7000EB0B
:103D10004110006900287FF47CAF0120FEBD30B562
:103D200085B00446002000900390039820F0100016
:103D300010300390E068806903998843E1688861E6
:103D4000E068006A0490049800F00F00009004F10D
:103D500090009DF8001050F8210000680190049830
:103D6000C0F34340022806D0032878D0052877D036
:103D7000072873D175E00498C0F30A10002869DDA4
:103D800004F56B709DF8001000EB4110C06800282E
:103D900060D00498C0F30A1204F56B709DF80030EF
:103DA00000EB4310C1682046FFF7FDF8049800F0CF
:103DB0000F0104F56B7000EB4110C0680499C1F36A
:103DC0000A110144049800F00F0204F56B7000EB37
:103DD0004210C160049800F00F0104F56B7000EB15
:103DE000411040690499C1F30A110144049800F09C
:103DF0000F0204F56B7000EB4210416104F56B702B
:103E00009DF8001000EB4110456904F554709DF8D1
:103E1000001040F8215004F190009DF8001050F877
:103E20002100006902900298C0F3C940002811DD0A
:103E3000019820F0004000F100400190019820F02E
:103E40008040019004F190009DF80020019950F805
:103E50002200016006E002E002E0FFE700BF00BFD1
:103E600000BF00BF00BF039820F010001030039087
:103E7000E068806903990843E1688861012005B022
:103E800030BD000038B504460020009007480068A7
:103E9000016820468847009820F00800083000900C
:103EA0000098E1684861012038BD00006C000020E6
:103EB00030B5C47800256CB900EB82000024DB1C0F
:103EC0009B08D0F8D00003E051F8042B0260641C7A
:103ED0009C42F9D3284630BD70B5114D4FF6FF74A2
:103EE00010482C8000F00AF92C800FA000F006F991
:103EF0002C8017A000F002F917A1C620FCF780FD66
:103F000015A1D220FCF77CFD4FF4FC60FCF76AFFA2
:103F10001A487821017040F23F11418070BD0000C5
:103F2000B8000020414700083E20557365204B65CE
:103F300079626F61726420746F20746170652063B0
:103F40006861726163746572733A200A0A00000046
:103F50000A0A0A0A0A0A0000202020202020202025
:103F60002020202020202020202020202020202051
:103F700020202020202020202020200004000020BD
:103F800070B5174C024640F23F1520780A2A10D02F
:103F900021460D2A49880ED0FCF722FD608808389A
:103FA00080B26080072803D1658020780C302070B3
:103FB00070BD6580FAE7A94208D1782804D00C3892
:103FC00020700F20608003E0658001E0083161808F
:103FD00061882078BDE870402022FCF701BD000018
:103FE0000400002070B51C4C4FF6FF751B4825805F
:103FF00000F084F825801AA000F080F81BA1C620EC
:10400000FCF7FEFC19A1D220FCF7FAFC80235A220F
:10401000DC216420FCF7CAFD0020FCF726FB012010
:10402000FCF723FB0220FCF720FB4FF4FC60FCF7BD
:10403000D9FE0020FCF7BCFE7822DB216520FCF7CE
:10404000CFFC1349002008801249088012490880DB
:104050001249088070BD0000B80000202647000803
:104060000A0A0A0A0A0A0A0A000000002020202080
:104070002020202020202020202020202020202040
:104080002020202020202020202020202020200050
:104090005400002056000020580000205A00002044
:1040A0002DE9F0410546007838B1687828B195F9D6
:1040B000011095F90000FCF7F9FA00240D4E0127D4
:1040C000A046E87807FA04F10842305D05D058B9F7
:1040D0002046FCF7AAFA375506E0012804D120460D
:1040E000FCF7C3FA06F80480641CE4B2032CE8D39E
:1040F000BDE8F08108000020FEE700000FB4054B8A
:1041000010B503A9044A029800F02CF810BC5DF821
:1041100014FB0000E9450008140100200FB4084B0F
:1041200010B504A902AA039800F01CF8044602A9DD
:10413000002000F046FA204610BC5DF814FB000099
:10414000C345000802E008C8121F08C1002AFAD1BE
:1041500070477047002001E001C1121F002AFBD107
:10416000704700002DE9FF4F8DB00F460546002631
:10417000DEE1252874D100246D1CF149A246A14638
:1041800001222B78203B02FA03F0084202D00443BC
:104190006D1CF6E728782A2810D06FF02F022878B7
:1041A000A0F13001092915D80AEB8A0102EB41017F
:1041B00044F0020400EB010A6D1CF0E757F804AB71
:1041C000BAF1000F03DA44F40054CAF1000A44F0D3
:1041D00002046D1C28782E2817D115F8010F44F021
:1041E00004042A280ED06FF02F022878A0F13001A5
:1041F00009290AD809EB890102EB410100EB010909
:104200006D1CF2E757F8049B6D1C28786C280FD0C2
:1042100006DC4C2817D068280DD06A2814D104E099
:10422000742810D07A280FD10DE044F400140AE06D
:1042300044F4801401E044F440146978814202D1CE
:104240006D1C04F580146D1C2A786E2A20D00DDCBC
:10425000632A33D005DC002A6FD0582A12D1A2E09D
:1042600011E0642A6AD0692A0CD167E0732A2FD042
:1042700004DC6F2A6FD0702A04D199E0752A6BD0C4
:10428000782A6AD01046DDE90F129047761C4EE17D
:10429000C4F30250022806D003280AD0042801CF14
:1042A0000AD0066043E101CF4FEAE671C0E9006140
:1042B0003DE101CF06803AE1067038E117F8040BC2
:1042C0008DF8000000208DF80100EB46012003E08E
:1042D00057F804BB4FF0FF3061074FF0000102D4E4
:1042E0000DE008F10101884649450FDA8045F8DB09
:1042F0001BF808100029F4D108E008F101018846F4
:104300008142FADB1BF808100029F6D1DDE90F2302
:10431000AAEB08008146214600F03BF9304400EB4F
:10432000080604E0DDE90F121BF8010B9047B8F115
:104330000108F7D221464846F4E0FDE00A21C4F323
:1043400002534FF0000B0891022B07D001CFC11789
:10435000032B09D00AE034E023E024E0FF1D27F01E
:104360000707F7E8020105E000B2C117042B01D1ED
:1043700040B2C117002907DA4FF0000CD0EB0C0057
:104380006CEB01012D2302E0230504D52B238DF8CE
:104390002430012303E0E30701D02023F7E7984608
:1043A00050E00A210EE010204FF0000B08900CE0C6
:1043B00010214FF0000B44F004044FF0080908915D
:1043C00003E008214FF0000B0891C4F30253022BC5
:1043D00004D001CF0021032B06D006E0FF1D27F0FB
:1043E0000707F7E8020103E080B2042B00D1C0B256
:1043F0004FF00008230725D5702A2AD0DDF820C009
:104400008CF0100C5CEA0B0C09D150EA010306D0C9
:1044100030238DF824308DF8252002239846DDF8CE
:1044200020C08CF0080C5CEA0B0C0BD150EA0103A5
:1044300001D1630706D530238DF824304FF00108F1
:10444000A9F10109582A09D03EA20B9208AA0A92A2
:1044500011E040238DF824300123DFE73EA2F4E78A
:104460005B46089AFBF7ACFE0B9B9B5C0A9AA2F199
:1044700001020A92137050EA0102F1D10A98ADEBE1
:10448000000000F1200B600702D524F4803401E025
:104490004FF00109D94502DDA9EB0B0000E0002037
:1044A00000EB0B0141440890AAEB010AE00306D49B
:1044B000DDE90F232146504600F06BF8064400204A
:1044C00008E009A911F80900DDE90F129047761CF0
:1044D00009F1010081464045F3DBE0030CD5DDE93D
:1044E0000F232146504600F054F8064404E0DDE96D
:1044F0000F1230209047761C0899481E089000291A
:10450000F5DC08E00A980A990078491C0A91DDE96F
:104510000F129047761CBBF10001ABF1010BF1DCEF
:1045200021465046DDE90F2300F020F806446D1CBB
:10453000287800287FF41DAE11B03046BDE8F08F1A
:104540000928010030313233343536373839616269
:10455000636465660000000030313233343536372D
:104560003839414243444546000000002DE9F041FE
:10457000044600251E461746880405D406E0394641
:104580002020B04705F10105641EF8D52846BDE896
:10459000F0812DE9F041044600251E469046C803EF
:1045A00001D5302700E02027880405D506E04146E4
:1045B0003846B04705F10105641EF8D52846BDE828
:1045C000F0810A68531C0B601070704701B581B010
:1045D0000449019848430090002801D0401EFAE7A2
:1045E0000CBD0000A086010038B504468DF800001F
:1045F00069460320ABBE204638BD00001CB5002430
:104600000C48CDE900040D4A0B4B2146A2F2AC50F8
:10461000FDF7F2FCFCF7F4FB4FF480350749A1F2FB
:10462000AC50FDF75AFE0198411C0191A842F5D10A
:104630000194F3E70C00002084000020C406002051
:104640003E204465766963652041747461636865E2
:10465000640A003E2044657669636520446973639B
:104660006F6E6E65637465640A003E20456E756DFD
:1046700065726174696F6E20636F6D706C657465CF
:10468000640A003E2048696768207370656564208D
:104690006465766963652064657465637465640A3E
:1046A000003E2046756C6C207370656564206465FF
:1046B000766963652064657465637465640A003EA9
:1046C000204C6F772073706565642064657669633C
:1046D000652064657465637465640A003E20446502
:1046E00076696365206661756C74200A003E204D12
:1046F0006173732073746F72616765206465766996
:10470000636520636F6E6E65637465640A003E20A6
:104710004849442064657669636520636F6E6E6501
:10472000637465640A003E204849442044656D6F07
:1047300020446576696365203A204D6F7573650A7C
:10474000003E204849442044656D6F2044657669E9
:104750006365203A204B6579626F6172640A003E9E
:1047600020554E5245434F564552454420455252DE
:104770004F522053544154450A00000000001F329C
:10478000302113222324182526273433191A111413
:1047900020151731122F162E0203040506070809EB
:1047A0000A0B2B6E0F103D0C0D1B1C1D2A28290116
:1047B0003536371E707172737475767778797A7BB7
:1047C0007C7D7E4B50554C5156594F54535A5F6423
:1047D000696A6C5D62675C61665B606563682D81B8
:1047E00000000000000000000000000000000000C9
:1047F0000000000000000000000000000000006B4E
:104800000038000000000000000000000000000070
:104810000000000000000000000000000000000098
:104820000000000000000000000000000000000088
:104830000000000000000000000000000000000078
:104840000000000000000000000000000000000068
:10485000000000000000000000003A2C3C7F4039BE
:104860003E800060313233343536373839302D3DB3
:10487000000D09617A6572747975696F705B5D5CB2
:10488000007173646667686A6B6C6D00000A0000F3
:1048900077786376626E2C3B3A210000000000209E
:1048A0000000000000000000000000000000000008
:1048B00000000D000000000000000000003734314F
:1048C000002F383532302A3936332E2D2B000A008E
:1048D00000000000000000000000000000000000D8
:1048E00000000000007E21402324255E262A28297E
:1048F0005F2B000000415A4552545955494F507B97
:104900007D2A005153444647484A4B4C4D25000AE6
:10491000000057584356424E3F2E2F000000000023
:104920000000000000000000000000000000000087
:104930000000000000000000000000000000000077
:104940000000000000000000000000000000000067
:104950000000000000000000000000000000000057
:104960000000000000000000000400080A000B0026
:10497000070007000000040004000000040000001D
:1049800001000020008001000020008000000200E3
:10499000060000000D000F0006002800280040005F
:1049A0000001000280000000400000004000000004
:1049B00000010000040000000100000004000000ED
:1049C00040000000000000000000000000000000A7
:1049D00000000000000000000000000000000000D7
:1049E00000000000000000000000000000000000C7
:1049F0000000000000008001800180018001800132
:104A0000800180018001800180018001800180019E
:104A10000000000080018001000000000000000094
:104A20000000000000000000CC00CC00CC00CC0056
:104A3000CC00CC00000000000000000000000000DE
:104A40000000000000000000000000000000000066
:104A50000000000000000000000000000000000056
:104A6000600C600C600C30063006FE1FFE1F300626
:104A700038071803FE1FFE1F180318038C018C0152
:104A80008C01000000008000E003F80F9C0E8C1CDD
:104A90008C188C009800F801E007800E801C8C18A0
:104AA0008C189C18B80CF00FE00380008000000008
:104AB000000000000000000000000E181B0C110C8C
:104AC00011061106110311039B018E01C038C06C41
:104AD00060446044304430441844186C0C38000082
:104AE000000000000000E001F00338071806180677
:104AF0003003F001F000F8009C310E33061E061C56
:104B0000061C063FFC73F0210000000000000000BE
:104B100000000000000000000C000C000C000C0065
:104B20000C000C000000000000000000000000006D
:104B30000000000000000000000000000000000075
:104B4000000000000000000200038001C000C0005F
:104B50006000600030003000300030003000300075
:104B60003000300060006000C000C0008001000321
:104B700000020000000020006000C00080018001F1
:104B800000030003000600060006000600060006FB
:104B9000000600060003000380018001C0006000E1
:104BA00020000000000000000000000000000000E5
:104BB000C000C000D806F807E00130033807000045
:104BC00000000000000000000000000000000000E5
:104BD00000000000000000000000000000000000D5
:104BE00080018001800180018001FC3FFC3F800149
:104BF00080018001800180010000000000000000B1
:104C000000000000000000000000000000000000A4
:104C10000000000000000000000000000000000094
:104C20000000000000008001800100010001800000
:104C30000000000000000000000000000000000074
:104C4000000000000000000000000000E007E00796
:104C50000000000000000000000000000000000054
:104C60000000000000000000000000000000000044
:104C70000000000000000000000000000000000034
:104C8000000000000000C000C000000000000000A4
:104C9000000000000000000C000C000600060006EA
:104CA0000003000300038003800180018001C00035
:104CB000C000C000600060000000000000000000B4
:104CC000000000000000E003F007380E180C0C187C
:104CD0000C180C180C180C180C180C180C180C18B4
:104CE000180C380EF007E003000000000000000080
:104CF00000000000000000018001C001F0019801E7
:104D00008801800180018001800180018001800193
:104D1000800180018001800100000000000000008F
:104D2000000000000000E003F80F180C0C180C182D
:104D300000180018000C000600038001C00060008D
:104D400030001800FC1FFC1F0000000000000000E5
:104D5000000000000000E001F807180E0C0C0C0C1D
:104D6000000C0006C003C007000C001800180C1847
:104D70000C18180CF807E003000000000000000009
:104D8000000000000000000C000E000F000F800D5E
:104D9000C00C600C600C300C180C0C0CFC3FFC3F81
:104DA000000C000C000C000C0000000000000000D3
:104DB000000000000000F80FF80F180018000C00A9
:104DC000EC03FC071C0E001C0018001800180C183F
:104DD0001C0C180EF807E0030000000000000000A3
:104DE000000000000000C007F00F381C1818180061
:104DF0000C00CC03EC0F3C0E1C1C0C180C180C18EF
:104E0000181C380EF007E00300000000000000004E
:104E1000000000000000FC1FFC1F000C0006000644
:104E2000000380038001C001C000E000600060005A
:104E30007000300030003000000000000000000072
:104E4000000000000000E003F007380E180C180CFA
:104E5000180C3806F007F007180C0C180C180C1872
:104E60000C18380CF80FE0030000000000000000F0
:104E7000000000000000E003F007380E1C0C0C18C6
:104E80000C180C181C1C381EF81BE0190018000C1C
:104E9000000C1C0EF807F0010000000000000000EC
:104EA0000000000000000000000000000000000002
:104EB00080018001000000000000000000000000F0
:104EC00000000000800180010000000000000000E0
:104ED00000000000000000000000000000000000D2
:104EE00080018001000000000000000000000000C0
:104EF000000000008001800100010001800000002E
:104F000000000000000000000000000000000000A1
:104F1000000000000010001C800FE003F8001800E3
:104F2000F800E003800F001C0010000000000000EB
:104F30000000000000000000000000000000000071
:104F400000000000F81F000000000000F81F000033
:104F50000000000000000000000000000000000051
:104F60000000000000000000000000000000000041
:104F70000000000008003800F001C007001F001802
:104F8000001FC007F001380008000000000000000A
:104F9000000000000000E003F80F180C0C180C18BB
:104FA0000018000C000600038001C000C000C00013
:104FB00000000000C000C000000000000000000071
:104FC0000000000000000000E00718180420C229BB
:104FD000224A114409440944094409221113E20CEC
:104FE000024004201818E007000000000000000044
:104FF00000000000000080038003C006C006C00659
:10500000600C600C301830183018F83FF83F1C70F6
:105010000C600C6006C006C000000000000000002C
:10502000000000000000FC03FC0F0C0C0C180C1816
:105030000C180C0CFC07FC0F0C180C300C300C304E
:105040000C300C18FC1FFC070000000000000000E2
:10505000000000000000C007F01F38381C300C7042
:105060000660060006000600060006000600066050
:105070000C701C30F01FE007000000000000000072
:10508000000000000000FE03FE0F060E06180618C2
:105090000630063006300630063006300630061878
:1050A0000618060EFE0FFE030000000000000000C0
:1050B000000000000000FC3FFC3F0C000C000C0056
:1050C0000C000C00FC1FFC1F0C000C000C000C0062
:1050D0000C000C00FC3FFC3F000000000000000042
:1050E000000000000000F83FF83F1800180018000A
:1050F00018001800F81FF81F1800180018001800F2
:10510000180018001800180000000000000000003F
:10511000000000000000E00FF83F3C780E6006E061
:1051200007C00300030003FE03FE03C007C006C060
:105130000EC03CF0F83FE00F00000000000000004F
:105140000000000000000C300C300C300C300C3033
:105150000C300C30FC3FFC3F0C300C300C300C3071
:105160000C300C300C300C3000000000000000004F
:1051700000000000000080018001800180018001AA
:105180008001800180018001800180018001800117
:10519000800180018001800100000000000000000B
:1051A00000000000000000060006000600060006E1
:1051B00000060006000600060006000600061806A7
:1051C00018063807F003E0010000000000000000AE
:1051D00000000000000006300618060C0606060354
:1051E0008601C60066007600DE008E010603060614
:1051F000060C0618063006600000000000000000E3
:105200000000000000001800180018001800180026
:1052100018001800180018001800180018001800CE
:1052200018001800F81FF81F000000000000000020
:105230000000000000000EE01EF01EF01EF036D848
:1052400036D836D836D866CC66CC66CCC6C6C6C686
:10525000C6C6C6C686C386C30000000000000000A4
:105260000000000000000C301C303C303C306C3042
:105270006C30CC30CC308C310C330C330C360C36DB
:105280000C3C0C3C0C380C3000000000000000000E
:10529000000000000000E007F81F1C380E700660D8
:1052A00003C003C003C003C003C003C003C0066043
:1052B0000E701C38F81FE00700000000000000001E
:1052C000000000000000FC0FFC1F0C380C300C30FC
:1052D0000C300C300C18FC1FFC070C000C000C00F0
:1052E0000C000C000C000C0000000000000000008E
:1052F000000000000000E007F81F1C380E70066078
:1053000003E003C003C003C003C003C007E006639B
:105310000E3F1C3CF83FE0F700C00000000000001A
:10532000000000000000FE0FFE1F063806300630A9
:1053300006300638FE1FFE0706030606060C061892
:10534000061806300630066000000000000000006D
:10535000000000000000E003F80F1C0C0C180C18F3
:105360000C001C00F803E00F001E00380630063069
:105370000E301C1CF80FE0070000000000000000C9
:10538000000000000000FE7FFE7F800180018001A0
:105390008001800180018001800180018001800105
:1053A00080018001800180010000000000000000F9
:1053B0000000000000000C300C300C300C300C30C1
:1053C0000C300C300C300C300C300C300C300C30FD
:1053D0000C301818F81FE007000000000000000063
:1053E00000000000000003600630063006300C1894
:1053F0000C180C18180C180C380E300630067007F4
:1054000060036003C001C001000000000000000054
:105410000000000000000360C361C361C361663324
:10542000663366336633663366336C1B6C1B6C1BEA
:105430002C1A3C1E380E380E000000000000000040
:105440000000000000000FE00C7018303018700CE5
:10545000600EC00780038003C003E006700C301CA0
:1054600018180C300E6007E000000000000000007B
:1054700000000000000003C006600C301C38381823
:10548000300C6006E007C0038001800180018001CC
:105490008001800180018001000000000000000008
:1054A000000000000000FC7FFC7F0060003000185E
:1054B000000C000600038001C000600030001800EE
:1054C0000C000600FE7FFE7F0000000000000000D0
:1054D000000000000000E003E003600060006000E6
:1054E00060006000600060006000600060006000BC
:1054F0006000600060006000600060006000E00329
:10550000E003000000003000300060006000600038
:10551000C000C000C000C001800180018001000304
:105520000003000300060006000000000000000069
:10553000000000000000E003E0030003000300039C
:105540000003000300030003000300030003000343
:105550000003000300030003000300030003E00353
:10556000E003000000000000C001C0016003600310
:10557000600330063006180C180C00000000000014
:10558000000000000000000000000000000000001B
:10559000000000000000000000000000000000000B
:1055A00000000000000000000000000000000000FB
:1055B000000000000000FFFFFFFF000000000000EF
:1055C0000000000000000C000C000C000C000C009F
:1055D0000C000000000000000000000000000000BF
:1055E00000000000000000000000000000000000BB
:1055F00000000000000000000000000000000000AB
:10560000F003F8071C0C0C0C000FF00FF80C0C0C3E
:105610000C0C1C0FF80FF018000000000000000038
:105620000000000000001800180018001800180002
:10563000D803F80F380C1818181818181818181854
:105640001818380CF80FD803000000000000000004
:10565000000000000000000000000000000000004A
:10566000C003F007300E180C1800180018001800BE
:10567000180C300EF007C00300000000000000000E
:1056800000000000000000180018001800180018A2
:10569000C01BF01F301C18181818181818181818E4
:1056A0001818301CF01FC01B000000000000000094
:1056B00000000000000000000000000000000000EA
:1056C000C003F00F300C1818F81FF81F180018004E
:1056D0003818301CF00FC007000000000000000068
:1056E000000000000000800FC00FC000C000C0001C
:1056F000F007F007C000C000C000C000C000C0003C
:10570000C000C000C000C000000000000000000099
:105710000000000000000000000000000000000089
:10572000E00DF80F180E0C0C0C0C0C0C0C0C0C0CE7
:105730000C0C180EF80FE00D000C0C0C1C06F807F2
:10574000F0010000000018001800180018001800F0
:10575000D807F80F381C181818181818181818181F
:105760001818181818181818000000000000000079
:10577000000000000000C000C000000000000000A9
:10578000C000C000C000C000C000C000C000C00019
:10579000C000C000C000C000000000000000000009
:1057A000000000000000C000C00000000000000079
:1057B000C000C000C000C000C000C000C000C000E9
:1057C000C000C000C000C000C000C000C000F800A1
:1057D0007800000000000C000C000C000C000C0015
:1057E0000C0C0C060C038C01CC006C00FC009C0122
:1057F0008C030C030C060C0C0000000000000000E1
:10580000000000000000C000C000C000C000C000D8
:10581000C000C000C000C000C000C000C000C00088
:10582000C000C000C000C000000000000000000078
:105830000000000000000000000000000000000068
:105840007C3CFF7EC7E383C183C183C183C183C125
:1058500083C183C183C183C1000000000000000038
:105860000000000000000000000000000000000038
:105870009807F80F381C181818181818181818183E
:105880001818181818181818000000000000000058
:105890000000000000000000000000000000000008
:1058A000C003F00F300C181818181818181818180A
:1058B0001818300CF00FC0030000000000000000BA
:1058C00000000000000000000000000000000000D8
:1058D000D803F80F380C18181818181818181818B2
:1058E0001818380CF80FD803180018001800180002
:1058F0001800000000000000000000000000000090
:10590000C01BF01F301C1818181818181818181871
:105910001818301CF01FC01B0018001800180018C1
:10592000001800000000000000000000000000005F
:10593000B007F0037000300030003000300030005D
:105940003000300030003000000000000000000097
:105950000000000000000000000000000000000047
:10596000E003F003380E180C3800F003C007000CF9
:10597000180C380EF007E0030000000000000000E3
:1059800000000000000000008000C000C000C00057
:10599000F007F007C000C000C000C000C000C00099
:1059A000C000C000C0078007000000000000000029
:1059B00000000000000000000000000000000000E7
:1059C0001818181818181818181818181818181857
:1059D0001818381CF01FE01900000000000000003B
:1059E00000000000000000000000000000000000B7
:1059F0000C18180C180C180C300630063006600312
:105A000060036003C001C00100000000000000004E
:105A10000000000000000000000000000000000086
:105A2000C141C141C3616363636363633636363624
:105A300036361C1C1C1C1C1C000000000000000052
:105A40000000000000000000000000000000000056
:105A50001C38381C300C6006600360036003600370
:105A60006006300C381C1C380000000000000000EC
:105A70000000000000000000000000000000000026
:105A80001830301830187018600C600CE00CC0062C
:105A9000C00680038003800380018001C001F00004
:105AA0007000000000000000000000000000000086
:105AB000FC1FFC1F000C000600038001C0006000FA
:105AC00030001800FC1FFC1F000000000000000058
:105AD00000000000000000038001C000C000C00002
