:020000040800F2
:10000000C80D00209D0100087B0E0008B9070008FC
:10001000790E000817030008F947000800000000E7
:100020000000000000000000000000007116000841
:100030003903000800000000150F0008B501000892
:10004000B7010008B7010008B7010008B7010008B0
:10005000B7010008B7010008B701000879030008DC
:10006000B7010008B7010008B7010008B701000890
:10007000B7010008B7010008B7010008B701000880
:10008000B7010008B7010008B7010008B701000870
:10009000B7010008B7010008B7010008B701000860
:1000A000B7010008B7010008B7010008B701000850
:1000B000AD170008B7010008B7010008B701000834
:1000C000B7010008B7010008B7010008B701000830
:1000D000B7010008B7010008B7010008B701000820
:1000E000B7010008B7010008B7010008B701000810
:1000F000B7010008B7010008B7010008B701000800
:10010000B7010008B7010008B7010008B7010008EF
:10011000B7010008B7010008B7010008B7010008DF
:10012000B7010008B7010008B7010008B7010008CF
:10013000B7010008B7010008B7010008B7010008BF
:10014000B7010008B7010008B7010008090F00084F
:10015000B7010008B7010008B7010008B70100089F
:10016000B7010008B7010008B7010008B70100088F
:10017000B7010008B7010008B7010008B70100087F
:10018000B7010008B7010008DFF80CD000F04AF80A
:1001900000480047F94C0008C80D00200648804779
:1001A00006480047FEE7FEE7FEE7FEE7FEE7FEE75C
:1001B000FEE7FEE7FEE7FEE75117000889010008A9
:1001C0002DE9F05F0546002092469B46884606468C
:1001D000814640241BE0284641464746224600F01F
:1001E00042F853465A46C01A914110D31146184658
:1001F000224600F029F82D1A67EB01084F462246E7
:100200000120002100F020F817EB00094E41201ECC
:10021000A4F10104DFDC484631462A464346BDE8E6
:10022000F09F0000064C074D06E0E06840F0010337
:1002300094E8070098471034AC42F6D3FFF7A8FFC4
:10024000C0740008E0740008202A04DB203A00FA99
:1002500002F1002070479140C2F1200320FA03F31D
:10026000194390407047202A04DB203A21FA02F01B
:100270000021704721FA02F3D040C2F120029140E0
:10028000084319467047000010B5074C2060084627
:1002900000F00CF820680028FCD1BDE810400021D7
:1002A0004FF0804001F091BA000000203EB50446B6
:1002B0004FF080450021284601F087FA00220121F5
:1002C000284601F098FA022C02D0012C02D004E05A
:1002D0000B2001E042F6DF6001900520ADF8000040
:1002E0000020ADF80800ADF802006946284601F08C
:1002F0008BFA0121284601F065FA0121284601F018
:1003000057FA01221146284601F075FA01212846C4
:1003100001F05BFA3EBDFEE706484FF4E1310160B3
:1003200000218180C180018181810C21418101F006
:1003300081B80000580700207047000070B50C4CD1
:1003400005468021204601F0A7FA0028F9D0294669
:10035000204601F005FB074C8021204601F09CFA65
:100360000028F9D029462046BDE8704001F0F8BACF
:10037000004C00400010014010B5022000F016F8BB
:10038000002809D00548D0F8800040698047BDE8C2
:100390001040022000F004B810BD0000D406002078
:1003A0000149086070470000143C0140064A0146BC
:1003B00000201268044B0A4014331B680B4202D021
:1003C000002A00D001207047003C014030B51A4996
:1003D0008379026853B30B6893430B600A1D13685B
:1003E0000468A343136002790A4413680468234332
:1003F0001360114A083213680468A3431360131D85
:100400001C680568AC431C604479102C05D021445D
:100410000A68006802430A6030BD1168046821431D
:100420001160196800680143196030BD0079084403
:1004300001689143016030BD003C01404FF0204213
:1004400002EB80000029016802D041F0010101E0C7
:10045000014A114001607047FEFF0F0030B5D0E93E
:1004600001121143D0E903231A431143426903687F
:10047000114382691143C2691143026A1143426AFE
:100480001143826A1143C26A1143026B11434FF058
:10049000204242F823108168082906D1016802EB46
:1004A00081010B6843F040030B60416BD1E90034DC
:1004B00043EA04138C688D89240244EA05442343EB
:1004C0000C8A43EA04530C7D896943EA04630B43B5
:1004D000016802EB81014B60C16AB1F5804F07D022
:1004E00000686FF0704102EB8000C0F8041130BD6D
:1004F000816B0068D1E9003443EA04138C680D8AEB
:10050000240244EA055423430C7D896943EA0463C9
:1005100002EB80000B43C0F8043130BDF0B500237E
:10052000012403270D6804FA03F21540954242D1D5
:10053000D0F800C05E0007FA06F52CEA050CC0F8FA
:1005400000C091F804C0D0F800E00CFA06FC4CEAB8
:100550000E0CC0F800C091F804C0BCF1010F02D02D
:10056000BCF1020F1FD1D0F808C02CEA050CC0F86E
:1005700008C091F805C0D0F808E00CFA06FC4CEA77
:100580000E0CC0F808C0D0F804C02CEA020CC0F869
:1005900004C0426891F806C00CFA03FC1FFA8CFCF8
:1005A00042EA0C024260C268AA43C260CA79C568C6
:1005B000B2402A43C2605B1C102BB3D3F0BD4B0783
:1005C000DB0E9A40C90810B500EB8100016A0F24C8
:1005D0009C40A1430162016A1143016210BD0246C1
:1005E000002012690A4200D0012070470183704741
:1005F0004069806880B27047D0F8CC000068C0F3D2
:1006000041407047084490F89B03704710B504467A
:1006100000221046C4F8102304EB8203C3F814032D
:10062000C3F85003A31883F88C03521CD2B20F2ACC
:10063000F2D30820A4F8B203204603F059F820466C
:1006400002F05CFE204602F07FFD0121204603F00F
:10065000B1F8204602F0BAFD204602F071FE0020FB
:1006600010BDD0F81003704710B503F02CF800202F
:1006700010BD0022431883F89B2300EB4113C3F8FD
:10068000C02302F06EBF70B504464FF4FC652846E7
:1006900000F0D6FB284600F0B9FB5CB1012C0DD070
:1006A000022C0FD10A231822A621BDE87040C920D0
:1006B00000F02EBA0A231822DC21F6E70A231822BA
:1006C0007421F2E770BD70B504464FF6FF752846F9
:1006D00000F0B6FB284600F099FB5CB1012C0DD070
:1006E000022C0FD10A231822A621BDE87040C92090
:1006F00000F00EBA0A231822DC21F6E70A2318229A
:100700007421F2E770BD000070B504460D464FF449
:10071000FC6000F095FB002000F078FB54EA050037
:1007200046D004EBD470234C218801EB600000B26A
:100730002080628805EBD57102EB610109B261800E
:100740004E2901DD4E216180762801DD7620208052
:10075000B4F902100220022900DA6080B4F9001016
:10076000022900DA2080B4F9040048B1B4F9062067
:1007700032B1C0F1DC0081B2643290B2202206E0D6
:10078000B4F90610084304D12022DB21652000F0D3
:1007900055F9B4F900007822C0F1DC0081B260881C
:1007A000643080B200F04AF92088A0806088E08040
:1007B00070BD000054000020FEE700002DE9F04766
:1007C000374C00221346A270E270227162700178E9
:1007D00002290CD020290AD0227000250221465C73
:1007E000012E07D0022E05D0032E03D003E00121F5
:1007F0002170F2E70125491CC9B20829EFD3012D68
:100800003DD0DFF89C90A27009F10B09A9F1060612
:10081000E270022106F10C0510F801C0BCF1000FD6
:100820001CD0A77806F807C07F1CA770002707E038
:1008300010F801C015F80780C44503D07F1CFFB233
:100840009F42F5D39F4209D194F8038010F801C06C
:1008500009F808C008F1010884F80380491CC9B2EE
:100860000829D9D3E07801280BD06270A0782071D4
:100870000020315C2954401CC0B20628F9D3BDE8E1
:10088000F08799F80000074960702278085C012A17
:1008900004D0E831085C03F0F3FEE7E70249F9E72A
:1008A0009C000020A64E00081050000803F094BEE3
:1008B00030B50546002440F23F11204600F0AEFA64
:1008C0004FF0D041222008804FF496304D80641CB8
:1008D0008442FBD330BD000070B5064640F23F14A1
:1008E000084D08E020222146304600F0A7F868684D
:1008F0008088201A84B26968601C80B28988884226
:10090000F0D270BD040100201CB50121782000F058
:1009100003FB4CF23370009002208DF804008DF838
:10092000050000208DF80600404C8DF80700694650
:100930002046FFF7F3FD0C2200212046FFF73FFE83
:100940000C2201212046FFF73AFE0C22042120460A
:10095000FFF735FE0C2205212046FFF730FE0C2262
:1009600008212046FFF72BFE0C2209212046FFF725
:1009700026FE0C220A212046FFF721FE0C220E2122
:100980002046FFF71CFE0C220F212046FFF717FE22
:100990004FF68070264C009069462046FFF7BEFD5A
:1009A0000C2207212046FFF70AFE0C2208212046D0
:1009B000FFF705FE0C2209212046FFF700FE0C225E
:1009C0000A212046FFF7FBFD0C220B212046FFF7F2
:1009D000F6FD0C2211462046FFF7F1FD0C220D21F9
:1009E0002046FFF7ECFD0C220E212046FFF7E7FD25
:1009F0000C220F212046FFF7E2FD01200D4C009054
:100A000069462046FFF78AFD0C2200212046FFF7A9
:100A1000D6FD2015084C009069462046FFF77EFD64
:100A20000C220A212046FFF7CAFD1CBD000C024023
:100A3000001002400014024000180240064B10B49F
:100A40005B68203AD2B21C68DB88534304EB430254
:100A500010BC00F01FB8000004010020F0B50D46E6
:100A6000074640F23F140A4E08E021463846FFF799
:100A7000E5FF70688088201A84B26D1C2A78002AED
:100A800005D07168601C80B289888842EDD2F0BDC3
:100A9000040100202DE9F0439046894600260546D2
:100AA00000F0BCF94FF0D047184C29E022203880E4
:100AB00000201BE00C23B1FBF3F34FEAC30C8023AF
:100AC00003FA0CF338F816C0034113EA0C0F01D1F6
:100AD0000C2906D9012383401CEA030F03D10C29FA
:100AE00001D9618800E021887980401C9188814289
:100AF000E0D86D1CADB24946284600F08FF9761C4F
:100B00006268D088B042D1D8BDE8F08304010020EB
:100B10002DE9F843244C05461E4620881746884692
:100B2000ADF80000BDF8000020800023284600F04A
:100B30003DF8A81980B200233A46414600F036F845
:100B4000012332464146284600F030F8A8EB070062
:100B5000401C81B201233246284600F027F8BF1E10
:100B60001FFA87F9A8F1010087B2761E6088B6B235
:100B7000ADF80000BDF80000208007E06D1CA8B2B1
:100B8000054600234A46394600F010F83000A6F129
:100B90000106B6B2F2D12088ADF80000BDF8000021
:100BA0002080BDE8F8830000040100202DE9F04713
:100BB000984617468A460646002400F02FF922215F
:100BC00010484FF0D045B8F1000F02D0894680465A
:100BD00014E0298002E001886980641CBC42FAD3D9
:100BE000BDE8F087A5F80090B8F800006880761C92
:100BF000B6B25146304600F011F9641CBC42F1D344
:100C0000EEE7000004010020F0B51C4615460F4633
:100C1000064600232246FFF7C9FF701980B2002361
:100C200022463946FFF7C2FF01232A46394630469D
:100C3000FFF7BCFF381B401C81B22A463046BDE896
:100C4000F0400123FFF7B2BF00B5012197B008467D
:100C500000F07AF905200F9000200921CDE910015C
:100C6000149004211590CDE9001012901021CDE9C7
:100C70000201139004900590069009020790CDE9B7
:100C800008010A900B900C900FA80D900E906846EA
:100C9000FFF7E4FB01210420FFF7D0FB17B000BDF4
:100CA00001484068704700000401002070B500242E
:100CB000FFF7F6FF0546E11CE888484380B2FFF7DE
:100CC0000BFE641CE4B20C2CF5D3BDE8704000F0C0
:100CD00001B8000008484FF6FF7181800021C180F3
:100CE000018141818181C181012202704170817045
:100CF000C170018270470000B400002010B5FFF7FA
:100D0000E9FFBDE810400020FFF7D2BD70B50546F1
:100D10008AB01F2000F07AF8FFF7C2FF04460020D7
:100D200069464FF4A072202302E00B54401CC0B26D
:100D3000A688B2FBF6F6761E8642F6DCA088B2FBE9
:100D4000F0F00844002100F8011CE0886946C0F179
:100D5000F00080B2FFF782FEE0882946C0F1F00083
:100D600080B2FFF77BFE002000F050F80AB070BDA3
:100D700070B588B00021034600E0491C13F8012B30
:100D8000002AFAD11A2900D91A21002220246B4600
:100D90009C54521C1B2AFBD30022C1F11B0404E00B
:100DA000855C02EB5406521C9D558A42F8D3002004
:100DB000FFF77EFD104800F03DF8FFF771FF044695
:100DC0004FF6FF75284600F03BF81F2000F01EF894
:100DD0000020FFF781FDE0886946FFF73FFEE088CD
:100DE00005EA4000FFF778FD002000F00FF8034807
:100DF00000F020F808B070BD140100201C01002094
:100E00004FF0D041088048887047000001B5BDF818
:100E100000000149488008BD040100200B4600B5D0
:100E20000146202000F014F8194621205DF804EB5B
:100E300000F00EB80149486070470000040100202E
:100E400001B5BDF800000149088008BD040100207B
:100E50004FF0D04210805180704700000449027862
:100E6000CA7042780A7080784870084603F098BCCF
:100E70007C00002003F036BCFEE7704770B50F2100
:100E8000C478027801234FF0E026E4B1124C2468C4
:100E900004F4E064C4F5E064C4F30724C4F1040579
:100EA000E1404478AC4085780D4025430B4C290146
:100EB0001155007800F01F018B40400906EB8000BF
:100EC000C0F8003170BD02F01F008340500906EBEE
:100ED0008000C0F8803170BD0CED00E000E400E05F
:100EE0000249084302490860704700000000FA0503
:100EF0000CED00E0024A11400143024801607047D6
:100F000080FFFF1F08ED00E0014801F0B2BB0000C8
:100F10002801002070470000044A0029116801D010
:100F2000014300E081431160704700003038024007
:100F3000044A0029116801D0014300E08143116097
:100F40007047000034380240044A0029116801D07B
:100F5000014300E0814311607047000038380240CF
:100F6000044A0029116801D0014300E08143116067
:100F70007047000040380240044A0029116801D03F
:100F8000014300E081431160704700004438024093
:100F900070B5204A1168204C11F00C0104D01F4E8E
:100FA000042903D0082903D004601BE0066019E07F
:100FB0001849091F0B68C3F380550B6803F03F0302
:100FC00015B1B6FBF3F301E0B4FBF3F30C68096869
:100FD000C4F388146343C1F30141491C4900B3FBC6
:100FE000F1F1016011680F2303EA11110C4B5C5CF5
:100FF0000168E14041601468072505EA94241C5DFE
:1010000021FA04F48460126805EA52329A5CD140F5
:10101000C16070BD083802400024F40040787D01B2
:10102000C60000202DE9F84F00200090FFF76CFC6F
:10103000FFF70AFE052003F049FE0020FFF7E0FE5F
:10104000A0F513414FF480774FF4E06540F202239E
:1010500041F2B07640F2371840F239194FF4E85AAD
:1010600040F23F1B41F21804009020397ED1F90173
:10107000E520FFF7EDFE01210020FFF7E9FE3946EC
:101080000120FFF7E5FE29460220FFF7E1FE41F2CD
:1010900030010320FFF7DCFE00210420FFF7D8FE1B
:1010A00019460820FFF7D4FE00210920FFF7D0FEE3
:1010B00000210A20FFF7CCFE00210C20FFF7C8FE1C
:1010C00000210D20FFF7C4FE00210F20FFF7C0FE16
:1010D00000211020FFF7BCFE00211120FFF7B8FE11
:1010E00000211220FFF7B4FE00211320FFF7B0FE0D
:1010F000142003F0EBFD31461020FFF7A9FE414616
:101100001120FFF7A5FE052003F0E0FD494612205F
:10111000FFF79EFE052003F0D9FD51461320FFF78F
:1011200097FE13212920FFF793FE052003F0CEFD43
:1011300000212020FFF78CFE00212120FFF788FEF0
:1011400007213020FFF784FE07213120FFF780FEC2
:1011500007213220FFF77CFE07213520FFF778FEBC
:1011600007213620FFF774FE294600E068E03720AB
:10117000FFF76EFE29463820FFF76AFE2946392020
:10118000FFF766FE29463C20FFF762FE4FF4F85158
:101190003D20FFF75DFE00215020FFF759FEEF21B3
:1011A0005120FFF755FE00215220FFF751FE59460E
:1011B0005320FFF74DFE4FF41C516020FFF748FE0F
:1011C00001216120FFF744FE00216A20FFF740FE65
:1011D00000218020FFF73CFE00218120FFF738FE30
:1011E00000218220FFF734FE00218320FFF730FE2C
:1011F00000218420FFF72CFE00218520FFF728FE28
:1012000010219020FFF724FE00219220FFF720FEFE
:1012100003219320FFF71CFE4FF488719520FFF700
:1012200017FE00219720FFF713FE00219820FFF7FB
:101230000FFE21460320FFF70BFE40F27311EDE095
:10124000A0F5134125397DD101210020FFF700FED3
:1012500039460120FFF7FCFD29460220FFF7F8FD83
:1012600021460320FFF7F4FD00210420FFF7F0FDE5
:1012700019460820FFF7ECFD00210920FFF7E8FDE3
:1012800000210A20FFF7E4FD00210C20FFF7E0FD1C
:1012900000210D20FFF7DCFD00210F20FFF7D8FD16
:1012A00000211020FFF7D4FD00211120FFF7D0FD11
:1012B00000211220FFF7CCFD00211320FFF7C8FD0D
:1012C000142003F003FD31461020FFF7C1FD414615
:1012D0001120FFF7BDFD052003F0F8FC4946122060
:1012E000FFF7B6FD052003F0F1FC51461320FFF790
:1012F000AFFD13212920FFF7ABFD052003F0E6FC2D
:1013000000212020FFF7A4FD00212120FFF7A0FDF0
:1013100007213020FFF79CFD40F202313120FFF71A
:1013200097FD40F2051319463220FFF791FD40F278
:10133000062529463520FFF78BFD40F60806314685
:10134000362000E06DE0FFF783FD29463720FFF7E8
:101350007FFD40F204513820FFF77AFD0721392044
:10136000FFF776FD19463C20FFF772FD31463D2020
:10137000FFF76EFD00215020FFF76AFDEF2151209D
:10138000FFF766FD00215220FFF762FD594653200A
:10139000FFF75EFD4FF427416020FFF759FD012163
:1013A0006120FFF755FD00216A20FFF751FD002164
:1013B0008020FFF74DFD00218120FFF749FD00212E
:1013C0008220FFF745FD00218320FFF741FD00212A
:1013D0008420FFF73DFD00218520FFF739FD102116
:1013E0009020FFF735FD00219220FFF731FD03210A
:1013F0009320FFF72DFD4FF488719520FFF728FD0E
:1014000000219720FFF724FD00219820FFF720FD01
:1014100021460320FFF71CFD40F233110720FFF7A0
:1014200017FD0348A0F108014860BDE8F88F0000EF
:101430000C0100202DE9FC5F064601210220FFF788
:101440006BFD01211020FFF797FD434D0722062178
:101450002846FFF7B4F8072211462846FFF7AFF8F1
:101460004FF000088DF806804FF001098DF80790C5
:101470000224C0208DF8044000908DF80540694694
:101480002846FFF74BF8354F0021384600F0FAF9AF
:101490003146384600F008FA3068DFF8C4A0810011
:1014A000BAFBF1F16425B1FBF5F06FF0180242438D
:1014B00001EB82024FF0320B0BEB0211B1FBF5F1A5
:1014C00060F31F1139810121384600F0DBF9012159
:1014D0000420FFF721FD0121C804FFF741FD214F42
:1014E00008220A213846FFF76AF808220B213846FD
:1014F000FFF765F88DF806808DF807904FF440608F
:101500008DF8044000908DF8054069463846FFF795
:1015100005F8154C0021204600F0B4F9314620466C
:1015200000F0C2F930686FF018028100BAFBF1F1E7
:10153000B1FBF5F0424301EB82020BEB0211B1FB70
:10154000F5F160F31F1108480830018001212046A1
:1015500000F098F9BDE8FC9F000402400010014033
:1015600000752B7D00080240004C00401CB504466D
:101570000E48012150F82400FFF7CEFC0B48002153
:101580000A3830F81400009001208DF804008DF81E
:1015900006108DF8070002208DF805000448694602
:1015A00050F82400FEF7BAFF1CBD0000D45000081C
:1015B000E80000200349044A31F8101052F82000D6
:1015C000FFF70DB8AC500008F800002070B50446D5
:1015D00025480E4686B050F824000121FFF79CFCF8
:1015E00001218803FFF7C8FC1F4800258DF8105023
:1015F00038388DF8135030F8140003901B4803A9B5
:1016000050F82400FEF78AFF012E2BD11648263809
:1016100010F81410801F10F8140000F02BF8124876
:10162000323830F8140000908DF804500CB10C20C2
:1016300000E008208DF8050001258DF80650684669
:10164000FEF7C4FE0848203810F814008DF8080092
:101650000F208DF809008DF80A008DF80B5002A8B4
:10166000FFF70CFC06B070BDE4500008F800002045
:101670007047000010B58A0721F003040649130FD4
:1016800021440F220C689A4094430C600A689840E9
:1016900002430A6010BD0000083801400CB500206C
:1016A0002749019000900A6842F480320A604FF4A2
:1016B000A0630A6802F400320092019A521C01925F
:1016C000009A12B9019A9A42F3D10A68920334D56A
:1016D000012000901A484030026842F080520260B7
:1016E0001848026842F480420260154808300268D7
:1016F0000260026842F400420260026842F4A052B2
:101700000260031F104A1A600A6842F080720A6081
:101710000A689201FCD50D4A40F20561116001682A
:1017200021F003010160016841F0020101600168DC
:10173000C1F381010229FAD10CBD00900CBD00005B
:10174000003802400070004008544007003C02404E
:10175000124810B5016841F4700101601048016839
:1017600041F0010101600E4A002108321160026857
:101770000C4B1A400260031D0B4A1A60026822F4E7
:101780008022026006480C300160FFF787FF0349A2
:101790004FF000608039086010BD000088ED00E067
:1017A00000380240FFFFF6FE1030002401F0AABC12
:1017B0000029018802D041F0800101E021F0800180
:1017C00001807047C943018270470029018802D017
:1017D00041F0010101E021F0010101807047024662
:1017E0000020138A92890B4202EA010202D0002AE9
:1017F00000D001207047002A828901D00A4300E00E
:101800008A4382817047000030B50288164B174C1E
:1018100098420DD0A0420BD0B0F1804F08D0144DAB
:10182000A84205D0134DA84202D0134DA84203D1BF
:1018300022F070054A882A43104DA84206D0104D68
:10184000A84203D022F440750A892A4302804A68DC
:10185000C2620A880285984201D0A04201D1897AE9
:1018600001860121818230BD000001400004014059
:101870000004004000080040000C00400010004040
:10188000001400400029818902D041F4005101E098
:1018900021F40051818170470246002012880A42DB
:1018A00000D00120704700007FB50446008A0D4635
:1018B00020F44051E88808432082A08941F20C615D
:1018C0008843A9882A8911436A8902431143A18167
:1018D000A08A20F44071A8890843A0826846FFF7D7
:1018E00057FB1D48844202D01C48844201D1039812
:1018F00000E00298A1890904002900EBC00101EB76
:101900000010296802DA4FEA410101E04FEA810143
:10191000B0FBF1F26420B2FBF0F14FEA01114FEAA3
:1019200011136FF018056B4302EB8302A3891D04AA
:101930004FF0320306D503EBC202B2FBF0F000F029
:10194000070005E003EB0212B2FBF0F000F00F001D
:10195000084320817FBD00000010014000140140B9
:10196000C1F308018180704710B500224FF6FF7364
:1019700000EB4204B4F88C45240409D49A4205D003
:1019800000EB420041F40041A0F88C15D0B210BD2C
:10199000521CD2B2082AEBD31A46F7E730B402241D
:1019A0000C7501244C750024CC820A8315064C83E7
:1019B00000EB431202D582F8C44301E082F8C5432C
:1019C000002330BC1A4600F016B80121C0F81013ED
:1019D0000020704770B500EB431404F56C740125CA
:1019E00004F8025C02252571C4E902121946FEF7CB
:1019F00040FE002070BD30B50120CD780446012D99
:101A00000BD0022D08D10A7F0D2A10D00B2A12D03C
:101A10000C2A01D1CC70032030BD0D784D70072504
:101A20000D708A608B810C770222CA7030BDCC7039
:101A30000020087730BDCC70022030BD2DE9F04188
:101A40000E46114907464FF6FF7008801D461446A2
:101A50000EA002F0D3FE07EB4510002180F8AE1374
:101A6000C0E9EE641CB190F8C52322B102E0012167
:101A700080F8C513022180F8B41329463846FEF7D2
:101A8000F8FD0020BDE8F081B80000205553424821
:101A90005F43746C53656E64446174612030303010
:101AA000200A0A0010B500EB421303F56C73002402
:101AB00003F8024C03241C7199600821D960114677
:101AC000FEF7D7FDC0B210BD0221002200EB41039A
:101AD000491CC9B2A3F88C250829F7D30020704708
:101AE00070B50C46002121706170A170012205467D
:101AF000E27022774020A07184F8201084F8212021
:101B00002179284600F021F86179284600F01DF877
:101B1000002070BD0021C0F810130846704770B552
:101B20000A25044605290AD0042908D006290BD124
:101B30002570D0F880000068BDE870400047D4F8F8
:101B40008000406C8047257070BD082908D200EBEA
:101B5000410101F28C50B1F88C15C1F30E010180E6
:101B60000020704730B442F08002DDE902540A756B
:101B700006224A750322CB82B2EB132F02D140F228
:101B8000094200E000220A834C8323462A4630BCE7
:101B9000FFF731BF0A8803781A440A8001780844A5
:101BA000704700002DE9FC47174600F58878CDE91D
:101BB0000087002406460D464FF400732246FFF7C7
:101BC000D1FF5FEA000907D013E0311991F8101135
:101BD0000155641CA4B200E00748BC42F5D343465B
:101BE00005F1500205F13E0105F13400009700F0C7
:101BF000BDFD4846BDE8FC87680700207CB5164659
:101C0000044600F58870CDE900060D464FF4807358
:101C100000222046FFF7A6FF002830D104F5887483
:101C2000082E217805F8221F61786970A178E27882
:101C300001EB022169802179297161796971A179AA
:101C4000A971E179A4F58874E97118D904F58C7447
:101C50002178627801EB02212981A178E27801EBF9
:101C6000022169812179627901EB0221A981A1799F
:101C7000A973E179E973217A2974617A69747CBD69
:101C80007CB51E46069D00F5887442F44073002220
:101C9000CDE90045FFF766FF002814D161780329DC
:101CA00011D121788A1EAA4200DC1546A41CAAB2D2
:101CB000002104E0635C891C06F8013B89B2914273
:101CC000F8D3002131707CBD2DE9FC5F4E4D0446F8
:101CD000DFF838C195F845000F464FF0010804F5CC
:101CE00088764FF021094FF6FF724FF0000A052861
:101CF0004ED2DFE800F00336034E6A004FF00909C8
:101D00009246E346ACF8002041A002F077FDCDE911
:101D100000694FF40453012239462046FFF722FFA1
:101D200000286DD1384EABF800A0543640A002F028
:101D300065FD04F588742078307060787070A07844
:101D4000E17800EB0120708020793071607970714A
:101D5000A079B071E079217A00EB01203081012077
:101D600014E029485430B0F80890ACF8002038A0AE
:101D700002F044FDCDE900694FF4085301223946D1
:101D80002046FFF7EFFE00283AD1032085F84500F2
:101D900036E0ACF8002036A002F030FD87F8149051
:101DA0000A207875A7F816A0A7F818A00023A7F8AE
:101DB0001AA01A4639462046FFF71DFE042108B135
:101DC00003281DD185F845101AE0ACF8002031A099
:101DD00002F014FD87F814900B2078750120F8822A
:101DE000A7F818A000235646A7F81AA01A463946A5
:101DF0002046FFF700FE18B985F845604FF000084F
:101E00004046BDE8FC9F000068090020B8000020A3
:101E1000555342485F4849445F48616E646C652091
:101E200037373737373737373737200A0000000062
:101E3000555342485F4849445F48616E646C652071
:101E400031323132313231323132200A0000000079
:101E5000555342485F4849445F48616E646C652051
:101E600036363636363636363636200A000000002C
:101E7000555342485F4849445F48616E646C652031
:101E80003838383838383838383838383838200A18
:101E900000000000555342485F4849445F48616E66
:101EA000646C652031303130313031313030200ACE
:101EB000000000002DE9F05F3C4F83464FF6FF75B0
:101EC00089464FF0000A3D8039A002F097FC3E4C55
:101ED000032694F8420040B1DFF8F080032818D0C0
:101EE00004280CD005285DD128E03D8038A002F000
:101EF00085FC206D00688047042084F842003D8006
:101F00003BA002F07BFC584601F0B2FB012847D011
:101F100048E03D803DA002F071FC14F8403F2A49A2
:101F2000A279584600F050FB012188F800100520E6
:101F3000A0705846FEF75CFBA08133E03D803BA0DB
:101F400002F05CFC5846FEF753FBB4F84C10401A04
:101F5000B4F84A10884223D294F840105846FEF74D
:101F600051FB012807D094F840105846FEF74AFB71
:101F700004280CD016E098F800104046012911D131
:101F800000210170206D41680F4888470AE094F8ED
:101F9000403094F8482049465846FFF7FFFC08B9FE
:101FA00084F842605046BDE8F09F0000B800002071
:101FB000555342485F4849445F48616E646C6520F0
:101FC0003131313131200A006809002080000020C1
:101FD000555342485F4849445F48616E646C6520D0
:101FE00032323232323232323232200A00000000D3
:101FF000555342485F4849445F48616E646C6520B0
:1020000033333333333333200A000000555342480F
:102010005F4849445F48616E646C652034343434F1
:1020200034343434343434200A00000055534248E8
:102030005F4849445F48616E646C652035353535CD
:10204000353535200A00000070B50F4C06460025D6
:1020500094F8401041B101F0F0F994F84010304686
:10206000FFF773FD84F8405094F8411041B13046B9
:1020700001F0E3F914F8411F3046FFF766FD2570C3
:102080000248057070BD0000680900208000002033
:102090002DE9FC47344D8246062085F8420091F830
:1020A0004400002601270C46012806D0D1F8800004
:1020B000006C80473846BDE8FC8794F8450001284D
:1020C00002D0022802D003E0284800E02848286512
:1020D0004FF0000905F8429F85F8039014F8520F5D
:1020E000A8716088A88020792881523C423D0A2846
:1020F00002D20A20A5F84A0094F84270022F2CD987
:102100005FF0020704EBC6004FF0030890F852108E
:102110000A060BD54035297190F852105046FFF74A
:1021200023FC28700146E888403D0BE085F8431009
:1021300090F852105046FFF717FC85F84100014611
:10214000B5F84600CDE9008094F8213094F82020BD
:10215000504600F0E2FA761CF6B2BE42D2D30549F0
:1021600081F800900027A5E768090020940000206E
:1021700074000020800000202DE9F05F00260C464E
:102180008E748046097F0B2509270120DFF8B8915E
:102190004FF0080B4FF0050A0C2917D2DFE801F0C9
:1021A000D1060E39415A677B84A3B4C4627904F125
:1021B00014014046FFF776FC0220BBE061794046FF
:1021C000FEF720FA012802D003281ED0B9E0207DB6
:1021D000618B00F0800051B141F28832A9F80020F3
:1021E000802802D084F81CA008E0032005E03222F9
:1021F000A9F80020802806D0072020774046FEF767
:10220000F7F920829DE02777F8E7257784F812A078
:1022100097E02379A2894046A168FFF7DBFB042001
:1022200088E021794046FEF7EDF901280DD0042819
:102230000DD0032876D04046FEF7DAF9218A411AFC
:10224000B9F8000081426DD87BE02777F3E760782A
:10225000207076E0627908EB421181F8C50363795A
:10226000A2894046A168FFF7E9FB062062E0617998
:102270004046FEF7C7F9012804D0042804D00228FC
:1022800006D049E0072055E0607820700C2051E02E
:1022900084F81CA055E00022237911464046FFF740
:1022A00099FB84F81CB04CE021794046FEF7AAF96E
:1022B000074601280DD0032F34D04046FEF798F989
:1022C000218A411AB9F8000081422BD8042F04D08A
:1022D00037E0607820700D202CE0607820700420BA
:1022E000A07403262DE06179002208EB411090F8DC
:1022F000C51381F0010180F8C5136379114640468A
:10230000FFF79CFB0A2015E061794046FEF77AF959
:102310000128DED0022803D0032803D011E001E019
:1023200027770EE025770CE0A17B491CC9B2A17389
:10233000022901D8207704E084F812B06078207078
:1023400002263046BDE8F09F700000202DE9F047DE
:102350000C46824601278978FF206F4E92B04FF0DD
:102360000008B9464FF6FF750A2967D2DFE801F089
:10237000052D4067708396ADC1CB358067A002F014
:102380003DFA082221465046FFF738FC002855D177
:10239000358067A002F032FA94F82900A071504607
:1023A000FEF762F984F80290A0790023CDE900805D
:1023B000454661791A46504600F042F9A07900235B
:1023C000CDE9005021791A4635E0122221465046C7
:1023D000FFF714FC0028DAD135805AA002F00EFA7B
:1023E000D4F88000C16904F122008847022088E007
:1023F00001222146504600F0E7FB00281ED10220B2
:1024000000F09CFEA41C84F81E90D4F87E00006AA4
:10241000804703202070CDF80080CDF80480454629
:10242000A27FA1780023504600F00AF9009501959B
:10243000A27FE1780023504600F002F968E009220B
:1024400021465046FFF7AEFB002861D1042058E03A
:10245000E28E21465046FFF7A5FB002858D1D4F85C
:10246000800004F1500204F13E01436A04F134009B
:102470009847052045E094F83020062552B1009099
:1024800002AB21465046FFF7FBFB88BBD4F8800027
:10249000816A11E0D4F88000816A12E094F831205A
:1024A00007255AB1009002AB21465046FFF7E8FBE2
:1024B000F0B9D4F88000C16A02A803E0D4F8800023
:1024C000C16A28A08847A57022E094F83220082528
:1024D00052B1009002AB21465046FFF7D1FB38B90C
:1024E000D4F88000016BE7E7D4F88000016BE8E7DF
:1024F0000EE094F839202146504600F071FB38B9BF
:102500000920A07004E0358017A002F077F90027B9
:1025100012B03846BDE8F087B8000020454E554D52
:102520005F49444C45203434343434200A000000E0
:10253000454E554D5F49444C45203535353535358B
:10254000200A0000454E554D5F4745545F46554CA7
:102550004C5F4445565F444553432034343434344F
:10256000200A00004E2F4100454E554D5F4745540F
:102570005F46554C4C5F4445565F444553432035B8
:1025800035353535200A00002DE9F0411D46144649
:102590000F468046069E00F063FD002000F028FDF7
:1025A00021464046FFF79CFA7C343946C4E9005680
:1025B0004046FEF72BF86068006880474046BDE85B
:1025C000F04100F038BD00002DE9F0410D46124900
:1025D00007464FF6FF7008801C4616460FA002F013
:1025E0000DF907EB4410012180F8AE13C0E9EE5657
:1025F00090F8C41369B1022280F8B42381F001017C
:1026000080F8C41321463846FEF733F80020BDE8B1
:10261000F0810022F0E70000B80000205553424846
:102620005F496E7465727275707452656365697620
:10263000654461746120313131200A0A00000000D4
:1026400070B500EB4114059D0AB184F8AC23B4F8D1
:10265000B223AA4202D00DB1A4F8B25394F8AF232A
:102660009A4202D00BB184F8AF3300F004FF00208F
:1026700070BD38B50546002400200090284600F0C3
:10268000FDFF002847D0284600F0FFFF009000988B
:1026900008B9002038BD0098C0F3C00018B1284622
:1026A00001F070FF04430098C0F3001018B12846F1
:1026B00001F0B5FE04430098C0F3401018B128465D
:1026C00001F0EEFC04430098C0F3806018B1284686
:1026D00001F00EFE04430098C0F3406018B1284694
:1026E00001F0B7F804430098C0F3006018B1284621
:1026F00001F06EFD04430098C0F3407018B1284605
:1027000001F06EF804430098C0F3405018B1284619
:1027100001F07CF804432046BCE72DE9F04100EBD2
:102720004104DDE9066704F28C5594F88C4504F009
:102730007F0C00EB411404F56B7484F801C02D7814
:10274000C5F3C015A57022706671E780E3700022A2
:1027500022766276A4F56B7413B9012284F8B02353
:1027600000F089FE0020BDE8F08100002DE9FF4F58
:1027700085B0054619781298297059786970924683
:102780009978DA781C4601EB022169801979297160
:102790005A796A719A79AA71DA79EA71227A2A7277
:1027A00009286DD90920DFF8E080ADF80C00022976
:1027B0005CD960E003A92046FFF7ECF904464078B5
:1027C000042853D194F90270069807EBC70101EB76
:1027D000000BE078032849D22146684600F056F8FD
:1027E0009DF804000026022840D83BE003A92046BB
:1027F000FFF7D0F904464078052833D10AEB0710DB
:1028000000EBC60998F80000B84202D088F80070C2
:1028100007E02079617900EB0121B8F802008142DC
:1028200024D36946584600F031F8217889F8001021
:10283000617889F80110A17889F80210E17889F8A7
:10284000031021796279761C01EB0221A9F80410AA
:10285000A17989F806102079617976B200EB012020
:10286000A8F802009DF80400B042BFDC6888BDF8FB
:102870000C1088429ED80021A8F8021088F8001099
:1028800009B0BDE8F08F00005C0000200A780270FB
:102890004A7842708A788270CA78C2700A79027166
:1028A0004A7942718A798271CA79C271097A017250
:1028B000704700002DE9FC4702250C4681468DF843
:1028C0000050FDF7CEFE20B9207810B1022800D0CC
:1028D00025702078714E4FF0000804F120074FF664
:1028E000FF750B2850D2DFE800F00616C14F51816A
:1028F0009FAB654FB1004846FDF7B3FE002843D0BB
:10290000358067A001F07AFF01202070BDE8FC4708
:10291000642000F013BC358065A001F06FFFD4F88F
:1029200080008068804700214846FFF71DF86071ED
:1029300080214846FFF718F820714846FDF794FEBD
:10294000002821D1241DE06FC06880474846FDF76C
:1029500053FEC0B26077042104F8041CE16F89695A
:102960008847A0784546CDE90080637F227F2178A3
:102970004846FFF7D2FEA078CDE90050637F227F62
:1029800061784846FFF7C9FEBDE8FC8735804EA058
:1029900001F034FF21464846FFF7D8FC0028F3D168
:1029A00035804FA001F02AFFD4F88000406B8047AB
:1029B000082019E0358053A001F020FFD4F88000F2
:1029C000806B80470128DFD1358054A001F016FFCD
:1029D000E06F21460268484690470028D4D13580F0
:1029E00054A001F00BFF05202070CDE7E06F2146D9
:1029F0008268484690478DF80000358053A001F06A
:102A0000FDFE9DF80000358048B157A001F0F6FEAC
:102A10009DF800102046BDE8FC47FFF780B85AA09B
:102A200001F0ECFE0620DFE735805FA001F0E6FE56
:102A3000E06F2146C268484690478DF80000E7E7FE
:102A400021464846BDE8FC47FFF796BB214648466D
:102A5000FFF746F8D4F8800040688047E06F3946B9
:102A6000426802B04846BDE8F0471047D4F88000FD
:102A70000069804721464846FFF732F8D4F88000C5
:102A800040688047E06F394642684846904748466C
:102A9000FFF71AF884F8008076E70000B8000020FD
:102AA000484F53545F49444C45203131200A0000BF
:102AB000484F53545F4445565F4154544143484541
:102AC00044203131200A0000484F53545F454E5591
:102AD0004D45524154494F4E203131200A000000EB
:102AE000555342485F48616E646C65456E756D284C
:102AF00029203D20555342485F4F4B203131200A59
:102B000000000000484F53545F5553525F494E50E8
:102B10005554203131313131200A0000484F53548F
:102B20005F5553525F494E50555420323232323243
:102B300032200A00484F53545F5553525F494E505C
:102B4000555420333333333333200A00484F535422
:102B50005F434C4153535F524551554553542031C7
:102B600031313131200A0000484F53545F434C410A
:102B700053535F5245515545535420333333333308
:102B80003333200A00000000484F53545F434C4148
:102B900053535F52455155455354203232323232ED
:102BA0003232200A00000000484F53545F434C412A
:102BB00053532829203D20555342485F4F4B203224
:102BC00032200A000020704730B400230B75052422
:102BD0004C75CA820B834B8330BC1A46FEF70BBF81
:102BE00030B400230B7509244C75CA820B834B83C8
:102BF00030BC1A46FEF7FFBE4A7908494FF6FF700F
:102C0000082A05D0032A07D10880054801F0F6BD3F
:102C1000088003482138F9E770470000B800002019
:102C20003A4E0008704770474FF6FF70024908801F
:102C3000024801F0E3BD0000B80000206C4D000820
:102C400070B50020FEF7E2F80020FEF7F9F8FEF775
:102C50002DF880235A22DC216420FDF7D5FF4FF6A2
:102C6000FF752846FEF7ECF809A1C620FDF7F6FE31
:102C700007A1D220FDF7F2FE0E4C4FF478402080E1
:102C80000DA001F0BBFD0E4801F0B8FD258070BD20
:102C90002020202020202020202020202020202034
:102CA0002020202020202020202020202020202024
:102CB00020202000B80000204552524F523A2000F8
:102CC0007F4D000803494FF6FF70088002A001F015
:102CD00095BD0000B80000203E204465766963651C
:102CE000206E6F7420737570706F727465642E0A35
:102CF000000000004FF6FF710A4A38B1012809D0E0
:102D0000022811800AD0084801F078BD06481180D9
:102D10005938F9E7044811803B38F5E702481D3877
:102D2000F2E70000B8000020084E000870B58EB031
:102D3000044602890AA1684601F070FD0C4E4FF668
:102D4000FF756846358001F059FD628909A1684622
:102D500001F064FD3580684601F050FD0EB070BD95
:102D6000564944203A2025303458680A00000000B3
:102D7000B8000020504944203A2025303458680AD1
:102D80000000000010B50C484FF6FF7404800B489B
:102D900001F034FD4FF4FC60FEF752F808A1C620A4
:102DA000FDF75CFE0FA1D220FDF758FE2046BDE8DE
:102DB0001040FEF745B80000B8000020964D00080E
:102DC000546F20737461727420746865204849449C
:102DD00020636C617373206F7065726174696F6ECC
:102DE000733A20005072657373204B65792E2E2E36
:102DF00020202020202020202020202020202020D3
:102E00002020202020202000154810B541780029DE
:102E100024D1012141700020FEF7A8FB0120FEF71C
:102E2000A5FB0220FEF7A2FB0320FEF79FFB00217B
:102E30000220FEF7CBFBFEF7F5F8FDF75FFF09A0D8
:102E4000FDF796FF0D494FF6FF7008800CA001F0CA
:102E5000D5FCBDE8104012A0FDF758BF10BD000022
:102E60000400002020555342204F5447204853204F
:102E700048494420486F737400000000B8000020E7
:102E80003E2055534220486F7374206C6962726112
:102E9000727920737461727465642E0A00000000F8
:102EA000202020202055534220486F7374204C6905
:102EB00062726172792076322E312E30000000006D
:102EC00000B599B0024606A1684601F0A7FC094981
:102ED0004FF6FF700880684601F090FC19B000BD05
:102EE0004D616E756661637475726572203A202556
:102EF000730A0000B800002010B5074C4FF478406A
:102F0000208006A001F07AFC06A001F077FC4FF6C5
:102F1000FF70208010BD0000B80000204552524FC5
:102F2000523A20004F76657263757272656E742036
:102F300064657465637465642E0A000000B599B019
:102F4000024606A1684601F069FC08494FF6FF7089
:102F50000880684601F052FC19B000BD50726F64E1
:102F6000756374203A2025730A000000B800002021
:102F70007047000000B599B0024606A1684601F00E
:102F80004DFC09494FF6FF700880684601F036FC99
:102F900019B000BD53657269616C204E756D626534
:102FA00072203A2025730A00B800002010B5074CA3
:102FB0004FF47840208006A001F020FC064801F084
:102FC0001DFC4FF6FF70208010BD0000B8000020EF
:102FD0004552524F523A20008B4E000810B5002443
:102FE0000220FEF7E7FA00B90124204610BD0000D8
:102FF0001CB501218020FDF78FFF202000900320C9
:103000008DF8050001208DF8040000208DF80600E1
:10301000074C8DF8070069462046FDF77FFA20210E
:103020002046FDF7E3FAC82000F088F81CBD000038
:10303000001C0240704708B54FF4C060FDF750FF18
:103040004D208DF8000001208DF8010003218DF83E
:1030500002108DF803006846FDF710FF08BD000060
:10306000FEB501210846FDF757FF4FF4C050032578
:1030700000908DF8055002208DF8040000208DF896
:1030800006001F4E8DF8070069463046FDF746FAE8
:103090000A220B213046FDF792FA0A220C21304613
:1030A000FDF78DFA012430158DF8064000908DF85B
:1030B00007408DF8055069463046FDF72FFA01218B
:1030C0008803FDF759FF01218020FDF731FF002122
:1030D000E006FDF70FFF4FF4A060FDF701FF1C2095
:1030E0008DF808008DF809408DF80A408DF80B40E6
:1030F00002A8FDF7C3FE01210846FDF731FFFEBD22
:103100000000024010B501218C072046FEF767FB46
:10311000002809D001212046FEF754FB0649086823
:1031200018B10868401E086010BD2046BDE8104078
:103130000021FEF74ABB0000000000200121FDF73E
:10314000A3B80221FDF7A0B870B50446017A0025A6
:10315000C068012915D0C16841F04001C160204616
:1031600000F0A0F8617A4FF4341009B14FF47410F4
:10317000E16888631420FFF7E1FFE07801281BD0A5
:1031800022E0816B627A21F480310AB141F480112E
:103190008163E068C16821F0401121F4202141F4ED
:1031A0008011C160204600F07DF8E07801280BD145
:1031B000E1682A208860E0E7E068816821F01E016C
:1031C0000A3141F020018160284670BD2DE9F047A9
:1031D0004FF00009C84606464F4644464546FFF7AD
:1031E00007FFD6F80C010460307A01280FD00121C6
:1031F000304600F037FA304600F065FA7069016831
:1032000021F004010160F07A012802D013E00021CE
:10321000EEE7F1688020486260F30F04F1686020F7
:1032200060F31F448C62E02161F30F0560F31F45DA
:10323000F068C0F80051F07A98B9F1684FF4007066
:10324000486260F30F04F168401060F31F448C6221
:103250004FF4407161F30F0560F31F45F068C0F84B
:1032600000511021304600F0B3F8304600F094F8D9
:1032700040464FF0FF3207E006EB870151F8903FE0
:103280009A600968C8607F1C3178B942F4D801217E
:10329000304600F03BF8304600F05AF84846BDE8AA
:1032A000F0870000F8B5002704463E460097124D0F
:1032B0000320FFF746FFE06800690090761CAE42ED
:1032C00001D90020F8BD00980028F1DA009900200B
:1032D00041F0010100910099E2681161E1680A6919
:1032E0000092401CA84202D8009AD207F7D10320CE
:1032F000FFF727FF3846F8BD400D0300C0680021E6
:10330000826822F0010282600846704770B50C4660
:103310000546FFF78FFE284600F0BCF9C10404D42F
:10332000012C08D140F4805002E024B920F48050F0
:10333000D5F8CC100860BDE87040C820FFF7FEBE8D
:10334000C0680021826842F001028260084670472E
:1033500010B5C368002211469A61C468531E6361A8
:10336000C4686360C4686FF080436361C468094BDC
:10337000A361C37803B91021C06841F00C5141F03A
:103380000801836941F400118B430B4383611046AC
:1033900010BD00000008008038B5002421460094CC
:1033A000009A42F010020092009AC3681A61074A1C
:1033B000C06803690093491C914202D8009BDB0658
:1033C000F7D40320FFF7BDFE204638BD400D0300B3
:1033D00038B5002422460094009B43F0200300935C
:1033E000009B61F38A1300930099C3681961074930
:1033F000C06803690093521C8A4202D8009B9B0656
:10340000F7D40320FFF79DFE204638BD400D030092
:1034100010B500EB8100002350F8901F4FF00042E0
:10342000012464F3DC420A610068016821F08041F4
:1034300041F000410160184610BD10B500EB81015C
:103440000022D1F89030196841F0404111F4402F2A
:1034500009D0C1F38144022C05D04069006910F401
:103460007F0F03D004E0C068C06AF8E721F0004194
:103470001960104610BDF0B5074607EB8106002025
:10348000D6F890500446431E2246AB60FB78012BD1
:1034900000D1042207EB411393F8B15335B1012D4C
:1034A0001FD0022D02D0032D27D10EE042F0890556
:1034B00045F4826293F8AE5385B993F8B05342F065
:1034C0004002D5B142F0200217E093F8AEC342F0BB
:1034D000990545F4C062BCF1000F0ED042F4807231
:1034E0000BE093F8AEC342F0010242F40872BCF163
:1034F000000F02D042F08002F0E7D6F89050EA6068
:1035000001228A4079698D6915438D61F9688A695C
:1035100042F000728A6193F8AC1361F39C5493F803
:10352000AD1361F3CE2493F8AE1361F3CF3493F867
:10353000AF1302290CD024F4003193F8B123B3F86F
:10354000B23362F3934163F30A01032A03D004E028
:1035500044F40031F1E741F00051D6F890201160B9
:10356000F0BDF0B500EB411405460026D4F8BC03CD
:103570004FF48077334668B1B4F8B2231044401E4C
:10358000B0FBF2F080B2B84205D912023846C4F856
:10359000BC2300E0012094F8AE23AAB1B4F8B22312
:1035A0004243C4F8BC2362F3120360F3DC4394F893
:1035B000B40305EB810260F35E73D2F890000361FF
:1035C000E878012803D007E0D4F8BC23EBE7D2F871
:1035D0009030D4F8B803586152F8900F0368284629
:1035E00000F046F860F35D73126823F0804040F00D
:1035F00000401060E87898BB94F8AE0380BBD4F824
:10360000BC0368B394F8B12332B1012A11D0022A65
:1036100002D0032A1AD10CE0EA68D36AC01CC0F3B6
:103620008F009BB2834211D2906940F020009061DC
:103630000CE06A691269C01CC0F38F0092B282422A
:1036400004D2E868826942F080628261B4F8BC0307
:103650000A4683B2D4F8B8030146284600F0A8FF12
:103660003046F0BD4269106861F301001060704798
:103670004069806840F30000401C7047C0684069A2
:1036800010F0010000D001207047C06841698069D6
:1036900008407047D0F8CC00006820F02E0070473A
:1036A000406940697047034610B50020D21C92085B
:1036B000D3F8D03003E01C6841F8044B401C904222
:1036C000F9D3084610BD70B50446FFF7E3FF40F498
:1036D000807554F8CC0F05600A20FFF72FFD216894
:1036E00025F4807008601420FFF728FD012070BDCC
:1036F00070B50022C27001238370402686800226A6
:1037000014461546012901D059B115E0C3720821AC
:10371000017004214FF0A04241709115C1800672E2
:103720000AE0C5720C210170062141704FF4A061BE
:10373000C1801F4A0672C37002F50061C0E903210F
:1037400000210AE002EB411303F5106600EB81054E
:1037500003F53063AE61491C6B6543788B42F1D849
:1037600002F5806141614031C0F8CC10002108E0D1
:1037700002EB411300EB810503F5A063491CC5F87A
:10378000903003788B42F3D8002108E002EB01333C
:1037900000EB810503F58053491CC5F8D030037850
:1037A0008B42F3D802F56062C0F80C21204670BD50
:1037B0000000044010B5C0680024C268012922F04E
:1037C000C04201D019B104E042F0005201E042F0E1
:1037D0008042C2603220FFF7B1FC204610BD0000DD
:1037E00038B50446002000900748006881682046EC
:1037F0008847009820F0005000F100500090009899
:10380000E1684861012038BD6C0000200CB501461C
:10381000D1F8900000680090009820F0004000F17E
:1038200000400090009820F0804000F1804000901F
:10383000009AD1F89000026000200190019820F4D5
:10384000001000F5001001900198CA685061012035
:103850000CBD7CB50546002400262846FFF720FF56
:10386000019000BF1BE0019880B20121A1400842F5
:1038700014D005F1900050F82400006800900098E2
:10388000C0F3C03028B12146284600F00DF80643A9
:1038900004E02146284600F01BFA0643641C287801
:1038A000A042E0D830467CBD70B586B005460C46D7
:1038B00005F1900050F82460B0680590F06804901D
:1038C000DDE904100840059005F1900050F824004F
:1038D00000680390002004900598C0F38000D0B1E8
:1038E00000200190019820F00400001D0190019833
:1038F000B06005F1900050F82400C0680190019874
:1039000020F00200801C019005F1900050F8240086
:103910000199C16073E00598C0F3401048B10020E0
:103920000190019820F02000203001900198B060B3
:1039300065E00598C0F3C00078B305F1900050F839
:103940002400C0680190019820F00200801C0190C2
:1039500005F1900050F824000199C160052105F59A
:103960006370015500200190019820F01000103084
:1039700001900198B06000200190019820F00800AB
:10398000083001900198B060059820F01000059073
:10399000E1B22846FFF751FD31E0FFE70598C0F39B
:1039A000802060B305F1900050F82400C0680190B9
:1039B000019820F00200801C019005F1900050F861
:1039C00024000199C160E1B22846FFF736FD0020CE
:1039D0000190019820F01000103001900198B06023
:1039E000082105F56370015500200190019820F42D
:1039F000806000F5806001900198B06000BF05987C
:103A0000C0F34020F8B105F1900050F82400C068E0
:103A10000190019820F00200801C019005F19000B7
:103A200050F824000199C160E1B22846FFF705FD76
:103A300000200190019820F4007000F500700190C2
:103A40000198B06041E1059810F0010F71D0E8785D
:103A5000012812D105F1900050F82400006902906D
:103A600005F56B7000EB441000690299C1F3120177
:103A7000411A05F5547040F82410012105F56370D2
:103A800001550021783840F8241000200190019859
:103A900020F00100401C01900198B0600398C0F331
:103AA000814020B10398C0F3814002282AD105F15A
:103AB000900050F82400C0680190019820F00200A6
:103AC000801C019005F1900050F824000199C1601C
:103AD000E1B22846FFF7B1FC00200190019820F0E8
:103AE0001000103001900198B06005F56B7000EB8C
:103AF0004410007E80F0010105F56B7000EB44106E
:103B00000176E2E00398C0F3814003289AD103983C
:103B100020F0005000F10050039005F1900050F8A3
:103B2000240003990160012105F29B300155CCE08E
:103B3000FFE70598C0F34000002851D005F1900040
:103B400050F82400C0680190019820F00200019014
:103B500005F1900050F824000199C16005F56370EB
:103B6000005D012804D1012105F29B3001552DE0B3
:103B700005F56370005D052804D1042105F29B3032
:103B8000015523E005F56370005D062804D005F5B6
:103B90006370005D082808D1002105F5457040F8E4
:103BA000241003218730015510E00398C0F38140B1
:103BB00003280BD105F56B7000EB4410007E80F0FC
:103BC000010105F56B7000EB4410017600200190B7
:103BD000019820F00200801C01900198B06074E010
:103BE0000598C0F3C01040B305F1900050F82400D0
:103BF000C0680190019820F00200801C019005F13E
:103C0000900050F824000199C16005F5457050F806
:103C10002410491C40F82410062178300155E1B2E7
:103C20002846FFF70AFC00200190019820F0800050
:103C3000803001900198B06047E00598C0F3001013
:103C4000F0B30398C0F38140032815D105F190002B
:103C500050F82400C0680190019820F00200801CF8
:103C6000019005F1900050F824000199C160E1B283
:103C70002846FFF7E2FB18E00398C0F3814020B12B
:103C80000398C0F3814002280FD1039820F0004030
:103C900000F100400390039820F08040039005F16C
:103CA000900050F8240003990160032105F563702A
:103CB000015500200190019820F01000103000E024
:103CC00003E001900198B06000BF012006B070BD14
:103CD0007FB505460C4605F1900050F82460B068A9
:103CE0000390F0680290DDE902100840039005F1AE
:103CF000900050F82400006801900398C0F3800001
:103D0000D0B100200090009820F00400001D009029
:103D10000098B06005F1900050F82400C068009051
:103D2000009820F00200801C009005F1900050F8EF
:103D300024000099C160B0E10398C0F3401048B17D
:103D400000200090009820F0200020300090009883
:103D5000B060A2E10398C0F34020F8B105F19000F3
:103D600050F82400C0680090009820F00200801CE9
:103D7000009005F1900050F824000099C160E1B274
:103D80002846FFF75AFB00200090009820F40070AE
:103D900000F5007000900098B0607EE1039810F08C
:103DA000010F27D0002105F5457040F8241005F1DA
:103DB000900050F82400C0680090009820F00200A5
:103DC000801C009005F1900050F824000099C1601B
:103DD000E1B22846FFF731FB00200090009820F068
:103DE0000100401C00900098B060012105F563704F
:103DF000015552E10398C0F3C00010B300200090B9
:103E0000009820F00800083000900098B06005F19C
:103E1000900050F82400C0680090009820F0020044
:103E2000801C009005F1900050F824000099C160BA
:103E3000E1B22846FFF701FB052105F56370015546
:103E40002BE10398C0F3001038B3002105F545704D
:103E500040F8241005F1900050F82400C06800904C
:103E6000009820F00200801C009005F1900050F8AE
:103E700024000099C160E1B22846FFF7DEFA002075
:103E80000090009820F01000103000900098B06072
:103E9000032105F563700155FFE00398C0F3C010DE
:103EA00040B305F1900050F82400C06800900098DD
:103EB00020F00200801C009005F1900050F82400D2
:103EC0000099C160E1B22846FFF7B7FA05F54570E1
:103ED00050F82410491C40F8241006217830015570
:103EE00000200090009820F0800080300090009822
:103EF000B060D2E00398C0F3801038B3002105F51C
:103F0000457040F8241005F1900050F82400C06876
:103F10000090009820F00200801C009005F19000B5
:103F200050F824000099C160E1B22846FFF785FAF5
:103F300000200090009820F0400040300090009851
:103F4000B060042105F563700155A6E00398C0F345
:103F5000802060B305F1900050F82400C068009004
:103F6000009820F00200801C009005F1900050F8AD
:103F700024000099C160E1B22846FFF75EFA0020F4
:103F80000090009820F01000103000900098B06071
:103F9000082105F56370015500200090009820F479
:103FA000806000F5806000900098B06075E0039834
:103FB000C0F34000002870D005F1900050F82400B4
:103FC000C0680090009820F00200009005F1900079
:103FD00050F824000099C16005F56370005D012868
:103FE00015D1012105F29B3001550198C0F38140A4
:103FF000022848D105F56B7000EB4410407E80F03C
:10400000010105F56B7000EB441041763BE005F5CE
:104010006370005D032804D1022105F29B30015535
:1040200031E005F56370005D04280FD105F56B7074
:1040300000EB44100079012803D1E1B22846FFF7D4
:10404000E7F9022105F29B3001551CE005F563708C
:10405000005D052804D1042105F29B30015512E0D2
:1040600005F56370005D06280DD105F5457050F823
:104070002400032807D1032105F29B3001550021BC
:10408000873840F8241000200090009820F00200AB
:10409000801C00900098B06000BF012004B070BD8B
:1040A0007FB50446E068C06A00900198C0F3C30180
:1040B00004F56B7000EB41100069C01CC0F38F0663
:1040C00073E04FF6FF71009801EA80050198C0F394
:1040D000C30104F56B7000EB41100069A84215D2D2
:1040E0000198C0F3C30104F56B7000EB4110008A26
:1040F00085B200200390039820F020002030039028
:10410000E068806903998843E16888610198C0F399
:10411000C30104F56B7000EB41100069C01CC0F3D3
:104120008F060198C0F3C302C0F3C30304F56B709C
:1041300000EB43102B46C168204600F039FA019885
:10414000C0F3C30104F56B7000EB4110C068411966
:104150000198C0F3C30204F56B7000EB4210C1601C
:104160000198C0F3C30104F56B7000EB41100069C6
:10417000411B0198C0F3C30204F56B7000EB4210C1
:1041800001610198C0F3C30104F56B7000EB4110AD
:10419000406941190198C0F3C30204F56B7000EB4C
:1041A00042104161E068C06A0090009880B2B0425D
:1041B0000ADD0198C0F3C30104F56B7000EB4110F8
:1041C000006900287FF47DAF012004B070BD0000BD
:1041D000FEB50446002600250020009002900190C4
:1041E000D4F8CC0000680290D4F8CC0000680190AC
:1041F000019820F004000190019820F00200019045
:10420000019820F008000190019820F02000019012
:104210000298C0F3400058B1019820F00200801CC1
:1042200001903248006841682046884745F0010502
:104230000298C0F3C000002842D0019820F0080086
:10424000083001900298C0F38000002838D0274839
:1042500000684168204688470298C0F34140022820
:1042600004D00298C0F34140012828D16069006859
:1042700000900298C0F34140022811D141F27071C0
:1042800060694160009800F00300022818D0207A8D
:10429000022803D102212046FFF7E4F901260FE0AE
:1042A0004BF6803160694160009800F003000128FE
:1042B00006D001212046FFF7D5F9012600E00126AE
:1042C0000298C0F3401030B1019820F02000203057
:1042D000019045F0010516B12046FFF7F4F9019968
:1042E000D4F8CC0001602846FEBD00006C00002020
:1042F000FEB504466069006900900198C0F3C301EF
:1043000004F56B7000EB41100069C01CC0F38F0610
:1043100074E04FF6FF71009801EA80050198C0F340
:10432000C30104F56B7000EB41100069A84216D27E
:104330000198C0F3C30104F56B7000EB4110008AD3
:1043400085B200200290029820F0806000F1806029
:104350000290E068806902998843E1688861019869
:10436000C0F3C30104F56B7000EB41100069C01C81
:10437000C0F38F060198C0F3C302C0F3C30304F572
:104380006B7000EB43102B46C168204600F010F91B
:104390000198C0F3C30104F56B7000EB4110C068D5
:1043A00041190198C0F3C30204F56B7000EB421091
:1043B000C1600198C0F3C30104F56B7000EB4110BC
:1043C0000069411B0198C0F3C30204F56B7000EB58
:1043D000421001610198C0F3C30104F56B7000EB5A
:1043E0004110406941190198C0F3C30204F56B7094
:1043F00000EB42104161606900690090009880B252
:10440000B0420ADD0198C0F3C30104F56B7000EB04
:104410004110006900287FF47CAF0120FEBD30B55B
:1044200085B00446002000900390039820F010000F
:1044300010300390E068806903998843E1688861DF
:10444000E068006A0490049800F00F00009004F106
:1044500090009DF8001050F8210000680190049829
:10446000C0F34340022806D0032878D0052877D02F
:10447000072873D175E00498C0F30A10002869DD9D
:1044800004F56B709DF8001000EB4110C068002827
:1044900060D00498C0F30A1204F56B709DF80030E8
:1044A00000EB4310C1682046FFF7FDF8049800F0C8
:1044B0000F0104F56B7000EB4110C0680499C1F363
:1044C0000A110144049800F00F0204F56B7000EB30
:1044D0004210C160049800F00F0104F56B7000EB0E
:1044E000411040690499C1F30A110144049800F095
:1044F0000F0204F56B7000EB4210416104F56B7024
:104500009DF8001000EB4110456904F554709DF8CA
:10451000001040F8215004F190009DF8001050F870
:104520002100006902900298C0F3C940002811DD03
:10453000019820F0004000F100400190019820F027
:104540008040019004F190009DF80020019950F8FE
:104550002200016006E002E002E0FFE700BF00BFCA
:1045600000BF00BF00BF039820F010001030039080
:10457000E068806903990843E1688861012005B01B
:1045800030BD000038B504460020009007480068A0
:10459000016820468847009820F008000830009005
:1045A0000098E1684861012038BD00006C000020DF
:1045B00030B5C47800256CB900EB82000024DB1C08
:1045C0009B08D0F8D00003E051F8042B0260641C73
:1045D0009C42F9D3284630BD70B5114D4FF6FF749B
:1045E00010482C8000F00AF92C800FA000F006F98A
:1045F0002C8017A000F002F917A1C620FCF72EFAB4
:1046000015A1D220FCF72AFA4FF4FC60FCF718FC45
:104610001A487821017040F23F11418070BD0000BE
:10462000B80000206D4E00083E20557365204B6594
:1046300079626F61726420746F20746170652063A9
:104640006861726163746572733A200A0A0000003F
:104650000A0A0A0A0A0A000020202020202020201E
:10466000202020202020202020202020202020204A
:1046700020202020202020202020200004000020B6
:1046800070B5174C024640F23F1520780A2A10D028
:1046900021460D2A49880ED0FCF7D0F960880838E9
:1046A00080B26080072803D1658020780C302070AC
:1046B00070BD6580FAE7A94208D1782804D00C388B
:1046C00020700F20608003E0658001E00831618088
:1046D00061882078BDE870402022FCF7AFB9000067
:1046E0000400002070B51C4C4FF6FF751B48258058
:1046F00000F084F825801AA000F080F81BA1C620E5
:10470000FCF7ACF919A1D220FCF7A8F980235A22B2
:10471000DC216420FCF778FA0020FBF7D4FF0120AD
:10472000FBF7D1FF0220FBF7CEFF4FF4FC60FCF754
:1047300087FB0020FCF76AFB7822DB216520FCF771
:104740007DF9134900200880124908801249088029
:104750001249088070BD0000B8000020524E0008C9
:104760000A0A0A0A0A0A0A0A000000002020202079
:104770002020202020202020202020202020202039
:104780002020202020202020202020202020200049
:104790005400002056000020580000205A0000203D
:1047A0002DE9F0410546007838B1687828B195F9CF
:1047B000011095F90000FBF7A7FF00240D4E01271B
:1047C000A046E87807FA04F10842305D05D058B9F0
:1047D0002046FBF758FF375506E0012804D1204654
:1047E000FBF771FF06F80480641CE4B2032CE8D3E5
:1047F000BDE8F08108000020FEE700000FB4054B83
:1048000010B503A9044A029800F02CF810BC5DF81A
:1048100014FB0000E94C0008240100200FB4084BF1
:1048200010B504A902AA039800F01CF8044602A9D6
:10483000002000F046FA204610BC5DF814FB000092
:10484000C34C000802E008C8121F08C1002AFAD1B0
:1048500070477047002001E001C1121F002AFBD100
:10486000704700002DE9FF4F8DB00F46054600262A
:10487000DEE1252874D100246D1CF149A246A14631
:1048800001222B78203B02FA03F0084202D00443B5
:104890006D1CF6E728782A2810D06FF02F022878B0
:1048A000A0F13001092915D80AEB8A0102EB410178
:1048B00044F0020400EB010A6D1CF0E757F804AB6A
:1048C000BAF1000F03DA44F40054CAF1000A44F0CC
:1048D00002046D1C28782E2817D115F8010F44F01A
:1048E00004042A280ED06FF02F022878A0F130019E
:1048F00009290AD809EB890102EB410100EB010902
:104900006D1CF2E757F8049B6D1C28786C280FD0BB
:1049100006DC4C2817D068280DD06A2814D104E092
:10492000742810D07A280FD10DE044F400140AE066
:1049300044F4801401E044F440146978814202D1C7
:104940006D1C04F580146D1C2A786E2A20D00DDCB5
:10495000632A33D005DC002A6FD0582A12D1A2E096
:1049600011E0642A6AD0692A0CD167E0732A2FD03B
:1049700004DC6F2A6FD0702A04D199E0752A6BD0BD
:10498000782A6AD01046DDE90F129047761C4EE176
:10499000C4F30250022806D003280AD0042801CF0D
:1049A0000AD0066043E101CF4FEAE671C0E9006139
:1049B0003DE101CF06803AE1067038E117F8040BBB
:1049C0008DF8000000208DF80100EB46012003E087
:1049D00057F804BB4FF0FF3061074FF0000102D4DD
:1049E0000DE008F10101884649450FDA8045F8DB02
:1049F0001BF808100029F4D108E008F101018846ED
:104A00008142FADB1BF808100029F6D1DDE90F23FB
:104A1000AAEB08008146214600F03BF9304400EB48
:104A2000080604E0DDE90F121BF8010B9047B8F10E
:104A30000108F7D221464846F4E0FDE00A21C4F31C
:104A400002534FF0000B0891022B07D001CFC11782
:104A5000032B09D00AE034E023E024E0FF1D27F017
:104A60000707F7E8020105E000B2C117042B01D1E6
:104A700040B2C117002907DA4FF0000CD0EB0C0050
:104A80006CEB01012D2302E0230504D52B238DF8C7
:104A90002430012303E0E30701D02023F7E7984601
:104AA00050E00A210EE010204FF0000B08900CE0BF
:104AB00010214FF0000B44F004044FF00809089156
:104AC00003E008214FF0000B0891C4F30253022BBE
:104AD00004D001CF0021032B06D006E0FF1D27F0F4
:104AE0000707F7E8020103E080B2042B00D1C0B24F
:104AF0004FF00008230725D5702A2AD0DDF820C002
:104B00008CF0100C5CEA0B0C09D150EA010306D0C2
:104B100030238DF824308DF8252002239846DDF8C7
:104B200020C08CF0080C5CEA0B0C0BD150EA01039E
:104B300001D1630706D530238DF824304FF00108EA
:104B4000A9F10109582A09D03EA20B9208AA0A929B
:104B500011E040238DF824300123DFE73EA2F4E783
:104B60005B46089AFBF72CFB0B9B9B5C0A9AA2F115
:104B700001020A92137050EA0102F1D10A98ADEBDA
:104B8000000000F1200B600702D524F4803401E01E
:104B90004FF00109D94502DDA9EB0B0000E0002030
:104BA00000EB0B0141440890AAEB010AE00306D494
:104BB000DDE90F232146504600F06BF80644002043
:104BC00008E009A911F80900DDE90F129047761CE9
:104BD00009F1010081464045F3DBE0030CD5DDE936
:104BE0000F232146504600F054F8064404E0DDE966
:104BF0000F1230209047761C0899481E0890002913
:104C0000F5DC08E00A980A990078491C0A91DDE968
:104C10000F129047761CBBF10001ABF1010BF1DCE8
:104C200021465046DDE90F2300F020F806446D1CB4
:104C3000287800287FF41DAE11B03046BDE8F08F13
:104C40000928010030313233343536373839616262
:104C50006364656600000000303132333435363726
:104C60003839414243444546000000002DE9F041F7
:104C7000044600251E461746880405D406E039463A
:104C80002020B04705F10105641EF8D52846BDE88F
:104C9000F0812DE9F041044600251E469046C803E8
:104CA00001D5302700E02027880405D506E04146DD
:104CB0003846B04705F10105641EF8D52846BDE821
:104CC000F0810A68531C0B601070704701B581B009
:104CD0000449019848430090002801D0401EFAE79B
:104CE0000CBD0000A086010010B50446C0B2FBF761
:104CF00025FB204610BD00001CB500252C46019563
:104D0000FBF70AFB0F48114A00900F4B0121A2F25A
:104D1000AC50FDF739FC4FF480360C49A1F2AC5091
:104D2000FDF7C8FD0198411C0191B042F5D134B99D
:104D300007A0FFF763FD641C0A2CF9DB0124019531
:104D4000EBE700000C00002084000020D4060020C7
:104D500020697320686F73742033333333333333F4
:104D6000333333333333200A000000003E204465E0
:104D7000766963652041747461636865640A003E06
:104D80002044657669636520446973636F6E6E6560
:104D9000637465640A003E20456E756D65726174CA
:104DA000696F6E20636F6D706C657465640A003E98
:104DB000204869676820737065656420646576695A
:104DC00063652064657465637465640A003E20460B
:104DD000756C6C20737065656420646576696365C5
:104DE0002064657465637465640A003E204C6F77C7
:104DF0002073706565642064657669636520646509
:104E00007465637465640A003E2044657669636571
:104E1000206661756C74200A003E204D617373201A
:104E200073746F726167652064657669636520637A
:104E30006F6E6E65637465640A003E2048494420C5
:104E400064657669636520636F6E6E65637465641F
:104E50000A003E204849442044656D6F2044657631
:104E6000696365203A204D6F7573650A003E2048DE
:104E700049442044656D6F20446576696365203A36
:104E8000204B6579626F6172640A003E20554E5274
:104E900045434F5645524544204552524F522053A8
:104EA000544154450A00000000001F3230211322F3
:104EB0002324182526273433191A111420151731E5
:104EC000122F162E02030405060708090A0B2B6E83
:104ED0000F103D0C0D1B1C1D2A2829013536371ECD
:104EE000707172737475767778797A7B7C7D7E4B7E
:104EF00050554C5156594F54535A5F64696A6C5D12
:104F000062675C61665B606563682D81000000001C
:104F10000000000000000000000000000000000091
:104F200000000000000000000000006B00380000DE
:104F30000000000000000000000000000000000071
:104F40000000000000000000000000000000000061
:104F50000000000000000000000000000000000051
:104F60000000000000000000000000000000000041
:104F70000000000000000000000000000000000031
:104F80000000000000003A2C3C7F40393E80006069
:104F9000313233343536373839302D3D000D096123
:104FA0007A6572747975696F705B5D5C00717364AA
:104FB0006667686A6B6C6D00000A0000777863763C
:104FC000626E2C3B3A21000000000020000000002F
:104FD00000000000000000000000000000000D00C4
:104FE000000000000000000000373431002F383589
:104FF00032302A3936332E2D2B000A0000000000F3
:1050000000000000000000000000000000000000A0
:10501000007E21402324255E262A28295F2B0000BC
:1050200000415A4552545955494F507B7D2A0051F1
:1050300053444647484A4B4C4D25000A00005758F8
:105040004356424E3F2E2F0000000000000000009B
:105050000000000000000000000000000000000050
:105060000000000000000000000000000000000040
:105070000000000000000000000000000000000030
:105080000000000000000000000000000000000020
:1050900000000000000400080A000B0007000700E1
:1050A00000000400040000000400000001000020D3
:1050B00000800100002000800000020006000000C7
:1050C0000D000F000600280028004000000100022B
:1050D00080000000400000004000000000010000CF
:1050E0000400000001000000040000004000000077
:1050F00000000000000000000000000000000000B0
:10510000000000000000000000000000000000009F
:10511000000000000000000000000000000000008F
:1051200000008001800180018001800180018001F8
:105130008001800180018001800180010000000069
:10514000800180010000000000000000000000005D
:1051500000000000CC00CC00CC00CC00CC00CC0087
:10516000000000000000000000000000000000003F
:10517000000000000000000000000000000000002F
:10518000000000000000000000000000600C600C47
:10519000600C30063006FE1FFE1F3006380718036D
:1051A000FE1FFE1F180318038C018C018C010000E8
:1051B00000008000E003F80F9C0E8C1C8C188C0003
:1051C0009800F801E007800E801C8C188C189C1841
:1051D000B80CF00FE0038000800000000000000029
:1051E0000000000000000E181B0C110C1106110627
:1051F000110311039B018E01C038C06C60446044F0
:10520000304430441844186C0C3800000000000092
:105210000000E001F0033807180618063003F0011B
:10522000F000F8009C310E33061E061C061C063FDB
:10523000FC73F021000000000000000000000000EE
:10524000000000000C000C000C000C000C000C0016
:10525000000000000000000000000000000000004E
:10526000000000000000000000000000000000003E
:105270000000000200038001C000C0006000600068
:10528000300030003000300030003000300030009E
:1052900060006000C000C000800100030002000048
:1052A000000020006000C0008001800100030003B6
:1052B00000060006000600060006000600060006BE
:1052C0000003000380018001C00060002000000096
:1052D000000000000000000000000000C000C0004E
:1052E000D806F807E001300338070000000000008E
:1052F00000000000000000000000000000000000AE
:10530000000000000000000000000000800180019B
:10531000800180018001FC3FFC3F80018001800111
:10532000800180010000000000000000000000007B
:10533000000000000000000000000000000000006D
:10534000000000000000000000000000000000005D
:1053500000008001800100010001800000000000C9
:10536000000000000000000000000000000000003D
:105370000000000000000000E007E007000000005F
:10538000000000000000000000000000000000001D
:10539000000000000000000000000000000000000D
:1053A00000000000000000000000000000000000FD
:1053B0000000C000C000000000000000000000006D
:1053C0000000000C000C00060006000600030003AD
:1053D00000038003800180018001C000C000C00084
:1053E00060006000000000000000000000000000FD
:1053F0000000E003F007380E180C0C180C180C18FD
:105400000C180C180C180C180C180C18180C380E5A
:10541000F007E003000000000000000000000000B2
:10542000000000018001C001F001980188018001A5
:105430008001800180018001800180018001800164
:10544000800180010000000000000000000000005A
:105450000000E003F80F180C0C180C1800180018C6
:10546000000C000600038001C0006000300018003E
:10547000FC1FFC1F000000000000000000000000F6
:105480000000E001F807180E0C0C0C0C000C0006D4
:10549000C003C007000C001800180C180C18180CDA
:1054A000F807E0030000000000000000000000001A
:1054B0000000000C000E000F000F800DC00C600CEF
:1054C000600C300C180C0C0CFC3FFC3F000C000C6A
:1054D000000C000C000000000000000000000000B4
:1054E0000000F80FF80F180018000C00EC03FC0780
:1054F0001C0E001C0018001800180C181C0C180EAC
:10550000F807E003000000000000000000000000B9
:105510000000C007F00F381C181818000C00CC034E
:10552000EC0F3C0E1C1C0C180C180C18181C380E18
:10553000F007E00300000000000000000000000091
:105540000000FC1FFC1F000C000600060003800387
:105550008001C001C000E000600060007000300009
:1055600030003000000000000000000000000000DB
:105570000000E003F007380E180C180C180C380661
:10558000F007F007180C0C180C180C180C18380C35
:10559000F80FE00300000000000000000000000021
:1055A0000000E003F007380E1C0C0C180C180C1847
:1055B0001C1C381EF81BE0190018000C000C1C0EF7
:1055C000F807F001000000000000000000000000EB
:1055D00000000000000000000000000080018001C9
:1055E00000000000000000000000000000000000BB
:1055F00080018001000000000000000000000000A9
:105600000000000000000000000000008001800198
:10561000000000000000000000000000000000008A
:1056200080018001000100018000000000000000F6
:10563000000000000000000000000000000000006A
:105640000010001C800FE003F8001800F800E003D1
:10565000800F001C0010000000000000000000008F
:10566000000000000000000000000000000000003A
:10567000F81F000000000000F81F000000000000FC
:10568000000000000000000000000000000000001A
:10569000000000000000000000000000000000000A
:1056A00008003800F001C007001F0018001FC007E5
:1056B000F0013800080000000000000000000000B9
:1056C0000000E003F80F180C0C180C180018000C60
:1056D000000600038001C000C000C0000000000000
:1056E000C000C0000000000000000000000000003A
:1056F00000000000E00718180420C229224A1144C3
:1057000009440944094409221113E20C024004200F
:105710001818E00700000000000000000000000072
:10572000000080038003C006C006C006600C600C49
:10573000301830183018F83FF83F1C700C600C60BF
:1057400006C006C0000000000000000000000000CD
:105750000000FC03FC0F0C0C0C180C180C180C0CA3
:10576000FC07FC0F0C180C300C300C300C300C18F3
:10577000FC1FFC070000000000000000000000000B
:105780000000C007F01F38381C300C70066006009F
:105790000600060006000600060006600C701C30BD
:1057A000F01FE00700000000000000000000000003
:1057B0000000FE03FE0F060E06180618063006301F
:1057C0000630063006300630063006180618060E7B
:1057D000FE0FFE03000000000000000000000000BB
:1057E0000000FC3FFC3F0C000C000C000C000C0007
:1057F000FC1FFC1F0C000C000C000C000C000C002B
:10580000FC3FFC3F00000000000000000000000022
:105810000000F83FF83F18001800180018001800A2
:10582000F81FF81F180018001800180018001800BA
:105830001800180000000000000000000000000038
:105840000000E00FF83F3C780E6006E007C0030060
:10585000030003FE03FE03C007C006C00EC03CF0F9
:10586000F83FE00F00000000000000000000000012
:1058700000000C300C300C300C300C300C300C3084
:10588000FC3FFC3F0C300C300C300C300C300C303A
:105890000C300C3000000000000000000000000090
:1058A0000000800180018001800180018001800171
:1058B00080018001800180018001800180018001E0
:1058C00080018001000000000000000000000000D6
:1058D000000000060006000600060006000600069E
:1058E000000600060006000600061806180638071F
:1058F000F003E001000000000000000000000000D4
:10590000000006300618060C060606038601C600CF
:1059100066007600DE008E0106030606060C0618F9
:1059200006300660000000000000000000000000DB
:1059300000001800180018001800180018001800BF
:105940001800180018001800180018001800180097
:10595000F81FF81F00000000000000000000000019
:1059600000000EE01EF01EF01EF036D836D836D8F5
:1059700036D866CC66CC66CCC6C6C6C6C6C6C6C653
:1059800086C386C300000000000000000000000085
:1059900000000C301C303C303C306C306C30CC3073
:1059A000CC308C310C330C330C360C360C3C0C3CAC
:1059B0000C380C3000000000000000000000000067
:1059C0000000E007F81F1C380E70066003C003C01B
:1059D00003C003C003C003C003C006600E701C38C0
:1059E000F81FE007000000000000000000000000B9
:1059F0000000FC0FFC1F0C380C300C300C300C304D
:105A00000C18FC1FFC070C000C000C000C000C0018
:105A10000C000C000000000000000000000000006E
:105A20000000E007F81F1C380E70066003E003C09A
:105A300003C003C003C003C007E006630E3F1C3C65
:105A4000F83FE0F700C00000000000000000000088
:105A50000000FE0FFE1F06380630063006300638FE
:105A6000FE1FFE0706030606060C0618061806307B
:105A7000063006600000000000000000000000008A
:105A80000000E003F80F1C0C0C180C180C001C0094
:105A9000F803E00F001E0038063006300E301C1CE4
:105AA000F80FE00700000000000000000000000008
:105AB0000000FE7FFE7F8001800180018001800167
:105AC00080018001800180018001800180018001CE
:105AD00080018001000000000000000000000000C4
