:020000040800F2
:10000000302200209D010008B92D0008D5180008F5
:10001000B52D0008C70300086D850008000000002A
:100020000000000000000000000000005D36000835
:1000300085060008000000007D2E0008B5010008BC
:10004000B7010008B7010008B7010008B7010008B0
:10005000B7010008B7010008B7010008C111000886
:10006000E1110008B7010008B7010008B701000856
:10007000B7010008B7010008B7010008B701000880
:10008000B7010008B7010008B7010008B701000870
:10009000B7010008B7010008B7010008B701000860
:1000A000B7010008B7010008B7010008B701000850
:1000B000DD380008B7010008B7010008B7010008E3
:1000C000B7010008B7010008B7010008B701000830
:1000D000B7010008B7010008B7010008B701000820
:1000E000B7010008B7010008B7010008B701000810
:1000F000B7010008B7010008B7010008B701000800
:10010000B7010008B7010008B7010008B7010008EF
:10011000B7010008B7010008B7010008B7010008DF
:10012000B7010008B7010008B7010008B7010008CF
:10013000B7010008B7010008B7010008B7010008BF
:10014000B7010008B7010008B70100085D2E0008DC
:10015000B7010008B7010008B7010008B70100089F
:10016000B7010008B7010008B7010008B70100088F
:10017000B70100086D2E0008B7010008B70100089C
:10018000B7010008B7010008DFF80CD000F070F8E4
:1001900000480047CD9D00083022002006488047D7
:1001A00006480047FEE7FEE7FEE7FEE7FEE7FEE75C
:1001B000FEE7FEE7FEE7FEE7753800088901000864
:1001C000421E12F8013F002BFBD111F8013B02F84F
:1001D000013B002BF9D1704730B505462A460B4646
:1001E00012F8010B13F8014B08B1A042F8D01CB172
:1001F000002802D06D1CF1E7284630BD034611F8F7
:10020000012B00F8012B002AF9D1184670472DE97F
:10021000F05F0546002092469B468846064681468A
:1002200040241BE0284641464746224600F041F85C
:1002300053465A46C01A914110D3114618462246D9
:1002400000F028F82D1A67EB01084F4622460120DE
:10025000002100F01FF817EB00094E41201EA4F109
:100260000104DFDC484631462A464346BDE8F09F9C
:10027000064C074D06E0E06840F0010394E80700F3
:1002800098471034AC42F6D3FFF782FF18D300082A
:1002900038D30008202A04DB203A00FA02F10020BB
:1002A00070479140C2F1200320FA03F319439040B4
:1002B0007047202A04DB203A21FA02F0002170471F
:1002C00021FA02F3D040C2F12002914008431946BE
:1002D000704770B501EB020410F8015B15F00703DD
:1002E00001D110F8013B2A1106D110F8012B03E0CF
:1002F00010F8016B01F8016B5B1EF9D12B0705D4D7
:100300000023521E0FD401F8013BFAE710F8013B1D
:1003100002F10202A1EB030303E013F8015B01F811
:10032000015B521EF9D5A142D6D3002070BD00005A
:1003300070B505460C4608480560204600F00EF8EA
:1003400000BF054800680028FBD100214FF0804025
:1003500003F0D7FA70BD0000000000203EB504464F
:1003600000214FF0804003F0CCFA002201218807E1
:1003700003F0E4FA022C02D10B20019004E0012CDE
:1003800002D142F6DF6001900520ADF800000020A8
:10039000ADF80800ADF8020069464FF0804003F068
:1003A000D7FA0121880703F0A9FA0121880703F091
:1003B00099FA01221146900703F0C0FA012188073B
:1003C00003F09FFA3EBD00BFFEE7000010B54FF4FA
:1003D000E1300649086000208880C8800881888153
:1003E0000C204881084603F02DF810BD580200206B
:1003F0002DE9F8430446002000906B463622214642
:10040000104809F03BF910B10120BDE8F883B4F8B9
:100410000090D4F81250D4F81660A78BD4F81E8040
:10042000A9F59A40423809D1B5F5A07F06D1F02E42
:1004300004D1102F02D1B8F1030F01D00120E4E75D
:100440000020E2E7A80600200246094B9A4201D2AA
:10045000084801E00648103811F0005F03D0064B51
:100460000B40C36002E0044B0B4083607047000008
:1004700010640240006002407D0F7D0F21B10268D0
:1004800042F00102026003E0026822F00102026011
:1004900070470000016821F0010101600021016046
:1004A00041608160C1600161212141614A49884206
:1004B00004D13D21484A103A91608CE046491831F8
:1004C000884205D14FF47461434A103A916082E04A
:1004D00041493031884205D14FF474113E4A103AF7
:1004E000916078E03C494831884205D14FF0746111
:1004F000394A103A91606EE037496031884204D140
:100500003649354A103AD16065E03349783188423E
:1005100004D13349304A103AD1605CE02E49903121
:10052000884204D12F492C4A103AD16053E02A491D
:10053000A831884205D14FF03D51274A103AD16089
:1005400049E02949884204D13D21274A083A1160EF
:1005500041E025491831884205D14FF47461224A9F
:10056000083A116037E020493031884205D14FF414
:1005700074111D4A083A11602DE01B494831884228
:1005800005D14FF07461184A083A116023E016490A
:100590006031884204D11149134A121F11601AE0D8
:1005A00011497831884204D10D490F4A121F116058
:1005B00011E00D499031884204D10A490A4A121FBC
:1005C000116008E00849A831884204D14FF03D513C
:1005D000054A121F11607047106002403D00002064
:1005E000400F002000003D201064024030B503465B
:1005F0000A46002000240A4DAB4201D2094901E01D
:100600000749103912F0005F01D04C6800E00C6817
:10061000054D2C40144201D0012000E0002030BDE7
:1006200010640240006002407D0F7D0F10B5002273
:100630000268134B1A40CC680B6823434C69234370
:100640008C692343CC6923430C6A23434C6A2343BC
:100650008C6A23434C6B23438C6B23431A43026005
:10066000426922F00702D1E90B3423431A43426165
:100670000B6943604B6883608B68C36010BD0000EA
:100680003F801CF07047000038B5FB48007830B15F
:1006900001280ED002287BD003287AD1B5E00021B2
:1006A000F64800F001FD0120F34908700020C870F1
:1006B00006E3F148C078F249097888426AD0EE48EA
:1006C000C078EF490870EC48C07800F07F01EB4833
:1006D00000F0EAFCE848C07810F0800FEED0E64861
:1006E000C07800F07F00E449C8700846C07820B1A7
:1006F00001281BD0022875D131E0E24801F001F851
:1007000028B10320DC490870002048700DE04FF448
:100710007840DD490880DDA007F02AFFDDA007F062
:1007200027FF4FF6FF70D84908806CE0E24800F0E0
:10073000E8FF28B10220D0490870002088700DE041
:100740004FF47840D0490880D0A007F011FFDBA01B
:1007500007F00EFF4FF6FF70CB49088053E04FF6CD
:10076000FF70C9490880DCA007F002FFD24800F002
:10077000C8FF80B10120C04908710020DD49087020
:10078000DD49CD4803F099FB0020BB49087110E01A
:1007900026E194E238E04FF47840BB490880BBA0E2
:1007A00007F0E6FEC5A007F0E3FE4FF6FF70B6497E
:1007B0000880B44800F0A5FFA8B14FF6FF70B24919
:1007C0000880C5A007F0D4FE0120AB4908710020C5
:1007D000CA490870CA49B84803F06FFB0020A6490F
:1007E00008710EE00EE04FF47840A7490880A7A0FA
:1007F00007F0BEFEA7A007F0BBFE4FF6FF70A249B0
:10080000088000E000BF00BF5AE29B48407810B16A
:1008100001286DD134E0012097490871B9490020C1
:1008200008F01EFE68B14FF478409749088097A001
:1008300007F09EFEB4A007F09BFE4FF6FF709249B2
:1008400008804FF6FF7090490880B8A007F090FE2E
:100850004FF6FF708C490880BB480068BA4A12897D
:1008600000FB02F1B9A007F083FE0021BE4800F0B2
:100870001BFC0120804948700020C8700871ADE061
:100880007D48C0787E490978884273D07A48C0781C
:100890007B4908707848C07800F07F01B24800F0CA
:1008A00003FC7548C07810F0800FEED07248C07815
:1008B00000F07F007049C8700846C07830B1012848
:1008C00011D0022865D0032876D17AE001206A4948
:1008D00008710121A5A000F007FD0020A4490870BF
:1008E0006549087177E04FF6FF706749088000E0BE
:1008F00073E0A0A007F03CFE9348007B012811D1D3
:100900004FF478406049088060A007F031FEA2A053
:1009100007F02EFE4FF6FF705B4908800320A749C1
:10092000087058E00120544908717649002008F009
:1009300097FD0A22A2A1A54808F0A8FD28BB3E25E4
:100940006B462A46A249A14809F007F80446BDF8BB
:10095000000000B17CB14FF478404B4908804BA0B7
:1009600007F006FE9BA007F003FE4FF6FF70464916
:10097000088007E030E04FF6FF70434908809DA0F3
:1009800007F0F6FD914808F05FFD00203A49087134
:1009900021E05C49002008F063FD00B11BE073A07A
:1009A00001F09AFD02F0F6F899A002F041F94FF635
:1009B000FF703549088000E00CE09BA007F0D8FDEF
:1009C00009E000202C490870C8700021084608F092
:1009D00047FD00E000BF00BF00E000BF00BF6FE1C7
:1009E0002548807810B1012841D109E000219748BD
:1009F00000F05AFB0120204988700020C8705CE19B
:100A00001D48C0781E490978884231D01A48C078FC
:100A10001B4908701848C07800F07F018B4800F02F
:100A200043FB1548C07810F0800F21D01248C078E1
:100A300000F07F001049C8700846C07820B1012836
:100A400017D0022816D11CE102F0A4F880482A49E8
:100A500042681948904700207E49087001207E496D
:100A600008707B48244902681348904722E123E13B
:100A700021E1F3E01DE100007D00002010000020D6
:100A800076000020CC080020C60100204552524FBD
:100A9000523A20004E6F204D6173732073746F7251
:100AA0006167652064657669636520636F6E6E6556
:100AB000637465642E0A0000FC0E00204E6F20480F
:100AC00049442064657669636520636F6E6E656373
:100AD0007465642E0A0000005374617274696E6755
:100AE00020456E756D65726174696F6E2E2E2E2EA7
:100AF0000A0000000C000020A81400200D000020B7
:100B0000780E0020780400203E2043616E6E6F74E2
:100B100020696E697469616C697A652046696C65E3
:100B20002053797374656D2E0A0000003E204669DB
:100B30006C652053797374656D20696E69746961A1
:100B40006C697A65642E0A00D41500203E20446941
:100B5000736B206361706163697479203A20256446
:100B60002042797465730A001C000020303A2F007F
:100B70000A0000203E2057726974696E672046693A
:100B80006C6520746F206469736B20666C61736898
:100B9000202E2E2E0A0000003E204469736B206632
:100BA0006C61736820697320777269746520707254
:100BB0006F746563746564200A00000009000020FA
:100BC000303A53544D33322E54585400A806002066
:100BD000380000203E2053544D33322E54585420B8
:100BE00043414E4E4F542062652077726974656EA2
:100BF0002E0A00003E202753544D33322E545854B1
:100C0000272066696C6520637265617465640A00FB
:100C100020555342204F5447204475616C436F72F6
:100C20006520486F737400003E20536C6964652032
:100C300073686F77206170706C69636174696F6E3F
:100C400020636C6F7365642E0A0000002C00002086
:100C500038010020080000208400002001F09AFFE5
:100C60003048314942683148904701203049087086
:100C70002C482D4902682D48904701202D490870C5
:100C800018E000202C49087029490870294908708B
:100C90002949C87001F07EFF224823494268234851
:100CA00090474FF6FF702549088025A007F060FCAB
:100CB00000E000BF00BF00E000BF00BF00E000BFD9
:100CC00000BF1A4800F01DFD40B92448007828B93B
:100CD00001202249087000F047F80AE0134800F0AC
:100CE00010FD30B11D480078012802D100201B49B9
:100CF00008701B4800F005FD40B91A48007828B973
:100D000001201849087000F02FF80AE0144800F09C
:100D1000F8FC30B113480078012802D100201149B5
:100D2000087038BD38010020A8140020FC0E0020F7
:100D300084000020080000207D000020C601002063
:100D40003E20484944206170706C69636174696F2A
:100D50006E20636C6F7365642E0A00000F00002024
:100D6000CC0800200E00002010B501F013FF002079
:100D70002249087022490870887022490870224967
:100D800008702248224942682248904701201C49A5
:100D900008712149214803F090F81D491D4803F0CE
:100DA0008CF80020154908701D4908701449087115
:100DB000184800F0A6FC68B94FF47840194908803B
:100DC00019A007F0D5FB1AA007F0D2FB4FF6FF7071
:100DD00014490880114800F094FC68B94FF4784039
:100DE0001049088010A007F0C3FB1AA007F0C0FB51
:100DF0004FF6FF700B49088010BD00000C0000206A
:100E00007D00002084000020080000203801002020
:100E1000A8140020FC0E0020780E0020CC08002032
:100E20000D000020C60100204552524F523A2000CA
:100E300046756C6C207370656564206465766963C3
:100E400065206E6F7420636F6E6E65637465642ECB
:100E50000A00000048696768207370656564206453
:100E60006576696365206E6F7420636F6E6E65636F
:100E70007465642E0A00000008B500F09EFF10B9EA
:100E8000042001F0ACF9002002F0AAFB012002F0DE
:100E9000A7FB022002F0A4FB032002F0A1FB02F05A
:100EA000C3F801F0BDFE1BA001F0C2FE00211F48E7
:100EB00000F0FAF84FF6FF701D4908801DA007F0FA
:100EC00057FB2348234B244A00210090234803F07A
:100ED00007FF4FF6FF701649088021A007F048FB76
:100EE0002848294B294A01210090294803F0F8FE9F
:100EF0004FF6FF700E49088026A007F039FB4FF42B
:100F0000FA7005F0CDFC01F045FE00202A49087179
:100F100008BD000020555342204F544720447561BE
:100F20006C436F726520486F7374000010000020DE
:100F3000C6010020496E697469616C697A696E67DF
:100F40002068617264776172652E2E2E2E0A000071
:100F5000D800002088010020780E0020CC08002056
:100F600055534220486F7374204869676820737036
:100F700065656420696E697469616C697A65642E5F
:100F80000A0000008800002038010020A81400207A
:100F9000FC0E002055534220486F73742046756C38
:100FA0006C20737065656420696E697469616C6931
:100FB0007A65642E0A0000007D00002010B504460A
:100FC00024480078012804D11CB10220214908706E
:100FD00010BD2148007818B9204800F092FB30B9C4
:100FE0001F48007820B91F4800F08BFB00B1EFE7E5
:100FF0001D480079012800D1EAE7052C09D11A48DB
:10100000C078002805DD1848C078401E1649C87011
:101010001DE0022C03D11448C078022809DB1248D5
:10102000007803280BD1022C09D10F48C07803287F
:1010300005DA0D48C078401C0B49C87007E0012C48
:1010400005D10948C07840F080000749C87000BF4A
:10105000BEE700000B0000200C000020FC0E00206A
:101060000D000020CC0800207D00002010B50948AC
:101070000078012803D0084800F043FB18B907495D
:10108000074804F025FF0749034804F021FFFFF754
:10109000FBFA10BD0C000020FC0E0020780E002092
:1010A000CC080020A814002070B504460D464FF669
:1010B000FF7001F055FE35B1012D18D0022D2DD055
:1010C000032D59D141E04FF4784001F003FECC20CC
:1010D000216801F017FC1F2001F0FCFDD820616899
:1010E00001F010FCE420A16801F00CFC45E01F2099
:1010F00001F0F0FDCC20216801F004FC4FF47840B1
:1011000001F0E8FDD820616801F0FCFB1F2001F030
:10111000E1FDE420A16801F0F5FB2EE01F2001F0C5
:10112000D9FDCC20216801F0EDFB1F2001F0D2FD9C
:10113000D820616801F0E6FB4FF4784001F0CAFD69
:10114000E420A16801F0DEFB17E01F2001F0C2FDE2
:10115000CC20616801F0D6FB1F2001F0BBFDD82038
:10116000A16801F0CFFB4FF4784001F0B3FDE4201B
:10117000E16801F0C7FB00E000BF00BF002001F004
:10118000A9FD70BD10B5044600BF80210A4802F0D9
:1011900085FC0028F9D02146074802F01BFD00BF5E
:1011A0008021064802F07AFC0028F9D02146034845
:1011B00002F010FD10BD0000004C00400010014086
:1011C00010B5022000F032F838B10449D1F880108F
:1011D00048698047022000F023F810BD780E0020F7
:1011E00070B500248021882000F05CFF90B100BF22
:1011F00000E0641C09488442FBD301F07FF80546F7
:10120000FFF7DCFE8021882000F0B4FDF821882063
:1012100000F0BAFD042000F003F870BD20A1070023
:101220000149086070470000143C0140014600205D
:101230000022074B1B6803EA0102054B14331B68AD
:101240000B4202D00AB1012000E0002070470000EC
:10125000003C0140002123498279002A3AD00A4605
:10126000126803689A430B461A600A1D12680368E5
:101270009A430B1D1A60027911440A6803681A43E5
:101280000A60184A0832126803689A43154B0833FB
:101290001A601A1D126803689A43124B0C331A60C5
:1012A0004279102A0ED11A1F126803681A430D4B97
:1012B00008331A601A1D126803681A43094B0C336D
:1012C0001A600DE00749427911440A6803681A431D
:1012D0000A6005E0027911440A6803689A430A60CB
:1012E00070470000003C0140F0B591B007460C4645
:1012F000394604A808F08EF90546002D79D100BFC3
:101300000BA904A808F0A2FA054615B99DF8350006
:1013100000B98BE09DF835002E2800D1F0E70DF1E3
:10132000350631466846FEF769FF42480078401CA2
:1013300040490870084600780C282ADD0020087013
:1013400001203D4908704FF4FC6001F009FD3BA10C
:10135000C02001F0D7FA4FF6FF7001F001FD01E067
:1013600002F038FB3D4800F0CCF918B13248007863
:101370000228F5D1002002F059F9012002F056F9B7
:10138000022002F053F9032002F050F9C02001F0CE
:10139000EFF9002028490870012C0BD147F6FF70A7
:1013A0002F4908802FA007F0E3F84FF6FF702C4973
:1013B00008800CE0022C0AD147F6FF70284908800B
:1013C0002AA007F0D5F84FF6FF70254908809DF850
:1013D000340000F03F0010280CD127A16846FEF72A
:1013E000EFFE4FF6FF701E490880684607F0C0F810
:1013F0000FE01CE020A16846FEF7E2FE47F6FF7012
:1014000017490880684607F0B3F84FF6FF70144993
:1014100008809DF8340000F03F00102805D1012C11
:1014200003D102213046FFF75FFF69E700BF28467E
:1014300011B0F0BD0A0000200B000020507265734F
:101440007320616E79206B657920746F20636F6EF5
:1014500074696E75652E2E2E00000000CC080020E9
:10146000C60100202020207C5F5F00002020207C1F
:101470002020207C5F5F00000A00000051B14FF087
:10148000204252F8202042F001024FF0204343F85E
:10149000202009E04FF0204252F82020034B1A4050
:1014A0004FF0204343F8202070470000FEFF0F005C
:1014B000D0E901121143C268114302691143426924
:1014C000114382691143C2691143026A1143426A9E
:1014D0001143826A1143C26A1143026B11434FF0F8
:1014E0002043026843F822108168082908D11A466F
:1014F000016852F8211041F04001026843F82210BF
:10150000416B0968426B526841EA0211426B926872
:1015100041EA0221426B928941EA0241426B128AFE
:1015200041EA0251426B127D41EA0261426B9269CB
:1015300011430268521C4FF0204343F82210C16A45
:10154000B1F5804F1AD1816B0968826B526841EA0C
:101550000211826B926841EA0221826B128A41EA8F
:101560000251826B127D41EA0261826B92691143E2
:10157000026803EB8202C2F8041108E06FF07041C8
:101580004FF02043026803EB8202C2F80411704757
:10159000F0B50A4600210023002400BF3DE00125EC
:1015A00005FA01F3156805EA03049C4234D1056885
:1015B0004F000326BE40B543056015794E00B54087
:1015C0000668354305601579012D02D01579022D85
:1015D00016D185684F000326BE40B5438560557916
:1015E0004E00B540866835438560456801268E40CB
:1015F000B5434560456896798E40B6B2354345603F
:10160000C5684F000326BE40B543C560D5794E007E
:10161000B540C6683543C560491C1029BFD3F0BD2D
:10162000F0B5002300244D07ED0E02FA05F3CE10AD
:1016300000F1200555F826504E07F70E0F26BE4044
:10164000B543CF1000F1200646F82750CE1000F128
:10165000200555F8265045EA0304CE1000F1200578
:1016600045F82640F0BD418370470183704701462D
:101670004869806880B2704708B50146D1F8CC004F
:10168000006800900098C0F3414008BD024602F295
:101690009B30405C7047024602F5547050F82100C0
:1016A000704770B504460E4600250021C4F810139B
:1016B00000BF0BE0002104F5457040F825103C30D8
:1016C00040F825103C304155681CC5B20F2DF1DBA8
:1016D0000821A4F8B2133146204605F043FE204607
:1016E00005F04AFA204605F0E9F80121204605F008
:1016F000A3FE204605F07BF9204605F096FA00206F
:1017000070BD0146D1F81003704710B5044620465D
:1017100005F007FE002010BD70B504460D460021FF
:1017200004F29B304155113000EB451041612946D0
:10173000204605F0A5FC70BD10B504464FF4FC60D2
:1017400001F00EFB4FF4FC6001F0C4FA24B1012C4F
:1017500009D0022C15D10DE00A231822DC21A92082
:1017600001F04CF90DE00A2318227421A92001F0A0
:1017700045F906E00A231822A621A92001F03EF926
:1017800000BF00BF10BD10B504464FF6FF7001F05A
:10179000E7FA4FF6FF7001F09DFA24B1012C09D051
:1017A000022C15D10DE00A231822DC21A92001F01A
:1017B00025F90DE00A2318227421A92001F01EF951
:1017C00006E00A231822A621A92001F017F900BF7C
:1017D00000BF10BD70B504460D464FF4FC6001F02B
:1017E000BFFA002001F076FA0CB9002D69D020462E
:1017F00004EBD071334A128802EB610109B2314A1D
:101800001180284605EBD0712F4A128802EB610146
:1018100009B22D4A11801046B0F900004E2802DDB1
:101820004E20114608802748B0F90000762802DDD6
:101830007620244908802448B0F90000022802DA02
:101840000220214908801F48B0F90000022802DA6E
:1018500002201C4908801D48008880B11C4800886F
:1018600068B11A4AB2F90020C2F1DC0291B2184AFA
:101870001288443290B2202201F02CF80AE013487A
:10188000008838B91248008820B92022DB21452081
:1018900001F020F80B4AB2F90020C2F1DC0291B24B
:1018A000094A1288443290B2782201F013F80548B0
:1018B000B0F90000054908800348B0F90000044968
:1018C000088070BD2001002022010020240100209A
:1018D0002601002000BFFEE770B502460024002567
:1018E00000230020958A138B1B0445EA030626F08B
:1018F0007F4404EA01068E4201D1012000E000206D
:1019000070BD21B1828842F40062828004E0828846
:101910004FF2FF731A408280704721B1828842F4EF
:101920008052828004E082884EF6FF731A408280E3
:10193000704721B1028842F48072028004E002887C
:101940004FF6FF631A400280704721B1028842F4CB
:101950000072028004E002884FF6FF531A400280B2
:1019600070470CB5024600200023019300930092BB
:101970000B0F019321F07F41019B1BB1009B14339E
:10198000009303E0090C009B18330093009B1B6835
:101990000B4201D0012000E000200CBD2DE9FF47E3
:1019A00004460D460026B1460427DFF8CC80A68801
:1019B0004FF6C0700640684601F0C2FADDF80880B4
:1019C0002E48B8FBF0F01FFA80F946EA0906A68017
:1019D00020884FF6FE71084020800026284928689C
:1019E00088420CD828684000B8FBF0F087B2042F7A
:1019F00000DA04273E4309F10100208427E0E8884B
:101A0000A0F53F41FF3906D1286800EB4000B8FB44
:101A1000F0F087B209E0286800EBC00101EB00108C
:101A2000B8FBF0F087B247F480473805000D01D1CC
:101A300047F0010747F4004006434FF4967009FB56
:101A400000F04FF47A7190FBF1F0401C2084A683E3
:101A5000208840F00100208026884FF6F5300640AF
:101A6000A8886989084306432680A88929890843EC
:101A70002081BDE8FF87000000127A0040420F007D
:101A8000A086010038B504460D4600200090694646
:101A9000012000F0FDF901215A48FFF73EFF012126
:101AA0005848FFF746FF4FF440505749086008E098
:101AB000554801680068401E534A106009B9022069
:101AC00038BD52494F48FFF74CFF0028F0D00022A4
:101AD00021464C4800F0A2F84FF440504A490860B3
:101AE00008E0494801680068401E474A106009B98B
:101AF0000220E5E746494348FFF7EEFE0028F0D014
:101B00002946404800F092F84FF440503E490860A2
:101B100008E03D4801680068401E3B4A106009B972
:101B20000220CDE739497F313648FFF71AFF30B937
:101B30003649C91C3348FFF714FF0028E9D00121BA
:101B40003048FFF7F6FE4FF440502F49086008E098
:101B50002D4801680068401E2B4A106009B9022018
:101B6000AEE72A492748FFF7FCFE0028F0D0012203
:101B70002146244800F052F84FF4405022490860B2
:101B800008E0214801680068401E1F4A106009B93A
:101B9000022095E71F491B48FFF79EFE0028F0D062
:101BA00001211848FFF7ADFE01211B48FEF766FC36
:101BB0004FF4C0401449086008E013480168006809
:101BC000401E114A106009B9022079E70F491F3100
:101BD0001148FEF70BFD0028EFD001210948FFF75F
:101BE000B4FE00210C48FEF749FC00210548FFF730
:101BF00088FE06491F310848FEF726FC9DF80000C4
:101C00005EE70000005400401402002001000010B4
:101C100082000700020003001060024012B141F090
:101C2000010101E001F0FE0101827047018270476D
:101C3000F8B504460F461546002600200090009592
:101C4000694600F025F901214448FFF772FE4FF480
:101C500040504349086008E0414801680068401E60
:101C60003F4A106009B90220F8BD3E493B48FFF7E2
:101C700078FE0028F0D0002221463848FFF7CEFF3A
:101C80004FF440503649086008E035480168006864
:101C9000401E334A106009B90220E5E732492F4857
:101CA000FFF71AFE0028F0D039462C48FFF7BEFF98
:101CB0004FF440502A49086008E02948016800684C
:101CC000401E274A106009B90220CDE725497F311F
:101CD0002248FFF746FE30B92249C91C1F48FFF7CA
:101CE00040FE0028E9D001211C48FFF70AFE01212F
:101CF0001E48FEF7C3FB4FF440501949086008E046
:101D0000174801680068401E154A106009B9022092
:101D1000AAE717491548FEF769FC0028F0D04FF4F0
:101D2000C0400F49086000BF0E49C91C0B48FFF7AF
:101D300018FE0028F8D001210848FFF706FE002110
:101D40000A48FEF79BFB00210448FFF7DAFD08492B
:101D50000648FEF779FB304686E700000054004055
:101D6000140200200100001082000700A060024061
:101D70000000202070B505460C4622460B2128465F
:101D8000FFF756FF002070BD70B505460C46224691
:101D90000D212846FFF74CFF224614218820FFF72B
:101DA00047FF224615218820FFF742FF22461621D1
:101DB0008820FFF73DFF002070BD10B500F024F92A
:101DC00000F082F9822000F085FA08B1042010BDED
:101DD000882000F07FFA08B10520F8E7822000F0A3
:101DE000C8FA882000F0C5FA01220721822000F0FD
:101DF000C9F801221146822000F0DAF901221146C9
:101E0000822000F07FF90021012000F046FB002233
:101E10000C21882000F0CCF901220C21882000F050
:101E200071F903220C21882000F083F900F0B2FA46
:101E300001220D21882000F0A5F80122042188202C
:101E400000F0B6F900220121882000F0B1F901224A
:101E50000521882000F056F90021042000F01DFB28
:101E60000021012000F019FB0022F821882000F059
:101E70009FF90122F821882000F044F90322F8217B
:101E8000882000F056F900F0E9FA00209FE70000F2
:101E900030B58FB004460D460121480500F0F0FF33
:101EA0004FF00070009018480190029500200590B6
:101EB0004FF48060069000200790089009900A90E7
:101EC00004200B9000200C900D900E90012C0AD154
:101ED0000390022004900D48FEF7DCFA69460B4897
:101EE000FEF7A4FB0DE064B94020039001200490AC
:101EF00006489030FEF7CEFA694604489030FEF767
:101F000095FB0FB030BD000010540040106002403F
:101F100000B585B00121080200F0B2FF012188035D
:101F200000F0FEFF0420039000208DF810008DF8D3
:101F3000130003A91248FFF72BFB0221082001F030
:101F40008FFB0420009000208DF8040010208DF8F5
:101F5000050001208DF806006846FFF77BF9082090
:101F60008DF808000F208DF809008DF80A00012077
:101F70008DF80B0002A800F021FF05B000BD0000A5
:101F8000002002402DE9F04107460C461646002588
:101F900004213846FFF776FD05460EB1A54300E063
:101FA00025432A4604213846FFF742FE0020BDE8BB
:101FB000F08170B506460C46002509213046FFF732
:101FC00061FD14B145F0010500E000252A46092114
:101FD0003046FFF72DFE002070BD2DE9F041074689
:101FE0000C46164600250A213846FFF74BFD0546EC
:101FF0000EB1254300E0A5432A460A213846FFF7E3
:1020000017FE0020BDE8F0811CB50121480500F055
:1020100067FF01214FF4817000F032FF0121880336
:1020200000F07EFF0121480500F06AFF00214FF417
:10203000001000F065FF042206211848FFF7F0FAAF
:10204000042209211548FFF7EBFA402000900220F6
:102050008DF804008DF8050001208DF806000020A1
:102060008DF8070069460D48FFF792FA4FF40070AB
:10207000009069460948FFF78BFA04200090002081
:102080008DF804008DF8070069460548FFF780FACF
:102090000221082001F0E4FA1CBD00000004024007
:1020A0000020024038B505460C46002000900B2168
:1020B0002846FFF7E7FC00909DF80000204201D081
:1020C000012038BD0020FCE71FB50020ADF804005A
:1020D0004BF6FF70ADF806000020ADF808004FF495
:1020E0008060ADF80A000001ADF80C0003480090D4
:1020F00069460348FFF752FC1FBD0000A08601009F
:10210000005400402DE9F04107460C4616460025D4
:1021100017213846FFF7B6FC05460EB1254300E00F
:10212000A5432A4617213846FFF782FD0020BDE867
:10213000F0812DE9F04180460C4615460026002727
:1021400016214046FFF79EFC064615214046FFF744
:1021500099FC0746A643A74315F0010F00D026437C
:1021600015F0020F00D02743324616214046FFF7F4
:102170005FFD3A4615214046FFF75AFD0020BDE8B5
:10218000F0812DE9F04107460C46164600250C214A
:102190003846FFF777FC05460EB1254300E0A5431E
:1021A0002A460C213846FFF743FD0020BDE8F081A8
:1021B0002DE9F04107460C46164600251321384606
:1021C000FFF760FC05460EB1254300E0A5432A4613
:1021D00013213846FFF72CFD0020BDE8F08110B533
:1021E00004460021042000F050F814F0040F1AD027
:1021F00001218820FFF7DDFE0122F8218820FFF76A
:10220000C0FF012280218820FFF7E7FE0D218820F2
:10221000FFF738FC0122F8218820FFF7B2FF0D21DB
:102220008820FFF72FFC14F0020F1AD00121822022
:10223000FFF7BFFE01220C218220FFF7A2FF01223F
:1022400080218220FFF7C9FE0D218220FFF71AFCB2
:1022500001220C218220FFF794FF0D218220FFF73D
:1022600011FC14F0010F0CD001218220FFF7A1FE18
:10227000012207218220FFF7B0FE0D218220FFF707
:1022800001FCFFF745FE002010BD70B505460E4667
:10229000002409218220FFF7F5FB044624F0060400
:1022A00045EA06000443224609218220FFF7C0FCCC
:1022B00009218820FFF7E6FB044624F0060445EADE
:1022C00006000443224609218820FFF7B1FC0020C4
:1022D00070BD000010B50446204600F037F8A0F5A8
:1022E0000061113906D00448006808B9022010BD09
:1022F0000120FCE70020FAE71402002010B50024BA
:1023000012218820FFF7BEFB044604F0F800F828ED
:1023100001D1002010BD14F0800F01D10120F9E798
:1023200014F0400F01D10220F4E714F0200F01D186
:102330000320EFE714F0100F01D10420EAE714F0B6
:10234000080F01D10520E5E70020E3E770B5054659
:10235000002400212846FFF795FB04464FF6FF7046
:1023600000EA042401212846FFF78CFB04432046A1
:1023700070BD10B50446022203212046FFF758FC29
:10238000022006F00FFE002203212046FFF750FC3A
:10239000002010BD10B5002404218220FFF772FB3D
:1023A000044624F00304224604218220FFF740FC67
:1023B0000A218220FFF766FB044644F00704224608
:1023C0000A218220FFF734FC492220218220FFF7D6
:1023D0002FFC022006F0E6FD012221218220FFF7DA
:1023E00027FC17218220FFF74DFB044624F01E0432
:1023F000224617218220FFF71BFC9A2241218220CE
:10240000FFF716FC01224A218220FFF711FC01226E
:102410004B218220FFF70CFC00224B218220FFF78A
:1024200007FC012256218220FFF702FC01225821DD
:102430008220FFF7FDFB012240218220FFF7F8FBFD
:10244000FF220B218220FFF7F3FB00200249C88006
:1024500088804880088010BD2402002008B5002034
:10246000009004218820FFF70DFB00909DF80000EC
:1024700020F0090000909DF8002004218820FFF73B
:10248000D7FB012260218820FFF7D2FB03226021C5
:102490008820FFF7CDFB002008BD70B504460D462F
:1024A000002614F0010F01D0822606E014F0050F7B
:1024B00001D0882601E0032070BD2DB922461121EC
:1024C0003046FFF7B5FB04E0224610213046FFF707
:1024D000AFFB0020F0E70000F0B58DB00546012706
:1024E0002946684607F096F80646002E5AD100BFE6
:1024F00007A9684607F0AAF9064616B99DF825000F
:1025000018B90020294908704BE09DF825002E28B5
:1025100000D1EDE70DF125049DF8240010F0100F17
:1025200000D0E5E722A12046FDF756FE28B921A1FB
:102530002046FDF751FE002832D0012221461E48D8
:1025400006F0A4FF064601F021F9012017490870A2
:102550001AA1E42000F0D6F94FF6FF7000F000FC5D
:1025600001E001F037FA2048FFF7CBF818B10F4827
:1025700000780228F5D1002001F058F8012001F080
:1025800055F8022001F052F8032001F04FF8E42042
:1025900000F0EEF8084806F057FF002003490870E5
:1025A000A6E700BF38460DB0F0BD00000B000020CC
:1025B000626D7000424D5000A80600205072657395
:1025C0007320616E79206B657920746F20636F6E64
:1025D00074696E75652E2E2E20202020202020204C
:1025E0002020202020000000CC0800202DE9F04110
:1025F0000546002047490870474908704749087058
:10260000474908702878022802D02878202803D16A
:1026100001204449087002E00020424908704FF050
:10262000000802240CE0285D012805D0285D02285E
:1026300002D0285D032801D14FF00108601CC4B20C
:10264000082CF0DBB8F1010F01D1BDE8F0810020CA
:10265000304908703049087002242AE0285D30B300
:10266000285D31492B4A127888542A480078401C4A
:1026700028490870002607E0285D2C49895D8842BA
:1026800000D105E0701CC6B2244800788642F3DB16
:1026900000BF22480078864209D1285D24491E4A9D
:1026A000127888541C480078401C1B490870601C34
:1026B000C4B2082CD2DB18480078012817D11C4876
:1026C00000781749087017480078012805D1194883
:1026D0000978405C18490F5C05E0164810490978F4
:1026E000405C16490F5C384605F010FE02E0002001
:1026F0000B4908700748007808490870002405E075
:102700000948005D09490855601CC4B2062CF7DB76
:1027100000BF9AE76C0100206D0100206E010020CF
:102720006B010020580100205901002065010020A4
:102730005F010020ACA4000816A6000894A50008BC
:1027400010B505F0A9FD10BD30B50446002540F2D6
:102750003F11002000F0C6FA00F00EFB00BF03E0BE
:102760004FF0D04044806D1CB5F5963FF8D330BD96
:1027700030B5054640F23F1409E0202221462846A4
:1027800000F0A8F8064800688088201A84B2601C0F
:1027900080B20349096889888842EEDA30BD0000BA
:1027A000500200201CB50121782000F069FB4CF29A
:1027B0003370009002208DF804008DF80500002091
:1027C0008DF806008DF8070069463E48FEF7E0FEEA
:1027D0000C2200213B48FEF723FF0C22012139483F
:1027E000FEF71EFF0C2204213648FEF719FF0C22CB
:1027F00005213448FEF714FF0C2208213148FEF76A
:102800000FFF0C2209212F48FEF70AFF0C220A2194
:102810002C48FEF705FF0C220E212A48FEF700FF88
:102820000C220F212748FEF7FBFE4FF68070009028
:1028300069462548FEF7ACFE0C2207212248FEF728
:10284000EFFE0C2208212048FEF7EAFE0C220921A7
:102850001D48FEF7E5FE0C220A211B48FEF7E0FEAC
:102860000C220B211848FEF7DBFE0C2211461648FD
:10287000FEF7D6FE0C220D211348FEF7D1FE0C22E6
:102880000E211148FEF7CCFE0C220F210E48FEF758
:10289000C7FE0120009069460C48FEF779FE0C2225
:1028A00000210A48FEF7BCFE4FF4806000906946A4
:1028B0000748FEF76DFE0C220A210548FEF7B0FE20
:1028C0001CBD0000000C0240001002400014024039
:1028D0000018024070B505460E461446A4F12000CB
:1028E000C4B207480068016805480068C0886043B2
:1028F00001EB40023146284600F02AF870BD000086
:102900005002002070B506460C4640F23F150AE022
:10291000227829463046FFF7DDFF0C4800688088A2
:10292000281A85B2641C681C80B208490968898825
:10293000884201DB012000E00020217809B101215B
:1029400000E000210842E3D170BD000050020020E9
:102950002DE9F04307468946164600240025A04687
:10296000B8464946404600F0BDF900BF39E000F0E6
:1029700003FA002527E01E48006880880C2190FBA0
:10298000F1F0C10080208840284136F81410084238
:1029900004D11748006880880C280ADD36F8140036
:1029A0000121A940084209D11148006880880C28FB
:1029B00004DD1048008800F0DBF903E00E480088D1
:1029C00000F0D6F96D1C0A4800688088A842D2D869
:1029D00008F101001FFA80F84946404600F082F9EC
:1029E000641C03480068C088A042C0D8BDE8F083DA
:1029F000500200204E0200204C020020F0B5054697
:102A00000E4617461C461E48008800F0A9F9002310
:102A10003A463146284600F037F8291988B2002393
:102A20003A46314600F030F8012322463146284626
:102A300000F02AF8F01B401C81B2012322462846F0
:102A400000F022F8B81E87B2601E84B2701E86B2F3
:102A50000C48008800F084F908E0691C89B20D4632
:102A6000084600233A46314600F00EF82000A4F153
:102A700001018CB2F1D10248008800F071F9F0BD7B
:102A80004C0200204E0200202DE9F0410646884607
:102A900015461F4600244146304600F023F95FB931
:102AA00000F06AF900BF04E00D48008800F060F90A
:102AB000641CAC42F8D310E000240CE000F05CF998
:102AC0000748008800F054F9701C86B24146304631
:102AD00000F008F9641CAC42F0D3BDE8F0810000BE
:102AE0004C020020F0B505460E4617461C46002352
:102AF000224631462846FFF7C7FFE91988B200236E
:102B000022463146FFF7C0FF01233A4631462846A8
:102B1000FFF7BAFF301B401C81B201233A4628461A
:102B2000FFF7B2FFF0BD00B597B00121084600F0F5
:102B3000C7F9052001900020029009200390002091
:102B400004900590069007900420089000200990BA
:102B50000A9010200B9000200C900D900E900F907A
:102B600010904FF480501190002012901390149008
:102B700001A81590169008A8FEF79AFC01210420E0
:102B8000FEF77CFC17B000BD0148006870470000EC
:102B90005002002070B50024FFF7F6FF054600BF85
:102BA00007E0E988E21C514388B2FFF7E1FD601CB1
:102BB000C4B20C2CF5DB00F001F870BD4FF6FF70CD
:102BC0000C49088000200C4908800C4908800C49F9
:102BD00008800C4908800C49088001200B490870C6
:102BE00000200B4908700B4908700B4908700B490D
:102BF00008807047C6010020C8010020CA010020DB
:102C0000CC010020CE010020D0010020D201002004
:102C1000D3010020D4010020D5010020D6010020DE
:102C200010B5FFF7CBFF0020FFF78EFD10BD0000B1
:102C30002DE9F04188B006460025B04600E06D1C45
:102C400018F8011B0029FAD11A2D00D91A250024E1
:102C500003E0202001A90855641C1B2CF9D3002493
:102C600007E0305DC5F11B0104EB510101AA50548E
:102C7000641CAC42F5D30020FFF766FD104800F05D
:102C800069F8FFF781FF07464FF6FF7000F068F81C
:102C90001F2000F01FF80020FFF76AFDF88801A947
:102CA000FFF730FEF9884904080CFFF761FD0020AA
:102CB00000F010F8034800F04DF808B0BDE8F081CE
:102CC000340200203C02002001464FF0D040018039
:102CD0004088704701B5BDF800000149088008BD73
:102CE0004E02002010B503460C461946202000F085
:102CF00048F82146212000F044F810BDF0B5044604
:102D00000D4616461F46B44206DBA01B401C81B28E
:102D1000502000F036F803E00021502000F031F898
:102D20002146512000F02DF8BD4206DBE81B401C77
:102D300081B2522000F025F803E00021522000F07B
:102D400020F82946532000F01CF829462046FFF7BA
:102D5000C9FFF0BD01490860704700005002002023
:102D600001B5BDF800000149088008BD4C020020F3
:102D70004FF0D0414880704722204FF0D04108806A
:102D800070474FF0D04210805180704710B5044614
:102D900020780549C87060780870A07848700846A7
:102DA00005F082FB10BD00003001002010B505F0D9
:102DB0003DFB10BD00BFFEE77047000070B500216D
:102DC00000230F22C47824B3174C246804F4E06471
:102DD000C4F5E064C4F30721C1F10404E3B20A417D
:102DE00044789C40E1B28478144021430C07210EC2
:102DF0000E4C05786155047804F01F050124AC40A1
:102E000005786D114FF0E02606EB8505C5F8004109
:102E100009E0047804F01F040125A540044C06785D
:102E2000761144F8265070BD0CED00E000E400E09F
:102E300080E100E002490143024A1160704700004E
:102E40000000FA050CED00E0024A0A400243024B82
:102E50001A60704780FFFF1F08ED00E010B50248C0
:102E600002F06AFE10BD0000FC0E002010B5024802
:102E700002F062FE10BD0000CC0800207047000088
:102E800029B1064A12680243044B1A6004E0034A5F
:102E900012688243014B1A607047000030380240CC
:102EA00029B1064A12680243044B1A6004E0034A3F
:102EB00012688243014B1A607047000034380240A8
:102EC00029B1064A12680243044B1A6004E0034A1F
:102ED00012688243014B1A60704700003838024084
:102EE00029B1064A12680243044B1A6004E0034AFF
:102EF00012688243014B1A6070470000403802405C
:102F000029B1064A12680243044B1A6004E0034ADE
:102F100012688243014B1A6070470000203802405B
:102F200029B1064A12680243044B1A6004E0034ABE
:102F300012688243014B1A60704700004438024017
:102F4000F0B5002100220024022500260223324F82
:102F50003F6807F00C0121B1042905D0082937D1B9
:102F600005E02E4F076036E02D4F076033E02A4F13
:102F70003F1F3F68C7F38056274F3F1F3F6807F04A
:102F80003F036EB1264FB7FBF3F7DFF88CC0ACF10F
:102F9000040CDCF800C0CCF3881C07FB0CF40CE03C
:102FA0001E4FB7FBF3F7DFF870C0ACF1040CDCF890
:102FB00000C0CCF3881C07FB0CF4174F3F1F3F6881
:102FC000C7F301477F1C7D00B4FBF5F7076002E003
:102FD000124F076000BF00BF0F4F3F6807F0F001BE
:102FE0000909104F7A5C0768D74047600A4F3F686D
:102FF00007F4E051890A0B4F7A5C4768D740876035
:10300000054F3F6807F46041490B064F7A5C4768FB
:10301000D740C760F0BD0000083802400024F4002B
:1030200040787D01D801002008B500200090FFF70E
:10303000B9FBFFF778FD052005F0C6FF0020FFF77C
:1030400043FE00900098A0F5134120397ED14FF443
:103050000041E520FFF795FE01210020FFF791FEDA
:103060004FF480710120FFF78CFE4FF4E0610220E5
:10307000FFF787FE41F230010320FFF782FE0021B7
:103080000420FFF77EFE40F202210820FFF779FEC0
:1030900000210920FFF775FE00210A20FFF771FECD
:1030A00000210C20FFF76DFE00210D20FFF769FEC7
:1030B00000210F20FFF765FE00211020FFF761FEC1
:1030C00000211120FFF75DFE00211220FFF759FEBD
:1030D00000211320FFF755FE142005F075FF41F283
:1030E000B0711020FFF74DFE40F237111120FFF7AD
:1030F00048FE052005F068FF40F239111220FFF765
:1031000040FE052005F060FF4FF4E8511320FFF763
:1031100038FE13212920FFF734FE052005F054FF67
:1031200000212020FFF72DFE00212120FFF729FE9E
:1031300007213020FFF725FE07213120FFF721FE70
:1031400007213220FFF71DFE072100E079E035203E
:10315000FFF717FE07213620FFF713FE4FF4E0615B
:103160003720FFF70EFE4FF4E0613820FFF709FE2D
:103170004FF4E0613920FFF704FE4FF4E0613C209A
:10318000FFF7FFFD4FF4F8513D20FFF7FAFD002156
:103190005020FFF7F6FDEF215120FFF7F2FD00214F
:1031A0005220FFF7EEFD40F23F115320FFF7E9FDFB
:1031B0004FF41C516020FFF7E4FD01216120FFF76F
:1031C000E0FD00216A20FFF7DCFD00218020FFF7F1
:1031D000D8FD00218120FFF7D4FD00218220FFF7D8
:1031E000D0FD00218320FFF7CCFD00218420FFF7D4
:1031F000C8FD00218520FFF7C4FD10219020FFF7B6
:10320000C0FD00219220FFF7BCFD03219320FFF7B2
:10321000B8FD4FF488719520FFF7B3FD002197208A
:10322000FFF7AFFD00219820FFF7ABFD41F2180139
:103230000320FFF7A6FD40F273110720FFF7A1FD61
:10324000F9E00098A0F513412539F9D101210020BA
:10325000FFF797FD4FF480710120FFF792FD4FF4C7
:10326000E0610220FFF78DFD41F218010320FFF716
:1032700088FD00210420FFF784FD40F20221082090
:10328000FFF77FFD00210920FFF77BFD00210A20C9
:10329000FFF777FD00210C20FFF773FD00210D20C3
:1032A000FFF76FFD00210F20FFF76BFD00211020BD
:1032B000FFF767FD00211120FFF763FD00211220B9
:1032C000FFF75FFD00211320FFF75BFD142005F0E1
:1032D0007BFE41F2B0711020FFF753FD40F2371131
:1032E0001120FFF74EFD052005F06EFE40F239116A
:1032F0001220FFF746FD052005F066FE4FF4E85169
:103300001320FFF73EFD13212920FFF73AFD05208A
:1033100005F05AFE00212020FFF733FD0021212077
:10332000FFF72FFD07213020FFF72BFD40F2023180
:103330003120FFF726FD40F205113220FFF721FD75
:1033400040F206213520FFF71CFD40F6080136202B
:10335000FFF717FD40F206213720FFF712FD40F27C
:1033600004513820FFF70DFD07213920FFF709FD33
:1033700040F205113C20FFF704FD40F608013D2016
:10338000FFF7FFFC00215020FFF7FBFCEF2151204D
:10339000FFF7F7FC00215220FFF7F3FC40F23F114A
:1033A0005320FFF7EEFC4FF427416020FFF7E9FCC4
:1033B00001216120FFF7E5FC00216A20FFF7E1FC15
:1033C00000218020FFF7DDFC00218120FFF7D9FCE0
:1033D00000218220FFF7D5FC00218320FFF7D1FCDC
:1033E00000218420FFF7CDFC00218520FFF7C9FCD8
:1033F00010219020FFF7C5FC00219220FFF7C1FCAF
:1034000003219320FFF7BDFC4FF488719520FFF74F
:10341000B8FC00219720FFF7B4FC00219820FFF7AB
:10342000B0FC41F218010320FFF7ABFC40F233116E
:103430000720FFF7A6FC0248FFF78CFC08BD000040
:103440002C0200203EB5044601210220FFF718FDA2
:1034500001211020FFF764FD072206215B48FEF7DB
:10346000DFF8072211465948FEF7DAF800208DF8F8
:103470000A0001208DF80B0002208DF80800C02002
:10348000019002208DF8090001A95048FEF780F84C
:1034900000214F4800F0F6FA21464D4800F030FB7D
:1034A000206880004B49B1FBF0F06421B0FBF1F1E2
:1034B00020688000474AB2FBF0F022689200454B3A
:1034C000B3FBF2F26423B2FBF3F202EBC20303EBB1
:1034D0000212A0EB8200322202EB00106422B0FB49
:1034E000F2F061F31F103A4908810121384800F0D9
:1034F000C9FA01210420FFF7C3FC0121C804FFF72A
:10350000EFFC08220A213448FEF78AF808220B2132
:103510003148FEF785F800208DF80A0001208DF86B
:103520000B0002208DF808004FF44060019002204B
:103530008DF8090001A92848FEF72AF8002127483C
:1035400000F0A0FA2146254800F0DAFA2068800051
:103550002049B1FBF0F06421B0FBF1F1206880005C
:103560001C4AB2FBF0F0226892001A4BB3FBF2F255
:103570006423B2FBF3F202EBC20303EB0212A0EBF3
:103580008200322202EB00106422B0FBF2F061F301
:103590001F101249083108800121104800F072FA0A
:1035A000012240F225510D4800F085FA34208DF8B3
:1035B000000001208DF8010000208DF8020001209C
:1035C0008DF803006846FFF7F9FB3EBD000402409A
:1035D0000010014000752B7D00080240004C0040A7
:1035E0001CB504460E4951F824000121FFF748FCA0
:1035F0000C4830F81400009001208DF804000020E1
:103600008DF8060001208DF8070002208DF80500D6
:10361000054951F824006946FDF7BAFF1CBD0000BA
:1036200064A700085CA70008E8010020034931F8FE
:103630001010034A52F82020518370475CA70008FD
:10364000E8010020034931F81010034A52F8202005
:10365000118370475CA70008E80100207047000054
:1036600030B500228B071C0F0F2303FA04F20B4B1B
:103670008C1053F824309343084C8D1044F82530B7
:1036800023468C1053F824308C07240F00FA04F4DE
:103690002343024C8D1044F8253030BD08380140DA
:1036A0000CB50020019000903448006840F4803050
:1036B0003249086000BF3148006800F400300090D3
:1036C0000198401C0190009818B90198B0F5A06FBE
:1036D000F1D12A48006810F4003F02D00120009088
:1036E00001E0002000900098012845D12348403097
:1036F000006840F08050214940310860204800684F
:1037000040F480401E4908601C48083000681B498E
:10371000083108600846006840F400400860084628
:10372000006840F4A05008601648091F0860081F90
:10373000006840F08070091F086000BF0F480068F3
:1037400010F0007FFAD040F205600F4908600B4886
:103750000830006820F00300084908310860084676
:10376000006840F00200086000BF044808300068AC
:1037700000F00C000828F8D10CBD00000038024011
:103780000070004008544007003C024038B5002457
:10379000002000904FF4A073F022591EEF20FFF795
:1037A000ADFA41F208010320FFF7EBFAFFF7E4FA64
:1037B0001F48FCF71DFE002813DDFFF7EBF91DA0E5
:1037C000FFF736FA4FF478402049088020A004F033
:1037D000CFFE21A004F0CCFE4FF6FF701B490880FD
:1037E00038BD1CE06B464FF4007211491F4805F0CC
:1037F00045FF0546BDF8000000B105B114E0002406
:103800000AE00B490A5D0B46611C595C42EA012043
:10381000FFF7AEFAA01C84B2B4F5007FF1DB1448C8
:10382000FDF76FFF0028DDD100BF00BFD8E7000023
:103830007702002020555342204F544720447561A1
:103840006C436F726520486F73740000C6010020DE
:103850004552524F523A200042616420424D50205E
:10386000466F726D6174642E0A000000A806002085
:10387000CC08002010B51548006840F470001349CA
:1038800008601348006840F00100114908600020FA
:103890000F49083108600E4800680E4908400C497D
:1038A00008600D48091D0860081F006820F480208A
:1038B000091F0860002006490C310860FFF7F0FE80
:1038C0004FF0006001498039086010BD88ED00E0CC
:1038D00000380240FFFFF6FE1030002410B502F061
:1038E000C3FF10BD21B1028842F08002028004E0D3
:1038F00002884FF67F731A4002807047CA430282E3
:10390000704721B1028842F00102028004E002887F
:103910004FF6FE731A400280704730B50246002011
:1039200000230024158A05EA0103958905EA0104AC
:1039300013B10CB1012000E0002030BD1AB1838921
:103940000B43838102E083898B43838170470000AE
:1039500000220288184B98420ED0184B98420BD088
:10396000B0F1804F08D0164B984205D0154B9842C5
:1039700002D0154B984204D14FF68F731A404B88F2
:103980001A43124B984207D0114B984204D04FF67D
:10399000FF431A400B891A4302804B68C3620B88AD
:1039A0000385054B984202D0044B984201D18B7A93
:1039B0000386012383827047000001400004014018
:1039C0000004004000080040000C004000100040CF
:1039D0000014004010B5294801680068401C274ABF
:1039E0001060B1F5A02F48D1254801780078401C1F
:1039F000234A107031B1012911D002291CD00329AA
:103A000037D126E00020FFF71DFE0120FFF70EFE54
:103A10000220FFF70BFE0320FFF708FE29E000203D
:103A2000FFF704FE0120FFF70DFE0220FFF7FEFD69
:103A30000320FFF7FBFD1CE00020FFF7F7FD01204E
:103A4000FFF7F4FD0220FFF7FDFD0320FFF7EEFD79
:103A50000FE00020FFF7EAFD0120FFF7E7FD02205D
:103A6000FFF7E4FD0320FFF7EDFDFF200449087098
:103A700000BF00BF00200149086010BD7800002091
:103A80007C00002021B1828942F40052828104E04E
:103A900082894DF6FF731A408281704702460020EA
:103AA000B1F5007F00D100BF13880B4201D0012087
:103AB00000E000207047F0B50346002400260025F2
:103AC0000020A1F510676A3F00D100BF1846C1F37E
:103AD000421401F01F06012707FA06F5012C01D157
:103AE0000C3004E0022C01D1103000E014301AB187
:103AF00007682F43076002E00768AF430760F0BD27
:103B00002DE9FF4705460E460024A14600BFA0460A
:103B1000B08900B100BF2C8A24F44054F0880443DB
:103B20002C82AC8941F20C608443B088318908430F
:103B3000718908430443AC81AC8A24F44074B08991
:103B40000443AC826846FFF7FBF92048854202D067
:103B50001F48854202D1DDF80C9001E0DDF80890A5
:103B6000A88910F4004F08D009EBC90000EB091038
:103B700031684900B0FBF1F707E009EBC90000EB41
:103B8000091031688900B0FBF1F76420B7FBF0F051
:103B900004012009642101FB1078A88910F4004F6A
:103BA00008D0322000EBC800B0FBF1F000F00700B5
:103BB000044308E0322000EB08106421B0FBF1F070
:103BC00000F00F0004432C81BDE8FF870010014086
:103BD00000140140C1F308028280704770B50546A9
:103BE0000E46284600F0D4F90446A4F57F40FF387D
:103BF00005D046F4004105F28C5020F81410E0B2D4
:103C000070BD2DE9F04105460E4617461C460121C0
:103C100005F56B7000EB4410817005F56B7000EBDF
:103C20004410C66005F56B7000EB4410076105F5A4
:103C30006B7000EB4410007E30B9002105F56B700D
:103C400000EB4410017205E0022105F56B7000EBFA
:103C50004410017221462846FDF75EFD0020BDE8B4
:103C6000F0812DE9F04105460E4617461C4600211D
:103C700005F56B7000EB4410817005F56B7000EB7F
:103C80004410C66005F56B7000EB4410076105F544
:103C90006B7000EB4410407E28B905F56B7000EBAB
:103CA0004410017205E0022105F56B7000EB441031
:103CB000017221462846FDF72FFD0020BDE8F08166
:103CC0002DE9F04105460C4616461F460221217596
:103CD000012161750021E1822683618306F0800065
:103CE000802805D105F56B7000EB4710017605E0E3
:103CF000002105F56B7000EB4710417600231A4652
:103D00002146284600F02BF8BDE8F081014601224B
:103D1000C1F81023002070472DE9F04105460E46FA
:103D200017461C46012105F56B7000EB44108170AD
:103D3000022105F56B7000EB4410017205F56B7004
:103D400000EB4410C66005F56B7000EB4410076192
:103D500021462846FDF7E0FC0020BDE8F0812DE972
:103D6000F04180460C4615461E460127E0780128A2
:103D700002D0022820D108E032462946204602F02F
:103D8000E5FA0220E070012717E0207F0D2805D119
:103D90000120E0700021217700270CE0207F0B2814
:103DA00003D10120E070022705E0207F0C2802D11A
:103DB0000120E070032700E000BF00BF3846BDE8E7
:103DC000F08100002DE9F04105460F4616461C46DD
:103DD0004FF6FF701A4908801AA004F0C9FB0021B1
:103DE00005F56B7000EB4410817005F56B7000EB0E
:103DF0004410C76005F56B7000EB441006612EB9E6
:103E0000012105F56B7000EB4410417605F56B70F0
:103E100000EB4410407E30B9002105F56B7000EBDB
:103E20004410017205E0022105F56B7000EB4410AF
:103E3000017221462846FDF76FFC0020BDE8F081A5
:103E4000C6010020555342485F43746C53656E644D
:103E50004461746120303030200A0A0070B5054694
:103E60000E461446002105F56B7000EB441081707E
:103E7000032105F56B7000EB4410017205F56B70C2
:103E800000EB4410C660082105F56B7000EB441090
:103E9000016121462846FDF73FFCC0B270BD0246D5
:103EA000022106E0002302F28C5020F81130481C59
:103EB000C1B20829F6DB0020704770B505460C46F4
:103EC000002020706070A0700120E0700121217737
:103ED0004021A171002084F82000012121200155FA
:103EE0002179284600F023F86179284600F01FF870
:103EF000002070BD01460022C1F810230020704749
:103F000070B504460D46052D01D0042D06D1D4F818
:103F10008010486C80470A20207007E0062D05D1EC
:103F20000A202070D4F880100868804770BD0246CF
:103F3000082909DA02F28C5030F81100C0F30E03A0
:103F400002F28C5020F81130002070472DE9F04724
:103F500080460C4616461D46DDE9089746F080016E
:103F6000217506216175E58205F47F40B0F5407F3B
:103F700003D140F20941218301E0002121836783BD
:103F80003B464A4621464046FFF7E9FEBDE8F0873A
:103F90000246002100BF0AE002F28C5030F8110006
:103FA00010F4004F01D108467047481CC1B20829DF
:103FB000F2DB4FF6FF70F7E710B502460B88147876
:103FC00023440B801378981810BD00002DE9FC41A4
:103FD00004460D461646002704F588704FF400731A
:103FE00000222946CDE900062046FFF7AFFF5FEA31
:103FF000000814D106E004F58870C05D0949C85571
:10400000781C87B2B742F6DB04F5887305F15002DD
:1040100005F13E0105F13400009601F02FFE404607
:10402000BDE8FC812E1C00202DE9FC4104460D4614
:10403000164604F588704FF4807300222946CDE9B6
:1040400000062046FFF782FF070006D1324604F53E
:10405000887105F1220001F09FFE3846BDE8FC8121
:104060002DE9FC4104460E4615464FF6FF700A49FD
:1040700008800AA004F07CFA04F588704FF4045319
:1040800001223146CDE900052046FFF75FFF0746D4
:104090003846BDE8FC810000C60100205553424867
:1040A0005F4849445F48616E646C65203737373735
:1040B000373737373737200A000000002DE9FC4139
:1040C00004460E4615464FF6FF700A4908800AA0BE
:1040D00004F04EFA04F588704FF40853012231467B
:1040E000CDE900052046FFF731FF07463846BDE819
:1040F000FC810000C6010020555342485F484944F6
:104100005F48616E646C6520363636363636363634
:104110003636200A000000002DE9FC470446884698
:1041200015461E460A9F04F5887045F44073002228
:104130004146CDE900072046FFF708FF5FEA000986
:1041400005D13A46314604F5887001F0A6FE48468E
:10415000BDE8FC872DE9F04104460D462F464FF09F
:1041600001080126254890F84500052841D2DFE8DE
:1041700000F003140420340000BF09223946204611
:10418000FFF76EFF40B904F588711D4801F040FE4D
:1041900001201A4981F845002CE019480289394666
:1041A0002046FFF78BFF18B90320144981F845001A
:1041B00020E000231A463946204602F061F8064600
:1041C00026B904200D4981F8450005E0032E03D1EE
:1041D00004200A4981F845000CE0002239462046B7
:1041E00002F082F820B90020044981F84500804699
:1041F00000E000BF00BF4046BDE8F0812C15002064
:10420000C81500202DE9F04105460C46264600273A
:104210004FF6FF704C4908804CA004F0A9F95148B2
:1042200090F8420030B1032825D0042812D0052888
:104230007ED13EE04FF6FF70434908804AA004F06B
:1042400097F94849096D086880470420454981F875
:10425000420000BF4FF6FF703B4908804AA004F0BF
:1042600087F9284603F013F8012803D103203D49BC
:1042700081F8420064E04FF6FF703349088049A09E
:1042800004F076F9374890F8403090F8462001461F
:10429000284600F047FD01204A49087005203149B1
:1042A00081F842002846FDF7E2F92E49A1F84C00BA
:1042B00046E04FF6FF702449088043A004F058F907
:1042C0002846FDF7D4F92749B1F84C10401A254982
:1042D000B1F84A10884204D30320224981F84200F1
:1042E0002CE0204890F840102846FDF7CFF901282F
:1042F0000CD134480078012820D1002031490870C1
:104300001848006D41681748884717E0154890F82D
:1043100040102846FDF7BAF904280FD1114890F84B
:10432000403090F8482031462846FFF7C9FC00E0AD
:1043300005E018B903200B4981F8420000E000BFF6
:1043400000BF3846BDE8F081C60100205553424801
:104350005F4849445F48616E646C6520313131319A
:1043600031200A002C150020555342485F4849442B
:104370005F48616E646C65203232323232323232E2
:104380003232200A00000000555342485F48494439
:104390005F48616E646C65203333333333333320CD
:1043A0000A000000555342485F4849445F48616E27
:1043B000646C65203434343434343434343434204C
:1043C0000A00000034010020555342485F48494428
:1043D0005F48616E646C652035353535353535207F
:1043E0000A00000070B504460D46164890F84000DB
:1043F00078B1144890F84010204602F0E4FC1148CF
:1044000090F840102046FFF792FD00200D4981F8FA
:1044100040000C4890F8410078B10A4890F84110EB
:10442000204602F0D0FC074890F841102046FFF7E4
:104430007EFD0020034981F84100002002490870F8
:1044400070BD00002C150020340100202DE9FC4730
:1044500007460E46344600254FF0010906204D4917
:1044600081F8420094F8440001287DD194F8450079
:10447000012802D14848086506E094F84500022862
:1044800002D14648434908650020424981F842006C
:1044900081F8450094F8520081F84800B4F85400BF
:1044A000A1F8460094F85600A1F84A000846B0F872
:1044B0004A000A2802DA0A20A1F84A0094F84200C9
:1044C000022802DC94F8420000E002208046002529
:1044D00052E004F1500000EBC500807810F0800F2E
:1044E00023D004F1500000EBC5008078294981F801
:1044F000440004F1500000EBC50081783846FFF716
:104500006DFB244981F840000846B0F846000321BD
:10451000CDE900102120035D94F820201D4890F87B
:104520004010384601F05CFB24E004F1500000EB41
:10453000C5008078174981F8430004F1500000EB72
:10454000C50081783846FFF749FB124981F84100E0
:104550000846B0F846000321CDE900102120035D94
:1045600094F820200B4800E00DE090F84110384608
:1045700001F036FB681CC5B24545AADB002008499E
:104580000870814603E0D4F88010086C80474846E4
:10459000BDE8FC872C1500205001002028010020D8
:1045A000340100202DE9F04106460C461746254609
:1045B0006879032806D14FF6E07003490880034864
:1045C00003F0D6FFBDE8F081C601002085A20008F7
:1045D000704770477047000010B54FF478400849A5
:1045E000088008A003F0C4FF084803F0C1FF4FF69D
:1045F000FF700349088000200549087010BD0000C5
:10460000C60100204552524F523A2000CDA1000869
:104610000C00002010B54FF6E0700349088003A09D
:1046200003F0A6FF10BD0000C60100203E506F72CF
:1046300074313A446576696365206E6F74207375D2
:1046400070706F727465642E0A00000010B5044625
:104650003CB94FF6E07011490880114803F088FF1B
:104660001AE0012C07D14FF6E0700C4908800D4884
:1046700003F07EFF10E0022C07D14FF6E0700749EF
:104680000880094803F074FF06E04FF6E070034924
:104690000880064803F06CFF10BD0000C601002032
:1046A00007A200082AA200084DA200086FA2000875
:1046B0007047000010B54FF6E070044908800448C8
:1046C00003F056FF01200349087010BDC601002009
:1046D000E9A100080C0000207047000010B59AB056
:1046E0000446224606A101A803F052FF4FF6E070EF
:1046F0000A49088001A803F03BFF1AB010BD000072
:104700003E506F7274313A4D616E756661637475B7
:10471000726572203A2025730A000000C60100204D
:1047200010B54FF478400649088006A003F020FF3A
:1047300006A003F01DFF4FF6FF700149088010BD71
:10474000C60100204552524F523A20003E506F722F
:1047500074313A4F76657263757272656E74206457
:10476000657465637465642E0A00000010B59AB024
:104770000446224606A101A803F00AFF4FF6E070A6
:104780000949088001A803F0F3FE1AB010BD00002B
:104790003E506F7274313A50726F64756374203A90
:1047A0002025730A00000000C601002070470000A9
:1047B00010B59AB00446224606A101A803F0E8FE0F
:1047C0004FF6E0700A49088001A803F0D1FE1AB044
:1047D00010BD00003E506F7274313A5365726961CA
:1047E0006C204E756D626572203A2025730A0000B8
:1047F000C601002010B54FF478400649088006A095
:1048000003F0B6FE064803F0B3FE4FF6FF70014911
:10481000088010BDC60100204552524F523A200078
:10482000E5A2000800200249097801B10120704783
:10483000840000202DE9F04106460C464FF00008A8
:1048400000250021A174207F0C2876D2DFE800F03B
:10485000FD060F3D466576919AC0D7ED627904F169
:1048600014013046FFF7FAFA02212177EEE0617970
:104870003046FCF70BFF0546012D1FD1207D00F0CF
:104880008007608B58B141F2883072490880802FD0
:1048900002D1032121770CE00521217709E03220A4
:1048A0006C490880802F02D10921217701E007217E
:1048B00021773046FCF7DBFE208205E0032D03D193
:1048C0000B2121770521A174C0E02379A28930460C
:1048D000A168FFF721FA04212177B7E0217930465A
:1048E000FCF7D4FE0546012D01D109212177042DC5
:1048F00002D1607820700FE0032D02D10B212177C7
:104900000AE03046FCF7B3FE218A401A5149098873
:10491000884201D90B21217798E00121627906F5BF
:104920006B7000EB421041766379A2893046A16832
:10493000FFF748FA0621217788E086E06179304662
:10494000FCF7A4FE0546012D02D1072121770FE0D7
:10495000042D04D1607820700C21217708E0022D0D
:1049600002D10521217703E0032D01D10B2121770D
:104970006CE02379002211463046FFF7CDF908217B
:10498000217763E021793046FCF780FE0546012D52
:1049900004D1607820700D21217718E0032D02D119
:1049A0000B21217713E03046FCF761FE218A401A83
:1049B00028490988884202D90B21217707E0042D74
:1049C00005D1607820700421A1744FF003083DE008
:1049D000617906F56B7000EB4110407E80F00101BB
:1049E000627906F56B7000EB421041766379002224
:1049F00011463046FFF7E6F90A21217726E0617972
:104A00003046FCF743FE0546012D04D16078207046
:104A10000D21217708E0022D02D10921217703E041
:104A2000032D01D10B21217710E0A07B401CC1B2E6
:104A3000A173022902DC0121217705E00821A1747C
:104A4000607820704FF0020800E000BF00BF4046D1
:104A5000BDE8F081B801002070B592B005460C4663
:104A60000126A0780A2875D2DFE800F005364C75DB
:104A70007E91AECBE8F34FF6FF707D4908807DA0B4
:104A800003F076FD082221462846FFF7CDFA10BB39
:104A90004FF6FF70764908807BA003F069FD94F81B
:104AA0002910A1712846FCF730FE0120A070A079E2
:104AB0000021CDE90010617900231A46284601F053
:104AC00009F8A0790021CDE90010217900231A46C8
:104AD000284600F0FFFFC6E0122221462846FFF7D5
:104AE000A3FA70B94FF6FF70614908806BA003F01C
:104AF0003FFDD4F88000C16904F1220088470220FC
:104B0000A070B0E001222146284601F092FB00BBD4
:104B1000022001F0C5FE012004F10204A077D4F8C0
:104B20007E10086A804703202070002000900190CA
:104B3000A27FA1780346284600F0CCFF0020009019
:104B40000190A27FA4F1020461790346284600F097
:104B5000C1FF88E086E0092221462846FFF736FAA1
:104B600008B90420A0707EE0E28E21462846FFF7B7
:104B70002DFA58B9D4F8800004F1500204F13E0136
:104B8000436A04F1340098470520A0706BE094F864
:104B9000300088B1FF20009094F8302002AB21460D
:104BA0002846FFF7B9FA70B9D4F88000816A02A8E4
:104BB00088470620A07006E0D4F88000816A3FA0F4
:104BC00088470620A0704EE094F8310088B1FF209D
:104BD000009094F8312002AB21462846FFF79CFA5A
:104BE00070B9D4F88000C16A02A888470720A07075
:104BF00006E0D4F88000C16A30A088470720A07082
:104C000031E094F8320088B1FF20009094F832200F
:104C100002AB21462846FFF77FFA70B9D4F880002E
:104C2000016B02A888470820A07006E0D4F8800035
:104C3000016B22A088470820A07014E094F8392066
:104C40002146284601F008FB08B90920A0700AE0B7
:104C5000FFE74FF6FF700649088019A003F088FCB3
:104C6000002600E000BF00BF304612B070BD00005B
:104C7000C6010020454E554D5F49444C4520343413
:104C8000343434200A000000454E554D5F49444CF1
:104C90004520353535353535200A0000454E554D12
:104CA0005F4745545F46554C4C5F4445565F44450D
:104CB0005343203434343434200A00004E2F410052
:104CC000454E554D5F4745545F46554C4C5F4445F6
:104CD000565F44455343203535353535200A0000AD
:104CE0002DE9F04106460F4614461D46DDF81880B2
:104CF000304601F0CBFC002001F070FC214630462C
:104D0000FFF7DBF8E567C4F8808039463046FCF7EA
:104D1000C8FCD4F8801008688047304601F090FC49
:104D2000BDE8F0812DE9F04105460E4617461C46C8
:104D30004FF6FF701D4908801DA003F019FC0121EA
:104D400005F56B7000EB4410817005F56B7000EB9E
:104D50004410C66005F56B7000EB4410076105F563
:104D60006B7000EB4410007E30B9002105F56B70CC
:104D700000EB4410017205E0022105F56B7000EBB9
:104D80004410017205F56B7000EB4410007E80F05A
:104D9000010105F56B7000EB4410017621462846B1
:104DA000FCF7BAFC0020BDE8F0810000C60100203D
:104DB000555342485F496E746572727570745265DE
:104DC00063656976654461746120313131200A0A76
:104DD0000000000070B505460C4621212175FF2119
:104DE00061750021E1822183618300231A462146F7
:104DF0002846FEF7B4FF70BD2DE9F04105460E468A
:104E00001446012714B1012C12D108E01048037890
:104E1000C27831462846FEF753FF074609E00C48A2
:104E20004378827831462846FEF74AFF074600E07D
:104E300000BF00BF07480068401C064908600846DC
:104E40000068042800D904273846BDE8F081000036
:104E5000241A00208001002010B502460020002303
:104E6000014C237010BD0000141A00202DE9F04100
:104E700005460F46002601242846FCF742FC20B3D5
:104E8000154801782846FCF706FC06460D2E01D091
:104E900002241CE0114800681149884216D10F48CD
:104EA000406810494968884211D10C48007B08B914
:104EB00000240CE00948007B012801D1012406E010
:104EC0000648007B022802D1022400E002240648A2
:104ED000C4732046BDE8F081241A0020041A002083
:104EE00055534253E4190020141A0020012812D10E
:104EF0000D490978491C0C4A1170114609780A2994
:104F000005DA0621094A11700121D1700AE00A214F
:104F1000064A117006E0022803D10A21034A1170E3
:104F200000E000BF7047000084010020141A002038
:104F300070B505460C46A1212175FE216175002141
:104F4000E1822183012161830123034A214628460E
:104F5000FEF705FF70BD00002C1A00202DE9F04778
:104F600081460F463E46012403254FF0000848467F
:104F7000FCF7C7FB002878D05E4800780B2875D274
:104F8000DFE800F0060D1E5566798A999E44B00050
:104F9000484600F05FFA012056490870A5E03946FE
:104FA0004846FFF717FF044614B90220514908701C
:104FB000032C04D102204F4948700920087094E066
:104FC00039464846FFF7B4FF0446BCB94A48007A60
:104FD000494981F80802084690F8080200280ADDCD
:104FE0004648007838B9012044490870D6F8801046
:104FF000086C804779E003203E490870032C04D1F7
:1050000003203C494870092008706EE07379002243
:1050100039464846FEF754FE04463CB9002036495E
:1050200081F8080233484078324908705DE048460C
:1050300000F086FC05463DB904202E49087000208A
:105040002F490870002402E02846FFF74FFF4CE08C
:10505000484600F097FB05464DB9052025490870E4
:10506000002027490870002404E03FE03CE0284687
:10507000FFF73CFF39E0484600F09CFA05463DB991
:1050800008201C49087000201D490870002402E017
:105090002846FFF72BFF28E0484600F0E1FB0546D5
:1050A0002DB91448407813490870002402E02846BE
:1050B000FFF71CFF19E03946484600F023F814E0DA
:1050C000D6F88010C86B804700F0FF08B8F1000FD9
:1050D00003D108200749087003E0B8F1010F00D19F
:1050E000062402E0042400E000BF00BF2046BDE823
:1050F000F0870000141A0020241A002098010020D4
:10510000840100202DE9F04780468946002440466E
:10511000FCF7F7FA00287DD0C548007909287AD233
:10512000DFE800F079051251A3FDFCFBFA00C1484D
:1051300043781F22C0494046FEF793FD0120BC4939
:1051400048710220087170E1BA4841784046FCF786
:105150009DFA0446012C26D10020B849086002209F
:10516000B3494871B448007B00F08007B2488068BA
:10517000A8B1B1488068B2490860AD488068B149BB
:10518000086008460068B0490860802F03D10320FA
:10519000A749087116E00420A549087112E005200E
:1051A000A34908710EE0022C04D1A1484079A0491E
:1051B000087107E0042C05D10120A44908700820DB
:1051C0009B49087131E19B4801784046FCF75EFA43
:1051D0000446012C03D09648407903283AD0002099
:1051E0009649086003209249487192488088944902
:1051F0000968884219D28F480378828891480168EB
:105200004046FEF7FEFC8B4880888D490968081AE5
:105210008B4901E00AE107E10860864880888949F6
:1052200009680844874908601EE08548006818B985
:1052300005207F49087117E07E4803788048008880
:1052400082B2804801684046FEF7DBFC00207C49C2
:10525000086009E0042C07D100207C490870072071
:105260007349087105204871DFE072484178404673
:10527000FCF70CFA0446012C3BD100206F49086072
:1052800004206B4948716B48C0886D4909688842A1
:105290001AD268484378C2886A4801684046FEF7D7
:1052A000E0FC68480068684908606248C088654951
:1052B00009680844634908605E48C0886049096815
:1052C000081A5F49086042E05D48006818B9052087
:1052D000574908713BE0574843785948008882B2E3
:1052E000584801684046FEF7BCFC0020544908605D
:1052F0002DE0022C21D153480068534909688842A7
:1053000012D04C484378C288C088DFF838C1DCF836
:1053100000C0ACEB000103E074E059E037E017E0B7
:105320004046FEF79EFC12E042484378C28845485A
:1053300001684046FEF795FC09E0042C07D10120E6
:105340004249087008203A490871052048716CE00C
:105350000520374948713E4888603F2088810D26E6
:1053600004E000203A498855701EC6B2002EF8D1DC
:105370000020374908702F4803782D483F22816864
:105380004046FEF73EFC0620294908714DE02948B9
:1053900001784046FCF77AF90446012C0FD1002031
:1053A000264908600520224948710846807808701F
:1053B00049464046FFF75AFD1D49C87307E0042CD3
:1053C00005D10020214908700720194908712CE0F7
:1053D000002249464046FFF70FFD054665B91B48C8
:1053E0000078022803D108201149087109E010480B
:1053F00040790F49087104E0042D02D102200C49C4
:10540000C87312E0012249464046FFF7F5FC054605
:1054100025B9074840790649087104E0042D02D1F6
:1054200002200349C87300E000BF00BFBDE8F08759
:10543000141A0020241A0020E41900208001002002
:105440007001002074010020780100207C01002000
:10545000041A002010B504462046FCF752F948B162
:105460000748084908600848486000204873012040
:105470000649C8700020064908600649087010BD3A
:1054800055534243E419002050403020141A0020A4
:10549000800100208401002070B504460D461048AC
:1054A000407860B10E484178204601F08CFC0C48F1
:1054B00041782046FEF73BFD002009494870084826
:1054C000007860B106480178204601F07CFC044871
:1054D00001782046FEF72BFD00200149087070BDC1
:1054E000241A00207CB506460D462C4694F843004D
:1054F000082856D194F84500502852D194F852000B
:1055000010F0800F07D094F852002949C870B4F801
:105510005400888006E094F8520025498870B4F859
:105520005400C88094F85A0010F0800F07D094F807
:105530005A001F49C870B4F85C00888006E094F8EF
:105540005A001B498870B4F85C00C88018488178FC
:105550003046FEF743FB164948700846C17830468E
:10556000FEF73CFB124908700846C0880221CDE9CD
:1055700000102120035D94F820200D48417830462A
:1055800000F02EFB0A4880880221CDE9001021207E
:10559000035D94F8202006480178304600F020FB97
:1055A00003E0D4F88010086C804700207CBD000028
:1055B000241A002070B5054603262846FCF7A1F8FA
:1055C000002855D02B48C078012802D002284DD1A0
:1055D00027E03F2028498860802008730A208873CC
:1055E00026482449886005208870102405E00021A1
:1055F00021480F300155601EC4B2002CF7D11A208B
:105600001D49C8733F211C484174C17401201949C8
:105610000871072008700320C8730220C870032691
:1056200025E01448C07B80B91448807810F0800FC2
:1056300003D001201249087302E0002010490873CA
:1056400001200C49C87000260FE00A48C07B0128E1
:1056500003D10849C870012607E00648C07B02282C
:1056600003D101200349C870022600E000BF00BF3B
:10567000304670BD141A0020E4190020E415002003
:10568000D4150020FFB581B007460E461D46032005
:10569000394908703846FCF734F8002867D0374895
:1056A000C078012802D002285FD139E034488560F3
:1056B0008020334908730A2088733048866010249C
:1056C00005E000212E480F300155601EC4B2002CA9
:1056D000F7D128202A49C8739DF80F102848417433
:1056E0009DF80E1081749DF80D10C1749DF80C107A
:1056F0000175C5F34F2000909DF801102048817579
:105700009DF80010C17501201C4908710720087020
:105710000320C8730220C87003201749087025E0D1
:105720001648C07B50B93846FBF7EBFF30B101207B
:105730001249C87000201049087015E00F48C07B5E
:10574000012807D13846FBF7DCFF18B101200B49CF
:10575000C87009E00948C07B022805D1012007492B
:10576000C87002200449087000E000BF00BF024872
:10577000007805B0F0BD00006F010020141A002071
:10578000E419002070B5054603262846FBF7B9FF4B
:1057900000285AD02E48C078012802D0022852D1C1
:1057A00023E008202B498860802008730A20887332
:1057B00029482749886004208870102405E00021CA
:1057C00024480F300155601EC4B2002CF7D12520AB
:1057D0002049C87301201E49087107200870032062
:1057E000C8730220C87003262EE01948C07BC8B9D0
:1057F000194800781949C8701748407888701648C9
:10580000807848701448C07808701348817913482C
:1058100041721148C0791149087201200C49C870C1
:1058200000260FE00A48C07B012803D10849C87050
:10583000012607E00648C07B022803D10120044965
:10584000C870022600E000BF00BF304670BD0000F7
:10585000141A0020E4190020E4150020D4150020BB
:1058600070B5054603262846FBF74BFF00285DD0A0
:105870002F48C078012802D0022855D12BE03F20C4
:105880002C498860802008730A2088732A48284998
:10589000886008468078487006208870102405E0EB
:1058A000002124480F300155601EC4B2002CF7D1EE
:1058B00003202049C87300211E4801743F21C17490
:1058C00001201B490871072008700320C8730220BB
:1058D000C870032629E01648C07BA0B91648017895
:1058E0001648C17114484178144881711248817872
:1058F000124841711048C0781049087101200C49C4
:10590000C87000260FE00A48C07B012803D108496F
:10591000C870012607E00648C07B022803D1012099
:105920000349C870022600E000BF00BF304670BDCA
:10593000141A0020E4190020E4150020D4150020DA
:1059400070B5054603262846FBF7DBFE002846D047
:105950002448C078012802D002283ED124E000204B
:105960002149886008730620887320481D49886093
:105970003F20888103208870102405E000211A4808
:105980000F300155601EC4B2002CF7D1002016491B
:10599000C873012013490871072008700320C873D9
:1059A0000220C870032619E00E48C07B20B90120F0
:1059B0000C49C87000260FE00A48C07B012803D1BB
:1059C0000849C870012607E00648C07B022803D1B9
:1059D00001200449C870022600E000BF00BF304625
:1059E00070BD0000141A0020E4190020041A0020E1
:1059F0002DE9FF4182B007460E461D464FF00308D1
:105A00003846FBF77EFE00285BD03048C07801287E
:105A100002D0022853D138E02D48856000202C495F
:105A200008730A20887329488660102405E0002145
:105A300027480F300155601EC4B2002CF7D12A2030
:105A40002349C8739DF81310214841749DF8121022
:105A500081749DF81110C1749DF810100175C5F383
:105A60004F2001909DF80510194881759DF804108C
:105A7000C175012015490871072008700320C873FB
:105A80000220C8704FF003081AE01048C07B28B904
:105A900001200E49C8704FF000080FE00B48C07B92
:105AA000012802D10949C87008E00848C07B0228D3
:105AB00004D101200549C8704FF0020800E000BF82
:105AC00000BF404606B0BDE8F0810000141A002077
:105AD000E41900202DE9F04704460D4617461E46FE
